:020000040800F2
:1000000000500020090B0008C9080008CD080008AE
:10001000D1080008D5080008FD080008000000000D
:10002000000000000000000000000000C7080008F9
:10003000CB08000800000000CF080008810A000873
:1000400038B50D46024640F60004C4F201042046CD
:10005000022100F099FC20460421002200F094FCCB
:1000600020460821012200F08FFCC5F3C002204683
:10007000802100F089FCC5F380022046402100F079
:1000800083FCC5F340022046202100F07DFC05F0F2
:1000900001022046102100F077FC482000BF013803
:1000A000FCD120460821002200F06EFC482000BF51
:0800B00000BF0138FCD138BD8E
:1000B80010B5044614F8010B002808BF10BD00F065
:0400C8009DFCF7E7BD
:1000CC0038B5044600F0D8FC054640F20C00C2F2EC
:1000DC000000611C007818BF044400BF00F0CCFC89
:0800EC00401BA042FAD338BD0D
:1000F4002DE9F04F82B00E68002E00F0DC8041F252
:100104000042C4F201020423904208BF0323009377
:100114000023A2F580524FF0010E4FF00F0C002780
:10012400BA4600BF0EFA0AFB16EA0B0500F0BB80C4
:100134004E684FF6FF74C1F21004A64208DC032E89
:100144002BD8DFE806F020023438CF6838E000BF4F
:1001540004F58814A6420BDC0024C1F21104A64263
:1001640011D004F58034A6420DD004F5702408E0C3
:100174000134A64207D004F57024A64203D004F546
:100184008034A6421CD18C687CB10827012C14BF92
:10019400C0F814B0C0F810B012E0112E0DD0122E19
:1001A40004BFCC6804F10C070AE0042708E0CC681B
:1001B40004F1080704E0002702E0CC68271D00BF13
:1001C400FF2D1C46814684BF203C09F104090CFA2A
:1001D40004F6D9F8008028EA060807FA04F444EA89
:1001E4000804C9F80040CC79E4065CD541F218084B
:1001F400C4F20208D8F8004044F00104C8F80040F2
:10020400D8F8004004F001040194019C2AF003048E
:10021400A2F57E7640F600083459C4F20108404540
:100224000FD008F58068404508D008F58068DDF8EF
:100234000090404508BF4FF0020904E04FF0010967
:1002440001E04FF0000903F00C0809FA08F90CFA70
:1002540008F824EA08044FEA9A0844EA090446F82C
:1002640028404E68F402946854BFAC432C43946015
:10027400B40240F20C44C4F20104246854BFAC43F9
:100284002C4340F20C48C4F20108C8F80040B403FF
:10029400546854BFAC432C435460F403146854BFF3
:1002A400AC432C4314600AF1010A0E68043336FA95
:0C02B4000AF47FF437AF02B0BDE8F08F11
:1002C0002DE9F04182B0040000F02E812078C007B3
:1002D00041F20006C4F202060BD0706800F00C0078
:1002E00004283CD13068800303D56068002800F002
:1002F0001B812078800719D5706810F00C0F07D08B
:10030000706800F00C00082845D17068C00342D422
:100310003068800703D52069012840F005816069B5
:10032000316821F0F80141EAC00030602078000710
:1003300069D5A069002840F20000C4F2422040D0F4
:100340000121C0F8801400F09DFB0546706A80070B
:1003500047D400F097FB401B0228F7D91DE17068D5
:1003600000F00C00082802D17068C003BAD461689C
:100370003068002900F01581B1F5A02F00F0F98058
:10038000B1F5803F00F0F98020F4803030603068B3
:1003900020F48020F3E02069002840F20000C4F23D
:1003A000422066D00121016000F06CFB054600BFD1
:1003B00030688007B3D400F065FB401B0228F7D9F2
:1003C000EBE00021C0F8801400F05CFB054600BFA4
:1003D000706A800717D500F055FB401B0228F7D93B
:1003E000DBE040F20800C2F2000044F6D35100689E
:1003F000C1F26201A0FB0101480A019000BF01980F
:1004000001380190FAD22078400777D5F0695FEA89
:10041000C00808D4F06940F08050F061F06900F045
:1004200080500090009847F20007C4F20007386837
:10043000C00510D4386840F48070386000F022FBAA
:10044000054600BF3868C00505D400F01BFB401B03
:100450006428F7D9A1E0E168306A81B3052919D091
:1004600001291BD020F001003062306A20F0040026
:1004700016E00021016000F005FB054630688007AA
:100480007FF554AF00F0FEFA401B02284FF0030046
:10049000F4D983E040F004003062306A40F001009B
:1004A000306200F0EFFA054641F28837306A800783
:1004B0001DD400F0E7FA401BB842F7D96DE020F0F8
:1004C00001003062306A20F00400306200F0DAFA95
:1004D000054641F2883700BF306A800707D500F033
:1004E000D1FA401BB8424FF00300F5D956E0B8F1FD
:1004F000000F5EBFF06920F08050F061E7698FB1B6
:10050000706800F00C00082810D1012F0CD0216A6F
:10051000706800F480328A4206D1616A00F470107B
:10052000884201D1002039E0012037E040F2000884
:10053000C4F242280020C8F8600000F0A3FA054683
:10054000022F0BD13068800142D500F09BFA401B8E
:1005500002284FF00300F5D920E000BF3068800189
:10056000E0D500F08FFA401B02284FF00300F5D9C8
:1005700014E040F480203060306840F48030306017
:1005800000F080FA054600BF306880033FF5B1AE49
:1005900000F078FA401B6428F6D9032002B0BDE8C9
:1005A000F08120F480303060306820F480203060AA
:1005B00000F068FA054600BF306880037FF599AE09
:1005C00000F060FA401B64284FF00300F4D9E5E71F
:1005D000206AB0F5803F05D1A168726822F400322C
:1005E00011437160616A726822F474121143084306
:1005F00070600120C8F8600000F044FA044600BFB3
:10060000306880013FF58EAF00F03CFA001B0228F5
:080610004FF00300F4D9C1E72B
:100618002DE9F843040074D042F20006C4F2020641
:100628000D46306800F00700884209D2306820F093
:10063800070028433060306800F00700A84260D106
:1006480020688107A6F6FC7711D5410742BF3968B3
:1006580041F4E0613960010742BF396841F46051F3
:100668003960A1683A6822F0F00211433960C00786
:100678003AD1306800F00700A84209D9306820F064
:10068800070028433060306800F00700A84238D1DE
:100698002068410705D5E1683A6822F4E062114311
:1006A8003960000706D52069396821F4605141EAAC
:1006B800C000386000F069F93968C1F3031140F6E9
:1006C8002932C0F60002515CC84040F20801C2F26B
:1006D8000001086040F20400C2F20000006800F067
:1006E8000AF90020BDE8F88357F8041C606802285E
:1006F80005D0012808D1890308D4BDE8F883890109
:1007080004D40120BDE8F8838907FAD5396821F0B7
:1007180003010843386000F0B1F9804641F2883996
:100728006068396801F00C01B1EB800FA1D000F0CE
:10073800A5F9A0EB08004845F2D90320BDE8F883E5
:10074800034C206804348047FBE700F003F8FEE719
:040758004C0B00083E
:10075C0086B000F0BAF800F083F80027CDE90477F2
:10076C0041F21800C4F20200CDE90277016841F0B1
:10077C0010010160016801F01001019101990168FB
:10078C0041F020010160016801F020010191019903
:10079C00016841F004010160006800F00400019060
:1007AC00019840F60009C4F2010909F5006A4FF4FA
:1007BC00005650463146002200F0E0F84846FE2133
:1007CC008846002200F0DAF80225CDE904750124F0
:1007DC00CDE90264504602A9FFF786FCCDE9047509
:1007EC00CDE90284484602A9FFF77EFC00F014F91B
:1007FC00812000F0F1F840F61D30C0F60000FFF744
:10080C0055FC4FF47A70FFF75BFCC02000F0E4F865
:0E081C0040F61030C0F60000FFF748FCFEE783
:10082A0082B041F21800C4F202000222016841F0CB
:10083A0001010160016801F001010191019941681A
:10084A0041F080514160406800F08050009000986B
:10085A000420C4F20100016862F31A61016002B067
:02086A007047D5
:10086C0030B58FB00024CDE90A44CDE908444FF4EB
:10087C00E0100E904FF480300225CDE90C50CDE9FC
:10088C00060401200590099005A8FFF713FD10B18F
:10089C0072B600BFFEE704944FF48060CDE90240CD
:1008AC000F20CDE9000568460221FFF7AFFE0028B6
:0A08BC0004BF0FB030BD72B6FEE7B6
:0208C600704779
:0208C800FEE749
:0208CA00704775
:0208CC00FEE745
:0208CE00704771
:0208D000FEE741
:0208D20070476D
:0208D400FEE73D
:1008D60080B542F20000C4F20200016841F0100146
:1008E6000160032000F0D1F80F2000F005F8FFF7B3
:0608F60099FF002008BD7F
:0208FC00FEE715
:1008FE0038B5044640F20C00C2F200004FF47A7193
:10090E000078B1FBF0F040F20801C2F20001096874
:10091E00B1FBF0F000F01EF801250F2C0BD850B9EA
:10092E00002521460022501E00F0BBF840F20400C4
:0A093E00C2F200000460284638BD34
:1009480040F20C00C2F2000040F20001C2F20001C5
:0A09580000780A6810440860704738
:100962000138010E1CBF012070474EF21001CEF279
:100972000001486001F61350F022027000208860E6
:0609820007220A60704725
:0A098800002A08BF0904016170474E
:1009920041F20401C4F202010A6802F00C000828C4
:1009A20041F20020C0F27A0018BF7047C2F38343BD
:1009B200D20340F63932C0F60002D25C05D440F6CA
:1009C2000010C0F23D005043704750430968C1F324
:1009D200404140F61B32C0F60002515CB0FBF1F020
:0209E20070475C
:1009E40010B5044601090020FFF728FB04F00F01AD
:1009F4000020FFF723FB0220BDE81040FFF764BB93
:100A040010B5044601090120FFF718FB04F00F019B
:100A14000120FFF713FB0220BDE81040FFF754BB91
:100A240080B51420FFF750FB00200321FFF706FBDD
:100A34000520FFF749FB00200321FFF7FFFA0120FF
:100A4400FFF742FB00200321FFF7F8FA0120FFF72C
:100A54003BFB00200221FFF7F1FA0120FFF734FBF2
:100A64002820FFF7BDFF0C20FFF7BAFF0120FFF796
:0C0A7400B7FF0620BDE80840FFF7B2BF46
:040A8000FFF762BF5B
:0C0A840040F20000C2F200000068704761
:100A90004EF60C51CEF200014FF6FF030A681A40E1
:100AA00060F30A2242F0806040F0FD7008607047F9
:100AB00010B54EF60C5CCEF2000CDCF80030C3F33F
:100AC000022EBEF103048EF0070338BF0024042B6E
:100AD00028BF04234FF0FF3E0EFA03F399430EFAAA
:100AE00004F39A43A1401143002800F00F0200F1E3
:100AF0006040A2F10402624454BF00F5644002F178
:080B00000C000901017010BD99
:080B0800FFF7E3FEFFF71CFEFE
:0B0B10006869206D6179206E69270084
:020B1B000102D5
:0C0B1D0068656C6C6F20776F726C640070
:100B29000000000000000000010203040607080994
:100B390002030405060708090A0B0C0D0E0F101015
:100B4C00790B000800000020040000008B0B00084B
:100B5C00040000206C0B000809000000530700087B
:0C0B6C001000000000127A0001000000E0
:100B7800206861680834002200E042540139FCD53D
:020B88007047B4
:100B8A0020686168A2680C3401E08B5C8354013AE6
:040B9A00FBD57047D0
:0400000508000B09DB
:00000001FF
