:020000040800F2
:1000000000180020FD230008090A00080B0A000858
:100010000D0A00080F0A0008110A0008000000007D
:10002000000000000000000000000000130A0008AB
:10003000150A000800000000170A0008190A000845
:1000400045240008452400084524000845240008EC
:1000500045240008452400084524000845240008DC
:1000600045240008452400084524000845240008CC
:1000700045240008452400084524000845240008BC
:1000800045240008452400084524000845240008AC
:10009000452400084524000845240008452400089C
:1000A000452400084524000845240008452400088C
:1000B00045240008452400080000000045240008ED
:1000C000452400080000000000000000452400084E
:1000D000000000004524000845240008000000003E
:1000E00045240008452400084524000800000000BD
:1000F0000000000000000000000000000000000000
:0C01000000000000000000005FF808F1A3
:10010C0080F0004002E000BF81F0004142001FBFC0
:10011C005FEA410392EA030F7FEA226C7FEA236CC9
:10012C006AD04FEA1262D2EB1363C1BFD2184140BE
:10013C0048404140B8BF5B42192B88BF704710F054
:10014C00004F40F4000020F07F4018BF404211F0F7
:10015C00004F41F4000121F07F4118BF494292EA5F
:10016C00030F3FD0A2F1010241FA03FC10EB0C008B
:10017C00C3F1200301FA03F100F0004302D5494218
:10018C0060EB4000B0F5000F13D3B0F1807F06D3C5
:10019C0040084FEA310102F10102FE2A51D2B1F1BD
:1001AC00004F40EBC25008BF20F0010040EA0300B2
:1001BC007047490040EB0000013A28BFB0F5000F32
:1001CC00EDD2B0FA80FCACF1080CB2EB0C0200FAE8
:1001DC000CF0AABF00EBC25052421843BCBFD04037
:1001EC001843704792F0000F81F4000106BF80F4B1
:1001FC0000000132013BB5E74FEA41037FEA226C74
:10020C0018BF7FEA236C21D092EA030F04D092F03E
:10021C00000F08BF0846704790EA010F1CBF002072
:10022C00704712F07F4F04D1400028BF40F00040CF
:10023C00704712F100723CBF00F50000704700F0EF
:10024C00004343F0FE4040F4000070477FEA226216
:10025C0016BF08467FEA23630146420206BF5FEAE7
:10026C00412390EA010F40F4800070474FF00003E7
:10027C0004E000BF10F0004348BF40425FEA000CAE
:10028C0008BF704743F0964301464FF000001CE056
:10029C0050EA010208BF70474FF000030AE000BFAC
:1002AC0050EA010208BF704711F0004302D54042EA
:1002BC0061EB41015FEA010C02BF8446014600205C
:1002CC0043F0B64308BFA3F18053A3F50003BCFA77
:1002DC008CF2083AA3EBC25310DB01FA02FC634424
:1002EC0000FA02FCC2F12002BCF1004F20FA02F22B
:1002FC0043EB020008BF20F00100704702F120021E
:10030C0001FA02FCC2F1200250EA4C0021FA02F27E
:10031C0043EB020008BF20EADC7070474FF0FF0C83
:10032C001CEAD0521EBF1CEAD15392EA0C0F93EA7E
:10033C000C0F6FD01A4480EA010C400218BF5FEA20
:10034C0041211ED04FF0006343EA501043EA511193
:10035C00A0FB01310CF00040B1F5000F3EBF49008D
:10036C0041EAD3715B0040EA010062F17F02FD2A91
:10037C001DD8B3F1004F40EBC25008BF20F0010074
:10038C00704790F0000F0CF0004C08BF49024CEA8B
:10039C00502040EA51207F3AC2BFD2F1FF0340EA1D
:1003AC00C250704740F400004FF00003013A5DDC8E
:1003BC0012F1190FDCBF00F000407047C2F10002CF
:1003CC00410021FA02F1C2F1200200FA02FC5FEABC
:1003DC00310040F1000053EA4C0308BF20EADC7006
:1003EC00704792F0000F00F0004C02BF400010F478
:1003FC00000F013AF9D040EA0C0093F0000F01F025
:10040C00004C02BF490011F4000F013BF9D041EA46
:10041C000C018FE70CEAD15392EA0C0F18BF93EA48
:10042C000C0F0AD030F0004C18BF31F0004CD8D172
:10043C0080EA010000F00040704790F0000F17BFF9
:10044C0090F0004F084691F0000F91F0004F14D03F
:10045C0092EA0C0F01D142020FD193EA0C0F03D197
:10046C004B0218BF084608D180EA010000F000409A
:10047C0040F0FE4040F40000704740F0FE4040F475
:10048C00400070474FF0FF0C1CEAD0521EBF1CEA14
:10049C00D15392EA0C0F93EA0C0F69D0A2EB030232
:1004AC0080EA010C49024FEA402037D04FF08053CC
:1004BC0043EA111143EA10130CF000408B4238BF91
:1004CC005B0042F17D024FF4000C8B4224BF5B1A9F
:1004DC0040EA0C00B3EB510F24BFA3EB510340EAED
:1004EC005C00B3EB910F24BFA3EB910340EA9C009B
:1004FC00B3EBD10F24BFA3EBD10340EADC001B010B
:10050C0018BF5FEA1C1CE0D1FD2A3FF650AF8B42AE
:10051C0040EBC25008BF20F0010070470CF0004CBB
:10052C004CEA50207F32C2BFD2F1FF0340EAC250E6
:10053C00704740F400004FF00003013A37E792F0A7
:10054C00000F00F0004C02BF400010F4000F013A05
:10055C00F9D040EA0C0093F0000F01F0004C02BF00
:10056C00490011F4000F013BF9D041EA0C0195E769
:10057C000CEAD15392EA0C0F08D142027FF47DAF02
:10058C0093EA0C0F7FF470AF084676E793EA0C0FF2
:10059C0004D14B023FF44CAF08466EE730F0004CF0
:1005AC0018BF31F0004CCAD130F000427FF45CAF80
:1005BC0031F000437FF43CAF5FE700BF4FF0FF3CEE
:1005CC0006E000BF4FF0010C02E000BF4FF0010C41
:1005DC004DF804CD4FEA40024FEA41037FEA226C0A
:1005EC0018BF7FEA236C11D001B052EA530C18BF2C
:1005FC0090EA010F58BFB2EB030088BFC81738BF91
:10060C006FEAE17018BF40F0010070477FEA226C7E
:10061C0002D15FEA402C05D17FEA236CE4D15FEA7A
:10062C00412CE1D05DF8040B704700BF84460846AE
:10063C006146FFE70FB5FFF7C9FF002848BF10F16F
:10064C00000F0FBD4DF808EDFFF7F4FF0CBF0120B4
:10065C0000205DF808FB00BF4DF808EDFFF7EAFF3E
:10066C0034BF012000205DF808FB00BF4DF808EDF9
:10067C00FFF7E0FF94BF012000205DF808FB00BFEE
:10068C004DF808EDFFF7D2FF94BF012000205DF874
:10069C0008FB00BF4DF808EDFFF7C8FF34BF012081
:1006AC0000205DF808FB00BF0348044B834202D0D6
:1006BC00034B03B1184770470C0000200C000020BE
:1006CC00000000000548064B1B1AD90F01EBA301D3
:1006DC00491002D0034B03B1184770470C0000209F
:1006EC000C0000200000000010B5064C237843B924
:1006FC00FFF7DAFF044B13B10448AFF3008001237A
:10070C00237010BD0C00002000000000A024000885
:10071C0008B5054B1BB105490548AFF30080BDE892
:10072C000840FFF7CFBF00BF000000001000002002
:10073C00A024000830B589B00024049405940694D4
:10074C000794184B9A6942F010029A619A6902F068
:10075C0010020192019A9A6942F020029A619A69F8
:10076C0002F020020292029A9A6942F004029A6103
:10077C009B6903F004030393039B0B4D22464FF438
:10078C000051284601F016FA4FF40053049301234C
:10079C00059306940223079304A9284601F0FAF85E
:1007AC0009B030BD001002400010014072B6FEE7E7
:1007BC0000B585B000230193029303930F48104AB0
:1007CC0002608360037303754FF46022C26143605F
:1007DC000123036100F004FC60B9002301930122A2
:1007EC000292039301A9054800F076FA20B905B0EE
:1007FC005DF804FBFFF7DAFFFFF7D8FF28000020B5
:10080C000024014010B596B0002412941394149453
:10081C0015941094119409940A940B940C940D94BF
:10082C000E940F942022214601A801F02BFE2B4898
:10083C002B4B03604723436084604FF4A673C36063
:10084C00046144618023836101F004FB002838D1EA
:10085C004FF48053129312A9204801F0FFFB00289B
:10086C0031D11E4801F022FB00282ED10023109319
:10087C00119310A9194801F05FFD40BB6023099347
:10088C0000220A920B920C920D920E920F9209A9D1
:10089C00124801F069FBE0B9002301930293039322
:1008AC004822049205934FF400520692089301A932
:1008BC000A4801F073FD70B9084800F013F916B03E
:1008CC0010BDFFF773FFFFF771FFFFF76FFFFFF727
:1008DC006DFFFFF76BFFFFF769FF00BF58000020AB
:1008EC00002C014000B595B0282200210DEB020030
:1008FC0001F0C8FD00230593069307930893099311
:10090C00019302930393049301220A924FF48033D0
:10091C000B930E920222119212934FF4E013139345
:10092C000AA800F041FCC8B90F23059302210691D7
:10093C00002307934FF480620892099305A800F0F6
:10094C0065FE68B9022301934FF40043039301A899
:10095C0000F028FF30B915B05DF804FBFFF726FF57
:10096C00FFF724FFFFF722FF10B500F0E3FBFFF7C2
:10097C00B9FFFFF7DFFEFFF71BFFFFF743FF1A4C32
:10098C000021204601F0F8FB0021204601F06EFC0E
:10099C0005E001224FF40051144801F00BF9144CFE
:1009AC00204600F07DFA0A21204600F0CFF82046C0
:1009BC0000F08EF980B2FFF759FC0E49FFF762FD8B
:1009CC000D49FFF7ABFC084B1B68A6225A634FF08E
:1009DC007E51FFF741FE0028DBD100224FF400517D
:1009EC00024801F0E7F8DAE7580000200010014057
:1009FC002800002000F07F4500004040FEE7FEE7A5
:100A0C00FEE7FEE7FEE770477047704708B500F059
:100A1C00A3FB08BD82B00E4B9A6942F001029A61A9
:100A2C009A6902F001020092009ADA6942F080524F
:100A3C00DA61DB6903F080530193019B054A53682B
:100A4C0023F0E06343F00073536002B0704700BFC3
:100A5C00001002400000014000B587B00023029353
:100A6C000393049305930268114B9A4202D007B08A
:100A7C005DF804FB03F56C439A6942F400729A61C9
:100A8C009A6902F400720092009A9A6942F0040288
:100A9C009A619B6903F004030193019B0123029368
:100AAC000323039302A9034800F074FFDFE700BFA0
:100ABC0000240140000801400268094B9A4200D012
:100ACC00704782B003F564439A6942F400629A61FC
:100ADC009B6903F400630193019B02B0704700BF54
:100AEC00002C014000B587B00023029303930493BC
:100AFC0005930268124B9A4202D007B05DF804FBD2
:100B0C0003F564439A6942F004029A619B6903F00D
:100B1C0004030193019B4FF4C073029302230393CC
:100B2C00059302A9074800F035FF074A536823F0E4
:100B3C00C00343F0E06343F040035360DDE700BFC4
:100B4C00002C01400008014000000140F0B583B0CA
:100B5C0005460C460023019300F00AFB2B689A68AB
:100B6C0012F4807F23D107465A6812F4807F03D198
:100B7C00DB6A13F4700F29D0504B1E68022000F072
:100B8C009DFEB6FBF0F62B6819694D4A114236D121
:100B9C00D96802F15C42114231D11969494A1142BA
:100BAC0040D1DA68484B1A423ED0292341E0AB6A67
:100BBC0043F02003AB62002385F82430012003B0FE
:100BCC00F0BD2B681B6813F0020F0FD02B681B684D
:100BDC0013F0020F4FD1B4F1FF3FF7D0002CF0D03F
:100BEC0000F0C6FAC31BA342F0D9EAE7AB6A43F0A4
:100BFC000403AB62002385F824300320DFE7196976
:100C0C00304A114204D1D96802F16E4211420DD022
:100C1C0019692E4A0A405AB9DA682C4B13405BB159
:100C2C00FC2306E0292304E0142302E0542300E013
:100C3C00FC2303FB06F607E05423FAE7019BB342BF
:100C4C0010D3019B01330193019BB34213D2B4F136
:100C5C00FF3FF6D0002CF1D000F08AFAC01BA04266
:100C6C00EFD9EBE7AB6A43F00403AB62002385F8E2
:100C7C0024300320A3E72B686FF012021A60AB6AD2
:100C8C0043F40073AB622B689B6803F46023B3F5E9
:100C9C00602F01D0002092E7287B60B9AB6A23F467
:100CAC008073AB62AB6A13F4805F88D1AB6A43F09C
:100CBC000103AB6283E7002081E700BF080000203E
:100CCC0024499224922449129224490049922400E6
:100CDC000368D86C7047000030B482B000220192D7
:100CEC0090F82420012A00F08F800346012280F81E
:100CFC0024204A68062A2DD80468606B02EB820215
:100D0C00053A4FF01F0C0CFA02FC20EA0C000D689F
:100D1C0005FA02F2024362630A68092A38D91C6890
:100D2C00E06802EB42021E3A4FF0070C0CFA02FC90
:100D3C0020EA0C008D6805FA02F20243E2600A68B0
:100D4C00103A012A34D90020002283F8242002B062
:100D5C0030BC70470C2A0DD80568286B02EB820258
:100D6C00233A1F24944020EA04000C68944020434A
:100D7C002863D1E70568E86A02EB8202413A1F2436
:100D8C00944020EA04000C6894402043E862C3E7D6
:100D9C001C68206902EB42024FF0070C0CFA02FCB3
:100DAC0020EA0C008D6805FA02F202432261C6E7C4
:100DBC001A681648824205D09A6A42F020029A625A
:100DCC000120C1E7906810F4000F1BD1906840F42B
:100DDC00000090600A68102A01D00020B4E70C4A89
:100DEC0012680C49A1FB0212920C02EB8202520017
:100DFC00019202E0019A013A0192019A002AF9D17A
:100E0C000020A1E700209FE70220A0E7002401407A
:100E1C000800002083DE1B4330B583B00023019310
:100E2C0003689A6812F0010F33D104469A6842F0B5
:100E3C0001029A60184B1B68184AA2FB03239B0CF7
:100E4C00019302E0019B013B0193019B002BF9D123
:100E5C0000F08EF9054623689B6813F0010F16D13C
:100E6C0000F086F9431B022BF5D923689B6813F01D
:100E7C00010FF0D1A36A43F01003A362E36A43F0BD
:100E8C000103E362002384F82430012002E00020F7
:100E9C0000E0002003B030BD0800002083DE1B43BF
:100EAC0090F82430012B68D010B50446012380F84B
:100EBC002430FFF7B1FF00285BD1A36A23F4407301
:100ECC0023F0010343F48073A36223682C4A9342FA
:100EDC0027D0A26A22F48012A2625A6812F4806FA0
:100EEC0005D0A26A22F4405242F48052A262A26A55
:100EFC0012F4805F2BD0E26A22F00602E26200223A
:100F0C0084F824206FF002021A6023689A6802F4B5
:100F1C006022B2F5602F1DD09A6842F480129A605C
:100F2C002AE0A2F58062526812F4702FD1D0A26A26
:100F3C0042F48012A262134A526812F4806FD6D027
:100F4C00A26A22F4405242F48052A262CFE70022FD
:100F5C00E262D4E70A4A934204D09A6842F4A002AF
:100F6C009A6009E0A2F58062526812F4702FD3D116
:100F7C00F3E7002384F8243010BD0220704700BF33
:100F8C00002801400024014038B503689A6812F02B
:100F9C00010F01D1002038BD04469A6822F00102ED
:100FAC009A6000F0E5F8054623689B6813F0010F82
:100FBC0013D000F0DDF8431B022BF5D923689B6896
:100FCC0013F0010FF0D0A36A43F01003A362E36A9D
:100FDC0043F00103E3620120DDE70020DBE70000C2
:100FEC0000287BD070B50446836A002B4DD0204678
:100FFC00FFF7CAFFA36A13F0100369D1002867D169
:10100C00A26A22F4885222F0020242F00202A26288
:10101C006268E1690A43217B42EA4102A568B5F5A1
:10102C00807F02D0012D36D01D46267D012E35D075
:10103C002668716821F46941294371602568AE689E
:10104C00274931401143A960A168B1F5807F01D0D7
:10105C00012902D12369013B1B052568E96A21F4AA
:10106C0070010B43EB62236899681E4B0B409A424C
:10107C0025D0A36A23F0120343F01003A362E36AA2
:10108C0043F00103E362012027E0C36280F82430BF
:10109C00FFF7E2FCABE74FF48075C6E731B9A16905
:1010AC00013945EA413141F40065C1E7A16A41F0DB
:1010BC002001A162E16A41F00101E162B8E700237D
:1010CC00E362A36A23F0030343F00103A36204E089
:1010DC00A36A43F01003A362012070BD0120704786
:1010EC00FDF7E1FFFE0E1FFF10B504460E4B1A78FC
:1010FC004FF47A73B3FBF2F30C4A1068B0FBF3F0C5
:10110C0000F0A8FD68B90F2C01D901200AE00022DB
:10111C0021464FF0FF3000F065FD054B1C600020B0
:10112C0000E0012010BD00BF0000002008000020DE
:10113C000400002008B5074A136843F0100313603D
:10114C00032000F03DFD0F20FFF7CEFFFFF762FC00
:10115C00002008BD00200240034A1168034B1B7895
:10116C000B441360704700BFA0000020000000205B
:10117C00014B1868704700BFA000002082B0084BDC
:10118C001B68084AA2FB03235B0A00FB03F30193D1
:10119C0000BF019B5A1E0192002BF9D102B070477F
:1011AC0008000020D34D6210002800F0F18170B5CA
:1011BC0082B00446036813F0010F2CD0994B5B6886
:1011CC0003F00C03042B1DD0964B5B6803F00C034F
:1011DC00082B12D06368B3F5803F41D0002B55D15A
:1011EC0003F1804303F504331A6822F480321A6049
:1011FC001A6822F480221A6037E08A4B5B6813F479
:10120C00803FE7D0874B1B6813F4003F03D0636823
:10121C00002B00F0BF81236813F0020F75D0814BB7
:10122C005B6813F00C0F5FD07E4B5B6803F00C0314
:10123C00082B54D02369002B00F08A807A4B0122B2
:10124C001A60FFF795FF0546764B1B6813F0020FEB
:10125C0075D1FFF78DFF401B0228F5D903209EE1C5
:10126C00704A136843F480331360636843B3FFF729
:10127C007FFF05466B4B1B6813F4003FCBD1FFF788
:10128C0077FF401B6428F5D9032088E1B3F5A02F24
:10129C0009D0644B1A6822F480321A601A6822F45E
:1012AC0080221A60E1E703F18043A3F53C331A680E
:1012BC0042F480221A601A6842F480321A60D4E731
:1012CC00FFF756FF0546574B1B6813F4003FA2D09F
:1012DC00FFF74EFF401B6428F5D903205FE1514B0B
:1012EC005B6813F4803FA5D14E4B1B6813F0020FC3
:1012FC0003D02369012B40F04F814A4A136823F035
:10130C00F803616943EAC1031360236813F0080F03
:10131C0033D0A369002B5CD0434B0122C3F880244B
:10132C00FFF726FF05463F4B5B6A13F0020F21D1F6
:10133C00FFF71EFF401B0228F5D903202FE1394A85
:10134C00136823F0F803616943EAC1031360DCE717
:10135C00354B00221A60FFF70BFF0546314B1B681B
:10136C0013F0020FD1D0FFF703FF401B0228F5D971
:10137C00032014E10120FFF701FF236813F0040F91
:10138C0000F09680274BDB6913F0805F34D1254B3E
:10139C00DA6942F08052DA61DB6903F08053019321
:1013AC00019B0125214B1B6813F4807F26D0E36839
:1013BC00012B3DD0002B53D103F1804303F50433B3
:1013CC001A6A22F001021A621A6A22F004021A62E4
:1013DC0033E0154B0022C3F88024FFF7C9FE054605
:1013EC00104B5B6A13F0020FC7D0FFF7C1FE401B16
:1013FC000228F5D90320D2E00025D3E70B4A136865
:10140C0043F480731360FFF7B3FE0646074B1B686B
:10141C0013F4807FCBD1FFF7ABFE801B6428F5D98A
:10142C000320BCE00010024000004242007000406B
:10143C005F4A136A43F001031362E36833B3FFF7A7
:10144C0097FE06465A4B1B6A13F0020F2FD1FFF77B
:10145C008FFE801B41F288339842F3D903209EE023
:10146C00052B09D0524B1A6A22F001021A621A6A31
:10147C0022F004021A62E0E74D4B1A6A42F00402B1
:10148C001A621A6A42F001021A62D6E7FFF770FE7E
:10149C000646474B1B6A13F0020F08D0FFF768FE95
:1014AC00801B41F288339842F3D9032077E0E5B9E9
:1014BC00E369002B72D03E4A526802F00C02082AF3
:1014CC0056D0022B17D03B4B00221A66FFF750FE6A
:1014DC000446374B1B6813F0007F47D0FFF748FEDC
:1014EC00001B0228F5D9032059E0314AD36923F0B7
:1014FC008053D361DCE72F4B00221A66FFF738FECE
:10150C0005462B4B1B6813F0007F06D0FFF730FE0F
:10151C00401B0228F5D9032041E0236AB3F5803F34
:10152C001AD023494B6823F47413226A606A02436D
:10153C0013434B601F4B01221A66FFF719FE04463A
:10154C001B4B1B6813F0007F0ED1FFF711FE001B25
:10155C000228F5D9032022E0154A536823F40033FE
:10156C00A1680B435360DCE7002018E0002016E074
:10157C00012B16D00E4B5B6803F48031226A91422A
:10158C0011D103F47013626A93420ED1002006E06D
:10159C0001207047012002E0012000E0002002B091
:1015AC0070BD0120FBE70120F9E70120F7E700BF40
:1015BC0000100240000042420F4B5B6803F00C022B
:1015CC00082A01D00D487047C3F383420C49885C4C
:1015DC0013F4803F0BD0084B5B68C3F34043094ABC
:1015EC00D35C064A02FB00F0B0FBF3F07047064BED
:1015FC0003FB00F0704700BF0010024000127A009D
:10160C00B8240008C824000800093D00002800F098
:10161C00A08070B50D460446524B1B6803F00703BF
:10162C008B420BD24F4A136823F007030B43136012
:10163C00136803F007038B4240F08D80236813F08E
:10164C00020F17D013F0040F04D0474A536843F429
:10165C00E0635360236813F0080F04D0424A5368C8
:10166C0043F460535360404A536823F0F003A1687D
:10167C000B435360236813F0010F31D06368012BC7
:10168C0020D0022B25D0384A126812F0020F64D0F9
:10169C0035494A6822F0030213434B60FFF768FD9B
:1016AC000646314B5B6803F00C036268B3EB820FA8
:1016BC0016D0FFF75DFD801B41F288339842F0D9BC
:1016CC00032045E0284A126812F4003FE0D10120C3
:1016DC003EE0254A126812F0007FD9D1012037E094
:1016EC00204B1B6803F00703AB420AD91D4A136851
:1016FC0023F007032B431360136803F00703AB427B
:10170C002DD1236813F0040F06D0174A536823F425
:10171C00E063E1680B435360236813F0080F07D0B4
:10172C00114A536823F46053216943EAC10353609F
:10173C00FFF742FF0C4B5B68C3F303130B4AD35CFC
:10174C00D8400B4B18600B4B1868FFF7CDFC0020F2
:10175C0070BD012070470120FAE70120F8E7012055
:10176C00F6E700BF0020024000100240E024000811
:10177C000800002004000020014B1868704700BFCF
:10178C000800002008B5FFF7F7FF044B5B68C3F3B4
:10179C00C223034AD35CD84008BD00BF00100240EE
:1017AC00F024000870B582B00446036813F0010FF2
:1017BC0036D03F4BDB6913F0805F49D13C4BDA6983
:1017CC0042F08052DA61DB6903F080530193019B94
:1017DC000125384B1B6813F4807F3BD0344B1B6ABC
:1017EC0013F4407313D0626802F440729A420ED024
:1017FC002F4A136A23F440702F490126C1F8406424
:10180C000026C1F84064106213F0010F36D1284A4B
:10181C00136A23F4407361680B431362002D3ED1AD
:10182C00236813F0020F06D0214A536823F4404377
:10183C00A1680B435360236813F0100F34D01C4A7B
:10184C00536823F48003E1680B43536000202CE0C1
:10185C000025BEE7174A136843F480731360FFF743
:10186C0087FC0646134B1B6813F4807FB6D1FFF739
:10187C007FFC801B6428F5D9032016E0FFF778FC69
:10188C0006460B4B1B6A13F0020FC0D1FFF770FC1E
:10189C00801B41F288339842F3D9032005E0D369C9
:1018AC0023F08053D361BBE7002002B070BD00BFB2
:1018BC0000100240007000400000424208B50228AF
:1018CC004ED0102803D0012828D0002008BD2B4B67
:1018DC005A68186810F08070F8D0C2F38343284916
:1018EC00C85C12F4803F15D0244B5B68C3F34043B3
:1018FC00244AD25C244BB3FBF2F303FB00F01F4BE6
:10190C005B6813F4800FE1D14000204BA3FB003047
:10191C004008DBE71E4B03FB00F0F0E7174B1B6A9C
:10192C0040F202321A40B2F5817F24D003F44073A6
:10193C00B3F5007F04D0B3F5407F09D00020C5E794
:10194C000E4A526A12F0020FF5D049F64040BDE73C
:10195C000A4B186810F40030B8D04FF22440B5E7A9
:10196C00FFF710FF054B5B68C3F3813301335B005A
:10197C00B0FBF3F0AAE74FF40040A7E700100240D9
:10198C00CC240008DC24000800127A00ABAAAAAA16
:10199C0000093D0070B582B00024A4468BE07F4D59
:1019AC00AB4210D007D97E4DAB420CD005F580353B
:1019BC00AB4208D015E0A5F58015AB4203D005F578
:1019CC007025AB4209D18B68002B00F0BF80012B36
:1019DC0000F0B7804261082403E0A5F58015AB4206
:1019EC00F1D0BEF1FF0F00F2B3800646BEF1FF0F3F
:1019FC0000F2B0804FEA8C0233680F25954023EA41
:101A0C00050304FA02F2134333604B6813F0805F52
:101A1C004FD0644B9A6942F001029A619B6903F0C2
:101A2C0001030193019B4FEA9C02951C5E4B53F8FA
:101A3C0025600CF00305AD000F23AB4026EA03062E
:101A4C005A4B984200F08C8003F58063984200F06A
:101A5C00898003F58063984200F080800323AB40BB
:101A6C0033430232504D45F822304B6813F4801F3B
:101A7C007AD04F4A936843EA0E0393604B6813F491
:101A8C00001F77D04A4AD36843EA0E03D3604B68F1
:101A9C0013F4003F74D0464A536843EA0E03536074
:101AAC004B6813F4803F71D0414A136843EA0E032C
:101ABC0013600CF1010C0B6833FA0CF26CD00122A0
:101ACC0002FA0CF203EA020E32EA0303F1D14B687C
:101ADC00122B3FF664AF122B83D801A555F823F0D7
:101AEC00D3190008391B0008431B0008551B0008BC
:101AFC00EF190008EF190008EF190008EF1900089A
:101B0C00EF190008EF190008EF190008EF19000889
:101B1C00EF190008EF190008EF190008EF19000879
:101B2C00EF1900083D1B0008491B0008CC6858E75A
:101B3C00CC68043455E7CC68083452E7CC680C34D4
:101B4C004FE7026108244CE700244AE7042448E7E5
:101B5C00061D4BE7ACF1080292004DE702237EE72D
:101B6C0000237CE701237AE7114A936823EA0E03EA
:101B7C00936083E70E4AD36823EA0E03D36086E7AB
:101B8C000B4A536823EA0E03536089E7084A13682B
:101B9C0023EA0E0313608CE702B070BD0000221024
:101BAC00000031100010024000000140000801400C
:101BBC00000401400AB101617047090401617047DA
:101BCC00074AD36823F4E0631B041B0C000200F4E7
:101BDC00E060034343F0BF6343F40033D3607047CA
:101BEC0000ED00E000B5194BDB68C3F30223C3F131
:101BFC00070CBCF1040F28BF4FF0040C03F1040ECA
:101C0C00BEF1060F18D9033B4FF0FF3E0EFA0CFC49
:101C1C0021EA0C0199400EFA03FE22EA0E020A4355
:101C2C0000280BDB1201D2B200F1604000F56140DC
:101C3C0080F800235DF804FB0023E5E700F00F00BB
:101C4C001201D2B2024B1A54F4E700BF00ED00E0CF
:101C5C0014ED00E00138B0F1807F0BD24FF0E0239F
:101C6C005861054AF02182F8231000209861072260
:101C7C001A6170470120704700ED00E030B4026A31
:101C8C00036A23F0010303624568836923F073033D
:101C9C000C681C4322F002028B6813430D4A9042DD
:101CAC0009D00C4A90420DD0456084614A68426369
:101CBC00036230BC704723F00803CA681A4322F051
:101CCC000403EEE725F440754A692A438D691543F0
:101CDC00EAE700BF002C014030B4036A026A22F428
:101CEC00807202624468C26922F073020D68154367
:101CFC0023F400738A6843EA02230F4A904209D006
:101D0C000D4A90420ED04460C5614A68C2630362BA
:101D1C0030BC704723F40063CA6843EA022323F4FF
:101D2C008063EDE724F440544A6944EA02148A695A
:101D3C0044EA0214E7E700BF002C014030B4036A08
:101D4C00026A22F4805202624468C26922F4E642BA
:101D5C000D6842EA052223F400538D6843EA0533EB
:101D6C00074DA84206D04460C2614A68026403620F
:101D7C0030BC704724F480444D6944EA8514F2E782
:101D8C00002C014010B4036A046A24F001040462BC
:101D9C00846924F0F00C4CEA021223F00A030B4382
:101DAC008261036210BC704710B4036A046A24F0A9
:101DBC0010040462846924F4704C4CEA023223F05F
:101DCC00A00343EA01138261036210BC704783686D
:101DDC0023F070030B4343F0070383607047704795
:101DEC0003681B4A904206D0B0F1804F03D0A2F595
:101DFC009432904203D123F070034A681343144A7F
:101E0C00904206D0B0F1804F03D0A2F594329042AC
:101E1C0003D123F44073CA68134323F080034A6947
:101E2C00134303608B68C3620B688362084B984250
:101E3C000AD001234361036913F0010F03D0036936
:101E4C0023F00103036170470B690363F1E700BFE3
:101E5C00002C014040B310B5044690F83D30F3B16E
:101E6C00022384F83D30214651F8040BFFF7B8FFEC
:101E7C00012384F8463084F83E3084F83F3084F8EF
:101E8C00403084F8413084F8423084F8433084F890
:101E9C00443084F8453084F83D30002010BD80F883
:101EAC003C30FEF709FEDBE70120704740B310B56C
:101EBC00044690F83D30F3B1022384F83D302146BE
:101ECC0051F8040BFFF78CFF012384F8463084F89B
:101EDC003E3084F83F3084F8403084F8413084F848
:101EEC00423084F8433084F8443084F8453084F828
:101EFC003D30002010BD80F83C30FFF770FFDBE771
:101F0C000120704730B4036A026A22F010020262A8
:101F1C004468826922F4E6420D6842EA052223F005
:101F2C0020038D6843EA05130E4DA84209D00D4DD0
:101F3C00A8420ED0446082614A688263036230BC5E
:101F4C00704723F08003CD6843EA051323F0400368
:101F5C00EDE724F440644D6944EA85048D6944EA54
:101F6C008504E7E7002C014038B590F83C30012B94
:101F7C0066D004460D46012380F83C300C2A5AD812
:101F8C00DFE802F0075959591B5959593059595919
:101F9C0044000068FFF772FE2268936943F008035F
:101FAC0093612268936923F0040393612268936917
:101FBC0029690B43936100203EE00068FFF7A2FF04
:101FCC002268936943F4006393612268936923F454
:101FDC008063936122689369296943EA01239361C1
:101FEC00002029E00068FFF777FE2268D36943F0F0
:101FFC000803D3612268D36923F00403D3612268F8
:10200C00D36929690B43D361002015E00068FFF701
:10201C0095FE2268D36943F40063D3612268D369C7
:10202C0023F48063D3612268D369296943EA0123CD
:10203C00D361002000E00120002384F83C3038BD3F
:10204C000220FCE710B4846824F47F4C42EA03229B
:10205C000A4342EA0C02826010BC704790F83C3094
:10206C00012B78D010B50446012380F83C300223B4
:10207C0080F83D300268936823F47F4323F07703A4
:10208C0093600B68602B4CD029D8402B54D00CD9C2
:10209C00502B22D1CA6849680068FFF773FE5021A3
:1020AC002068FFF794FE002005E0202B0DD009D905
:1020BC00302B0AD00120012384F83D30002384F812
:1020CC003C3010BD0BB1102B05D119462068FFF721
:1020DC007EFE0020EFE70120EDE70120EBE7B3F5F2
:1020EC00805F34D0B3F5005F0CD1CB684A68896847
:1020FC000068FFF7A7FF2268936843F4804393605E
:10210C000020D8E7702B24D1CB684A688968006816
:10211C00FFF798FF2268936843F0770393600020E1
:10212C00C9E7CA6849680068FFF73EFE602120686D
:10213C00FFF74DFE0020BEE7CA6849680068FFF74C
:10214C0021FE40212068FFF742FE0020B3E700206B
:10215C00B1E70120AFE70220704701F01F014FF0FB
:10216C00010C0CFA01FC036A23EA0C030362036AF8
:10217C008A4013430362704710B50446084631BBCE
:10218C0094F83E30DBB2013B18BF0123002B57D132
:10219C00002835D1022384F83E3001220146206804
:1021AC00FFF7DBFF2368284A934239D02368264A7D
:1021BC0093423AD0B3F1804F37D0A2F59432934288
:1021CC0033D01A6842F001021A60002039E0042969
:1021DC0008D008290DD094F84130DBB2013B18BF70
:1021EC000123D3E794F83F30DBB2013B18BF012346
:1021FC00CCE794F84030DBB2013B18BF0123C5E7B4
:10220C00042805D0082807D0022384F84130C4E7FD
:10221C00022384F83F30C0E7022384F84030BCE747
:10222C005A6C42F400425A64C0E79A6802F0070202
:10223C00062A07D01A6842F001021A60002000E05A
:10224C00012010BD0020FCE7002C014001F00F0123
:10225C004FF0040C0CFA01FC036A23EA0C03036232
:10226C00036A8A40134303627047000010B50446AA
:10227C00084639BB94F84230DBB2013B18BF01234E
:10228C00002B53D1002836D1022384F8423004228B
:10229C0001462068FFF7DAFF2268536C43F40043D1
:1022AC0053642368234A934235D0B3F1804F32D024
:1022BC00A2F5943293422ED01A6842F001021A60B1
:1022CC00002034E0042908D008290DD094F84530BA
:1022DC00DBB2013B18BF0123D2E794F84330DBB2E9
:1022EC00013B18BF0123CBE794F84430DBB2013B30
:1022FC0018BF0123C4E7042805D0082807D00223FF
:10230C0084F84530C3E7022384F84330BFE7022347
:10231C0084F84430BBE79A6802F00702062A07D01B
:10232C001A6842F001021A60002000E0012010BD82
:10233C000020FCE7002C014090F83C20012A28D01A
:10234C0010B40346012280F83C20022280F83D2084
:10235C0002685068946820F0700C086840EA0C0021
:10236C0050601A680C48824206D0B2F1804F03D0FC
:10237C00A0F59430824204D124F0800449682143B2
:10238C009160012283F83D20002083F83C0010BCB2
:10239C0070470220704700BF002C0140024690F8A5
:1023AC003C30012B21D0012380F83C30CB6823F446
:1023BC0040738868034323F480634868034323F421
:1023CC0000630868034323F480530869034323F430
:1023DC0000534869034323F48043C9690B431168D4
:1023EC004B64002082F83C00704702207047704715
:1023FC00FFF7FDFF0B480C490C4A002302E0D458B0
:10240C00C4500433C4188C42F9D3094A094C002334
:10241C0001E013600432A242FBD300F00FF8FEF788
:10242C00A3FA7047000000200C00002000250008D3
:10243C000C000020A4000020FEE7000070B5002670
:10244C000C4D0D4C641BA410A64209D100F022F8CF
:10245C0000260A4D0A4C641BA410A64205D170BD7F
:10246C0055F8043B98470136EEE755F8043B98477E
:10247C000136F2E7F8240008F8240008F8240008D4
:10248C00FC24000803460244934200D1704703F831
:10249C00011BF9E7F8B500BFF8BC08BC9E467047B5
:0C24AC00F8B500BFF8BC08BC9E467047A5
:1024B80002030405060708090A0B0C0D0E0F10107D
:1024C8000102000002030405060708090A0B0C0DA7
:1024D8000E0F1010010200000000000000000000B4
:1024E80001020304060708090000000001020304B2
:0424F8001D070008B4
:0424FC00F5060008D9
:0C250000010000001000000000127A0032
:04000005080023FDCF
:00000001FF
