:020000040800F2
:1000000008070020BD010008F1160008E9160008E5
:10001000ED160008AD0400081517000800000000E8
:10002000000000000000000000000000FD160008B5
:10003000B104000800000000F516000801170008D0
:10004000D7010008D7010008D7010008D701000830
:10005000D7010008F9160008D7010008D7010008E9
:10006000D7010008D7010008D7010008D701000810
:10007000D7010008D7010008D7010008D701000800
:10008000D7010008D7010008D7010008D7010008F0
:10009000D7010008D7010008D7010008D7010008E0
:1000A000D7010008D7010008D7010008D7010008D0
:1000B00009170008D7010008D7010008D701000878
:1000C000D7010008D7010008D7010008D7010008B0
:1000D000D7010008D7010008D7010008D7010008A0
:1000E000D7010008D7010008D701000800F002F886
:1000F00000F055F814A696E8000CB244B344DA4573
:1001000001D100F04CF8BAE80F000FA696E83000D5
:10011000A5EB040504EB0607AAEB0704A7F101070A
:100120004FEA15154FEA3414A4F10104AC4201D38F
:1001300000F035F813F0010F18BFFB1A43F001036C
:1001400000F001F8DBE71847A4170000C41700000F
:10015000103A24BF78C878C1FAD8520724BF30C8F3
:1001600030C144BF04680C60704700007047000055
:100170000023002400250026103A28BF78C1FBD8B0
:10018000520728BF30C148BF0B607047642900F098
:100190007D80002070471FB51FBD10B510BD00F059
:1001A0004AF91146FFF7F7FF01F0B6FA00F068F9D7
:1001B00003B4FFF7F2FF03BC00F070F90948804771
:1001C00009480047FEE7FEE7FEE7FEE7FEE7FEE739
:1001D000FEE7FEE7FEE7FEE704480549054A064B51
:1001E0007047000005170008ED0000080801002016
:1001F0000807002008030020080300200FB41CB5E6
:10020000074B06AA7B4469460090059800F0FBF86E
:100210000020694600F00AF91CBC5DF814FB0000E0
:10022000250200002DE9F0410E4604460020206220
:100230002046E168884730B3252805D0D4E901215C
:100240009047206A401CF2E7E16820460027884773
:10025000050018D0A5F14100192802D820354FF427
:1002600000673246294620462760FFF78FFF40B1DE
:10027000012804D0F61D26F007060836D8E7361DFB
:10028000D6E72846DAE7206ABDE8F0812DE9F0419B
:100290000646002410687529314616A510D0AFF324
:1002A0000080002802DA404213A507E031688A077F
:1002B00001D512A502E0490704D511A5012401E0EA
:1002C000AFF3008000210A2206F1240709E0B0FB09
:1002D000F2FCB0FBF2F302FB1C00303078541846FD
:1002E000491C0028F3D123462A463046BDE8F04198
:1002F00000F02AB8000000002D0000002B000000D4
:100300002000000010B5431C02E010F8011B71B181
:100310008107FAD14FF0013202C88C1A8C4314EADB
:10032000C211F9D0C01A0A0603D0C01E10BDC01AEF
:1003300010BD0A0401D0801E10BD0902FCD0401E71
:1003400010BD7047704770472DE9F0470D4699463C
:100350009246044600F124080168880604D5E06945
:1003600021F01001216000E00120A84201DD471BBF
:1003700000E00027A1697A1902EB0900081AA061C0
:100380002078C00602D42046AFF30080002608E0A3
:10039000D4E901211AF806009047206A401C761C17
:1003A00020624E45F4DB2078C0060AD52046AFF324
:1003B000008006E0D4E9012130209047206A401CEB
:1003C0002062381EA7F10107F4DC07E0D4E901211F
:1003D00018F805009047206A401C2062281EA5F1ED
:1003E0000105F3DC2046AFF300802078000602D53B
:1003F0000220BDE8F0870120FBE7000001694A1CEC
:1004000002610878704700B58FB0CDE90131002155
:10041000059105497944CDE9031011466846FFF777
:1004200001FF0FB000BD0000E5FFFFFF0A6802F802
:10043000010B0A607047754600F02CF8AE460500C7
:100440006946534620F00700854618B020B5FFF7EF
:10045000C3FEBDE820404FF000064FF000074FF00C
:1004600000084FF0000BAC46ACE8C009ACE8C0098E
:10047000ACE8C009ACE8C00921F007018D4670471F
:1004800010B50446AFF300802046BDE81040FFF7EA
:100490008FBE00000048704710000020014918205E
:1004A000ABBEFEE72600020070470000FEE700003A
:1004B000704700002DE9F04F82B00E68002E00F06A
:1004C000FD8041F20042C4F20102042340F2004EDA
:1004D000904208BF03234FF6FF7CC4F2010E009345
:1004E00000240123C1F2100C4FF0000A4FF0000964
:1004F0004BE000BF41F20002C4F20102009F9042B3
:1005000008BF022704F00C030F229A402BEA0202D4
:1005100007FA03F34FEA9A051A4346F825204E6876
:1005200040F20C45F202DEF8082054BF22EA08022D
:1005300042EA0802C4F20105CEF808202A68B30294
:1005400054BF22EA080242EA08022A60B303DEF836
:10055000042054BF22EA080242EA0802F303CEF85C
:100560000420DEF800204FF0010354BF22EA080205
:1005700042EA0802CEF800200E680AF1010A36FAB3
:100580000AF204F1040400F0998003FA0AFB16EA67
:100590000B08F1D04E68664512DC122E56D8DFE803
:1005A00006F0350B4D49555555555555555555552D
:1005B00055555545510000BFD1F80C9046E000BF9D
:1005C0004FF6FF72C1F2210296420FDC0022C1F207
:1005D000110296421AD00022C1F21202964215D0A0
:1005E0000022C1F22102964210D02FE00022C1F277
:1005F000220296420AD00022C1F23102964205D070
:100600000022C1F23202964220D100BF8A684AB16C
:10061000012A14BFC0F814B0C0F810B04FF0080998
:1006200014E000BF4FF0040910E000BFCA6802F1F7
:1006300004090BE04FF0000908E000BFCA6802F1AE
:10064000080903E0CA6802F10C0900BF0246264609
:10065000B8F5807F24BF0432203E17680F25B540CF
:1006600027EA050509FA06F635431560CA79D20668
:100670007FF582AF41F21803C4F202031A68AEF5A7
:100680007E7642F001021A601A6802F001020192BD
:10069000019A2AF0030256F802B040F60002C4F2B2
:1006A0000102904208D040F60042C4F2010290429A
:1006B0007FF420AF012725E7002723E702B0BDE83C
:1006C000F08F000040F20010C2F200000068704796
:1006D00040F2000040F20011C2F20000C2F200013C
:1006E00000780A68104408607047000080B542F244
:1006F0000000C4F20200016841F010010160032013
:1007000000F094F80F2000F005F800F027F8002022
:1007100080BD000070B540F20006C2F2000640F253
:1007200008013278C2F200014FF47A730968B3FB12
:10073000F2F20446B1FBF2F1084600F08DFB0F2CFB
:100740004FF0010508D838B94FF0FF30214600229C
:10075000002500F03FF87460284670BD80B582B077
:1007600041F21800C4F202000168002241F00101C8
:100770000160016801F0010101910199416841F0B6
:10078000805141604068002100F080500090009846
:10079000052000F01FF8052000F00AF80420C4F23C
:1007A00001000168022262F31A61016002B080BD9B
:1007B000002848BF704700F01F01012202FA01F132
:1007C0001C2202EAD0004EF20012CEF2000281504A
:1007D0007047000010B54EF60C5CCEF2000CDCF851
:1007E0000030C3F3022E8EF00704042C28BF04242B
:1007F000BEF103034FF0FF3E0EFA04F438BF0023AE
:10080000A14399400EFA03F39A43114300F00F02FB
:1008100000F160430901043A03F56443624400288F
:1008200048BF02F10C03197010BD00004EF60C51C8
:10083000CEF200010A684FF6FF031A4060F30A2265
:1008400042F0806040F0FD7008607047002804BFEF
:10085000012070472DE9F04381B042F20008C4F254
:1008600002080446D8F800000D4600F00700884250
:100870000CD2D8F8000020F007002843C8F8000088
:10088000D8F8000000F00700A8426CD1206841F2BF
:1008900004098107C4F2020917D5410705D5D9F823
:1008A000001041F4E061C9F80010010705D5D9F83E
:1008B000001041F46051C9F80010D9F80010A26886
:1008C00021F0F0011143C9F80010C00742D1D8F857
:1008D000000000F00700A8420CD9D8F8000020F072
:1008E00007002843C8F80000D8F8000000F007000F
:1008F000A84238D12068410707D5D9F80010E2682E
:1009000021F4E0611143C9F80010000708D5D9F8B7
:100910000000216920F4605040EAC100C9F80000DD
:10092000D9F8002002F00C00082841F20020C0F2A3
:100930007A004DD141F6DA03C2F38341C0F60003D9
:10094000595CD20338D440F60010C0F23D00484351
:100950003EE000BF606859F8041C022808D0012856
:1009600026D1890306D4012001B0BDE8F08300BF81
:100970008901F8D5D9F8001021F003010843C9F81E
:100980000000FFF79FFE064641F28837D9F80000C5
:10099000616800F00C00B0EB810F98D0FFF792FE79
:1009A000801BB842F2D9032001B0BDE8F08300BF3C
:1009B0008907D8D5DEE700BFD9F8002041F6D80373
:1009C000C2F34042C0F600039A5C4843B0FBF2F029
:1009D000D9F8001041F6C002C1F30311C0F60002BD
:1009E000515C40F2080220FA01F140F20400C2F228
:1009F00000000068C2F200021160FFF78BFE0020C9
:100A000001B0BDE8F083000040F2080041F20401AB
:100A1000C2F20000C4F202010068096841F6D00287
:100A2000C1F30221C0F60002515CC84070470000CB
:100A300040F2080041F20401C2F20000C4F20201D7
:100A40000068096841F6D002C1F3C221C0F6000275
:100A5000515CC84070470000002804BF0120704767
:100A60002DE9F04182B00446007841F20006C0074B
:100A7000C4F202060CD0706800F00C00042840F0AC
:100A800081803068800303D56068002800F04681CB
:100A9000207880071BD5706810F00C0F09D07068A3
:100AA00000F00C00082840F087807068C00300F157
:100AB00083803068800703D52069012840F02E81AB
:100AC0003068616920F0F80040EAC10030602078A9
:100AD000000713D4207840072CD4E569002D00F0DE
:100AE0001881706800F00C00082840F0A780012DE4
:100AF00040F00481012002B0BDE8F081A069002827
:100B000000F084800020C4F242200121C0F880144B
:100B1000FFF7D8FD054600BF706A800700F1B2807C
:100B2000FFF7D0FD401B0228F6D9032002B0BDE834
:100B3000F08100BFF0695FEAC00808D4F06940F0B6
:100B40008050F061F06900F080500090009847F20A
:100B50000007C4F200073868C00549D4386840F47B
:100B600080703860FFF7AEFD054600BF3868C005ED
:100B70003ED4FFF7A7FD401B6428F7D9032002B03D
:100B8000BDE8F081706800F00C00082803D170689F
:100B9000C0033FF576AF61683068002900F00C8132
:100BA000B1F5A02F00F00081B1F5803F40F01A812F
:100BB00040F480301CE100BF2069002840F20000B2
:100BC000C4F2422000F0888001210160FFF77AFD25
:100BD000054600BF306880073FF572AFFFF772FD32
:100BE000401B0228F6D9032002B0BDE8F08100BF07
:100BF000E168306A002900F09D80052900F09280AC
:100C0000012940F0AF8040F00100B1E00020C4F2C3
:100C100042200021C0F88014FFF754FD054600BFB4
:100C2000706A80077FF556AFFFF74CFD401B022826
:100C3000F6D9032002B0BDE8F08100BF0027C4F25E
:100C4000422700203866FFF73DFD022D05460DD1F5
:100C50003068800140F1DE80FFF734FD401B022840
:100C60004FF00300F4D902B0BDE8F0813068800194
:100C70004FD5FFF727FD401B02284FF00300F5D9A1
:100C8000F1E700BF40F20800C2F20000006844F63D
:100C9000D351C1F26201A0FB0101480A019000BFDB
:100CA00000BF0198411E002801913FF413AF00BF1F
:100CB0000198411E002801913FF40CAF00BF01983C
:100CC000411E002801913FF405AF00BF0198411E6D
:100CD00000280191E4D1FDE600210160FFF7F2FC5C
:100CE000054600BF306880077FF5F1AEFFF7EAFCEC
:100CF000401B02284FF00300F4D9B4E77068216A62
:100D000000F480328A4209D1616A00F4701088428E
:100D100004D1002002B0BDE8F08100BF012002B084
:100D2000BDE8F08140F004003062306A40F001001C
:100D30001EE000BF20F001003062306A20F00400A5
:100D40003062FFF7BFFC054641F28837306A800702
:100D500020D5FFF7B7FC401BB8424FF00300F5D990
:100D600081E700BF20F001003062306A20F004000B
:100D70003062FFF7A7FC054641F28837306A8007EA
:100D800008D4FFF79FFC401BB842F7D9032002B0FC
:100D9000BDE8F081B8F1000F3FF59FAEF06920F09B
:100DA0008050F06199E600BF40F4802030603068E8
:100DB00040F480301CE000BF20F4803030603068A8
:100DC00020F480203060FFF77DFC0546306880030A
:100DD0007FF55EAEFFF776FC401B64284FF0030002
:100DE000F4D940E720F480303060306820F480206F
:100DF0003060FFF767FC0546306880033FF548AE7A
:100E0000FFF760FC401B6428F6D9032002B0BDE860
:100E1000F08100BF206AB0F5803F05D17168A268FB
:100E200021F40031114371607168626A21F4741118
:100E300011430843706001203866FFF743FC044605
:100E4000306880013FF565AFFFF73CFC001B0228CE
:100E50004FF00300F4D906E7411E0020B0EB116FFC
:100E60001CBF012070474EF21002CEF2000251600A
:100E70004EF62351CEF20001F0230B700721906053
:100E800011607047704700007047000090F83C20E8
:100E9000012A4FF0020236D010B580F83D200268DA
:100EA000D2F804E0D2F808C00C682EF07003234397
:100EB00040F2FF74C4F20004A24253600ADCB2F1B3
:100EC000804F13D040F20043C4F200039A420DD089
:100ED00011E000BF42F60043C4F201039A4205D07C
:100EE00040F60003C4F200039A4204D149682CF092
:100EF0008003194391600121002280F83D1080F8A1
:100F00003C20BDE81040104670470000002804BF98
:100F10000120704710B590F83D1031B9002180F8DC
:100F20003C10044600F070F82046022180F83D1085
:100F3000016840F2FF740B68C4F2000442F6004CF2
:100F4000A142C4F2010C15DCB1F1804F1AD040F27D
:100F50000042C4F20002914214D0A14218DCB1F167
:100F6000804F1DD040F20042C4F20002914217D0DF
:100F70001AE000BF614505D040F60002C4F200024D
:100F80009142EAD1826823F070031343A142E6DD67
:100F9000614505D040F60002C4F20002914203D13F
:100FA000026923F440731343846923F08002D0F86C
:100FB00004E0C368224361450A60CB62C1F828E0BF
:100FC00002D14269CCF8302001224A610B69DB076B
:100FD00003D00B6923F001030B6180F8462080F8F1
:100FE0003E2080F83F2080F8402080F8412080F8A3
:100FF000422080F8432080F8442080F8452080F883
:101000003D20002010BD000080B586B000680021A2
:10101000B0F1804FCDE904110391029102D006B0E6
:1010200080BD00BF41F21800C4F20200426842F0E5
:1010300001024260426802F001020192019A0268D4
:1010400042F004020260006800F004000190019880
:101050000120CDE9020140F600000491C4F2010034
:1010600002A9FFF727FA1C2000210022FFF7B2FB9C
:101070001C20FFF79DFB06B080BD000090F83D10DE
:1010800001291CBF01207047022180F83D10006833
:1010900040F2FF72C168C4F20002904241F00101C7
:1010A000C16009DCB0F1804F12D040F20041C4F2BF
:1010B000000188420CD012E042F60041C4F2010166
:1010C000884205D040F60001C4F20001884206D1F2
:1010D000816801F00701062904BF002070470168FC
:1010E00041F00101016000207047000090F83C20B1
:1010F000012A4FF002026CD080B580F83D20D0F874
:1011000000C04FF67772DCF8083023EA0202CCF810
:1011100008200B684F2B29DC1F2B45DD202B46D0E8
:10112000302B44D0402B40F0AF80D1F804E0C968A8
:10113000DCF82030DCF8202022F00102CCF820205E
:10114000DCF8182022F0F00242EA011123F00A0232
:1011500042EA0E02CCF81810CCF82020DCF8081077
:1011600041F0470121F0300128E000BF6F2B33DD53
:10117000B3F5005F74D0B3F5805F21D0702B40F0E1
:101180008380D1E901E3C968DCF8082043EA0E0353
:1011900022F47F4243EA01211143CCF80810DCF825
:1011A000081041F0770109E00BB1102B6CD1DCF88D
:1011B000081021F07001194341F00701CCF8081024
:1011C0000022012180F83D10002180F83C10BDE88C
:1011D00080401046704700BF502B21D0602B53D168
:1011E000D1F804E0C968DCF82030DCF8202022F0D7
:1011F0001002CCF82020DCF8182022F4704242EAD9
:10120000013123F0A00242EA0E12CCF81810CCF8FB
:101210002020DCF8081041F0670121F01001CDE733
:10122000D1F804E0C968DCF82030DCF8202022F096
:101230000102CCF82020DCF8182022F0F00242EA6B
:10124000011123F00A0242EA0E02CCF81810CCF881
:101250002020DCF8081041F0570121F02001ADE713
:10126000D1E901E3C968DCF8082043EA0E0322F45F
:101270007F4243EA01211143CCF80810DCF8081042
:1012800041F480419AE700BF01229AE770470000CD
:1012900070B504460068C5680669B10716D515F033
:1012A000020113D06FF002010161012121778069F1
:1012B000800703D02046FFF7E9FF05E0204600F055
:1012C0008FF8204600F08EF800202077700719D59F
:1012D00015F0040016D020686FF0040101610221AE
:1012E0002177806910F4407F04D02046FFF7CEFFBD
:1012F00006E000BF204600F073F8204600F072F8C8
:1013000000202077300717D515F0080014D020688A
:101310006FF00801016104212177C069800703D0C3
:101320002046FFF7B3FF05E0204600F059F82046BD
:1013300000F058F800202077F00619D515F01000BD
:1013400016D020686FF01001016108212177C06973
:1013500010F4407F04D02046FFF798FF06E000BF5E
:10136000204600F03DF8204600F03CF800202077B1
:10137000F00718BF15F0010002D1300609D412E0C1
:1013800020686FF001010161204600F02DF8300661
:1013900009D515F0800006D020686FF0800101614A
:1013A0002046FFF76FFD700609D515F0400006D006
:1013B00020686FF040010161204600F017F8B00688
:1013C00058BF70BD15F0200008D021686FF02002D2
:1013D00020460A61BDE87040FFF756BD70BD0000B1
:1013E0007047000070470000704700007047000021
:1013F000002804BF0120704710B5044690F8410052
:1014000028B9002084F84000204600F063F824202A
:1014100084F841002068D4E90212C36823F4005321
:10142000C360036923F440531A430261D4E90423DF
:101430001143C268194341F20C639A431143C160DE
:101440004169A26921F44071114343F60002C4F2DC
:1014500001029042416103D0FFF7D6FA02E000BFDB
:10146000FFF7E6FAD4E90023192148439900B0FBBD
:10147000F1F048F21F5CC5F2EB1CA0FB0C314FF6FB
:101480009C734909C0F6FF7301FB0300322303EB91
:101490000010A0FB0C03F02000EA531000EB011039
:1014A000C3F34311084490601069202120F4904058
:1014B0001061506920F02A005061D06840F400505B
:1014C000D0600020606484F8411084F842106063AA
:1014D00010BD000070B586B040F60004C4F20104EF
:1014E000006804F54051002688420596CDE9036660
:1014F000029601D006B070BD41F21800C4F202009D
:10150000016802AD41F480410160016801F480414D
:1015100001910199016841F00401016000682946C8
:1015200000F00400019001984FF400700290022036
:101530000390032005902046FEF7BCFF4FF4806027
:10154000CDE90206204629460496FEF7B3FF06B011
:1015500070BD00002DE9F04381B0044690F84100D1
:10156000202809D100294FF0010018BF002A07D117
:1015700001B0BDE8F08300BF022001B0BDE8F083F8
:101580000020606421201D460E4684F84100174665
:10159000FFF798F8A784E784A1688146B1F5805FDA
:1015A00002D1206900285DD037460020E28C2168F6
:1015B000002A5DD06A1C24D0002D4AD0804600BF8E
:1015C0000868000608D4FFF77DF8A0EB0900A842E0
:1015D0007AD82168C868F3E717B117F8010B04E05F
:1015E00038F8020B00276FF35F204860E08C013869
:1015F000E084E08C0028E3D13AE000BF0A681206DC
:1016000009D40A68120606D40A6812065CBF0A6882
:101610005FEA0262F2D51FB117F8012B05E000BFA7
:1016200030F8022B00276FF35F224A60E28C013A08
:10163000E284E28C002AE4D11AE000BF30F8022BE9
:1016400000276FF35F224A60E28C013AE284E28C69
:1016500072B10A68120635D5002FEFD017F8012BAA
:10166000F1E700BF00273046E28C2168002AA1D1B3
:10167000086840061ED42DB3681C14D108684006C3
:101680002AD40868400627D40868400624D408688D
:1016900040064FF00000F1D50DE000BF2068C168A2
:1016A0000068400618D4FFF70DF8A0EB0900A84227
:1016B000F4D909E00020202184F8411001B0BDE8F0
:1016C000F08300BFFEF7FEFF0320202184F84110C5
:1016D00001B0BDE8F08300BF0020202184F8411054
:1016E00001B0BDE8F0830000FEE70000FEE7000067
:1016F000FEE70000704700007047000070470000E0
:10170000FEF7E6BF7047000040F27000C2F2000032
:10171000FFF7BEBDFEE7000094B0FEF7E7FF002430
:101720000120CDE90644CDE90444019005904FF431
:10173000E0104FF4803102250A9001A8CDE902148F
:10174000CDE90851FFF788F920B1EFF3108072B6A8
:10175000FEE700BF0F20CDE90E054FF48060CDE914
:1017600011040EA802211094FFF770F820B1EFF3D6
:10177000108072B6FEE700BF41F21800C4F202000A
:101780000168002441F02001016001684FF6FF72FA
:1017900001F0200101910199016841F0040101600B
:1017A00000684FF0804100F004000190019840F281
:1017B0007000C2F20000C0E900148021CDE90E449F
:1017C000C0E9024204618161FFF7A0FB20B1EFF3A1
:1017D000108072B6FEE700BF4FF40050CDE901045F
:1017E00040F27000C2F2000001A9CDE90344FFF706
:1017F0007DFC28B1EFF3108072B600BFFEE700BF9A
:1018000040F27008C2F200080EA94046FFF73EFB06
:1018100020B1EFF3108072B6FEE700BF40F2B800CF
:1018200043F60001C2F20000C4F2010100230C27BC
:101830004FF4165280E80E00C0E90333C0E9057387
:10184000C361FFF7D5FD28B1EFF3108072B600BF7A
:10185000FEE700BF4046FFF711FC40F2B807002446
:1018600013A501AEC2F2000710E000BF00682946D0
:1018700084B230462246FEF7C1FC3046FEF742FDF8
:1018800082B2384631466423FFF764FED8F8001070
:1018900001F124004A6AA242E8D10268A242E5D1DD
:1018A0000268A242E2D10268A242F3D0DEE700BFA2
:1018B000636F756E7465723A202564200D0A00000E
:1018C00000000000000000000102030406070809F0
:1018D00000000000010203040102020304050607E0
:1018E00008090A0B0C0D0E0F10100000101900084B
:1018F000000000201000000050010008201900081E
:1019000010000020F8060000700100080000000030
:10191000010000001000000000127A00000000002A
:04000005080000ED02
:00000001FF
