:020000040800F2
:100000000050002025160008F9020008FB02000835
:10001000FD020008FF0200080103000800000000C4
:1000200000000000000000000000000003030008C2
:10003000050300080000000007030008090300088A
:100040006D1600086D1600086D1600086D16000884
:100050006D1600086D1600086D1600086D16000874
:100060006D1600086D1600086D1600086D16000864
:100070006D1600086D1600086D1600086D16000854
:100080006D1600086D1600086D1600086D16000844
:100090006D1600086D1600086D1600086D16000834
:1000A0006D1600086D1600086D1600086D16000824
:1000B0006D1600086D1600086D1600086D16000814
:1000C0006D1600086D1600086D1600086D16000804
:1000D0006D160008110300086D1600086D16000863
:1000E0006D1600086D1600086D160008000000006F
:1000F0000000000000000000000000000000000000
:0C01000000000000000000005FF808F1A3
:10010C00034613F8012B002AFBD1181A013870474B
:10011C000348044B834202D0034B03B1184770478A
:10012C007000002070000020000000000548064B05
:10013C001B1AD90F01EBA301491002D0034B03B1D9
:10014C00184770477000002070000020000000006D
:10015C0010B5064C237843B9FFF7DAFF044B13B103
:10016C000448AFF300800123237010BD7000002001
:10017C0000000000B41F000808B5054B1BB1054971
:10018C000548AFF30080BDE80840FFF7CFBF00BFC4
:10019C000000000074000020B41F000830B589B0C6
:1001AC0000240494059406940794184B9A6942F021
:1001BC0010029A619A6902F010020192019A9A69EE
:1001CC0042F020029A619A6902F020020292029A8D
:1001DC009A6942F004029A619B6903F00403039349
:1001EC00039B0B4D22464FF40051284601F028F991
:1001FC004FF40053049301230593069402230793B1
:10020C0004A9284601F00AF809B030BD00100240DC
:10021C000010014072B6FEE708B50A480A4B0360AD
:10022C004FF41653436000238360C36003610C22B8
:10023C0042618361C36100F0DAF900B908BDFFF7D0
:10024C00E9FF00BFC40000200038014000B591B0A8
:10025C002822002106A801F029FA00230193029319
:10026C00039304930593012206924FF48033079372
:10027C000A9202220D920E934FF4E0130F9306A8EC
:10028C0000F0BEFC80B90F230193022102910023E0
:10029C0003934FF480620492059301A800F0E2FEF0
:1002AC0020B911B05DF804FBFFF7B4FFFFF7B2FF04
:1002BC0008B500F057FCFFF7C9FFFFF76FFFFFF71A
:1002CC00ABFF01220649074800F013FC4FF4005124
:1002DC00054801F0BBF84FF47A7000F067FCF5E7C5
:1002EC008C000020C400002000100140FEE7FEE757
:1002FC00FEE7FEE7FEE770477047704708B500F071
:10030C0043FC08BD70B50D4C204600F093FA0C4E22
:10031C000C4D32780C49284601F0D0F92846FFF7ED
:10032C00EFFE642382B22946204600F090F90122A8
:10033C003146204600F0DDFB70BD00BFC40000203C
:10034C008C00002090000020CC1F000882B00E4BC7
:10035C009A6942F001029A619A6902F001020092D4
:10036C00009ADA6942F08052DA61DB6903F080535B
:10037C000193019B054A536823F0E06343F000733B
:10038C00536002B0704700BF0010024000000140F3
:10039C0030B587B00023029303930493059302684E
:1003AC001B4B9A4201D007B030BD03F558439A69F4
:1003BC0042F480429A619A6902F480420092009A57
:1003CC009A6942F004029A619B6903F00403019359
:1003DC00019B4FF4007302930223039303230593B1
:1003EC000C4D02A9284600F019FF4FF480630293CC
:1003FC0000240394049402A9284600F00FFF22461F
:10040C002146252001F0ACF8252001F0E1F8CAE7DF
:10041C000038014000080140026802F10C0353E867
:10042C00003F23F490730C3242E800310029F3D1E1
:10043C00026802F1140353E8003F23F00103143265
:10044C0042E800310029F3D1036B012B05D02023A6
:10045C0080F84230002303637047026802F10C03FA
:10046C0053E8003F23F010030C3242E8003100291E
:10047C00F3D1ECE790F84130DBB2212B01D0022014
:10048C0070478368B3F5805F17D0036A5A1C026209
:10049C001A7803685A60C38C9BB2013B9BB2C3842D
:1004AC004BB90268D36823F08003D3600268D36829
:1004BC0043F04003D360002070470369002BE4D164
:1004CC00036A1B880268C3F308035360036A023390
:1004DC000362E0E710B504460268136923F4405345
:1004EC00C1680B43136183680269134342691A4361
:1004FC000168CB6823F4B05323F00C031343CB6097
:10050C000268536923F4407381690B435361026899
:10051C00134B9A4220D000F061FE024602EB82029D
:10052C0002EB820263689B00B2FBF3F20D48A0FB66
:10053C0002314909642303FB11231B013233A0FB55
:10054C0003035B0903F0F00202EB011203F00F034B
:10055C00216813448B6010BD00F050FE0246DDE7AD
:10056C00003801401F85EB512DE9F04383B005465F
:10057C000E4617469946DDF828802B681C6836EA2B
:10058C0004040CBF01240024BC4228D1B8F1FF3F65
:10059C00F3D000F005FBA0EB0900404523D8B8F1DF
:1005AC00000F22D02B68DA6812F0040FE5D0802EF1
:1005BC00E3D0402EE1D01A6812F0080FDDD00024F1
:1005CC0001941A6801925B680193019B2846FFF71E
:1005DC0023FF08236B6485F84040012000E00020D5
:1005EC0003B0BDE8F0830320FAE70320F8E760B31B
:1005FC0010B5044690F8413013B3242384F84130ED
:10060C002268D36823F40053D3602046FFF762FFBF
:10061C002268136923F4904313612268536923F011
:10062C002A0353612268D36843F40053D36000203B
:10063C006064202384F8413084F84230606310BD3C
:10064C0080F84030FFF7A4FED7E7012070472DE972
:10065C00F04182B01E4690F84130DBB2202B56D1CF
:10066C0004460D469046002955D00AB901204FE0AA
:10067C0000234364212380F8413000F091FA0746AF
:10068C00A4F82480A4F82680A368B3F5805F02D078
:10069C004FF0000814E023692BB34FF000080FE073
:1006AC00202384F84130032032E038F8023B2268E2
:1006BC00C3F308035360E28C92B2013A92B2E28423
:1006CC00E38C9BB293B100963B46002280212046DE
:1006DC00FFF74AFF0028E3D1002DE6D015F8012BD7
:1006EC0023685A60E7E7A8460025E9E700963B46F1
:1006FC00002240212046FFF737FF18B9202384F849
:10070C00413005E0202384F84130032000E0022032
:10071C0002B0BDE8F0810120FAE7704708B5016826
:10072C00CA6822F04002CA60202280F84120FFF7FC
:10073C00F4FF002008BD7047704708B5406A0023DD
:10074C00C385C384FFF7F8FF08BD704790F84230AB
:10075C00DBB2222B69D18368B3F5805F4FD0826AFC
:10076C00B3F5805F04D0002B56D10369002B53D115
:10077C0003685B681370836A01338362C38D9BB219
:10078C00013B9BB2C385002B51D100B583B00268ED
:10079C00D36823F02003D3600268D36823F48073FA
:1007AC00D3600268536923F001035361202380F85E
:1007BC00423000234363036B012B33D100230363CB
:1007CC00026802F10C0353E8003F23F010030C32D3
:1007DC0042E800310029F3D103681A6812F0100FB7
:1007EC0006D0002201921A6801925B680193019B6A
:1007FC00818DFFF7AAFF002003B05DF804FB0269AE
:10080C00002AACD1826A03685B68C3F308031380C7
:10081C00836A02338362B1E703685B6803F07F038A
:10082C001370A8E7FFF787FFE5E702207047002069
:10083C007047000030B583B0044602681368D06876
:10084C00516913F00F0505D113F0200F02D010F0F1
:10085C00200F19D12DB111F0010119D110F4907F95
:10086C0016D1216B01297DD013F0800F03D010F02D
:10087C00800F40F0188113F0400F03D010F0400FA0
:10088C0040F0158103B030BD2046FFF75FFFF9E75C
:10089C0013F0010F06D010F4807F03D0626C42F08D
:1008AC000102626413F0040F04D019B1626C42F0BF
:1008BC000202626413F0020F04D019B1626C42F0B0
:1008CC000402626413F0080F07D010F0200F00D15F
:1008DC0019B1626C42F008026264626C002AD1D0D9
:1008EC0013F0200F02D010F0200F29D123685B6980
:1008FC0003F04003626C12F0080F00D163B3204682
:10090C00FFF78AFD23685B6913F0400F20D0226843
:10091C0002F1140353E8003F23F04003143242E881
:10092C0000310029F3D1E36B73B1634A5A63E06B76
:10093C0000F0B8FD0028A5D0E06B436B9847A1E709
:10094C002046FFF703FFD1E72046FFF7F5FE99E7B6
:10095C002046FFF7F1FE95E72046FFF7EDFE00235A
:10096C0063648FE713F0100F3FF47EAF10F0100F9D
:10097C003FF47AAF002301931368019353680193FA
:10098C00019B536913F0400F51D0E26B13685B6805
:10099C009BB2002B3FF476AFA18D99427FF672AFDC
:1009AC00E3859369202B37D0226802F10C0353E8BE
:1009BC00003F23F480730C3242E800310029F3D15C
:1009CC00226802F1140353E8003F23F001031432B0
:1009DC0042E800310029F3D1226802F1140353E8F4
:1009EC00003F23F04003143242E800310029F3D1D8
:1009FC00202384F8423000232363226802F10C0385
:100A0C0053E8003F23F010030C3242E80031002978
:100A1C00F3D1E06B00F023FD02236363A18DE38D22
:100A2C009BB2C91A89B22046FFF78FFE2AE7A18D27
:100A3C00E38D9BB2C91A89B2E38D9BB2002B3FF4B4
:100A4C0021AF00293FF41EAF226802F10C0353E8DA
:100A5C00003F23F490730C3242E800300028F3D1AD
:100A6C00226802F1140353E8003F23F0010314320F
:100A7C0042E800300028F3D1202384F842300023D0
:100A8C002363226802F10C0353E8003F23F01003A8
:100A9C000C3242E800300028F3D102236363204675
:100AAC00FFF753FEEEE62046FFF7E4FCEAE62046AD
:100ABC00FFF734FEE6E600BF470700088162828537
:100ACC00C28500234364222380F84230036923B19A
:100ADC000268D36843F48073D3600268536943F0AF
:100AEC00010353610268D36843F02003D3600020F4
:100AFC00704708B590F84230DBB2202B08D149B1D1
:100B0C000AB9012008BD00230363FFF7D7FFF9E7FB
:100B1C000220F7E70120F5E710B504460E4B1A78D2
:100B2C004FF47A73B3FBF2F30C4A1068B0FBF3F09A
:100B3C0000F05CFD68B90F2C01D901200AE00022FD
:100B4C0021464FF0FF3000F00BFD054B1C600020E0
:100B5C0000E0012010BD00BF0000002008000020B4
:100B6C000400002008B5074A136843F01003136013
:100B7C00032000F0E3FC0F20FFF7CEFFFFF7E6FBAE
:100B8C00002008BD00200240034A1168034B1B786B
:100B9C000B441360704700BF0C01002000000020C4
:100BAC00014B1868704700BF0C01002038B5044693
:100BBC00FFF7F6FF0546B4F1FF3F02D0044B1B785C
:100BCC001C44FFF7EDFF401BA042FAD338BD00BF19
:100BDC000000002082B0084B1B68084AA2FB0323CC
:100BEC005B0A00FB03F3019300BF019B5A1E0192A9
:100BFC00002BF9D102B0704708000020D34D6210D1
:100C0C00002800F0F18170B582B00446036813F03F
:100C1C00010F2CD0994B5B6803F00C03042B1DD0F7
:100C2C00964B5B6803F00C03082B12D06368B3F58A
:100C3C00803F41D0002B55D103F1804303F50433A1
:100C4C001A6822F480321A601A6822F480221A6020
:100C5C0037E08A4B5B6813F4803FE7D0874B1B6807
:100C6C0013F4003F03D06368002B00F0BF812368AE
:100C7C0013F0020F75D0814B5B6813F00C0F5FD033
:100C8C007E4B5B6803F00C03082B54D02369002BBC
:100C9C0000F08A807A4B01221A60FFF781FF05462B
:100CAC00764B1B6813F0020F75D1FFF779FF401BD1
:100CBC000228F5D903209EE1704A136843F480336F
:100CCC001360636843B3FFF76BFF05466B4B1B6800
:100CDC0013F4003FCBD1FFF763FF401B6428F5D919
:100CEC00032088E1B3F5A02F09D0644B1A6822F4D5
:100CFC0080321A601A6822F480221A60E1E703F14C
:100D0C008043A3F53C331A6842F480221A601A68B7
:100D1C0042F480321A60D4E7FFF742FF0546574B86
:100D2C001B6813F4003FA2D0FFF73AFF401B642866
:100D3C00F5D903205FE1514B5B6813F4803FA5D1DB
:100D4C004E4B1B6813F0020F03D02369012B40F0AC
:100D5C004F814A4A136823F0F803616943EAC103DF
:100D6C001360236813F0080F33D0A369002B5CD0F9
:100D7C00434B0122C3F88024FFF712FF05463F4B7B
:100D8C005B6A13F0020F21D1FFF70AFF401B022808
:100D9C00F5D903202FE1394A136823F0F803616970
:100DAC0043EAC1031360DCE7354B00221A60FFF7FE
:100DBC00F7FE0546314B1B6813F0020FD1D0FFF73D
:100DCC00EFFE401B0228F5D9032014E10120FFF7A8
:100DDC0001FF236813F0040F00F09680274BDB69AA
:100DEC0013F0805F34D1254BDA6942F08052DA611E
:100DFC00DB6903F080530193019B0125214B1B6898
:100E0C0013F4807F26D0E368012B3DD0002B53D107
:100E1C0003F1804303F504331A6A22F001021A62CB
:100E2C001A6A22F004021A6233E0154B0022C3F84E
:100E3C008024FFF7B5FE0546104B5B6A13F0020FDA
:100E4C00C7D0FFF7ADFE401B0228F5D90320D2E036
:100E5C000025D3E70B4A136843F480731360FFF744
:100E6C009FFE0646074B1B6813F4807FCBD1FFF720
:100E7C0097FE801B6428F5D90320BCE000100240CB
:100E8C0000004242007000405F4A136A43F00103C5
:100E9C001362E36833B3FFF783FE06465A4B1B6AB3
:100EAC0013F0020F2FD1FFF77BFE801B41F288332A
:100EBC009842F3D903209EE0052B09D0524B1A6AB5
:100ECC0022F001021A621A6A22F004021A62E0E7A6
:100EDC004D4B1A6A42F004021A621A6A42F001027D
:100EEC001A62D6E7FFF75CFE0646474B1B6A13F007
:100EFC00020F08D0FFF754FE801B41F28833984252
:100F0C00F3D9032077E0E5B9E369002B72D03E4AB0
:100F1C00526802F00C02082A56D0022B17D03B4B19
:100F2C0000221A66FFF73CFE0446374B1B6813F091
:100F3C00007F47D0FFF734FE001B0228F5D90320B1
:100F4C0059E0314AD36923F08053D361DCE72F4B4E
:100F5C0000221A66FFF724FE05462B4B1B6813F084
:100F6C00007F06D0FFF71CFE401B0228F5D903209A
:100F7C0041E0236AB3F5803F1AD023494B6823F430
:100F8C007413226A606A024313434B601F4B0122A5
:100F9C001A66FFF705FE04461B4B1B6813F0007F17
:100FAC000ED1FFF7FDFD001B0228F5D9032022E02E
:100FBC00154A536823F40033A1680B435360DCE7F4
:100FCC00002018E0002016E0012B16D00E4B5B68B9
:100FDC0003F48031226A914211D103F47013626AD6
:100FEC0093420ED1002006E001207047012002E060
:100FFC00012000E0002002B070BD0120FBE70120C1
:10100C00F9E70120F7E700BF001002400000424260
:10101C000F4B5B6803F00C02082A01D00D48704797
:10102C00C3F383420C49885C13F4803F0BD0084B0C
:10103C005B68C3F34043094AD35C064A02FB00F0E9
:10104C00B0FBF3F07047064B03FB00F0704700BF9A
:10105C000010024000127A00D81F0008E81F000898
:10106C0000093D00002800F0A08070B50D46044634
:10107C00524B1B6803F007038B420BD24F4A136889
:10108C0023F007030B431360136803F007038B4231
:10109C0040F08D80236813F0020F17D013F0040F6B
:1010AC0004D0474A536843F4E0635360236813F059
:1010BC00080F04D0424A536843F460535360404ACB
:1010CC00536823F0F003A1680B435360236813F0BB
:1010DC00010F31D06368012B20D0022B25D0384A68
:1010EC00126812F0020F64D035494A6822F00302EC
:1010FC0013434B60FFF754FD0646314B5B6803F01E
:10110C000C036268B3EB820F16D0FFF749FD801B0E
:10111C0041F288339842F0D9032045E0284A1268FE
:10112C0012F4003FE0D101203EE0254A126812F093
:10113C00007FD9D1012037E0204B1B6803F0070357
:10114C00AB420AD91D4A136823F007032B431360E3
:10115C00136803F00703AB422DD1236813F0040F7F
:10116C0006D0174A536823F4E063E1680B435360DD
:10117C00236813F0080F07D0114A536823F4605307
:10118C00216943EAC1035360FFF742FF0C4B5B68D4
:10119C00C3F303130B4AD35CD8400B4B18600B4BB7
:1011AC001868FFF7B9FC002070BD012070470120C2
:1011BC00FAE70120F8E70120F6E700BF0020024023
:1011CC0000100240EC1F0008080000200400002062
:1011DC00014B1868704700BF0800002008B5FFF7E6
:1011EC00F7FF044B5B68C3F30223034AD35CD8407C
:1011FC0008BD00BF00100240FC1F000808B5FFF737
:10120C00E7FF044B5B68C3F3C223034AD35CD840AB
:10121C0008BD00BF00100240FC1F000870B582B072
:10122C000024A446A6E0804DAB4210D007D97F4DD8
:10123C00AB420CD005F58035AB4208D013E0A5F5D8
:10124C008015AB4203D005F57025AB4207D18B68F6
:10125C00002B58D0012B51D04261082403E0A5F596
:10126C008015AB42F3D0BEF1FF0F4ED80646BEF14F
:10127C00FF0F4CD84FEA8C0233680F25954023EAB8
:10128C00050304FA02F2134333604B6813F0805FDA
:10129C006ED0674B9A6942F001029A619B6903F028
:1012AC0001030193019B4FEA9C02951C614B53F87F
:1012BC0025600CF00305AD000F23AB4026EA0306B6
:1012CC005D4B984229D003F58063984200F08E80E4
:1012DC0003F58063984200F08B8003F5806398429D
:1012EC0019D004231AE0CC68BDE7CC680434BAE703
:1012FC00CC680834B7E7CC680C34B4E70261082436
:10130C00B1E70024AFE70424ADE7061DAFE7ACF16D
:10131C0008029200B0E7032300E00023AB40334304
:10132C000232444D45F822304B6813F4801F61D0D3
:10133C00424A936843EA0E0393604B6813F4001F10
:10134C005ED03E4AD36843EA0E03D3604B6813F475
:10135C00003F5BD0394A536843EA0E0353604B6835
:10136C0013F4803F58D0354A136843EA0E031360D8
:10137C000CF1010C0B6833FA0CF253D0012202FA77
:10138C000CF203EA020E32EA0303F1D14B68122B82
:10139C003FF649AF122B3FF666AF01A555F823F087
:1013AC005B120008F3120008FD1200080F1300086E
:1013BC0073120008731200087312000873120008ED
:1013CC0073120008731200087312000873120008DD
:1013DC0073120008731200087312000873120008CD
:1013EC0073120008F712000803130008012395E795
:1013FC00022393E7114A936823EA0E0393609CE758
:10140C000E4AD36823EA0E03D3609FE70B4A536856
:10141C0023EA0E035360A2E7084A136823EA0E037B
:10142C001360A5E702B070BD00002210000031105F
:10143C00001002400000014000080140000401407F
:10144C000AB101617047090401617047C36801EA80
:10145C00030221EA030141EA02410161704703469C
:10146C0090F82120D2B2022A06D0042282630022F4
:10147C0080F820200120704701680A6822F00E02D3
:10148C000A6001680A6822F001020A60026CC06BF3
:10149C00012101FA02F2426083F82110002083F846
:1014AC002000704708B590F82130DBB2022B03D036
:1014BC0004238363012008BD0268136823F00E0324
:1014CC0013600268136823F0010313600368194A60
:1014DC00934214D0143293421FD0143293421ED034
:1014EC00143293421ED0143293421ED014329342C3
:1014FC0002D04FF0807203E04FF4801200E0012222
:10150C000D4B5A60012380F82130002380F82030E5
:10151C00436B6BB198470020CDE71022F0E74FF4F6
:10152C008072EDE74FF48052EAE74FF48032E7E740
:10153C000020C0E70800024000000240074AD368C0
:10154C0023F4E0631B041B0C000200F4E060034373
:10155C0043F0BF6343F40033D360704700ED00E009
:10156C0000B5194BDB68C3F30223C3F1070CBCF1C4
:10157C00040F28BF4FF0040C03F1040EBEF1060F4C
:10158C0018D9033B4FF0FF3E0EFA0CFC21EA0C017C
:10159C0099400EFA03FE22EA0E020A4300280BDBE6
:1015AC001201D2B200F1604000F5614080F80023D6
:1015BC005DF804FB0023E5E700F00F001201D2B246
:1015CC00024B1A54F4E700BF00ED00E014ED00E00C
:1015DC00002807DB00F01F02400901239340024A58
:1015EC0042F82030704700BF00E100E00138B0F154
:1015FC00807F0BD24FF0E0235861054AF02182F82E
:10160C0023100020986107221A617047012070474F
:10161C0000ED00E070470000FFF7FCFF0B480C49A1
:10162C000C4A002302E0D458C4500433C4188C4232
:10163C00F9D3094A094C002301E013600432A24299
:10164C00FBD300F00FF8FEF733FE704700000020CC
:10165C0070000020402000087000002020010020B5
:10166C00FEE7000070B500260C4D0D4C641BA41059
:10167C00A64209D100F098FC00260A4D0A4C641BC6
:10168C00A410A64205D170BD55F8043B984701360D
:10169C00EEE755F8043B98470136F2E7382000088E
:1016AC0038200008382000083C200008034602447B
:1016BC00934200D1704703F8011BF9E70EB46FF0A9
:1016CC00004100B59CB01DAB0290069007910491AF
:1016DC000848094953F8042B0591006802A90193A5
:1016EC0000F066F80022029B1A701CB05DF804EB47
:1016FC0003B070470C0000200802FFFF2DE9F047F3
:10170C001F468E688246BE420C4690460B682CD80B
:10171C008A8912F4906F26D06569096905EB450535
:10172C00A3EB010905EBD5757B1C4B446D109D4259
:10173C0038BF1D46530527D5294600F069FB0646E0
:10174C0060B34A46216900F0D3FAA38923F490636D
:10175C0043F08003A38126614E4426603E466561BA
:10176C00A5EB0905A560BE4200D93E46324641466E
:10177C00206800F0CBFA0020A3689B1BA3602368B1
:10178C0033442360BDE8F0872A4600F0B5FB0646DB
:10179C000028E0D15046216900F0D2FA0C23CAF897
:1017AC000030A3894FF0FF3043F04003A381E9E7F9
:1017BC002DE9F04F98468B8907461B060D461446BB
:1017CC009DB00ED50B6963B9402100F021FB286058
:1017DC00286120B90C233B604FF0FF30D0E0402350
:1017EC006B610023099320238DF8293030234FF0AF
:1017FC000109CDF80C80DFF8A0818DF82A30234642
:10180C009A4613F8012B0AB1252AF9D1BAEB040B2D
:10181C000BD05B46224629463846FFF76FFF013056
:10182C0000F0A980099A5A4409929AF80030002BCA
:10183C0000F0A18000234FF0FF32CDE905230AF11F
:10184C00010A049307938DF853301A9354460522DA
:10185C0014F8011B504800F03DFA049AD8B9D00690
:10186C0044BF20238DF85330110744BF2B238DF830
:10187C0053309AF800302A2B15D0544600204FF0E4
:10188C000A0C079A214611F8013B303B092B4DD924
:10189C00B0B1079214E0A0EB080309FA03F3134369
:1018AC00A2460493D2E7039B191D1B680391002BDE
:1018BC00BBBF5B4242F0020207930793B8BF04928E
:1018CC0023782E2B0CD163782A2B34D1039B023432
:1018DC001A1D1B680392002BB8BF4FF0FF33059302
:1018EC00DFF8B8A003225046217800F0F3F938B1A4
:1018FC004022049BA0EB0A00824013430134049362
:10190C0014F8011B062226488DF8281000F0E2F985
:10191C00002838D0234B1BBB039B073323F0070352
:10192C0008330393099B3344099368E70C46012061
:10193C000CFB0232A6E700234FF00A0C19460134C7
:10194C000593204610F8012B303A092A03D9002BB5
:10195C00C6D00591C4E7044601230CFB0121F0E736
:10196C0003AB00932A4638460F4B04A9AFF3008013
:10197C00421C0646D6D1AB895B063FF52DAF0998C4
:10198C001DB0BDE8F08F03AB00932A463846064BDA
:10199C0004A900F07DF8EBE7042000080A200008F9
:1019AC000E20000800000000091700082DE9F04780
:1019BC00164699468A680B6907469342B8BF134688
:1019CC00336091F843200C46DDF820800AB10133D6
:1019DC0033602368990642BF33680233336025684D
:1019EC0015F0060506D104F1190AE36832689B1A52
:1019FC00AB422BDC94F84320131E226818BF012342
:101A0C00920630D44946384604F14302C0470130AF
:101A1C0023D02368226903F00603042B14BF00258E
:101A2C0033684FF0000608BFE56804F11A0408BFDC
:101A3C00ED1A54F8123C08BF25EAE5759342C4BF71
:101A4C009B1AED18B5421AD1002008E0012352462A
:101A5C0049463846C047013003D14FF0FF30BDE84E
:101A6C00F0870135C1E73020E11881F843005A1C9A
:101A7C0094F845102244023382F84310C2E7012344
:101A8C00224649463846C0470130E6D00136D9E7F0
:101A9C002DE9FF470F7E9146782F80460C469A46DB
:101AAC000C9D01F1430207D8622F0AD8002F00F0D9
:101ABC00D580582F00F0C18004F1420584F84270A3
:101ACC003AE0A7F16303152BF6D801A151F823F0E6
:101ADC00351B0008491B0008C51A0008C51A000868
:101AEC00C51A0008C51A0008491B0008C51A0008C9
:101AFC00C51A0008C51A0008C51A00084F1C0008B2
:101B0C00751B0008091C0008C51A0008C51A000836
:101B1C00711C0008C51A0008751B0008C51A0008BE
:101B2C00C51A0008111C00082B681A1D1B682A60B6
:101B3C0004F1420584F842300123A0E020682B68B0
:101B4C00070603F10401296001D51E6803E046066F
:101B5C00FBD5B3F90060002E03DA2D23764284F80E
:101B6C0043300A23594812E02B682068191D29605C
:101B7C00050601D51E6802E04106FBD51E886F2FB5
:101B8C000CBF08230A235148002184F843106568D0
:101B9C00002DA8BF2168A560A4BF21F0040121601D
:101BAC000EB9002D4BD01546B6FBF3F103FB1167B4
:101BBC00C75D05F8017D3746BB420E46F4D9082BAC
:101BCC000BD12368DE0708D5236961689942DEBF13
:101BDC00302305F8013C05F1FF35521B22614B46C1
:101BEC0021464046CDF800A003AAFFF7DFFE0130E6
:101BFC004AD14FF0FF3004B0BDE8F087236843F0C2
:101C0C00200323607827324884F8457023682968BC
:101C1C001F0651F8046B02D45F0648BFB6B2DF074B
:101C2C0048BF43F02003296048BF23601EB92368D6
:101C3C0023F0200323601023A6E72448E4E715468D
:101C4C00BDE72B682668181D6169286035061B687E
:101C5C0001D5196002E07006FBD5198000231546EA
:101C6C002361BCE72B6800211A1D2A601D6862687D
:101C7C00284600F02FF808B1401B606063682361B0
:101C8C00002384F84330AAE72A4649464046236994
:101C9C00D0470130ADD023689B0713D4E068039B79
:101CAC009842B8BF1846A6E701233246494640463B
:101CBC00D04701309DD00135E36803995B1AAB42E4
:101CCC00F2DCEBE7002504F11906F5E71520000816
:101CDC0026200008034610B5C9B2024493421846A8
:101CEC0001D1002003E0047801338C42F6D110BD01
:101CFC000A44914200F1FF3300D1704710B511F83E
:101D0C00014B914203F8014FF9D110BD884210B537
:101D1C0001EB020402D98442234607D8431EA14298
:101D2C0008D011F8012B03F8012FF8E70146024403
:101D3C008A4200D110BD13F8014D02F8014DF7E7AE
:101D4C0038B50546002940D051F8043C0C1F002B37
:101D5C00B8BFE41800F010F91C4A136833B963607B
:101D6C0014602846BDE8384000F007B9A34208D9F2
:101D7C00206821188B4201BF19685B680918216023
:101D8C00EDE71A465B680BB1A342FAD911685018FB
:101D9C00A0420BD120680144501883421160E0D15D
:101DAC0018685B68084410605360DAE702D90C23AA
:101DBC002B60D6E7206821188B4201BF19685B683D
:101DCC000918216063605460CBE738BD1001002016
:101DDC0070B50E4E0C463168054611B900F0BCF8D2
:101DEC0030602146284600F0B7F8431C0AD0C41CCA
:101DFC0024F00304A04207D0211A284600F0ACF8C6
:101E0C00013001D14FF0FF34204670BD1401002089
:101E1C002DE9F041CD1C25F0030508350C2D38BFFC
:101E2C000C25002D074601DBA94205D90C23002601
:101E3C003B603046BDE8F0812E4E00F09DF83368D3
:101E4C001C4634BB29463846FFF7C2FF431C0446E8
:101E5C004DD134682646002E40D123683146384691
:101E6C0004EB030800F078F880453AD12368033579
:101E7C00ED1A25F0030508350C2D38BF0C25384616
:101E8C002946FFF7A5FF01302BD023682B44236094
:101E9C000EE02268521B1ED40B2A16D96119A342DC
:101EAC00256018BF5960636808BF316062514B6090
:101EBC00384604F10B0600F060F826F00706231DE7
:101ECC00F21AB6D09B1BA350B3E76268A3420CBFB7
:101EDC0032605A60ECE723466468B2E734467668B1
:101EEC00B9E70C2338463B6000F047F8A1E72560C2
:101EFC00DEE700BF100100202DE9F04180461446BA
:101F0C000E4621B91146BDE8F041FFF781BF2AB951
:101F1C00FFF716FF25462846BDE8F08100F02EF8A5
:101F2C008442074602D8B4EB500F12D821464046E3
:101F3C00FFF76EFF05460028EDD0BC422246314625
:101F4C0028BF3A46FFF7D4FE31464046FFF7F8FE6D
:101F5C00E1E73546DFE7000038B50023054D0446C0
:101F6C0008462B6000F012F8431C02D12B6803B119
:101F7C00236038BD180100207047704751F8043CAD
:101F8C00181F002BBCBF0B58C0187047044A0549DA
:101F9C001368002B08BF0B46184410601846704796
:101FAC001C01002020010020F8B500BFF8BC08BCC3
:101FBC009E467047F8B500BFF8BC08BC9E467047FB
:101FCC00446174613A20256400000000020304059A
:101FDC00060708090A0B0C0D0E0F10100102000069
:101FEC0000000000000000000102030406070809BD
:101FFC000000000001020304232D302B2000686C2C
:10200C004C0065666745464700303132333435360F
:10201C003738394142434445460030313233343548
:0C202C0036373839616263646566000075
:042038008501000816
:04203C005D0100083A
:10204000010000001000000000127A0010000020C3
:102050000000000000000000000000000000000080
:102060000000000000000000000000000000000070
:102070000000000000000000000000000000000060
:102080000000000000000000000000000000000050
:102090000000000000000000000000000000000040
:1020A0000000000000000000000000000000000030
:0400000508001625B4
:00000001FF
