:020000040800F2
:1000000000500020BD270008FD080008FF08000878
:1000100001090008030900080509000800000000A4
:1000200000000000000000000000000007090008B8
:1000300009090008000000000B0900080D0900086C
:1000400005280008052800080528000805280008DC
:1000500005280008052800080528000805280008CC
:1000600005280008052800080528000805280008BC
:1000700005280008052800080528000805280008AC
:10008000052800080528000805280008052800089C
:10009000052800080528000805280008052800088C
:1000A000052800080528000805280008052800087C
:1000B000052800080528000805280008052800086C
:1000C000052800080528000805280008052800085C
:1000D000052800081509000805280008052800085B
:1000E0000528000805280008052800080000000071
:1000F0000000000000000000000000000000000000
:0C01000000000000000000005FF808F1A3
:10010C00034613F8012B002AFBD1181A013870474B
:10011C000348044B834202D0034B03B1184770478A
:10012C007000002070000020000000000548064B05
:10013C001B1AD90F01EBA301491002D0034B03B1D9
:10014C00184770477000002070000020000000006D
:10015C0010B5064C237843B9FFF7DAFF044B13B103
:10016C000448AFF300800123237010BD7000002001
:10017C00000000004C31000808B5054B1BB10549C7
:10018C000548AFF30080BDE80840FFF7CFBF00BFC4
:10019C0000000000740000204C31000884B00F4BAC
:1001AC009A6942F020029A619A6902F02002019247
:1001BC00019A9A6942F004029A619A6902F0040267
:1001CC000292029A9A6942F008029A619B6903F0C2
:1001DC0008030393039B04B0704700BF0010024058
:1001EC00064BA3FB0023DA08134602EB8202A0EBBA
:1001FC00420040EA0310C0B2704700BFCDCCCCCC5B
:10020C0000F00F03000900EB800003EB4000C0B2CC
:10021C007047000030B585B004460D4600238DF8BC
:10022C000C301046FFF7DCFF8DF80D002846FFF769
:10023C00D7FF8DF80E002046FFF7D2FF8DF80F0088
:10024C0064230093042303AAD021024800F056FF34
:10025C0005B030BD9C00002070B584B00D4614462E
:10026C0004268DF80C60FFF7BBFF8DF80D002846B7
:10027C00FFF7B6FF8DF80E00E0B2FFF7B1FF8DF877
:10028C000F0064230093334603AAD021024800F0E8
:10029C0035FF04B070BD00BF9C000020F0B585B0E8
:1002AC0004460D46164600238DF80B30114F0A23D9
:1002BC00009301230DF10B02D021384600F01EFFF4
:1002CC0032230093032303AAD121384600F0D2FF36
:1002DC009DF80C00FFF794FF30709DF80D00FFF7B0
:1002EC008FFF28709DF80E00FFF78AFF207005B075
:1002FC00F0BD00BF9C0000202DE9F04184B0064603
:10030C000D46144604238DF80B30144F4FF064083F
:10031C00CDF8008001230DF10B02D021384600F0FE
:10032C00EDFECDF80080032303AAD121384600F05E
:10033C00A1FF9DF80C00FFF763FF30709DF80D00D6
:10034C00FFF75EFF28709DF80E00FFF759FF80B293
:10035C0000F5FA60208004B0BDE8F0819C0000201C
:10036C0000B585B000F0F0030001C0B243F00C0200
:10037C008DF80C2043F008038DF80D3040F00C0381
:10038C008DF80E3040F008008DF80F0064230093B8
:10039C00042303AA4E21034800F0B0FE05B05DF81B
:1003AC0004FB00BF9C00002000B585B000F0F003FA
:1003BC000001C0B243F00D028DF80C2043F009038C
:1003CC008DF80D3040F00D038DF80E3040F0090023
:1003DC008DF80F0064230093042303AA4E210348D5
:1003EC0000F08CFE05B05DF804FB00BF9C00002003
:1003FC0008B5322001F034F93020FFF7B1FF0520A9
:10040C0001F02EF93020FFF7ABFF012001F028F9A5
:10041C003020FFF7A5FF0A2001F022F92020FFF77A
:10042C009FFF0A2001F01CF92820FFF799FF0120FB
:10043C0001F016F90820FFF793FF012001F010F9E5
:10044C000120FFF78DFF012001F00AF90620FFF7CC
:10045C0087FF012001F004F90C20FFF781FF08BD94
:10046C0008B50120FFF77CFF022001F0F9F808BD68
:10047C0008B528B9C9B281F08000FFF771FF08BD3B
:10048C00C8B24038C0B2F8E710B5044602E00134F7
:10049C00FFF78AFF20780028F9D110BD30B4072867
:1004AC0004DD082810DC012030BC70470D4C0E4DCB
:1004BC000FCD0FC495E8030044F8040B24F8021B7D
:1004CC00090C21700020EFE7064C084D0FCD0FC42E
:1004DC0095E8030044F8040B24F8021B090C217066
:1004EC000020E1E73C010020683100088031000861
:1004FC0038B503782A2B07D10446FFF701FE0444D4
:10050C0014F8013C232B0AD0064C074D0FCD0FC419
:10051C0095E8030044F8040B2170002038BD01203D
:10052C00FCE700BF3C0100209831000810F0030FDD
:10053C0008D10C4BA3FB00235B09642202FB1303C1
:10054C009BB25BB9074BA3FB0023DB094FF4C872CA
:10055C0002FB130080B218B10020704701207047D5
:10056C00012070471F85EB5108B5FFF7DFFF08B975
:10057C001C2008BD1D20FCE770B584B04B1EDBB2FF
:10058C000B2B2AD806460C4610461F258DF8045016
:10059C00FFF7EAFF8DF805008DF806501E238DF845
:1005AC0007308DF808508DF809308DF80A508DF809
:1005BC000B508DF80C308DF80D508DF80E308DF8E9
:1005CC000F50A6B104F10F030DEB030414F80C3C0F
:1005DC00B3420CD3012004B070BD0B4C0B4D0FCDAE
:1005EC000FC495E8070084E807000020F3E7064CE9
:1005FC00074D0FCD0FC495E8070003C424F8022B58
:10060C00120C22700020E6E73C010020B0310008FB
:10061C00CC31000830B4172806D83B290ED83B2A19
:10062C0014D8012030BC70470C4C0D4D0FCD0FC4AD
:10063C0095E8070003C422800020F3E7074C094D1E
:10064C000FCD0FC42B6823600020EBE7034C064D45
:10065C000FCD0FC42B6823600020E3E73C01002082
:10066C00E831000804320008183200082DE9F04780
:10067C00044646788778C57890F8048090F8059001
:10068C0090F806A0174B1868FFF708FF18B1204622
:10069C00FFF72EFF58B9144C2046FFF731FD6423A9
:1006AC0082B22146114801F01CFEBDE8F087ADB2C4
:1006BC002A4639463046FFF75FFF0028EBD05246FA
:1006CC0049464046FFF7A6FF0028E4D0524649466B
:1006DC004046FFF79FFD2A4639463046FFF7BCFDE2
:1006EC00E3E700BF700100203C010020F000002077
:1006FC0072B6FEE708B50A480A4B03600A4B436022
:10070C0000238360C3604FF48042026143618361C4
:10071C00C361036200F014FC00B908BDFFF7E8FFE9
:10072C009C00002000540040A086010008B50A4837
:10073C000A4B03604FF41653436000238360C3607D
:10074C0003610C2242618361C36101F09AFD00B91F
:10075C0008BDFFF7CDFF00BFF000002000380140BE
:10076C0000B591B02822002106A802F06BF80023F6
:10077C0001930293039304930593012206924FF481
:10078C00803307930A9202220D920E934FF4E013DA
:10079C000F9306A800F08EFF80B90F23019302215E
:1007AC000291002303934FF480620492059301A8F5
:1007BC0001F0B2F920B911B05DF804FBFFF798FF16
:1007CC00FFF796FF00B5B9B000F026FFFFF7C8FFA2
:1007DC00FFF7E4FCFFF78EFFFFF7A8FFFFF708FE1B
:1007EC0000210846FFF744FE3648FFF74DFE364B16
:1007FC001B68ADF80C301B0C8DF80E30334B1B689E
:10080C00ADF808301B0C8DF80A300022114604207C
:10081C00FFF700FD18220A210F20FFF71DFD012212
:10082C002B492C4801F0AFFF37E00DF1DF020DF141
:10083C00DE010DF1DD00FFF731FD36AA0DF1DB0114
:10084C0037A8FFF759FDBDF8D83000939DF8DB3081
:10085C009DF8DC2020491DA801F0FCFF9DF8DF303D
:10086C0000939DF8DE309DF8DD201C4904A801F0B2
:10087C00F1FFFFF7F5FD00210846FFF7F9FD1DA874
:10088C00FFF702FE00210120FFF7F2FD04A8FFF79D
:10089C00FBFD4FF47A7000F0E3FE114B1B78002B3C
:1008AC00C3D000F0D7FE0F4B1B68C01A3228BCD93E
:1008BC0000240B4B1C700C48FFF7D8FE0B4B1C6034
:1008CC00B3E700BF2C320008643100086032000826
:1008DC0099000020F0000020343200084832000853
:1008EC008C000020380100209000002070010020B6
:1008FC00FEE7FEE7FEE7FEE7FEE77047704770474E
:10090C0008B500F09BFE08BD70B50C4C204601F0FC
:10091C00DBFD01260A4B1E700A4A13680A4D287823
:10092C000A49C8543344136000F094FE084B186015
:10093C0032462946204601F026FF70BDF00000200B
:10094C008C000020700100209900002090000020F5
:10095C003801002082B00E4B9A6942F001029A6174
:10096C009A6902F001020092009ADA6942F0805210
:10097C00DA61DB6903F080530193019B054A5368EC
:10098C0023F0E06343F00073536002B0704700BF84
:10099C00001002400000014010B586B00023029305
:1009AC000393049305930268114B9A4201D006B04D
:1009BC0010BD104CA36943F00803A361A36903F0B5
:1009CC0008030093009BC023029312230393032379
:1009DC00059302A9084801F07BF9E36943F400137D
:1009EC00E361E36903F400130193019BDFE700BFAC
:1009FC000054004000100240000C014030B587B09C
:100A0C000023029303930493059302681B4B9A42B1
:100A1C0001D007B030BD03F558439A6942F48042C7
:100A2C009A619A6902F480420092009A9A6942F0A3
:100A3C0004029A619B6903F004030193019B4FF438
:100A4C000073029302230393032305930C4D02A915
:100A5C00284601F03DF94FF480630293002403947F
:100A6C00049402A9284601F033F922462146252098
:100A7C0001F0C2FA252001F0F7FACAE7003801406C
:100A8C000008014003685A6912F4806F01D10020FC
:100A9C0070476FF480625A6100230363202280F850
:100AAC003D2080F83E30026C42F00402026480F873
:100ABC003C30012070472DE9F04106460C461746A4
:100ACC0098463BE000F0C6FD069BC01A404502D894
:100ADC00B8F1000F32D1012D18D033689B6924EA8C
:100AEC0003039BB2B3FA83F35B099F4226D1002325
:100AFC003363202286F83D2086F83E30326C42F07B
:100B0C002002326486F83C30012027E033685B69B0
:100B1C0024EA03039BB2B3FA83F35B09E5E733687A
:100B2C005B6924EA030C1FFA8CFCBCFA8CFC4FEAC0
:100B3C005C1C674511D1B8F1FF3FC3D1C4F3074525
:100B4C00012DECD033689B6924EA030C1FFA8CFC52
:100B5C00BCFA8CFC4FEA5C1CEBE70020BDE8F08192
:100B6C002DE9F84305460E469046994653E01A681F
:100B7C0042F400721A602B686FF480625A61002391
:100B8C002B63202285F83D2085F83E302A6C42F0FC
:100B9C0004022A6485F83C3001204AE000F05AFD3A
:100BAC00A0EB0900404502D8B8F1000F33D1012F5A
:100BBC0017D02B689B6926EA03039BB2003B18BF36
:100BCC00012343B300232B63202285F83D2085F8B5
:100BDC003E302A6C42F020022A6485F83C30012019
:100BEC0027E02B685B6926EA03039BB2003B18BF26
:100BFC000123E6E72B689C6926EA0404A4B2003CB6
:100C0C0018BF0124A4B12B685A6912F4806FAED1BD
:100C1C00B8F1FF3FC2D1C6F30747012FEAD12B68C9
:100C2C005C6926EA0404A4B2003C18BF0124E9E77D
:100C3C000020BDE8F8830000F0B583B004460D46F3
:100C4C0016461F46C36A082B0DD0012B0BD013F58B
:100C5C00803F08D0036B122B0AD10268136843F44F
:100C6C008073136004E02268136843F4807313608C
:100C7C000097334600224FF001112046FFF71BFF6F
:100C8C0080B92369B3F5804F16D1236805F0FE05B2
:100C9C001D613B46324613492046FFF761FFF8B908
:100CAC0003B0F0BD23681B6813F4807F02D04FF4AF
:100CBC00007323640320F3E7EB11226803F00603AF
:100CCC0043F0F00313613B46324607492046FFF7D9
:100CDC0047FF18B92368EDB21D61DAE70120DFE7A1
:100CEC000120DDE702000100080001002DE9F041C0
:100CFC0084B004460D4616461F46C26A01680B684E
:100D0C0043F480630B60082A0DD0012A0BD012F536
:100D1C00803F08D0036B112B0AD10268136843F48F
:100D2C008073136004E02268136843F480731360CB
:100D3C000097334600224FF001112046FFF7BBFE0F
:100D4C0098B92369B3F5804F19D1236845F0010593
:100D5C00EDB21D613B4632462A492046FFF700FFA3
:100D6C0000284CD104B0BDE8F08123681B6813F453
:100D7C00807F02D04FF4007323640320F2E74FEA24
:100D8C00E51808F00608236848F0F0021A613B46A3
:100D9C0032461D492046FFF7E3FE08B10120E1E78A
:100DAC002368EDB21D613B46324616492046FFF7DB
:100DBC00D7FE08B10120D5E70022039223685969B8
:100DCC000391996903910399196841F48071196031
:100DDC00009733464FF001112046FFF76CFE20B907
:100DEC00226848F0F1031361B4E723681B6813F41D
:100DFC00807F02D04FF4007323640320B2E70120FC
:100E0C00B0E700BF020001000800010070B5044605
:100E1C000D46164623685B6913F0800F21D12046DE
:100E2C00FFF730FEF8B9B5F1FF3FF3D000F012FC3C
:100E3C00801BA84201D8002DECD123685B6913F00C
:100E4C00800FE7D100232363202284F83D2084F80F
:100E5C003E30226C42F02002226484F83C300120A7
:100E6C0000E0002070BD0120FCE770B504460D4683
:100E7C00164623685B6913F0040F21D12046FFF757
:100E8C0001FEF8B9B5F1FF3FF3D000F0E3FB801B96
:100E9C00A84201D8002DECD123685B6913F0040F34
:100EAC00E7D100232363202284F83D2084F83E30D0
:100EBC00226C42F02002226484F83C30012000E0D5
:100ECC00002070BD0120FCE770B504460D461646A7
:100EDC0014E06FF010025A6100232363202284F87F
:100EEC003D2084F83E30226C226484F83C30012092
:100EFC0025E023685B6913F0400F10D02368586914
:100F0C0010F0400F1AD1586910F0100FE1D100F019
:100F1C00A1FB801BA842ECD8002DEFD1E9E7002300
:100F2C002363202284F83D2084F83E30226C42F06A
:100F3C002002226484F83C30012000E0002070BDC7
:100F4C00002800F0CC8070B5044690F83D30002BA2
:100F5C0077D0242384F83D302268136823F00103F2
:100F6C0013602268136843F400431360226813680B
:100F7C0023F40043136000F08BFE62685A4B9A42D4
:100F8C0064D85A4B98428CBF00230123002B40F0AD
:100F9C00A8805749A1FB00318B0C25686A6822F0A8
:100FAC003F0242EA91426A6021680A6A22F03F02DB
:100FBC0066684D4DAE424FD8013313430B62216826
:100FCC00CA6922F44F4222F0FF026568464B9D42EB
:100FDC004CD8431E6D00B3FBF5F3013340F6FC70A7
:100FEC00034278D0C3F30B031A43CA6121680B6820
:100FFC0023F0C003E269206A024313430B602168AB
:10100C008B6823F4034323F0FF032269E068024357
:10101C0013438B602168CB6823F0FF036269A069DE
:10102C0002431343CB602268136843F0010313603F
:10103C0000202064202384F83D30206384F83E0097
:10104C0070BD80F83C30FFF7A7FC82E7294B984233
:10105C008CBF0023012399E74FF4967505FB03F32E
:10106C00254DA5FB03539B090133A6E7A668BEB922
:10107C00431E05EB450CB3FBFCF30133C3F30B032D
:10108C00B3FA83F35B0943BBC6B9431E05EB4505B5
:10109C00B3FBF5F30133C3F30B0343F40043A3E7B2
:1010AC00431E05EB850C0CEB8C0CB3FBFCF30133F2
:1010BC00C3F30B03B3FA83F35B09E4E7431E05EBBD
:1010CC00850505EB8505B3FBF5F30133C3F30B0382
:1010DC0043F4404388E7042386E7012384E7012097
:1010EC0070470120ACE700BFA08601007F841E0082
:1010FC0083DE1B43FF083D00D34D62102DE9F04306
:10110C0085B004460F46914698460C9E00F0A2FA14
:10111C00054694F83D00C0B2202804D0022738467A
:10112C0005B0BDE8F0830095192301224F492046F4
:10113C00FFF7C1FC002840F0928094F83C30012B62
:10114C0000F08F80012384F83C3023681A6812F079
:10115C00010F03D11A6842F001021A602268136869
:10116C0023F400631360212384F83D30102384F8AA
:10117C003E3000232364C4F82490A4F82A80638DA5
:10118C0023853B4BE3622B46324639462046FFF71C
:10119C0053FD0746002866D10023039323685A6940
:1011AC0003929B690393039B11E0236C042B01D0E6
:1011BC000127B4E72268136843F400731360F7E760
:1011CC002A4631462046FFF750FE00282ED1238DAB
:1011DC00002B36D02A4631462046FFF717FE002852
:1011EC00E3D1626A236812781A61606A431C6362F5
:1011FC00618D89B2013989B26185238D013B9BB226
:10120C0023852268516911F0040FD9D0002BD7D057
:10121C0043781361636A01336362638D9BB2013B54
:10122C009BB26385238D013B2385C9E7236C042B7B
:10123C0001D0012773E72268136843F4007313602D
:10124C00F7E72268136843F400731360202384F8D3
:10125C003D30002384F83E3084F83C305FE70227B1
:10126C005DE702275BE7012759E700BF020010008A
:10127C000000FFFF2DE9F04389B004460F4691466C
:10128C009846109E0023079300F0E4F9054694F865
:10129C003D00C0B2202804D00227384609B0BDE872
:1012AC00F08300951923012280492046FFF703FCA7
:1012BC00002840F07A8194F83C30012B00F07781C3
:1012CC00012384F83C3023681A6812F0010F03D113
:1012DC001A6842F001021A602268136823F4006352
:1012EC001360222384F83D30102384F83E30002311
:1012FC002364C4F82490A4F82A80638D23856C4B56
:10130C00E3622B46324639462046FFF7EFFC074690
:10131C00002840F04E81238D5BB9039323685A69F2
:10132C0003929A690392039A1A6842F400721A6043
:10133C00F3E0012B0FD0022B21D02268136843F469
:10134C00806313600023069323685A6906929B6995
:10135C000693069BE1E02268136823F48063136014
:10136C0072B60023049323685A6904929A69049212
:10137C00049A1A6842F400721A6062B6CDE02268D0
:10138C00136843F40063136072B60023059323685B
:10139C005A6905929A690592059A1A6822F4806234
:1013AC001A6062B6B9E02A4631462046FFF78CFD3A
:1013BC00002840F0008123681A69636A1A70636A16
:1013CC0001336362238D013B2385638D9BB2013B0B
:1013DC009BB26385A1E00095334600223549204637
:1013EC00FFF769FB002840F0EA802268136823F4B9
:1013FC008063136072B623681A69636A1A70636A31
:10140C0001336362238D013B2385638D9BB2013BCA
:10141C009BB26385284B1B68DB08284AA2FB03237D
:10142C001B0A03EB8303C3EBC3030793079901392F
:10143C0007910799002928D023685A6912F0040FE4
:10144C00F4D01A6842F400721A6023681A69636A4D
:10145C001A70636A01336362238D013B2385638DAC
:10146C009BB2013B9BB2638562B623681A69636ABF
:10147C001A70636A01336362238D013B2385638D8C
:10148C009BB2013B9BB2638547E000232363202280
:10149C0084F83D2084F83E30226C42F02002226415
:1014AC0062B684F83C300127F7E600BF020010005A
:1014BC000000FFFF040001000800002089B5F814AB
:1014CC002A4631462046FFF7FFFC002879D12368D5
:1014DC001A69636A1A70636A01336362228D013A76
:1014EC0092B22285638D9BB2013B9BB263852368CC
:1014FC00596911F0040F10D0032A48D023681A69D7
:10150C00636A1A70636A01336362238D013B23851E
:10151C00638D9BB2013B9BB26385218D00293BD02F
:10152C000329CDD801293FF43EAF02297FF453AFF4
:10153C0000953346002224492046FFF7BCFA0028C8
:10154C003BD172B62268136843F4007313602368AE
:10155C001A69636A1A70636A01336362238D013BF3
:10156C002385638D9BB2013B9BB2638562B6236876
:10157C001A69636A1A70636A01336362238D013BD3
:10158C002385638D9BB2013B9BB26385C5E71A68CB
:10159C0022F480621A60B1E7202384F83D300023E6
:1015AC0084F83E3084F83C3077E6022775E6022753
:1015BC0073E6012771E601276FE601276DE6012727
:1015CC006BE6012769E600BF0400010010B5044674
:1015DC000E4B1A784FF47A73B3FBF2F30C4A106883
:1015EC00B0FBF3F000F04EFD68B90F2C01D90120CF
:1015FC000AE0002221464FF0FF3000F0FDFC054BC5
:10160C001C60002000E0012010BD00BF0000002085
:10161C00080000200400002008B5074A136843F0B6
:10162C0010031360032000F0D5FC0F20FFF7CEFF52
:10163C00FFF790F9002008BD00200240034A116812
:10164C00034B1B780B441360704700BF74010020E0
:10165C0000000020014B1868704700BF7401002087
:10166C0038B50446FFF7F6FF0546B4F1FF3F02D04C
:10167C00044B1B781C44FFF7EDFF401BA042FAD330
:10168C0038BD00BF0000002082B0084B1B68084A20
:10169C00A2FB03235B0A00FB03F3019300BF019B36
:1016AC005A1E0192002BF9D102B07047080000209D
:1016BC00D34D6210002800F0F18170B582B0044661
:1016CC00036813F0010F2CD0994B5B6803F00C03EB
:1016DC00042B1DD0964B5B6803F00C03082B12D027
:1016EC006368B3F5803F41D0002B55D103F18043A3
:1016FC0003F504331A6822F480321A601A6822F453
:10170C0080221A6037E08A4B5B6813F4803FE7D085
:10171C00874B1B6813F4003F03D06368002B00F069
:10172C00BF81236813F0020F75D0814B5B6813F0F7
:10173C000C0F5FD07E4B5B6803F00C03082B54D06E
:10174C002369002B00F08A807A4B01221A60FFF784
:10175C0081FF0546764B1B6813F0020F75D1FFF71E
:10176C0079FF401B0228F5D903209EE1704A1368CB
:10177C0043F480331360636843B3FFF76BFF054694
:10178C006B4B1B6813F4003FCBD1FFF763FF401B7F
:10179C006428F5D9032088E1B3F5A02F09D0644B58
:1017AC001A6822F480321A601A6822F480221A60B5
:1017BC00E1E703F18043A3F53C331A6842F480223D
:1017CC001A601A6842F480321A60D4E7FFF742FFBD
:1017DC000546574B1B6813F4003FA2D0FFF73AFFA6
:1017EC00401B6428F5D903205FE1514B5B6813F46F
:1017FC00803FA5D14E4B1B6813F0020F03D0236919
:10180C00012B40F04F814A4A136823F0F8036169B9
:10181C0043EAC1031360236813F0080F33D0A369A4
:10182C00002B5CD0434B0122C3F88024FFF712FF3E
:10183C0005463F4B5B6A13F0020F21D1FFF70AFFFD
:10184C00401B0228F5D903202FE1394A136823F0F5
:10185C00F803616943EAC1031360DCE7354B0022EE
:10186C001A60FFF7F7FE0546314B1B6813F0020FA9
:10187C00D1D0FFF7EFFE401B0228F5D9032014E16D
:10188C000120FFF701FF236813F0040F00F096808E
:10189C00274BDB6913F0805F34D1254BDA6942F0BA
:1018AC008052DA61DB6903F080530193019B0125BF
:1018BC00214B1B6813F4807F26D0E368012B3DD0AD
:1018CC00002B53D103F1804303F504331A6A22F041
:1018DC0001021A621A6A22F004021A6233E0154BF2
:1018EC000022C3F88024FFF7B5FE0546104B5B6A57
:1018FC0013F0020FC7D0FFF7ADFE401B0228F5D93D
:10190C000320D2E00025D3E70B4A136843F480731D
:10191C001360FFF79FFE0646074B1B6813F4807F8E
:10192C00CBD1FFF797FE801B6428F5D90320BCE0D0
:10193C000010024000004242007000405F4A136AEF
:10194C0043F001031362E36833B3FFF783FE0646EB
:10195C005A4B1B6A13F0020F2FD1FFF77BFE801B33
:10196C0041F288339842F3D903209EE0052B09D02D
:10197C00524B1A6A22F001021A621A6A22F004020D
:10198C001A62E0E74D4B1A6A42F004021A621A6AB4
:10199C0042F001021A62D6E7FFF75CFE0646474B9F
:1019AC001B6A13F0020F08D0FFF754FE801B41F2A4
:1019BC0088339842F3D9032077E0E5B9E369002B2B
:1019CC0072D03E4A526802F00C02082A56D0022B02
:1019DC0017D03B4B00221A66FFF73CFE0446374BF0
:1019EC001B6813F0007F47D0FFF734FE001B022862
:1019FC00F5D9032059E0314AD36923F08053D361E0
:101A0C00DCE72F4B00221A66FFF724FE05462B4B12
:101A1C001B6813F0007F06D0FFF71CFE401B02284A
:101A2C00F5D9032041E0236AB3F5803F1AD023494E
:101A3C004B6823F47413226A606A024313434B60AD
:101A4C001F4B01221A66FFF705FE04461B4B1B6851
:101A5C0013F0007F0ED1FFF7FDFD001B0228F5D916
:101A6C00032022E0154A536823F40033A1680B438A
:101A7C005360DCE7002018E0002016E0012B16D0A4
:101A8C000E4B5B6803F48031226A914211D103F44E
:101A9C007013626A93420ED1002006E00120704759
:101AAC00012002E0012000E0002002B070BD012006
:101ABC00FBE70120F9E70120F7E700BF0010024027
:101ACC00000042420F4B5B6803F00C02082A01D065
:101ADC000D487047C3F383420C49885C13F4803F74
:101AEC000BD0084B5B68C3F34043094AD35C064AEE
:101AFC0002FB00F0B0FBF3F07047064B03FB00F069
:101B0C00704700BF0010024000127A0064320008D7
:101B1C007432000800093D00002800F0A08070B568
:101B2C000D460446524B1B6803F007038B420BD245
:101B3C004F4A136823F007030B431360136803F039
:101B4C0007038B4240F08D80236813F0020F17D0EF
:101B5C0013F0040F04D0474A536843F4E063536016
:101B6C00236813F0080F04D0424A536843F46053BF
:101B7C005360404A536823F0F003A1680B43536051
:101B8C00236813F0010F31D06368012B20D0022B96
:101B9C0025D0384A126812F0020F64D035494A68D1
:101BAC0022F0030213434B60FFF754FD0646314B02
:101BBC005B6803F00C036268B3EB820F16D0FFF77F
:101BCC0049FD801B41F288339842F0D9032045E04F
:101BDC00284A126812F4003FE0D101203EE0254A69
:101BEC00126812F0007FD9D1012037E0204B1B681E
:101BFC0003F00703AB420AD91D4A136823F007030D
:101C0C002B431360136803F00703AB422DD12368F9
:101C1C0013F0040F06D0174A536823F4E063E1680D
:101C2C000B435360236813F0080F07D0114A536815
:101C3C0023F46053216943EAC1035360FFF742FF69
:101C4C000C4B5B68C3F303130B4AD35CD8400B4BB0
:101C5C0018600B4B1868FFF7B9FC002070BD012011
:101C6C0070470120FAE70120F8E70120F6E700BFF2
:101C7C0000200240001002407832000808000020CA
:101C8C0004000020014B1868704700BF08000020BA
:101C9C0008B5FFF7F7FF044B5B68C3F30223034A55
:101CAC00D35CD84008BD00BF001002408832000849
:101CBC0008B5FFF7E7FF044B5B68C3F3C223034A85
:101CCC00D35CD84008BD00BF001002408832000829
:101CDC0070B582B00024A446A6E0804DAB4210D073
:101CEC0007D97F4DAB420CD005F58035AB4208D0FF
:101CFC0013E0A5F58015AB4203D005F57025AB427A
:101D0C0007D18B68002B58D0012B51D0426108248D
:101D1C0003E0A5F58015AB42F3D0BEF1FF0F4ED812
:101D2C000646BEF1FF0F4CD84FEA8C0233680F25E4
:101D3C00954023EA050304FA02F2134333604B681F
:101D4C0013F0805F6ED0674B9A6942F001029A6182
:101D5C009B6903F001030193019B4FEA9C02951CC4
:101D6C00614B53F825600CF00305AD000F23AB401D
:101D7C0026EA03065D4B984229D003F5806398420E
:101D8C0000F08E8003F58063984200F08B8003F5A1
:101D9C008063984219D004231AE0CC68BDE7CC6864
:101DAC000434BAE7CC680834B7E7CC680C34B4E731
:101DBC0002610824B1E70024AFE70424ADE7061D57
:101DCC00AFE7ACF108029200B0E7032300E0002378
:101DDC00AB4033430232444D45F822304B6813F488
:101DEC00801F61D0424A936843EA0E0393604B68AC
:101DFC0013F4001F5ED03E4AD36843EA0E03D3604F
:101E0C004B6813F4003F5BD0394A536843EA0E0326
:101E1C0053604B6813F4803F58D0354A136843EA3B
:101E2C000E0313600CF1010C0B6833FA0CF253D057
:101E3C00012202FA0CF203EA020E32EA0303F1D198
:101E4C004B68122B3FF649AF122B3FF666AF01A53C
:101E5C0055F823F00F1D0008A71D0008B11D000840
:101E6C00C31D0008271D0008271D0008271D00089A
:101E7C00271D0008271D0008271D0008271D000826
:101E8C00271D0008271D0008271D0008271D000816
:101E9C00271D0008271D0008AB1D0008B71D0008F2
:101EAC00012395E7022393E7114A936823EA0E0373
:101EBC0093609CE70E4AD36823EA0E03D3609FE736
:101ECC000B4A536823EA0E035360A2E7084A1368CF
:101EDC0023EA0E031360A5E702B070BD00002210C8
:101EEC0000003110001002400000014000080140C9
:101EFC0000040140034690F82120D2B2022A06D0F9
:101F0C0004228263002280F820200120704701689F
:101F1C000A6822F00E020A6001680A6822F00102C7
:101F2C000A60026CC06B012101FA02F2426083F874
:101F3C002110002083F820007047000008B590F8AD
:101F4C002130DBB2022B03D004238363012008BDB4
:101F5C000268136823F00E0313600268136823F001
:101F6C00010313600368194A934214D0143293424C
:101F7C001FD0143293421ED0143293421ED014320E
:101F8C0093421ED01432934202D04FF0807203E081
:101F9C004FF4801200E001220D4B5A60012380F8AF
:101FAC002130002380F82030436B6BB19847002020
:101FBC00CDE71022F0E74FF48072EDE74FF480523A
:101FCC00EAE74FF48032E7E70020C0E70800024060
:101FDC0000000240074AD36823F4E0631B041B0C87
:101FEC00000200F4E060034343F0BF6343F40033AA
:101FFC00D360704700ED00E000B5194BDB68C3F30C
:10200C000223C3F1070CBCF1040F28BF4FF0040CE2
:10201C0003F1040EBEF1060F18D9033B4FF0FF3E3F
:10202C000EFA0CFC21EA0C0199400EFA03FE22EA8E
:10203C000E020A4300280BDB1201D2B200F1604001
:10204C0000F5614080F800235DF804FB0023E5E710
:10205C0000F00F001201D2B2024B1A54F4E700BF89
:10206C0000ED00E014ED00E0002807DB00F01F029B
:10207C00400901239340024A42F82030704700BFC8
:10208C0000E100E00138B0F1807F0BD24FF0E0238B
:10209C005861054AF02182F823100020986107222C
:1020AC001A6170470120704700ED00E0026802F1F0
:1020BC000C0353E8003F23F490730C3242E80031D8
:1020CC000029F3D1026802F1140353E8003F23F016
:1020DC000103143242E800310029F3D1036B012BC8
:1020EC0005D0202380F84230002303637047026838
:1020FC0002F10C0353E8003F23F010030C3242E8CA
:10210C0000310029F3D1ECE790F84130DBB2212B00
:10211C0001D0022070478368B3F5805F17D0036A43
:10212C005A1C02621A7803685A60C38C9BB2013B3A
:10213C009BB2C3844BB90268D36823F08003D3608D
:10214C000268D36843F04003D360002070470369F2
:10215C00002BE4D1036A1B880268C3F308035360A5
:10216C00036A02330362E0E710B5044602681369A0
:10217C0023F44053C1680B43136183680269134312
:10218C0042691A430168CB6823F4B05323F00C0363
:10219C001343CB600268536923F4407381690B438A
:1021AC0053610268134B9A4220D0FFF771FD02462F
:1021BC0002EB820202EB820263689B00B2FBF3F239
:1021CC000D48A0FB02314909642303FB11231B01B9
:1021DC003233A0FB03035B0903F0F00202EB0112A4
:1021EC0003F00F03216813448B6010BDFFF760FDF3
:1021FC000246DDE7003801401F85EB512DE9F04325
:10220C0083B005460E4617469946DDF828802B68A4
:10221C001C6836EA04040CBF01240024BC4228D1FB
:10222C00B8F1FF3FF3D0FFF715FAA0EB09004045DA
:10223C0023D8B8F1000F22D02B68DA6812F0040F03
:10224C00E5D0802EE3D0402EE1D01A6812F0080FB2
:10225C00DDD0002401941A6801925B680193019B04
:10226C002846FFF723FF08236B6485F840400120C4
:10227C0000E0002003B0BDE8F0830320FAE7032060
:10228C00F8E760B310B5044690F8413013B324233B
:10229C0084F841302268D36823F40053D36020467D
:1022AC00FFF762FF2268136923F4904313612268DD
:1022BC00536923F02A0353612268D36843F4005313
:1022CC00D36000206064202384F8413084F84230CD
:1022DC00606310BD80F84030FEF790FBD7E701201B
:1022EC0070472DE9F04182B01E4690F84130DBB2C8
:1022FC00202B56D104460D469046002955D00AB9DC
:10230C0001204FE000234364212380F84130FFF784
:10231C00A1F90746A4F82480A4F82680A368B3F595
:10232C00805F02D04FF0000814E023692BB34FF00C
:10233C0000080FE0202384F84130032032E038F805
:10234C00023B2268C3F308035360E28C92B2013A59
:10235C0092B2E284E38C9BB293B100963B4600228E
:10236C0080212046FFF74AFF0028E3D1002DE6D05C
:10237C0015F8012B23685A60E7E7A8460025E9E722
:10238C0000963B46002240212046FFF737FF18B944
:10239C00202384F8413005E0202384F841300320C9
:1023AC0000E0022002B0BDE8F0810120FAE770479E
:1023BC0008B50168CA6822F04002CA60202280F881
:1023CC004120FFF7F4FF002008BD7047704708B5A7
:1023DC00406A0023C385C384FFF7F8FF08BD70472C
:1023EC0090F84230DBB2222B69D18368B3F5805F61
:1023FC004FD0826AB3F5805F04D0002B56D10369AD
:10240C00002B53D103685B681370836A01338362BA
:10241C00C38D9BB2013B9BB2C385002B51D100B540
:10242C0083B00268D36823F02003D3600268D368BA
:10243C0023F48073D3600268536923F00103536162
:10244C00202380F8423000234363036B012B33D1EC
:10245C0000230363026802F10C0353E8003F23F0EE
:10246C0010030C3242E800310029F3D103681A68DA
:10247C0012F0100F06D0002201921A6801925B68CC
:10248C000193019B818DFFF7AAFF002003B05DF83B
:10249C0004FB0269002AACD1826A03685B68C3F34F
:1024AC0008031380836A02338362B1E703685B68B5
:1024BC0003F07F031370A8E7FFF787FFE5E702201F
:1024CC00704700207047000030B583B004460268A6
:1024DC001368D068516913F00F0505D113F0200F64
:1024EC0002D010F0200F19D12DB111F0010119D12A
:1024FC0010F4907F16D1216B01297DD013F0800F41
:10250C0003D010F0800F40F0188113F0400F03D06F
:10251C0010F0400F40F0158103B030BD2046FFF79E
:10252C005FFFF9E713F0010F06D010F4807F03D0A2
:10253C00626C42F00102626413F0040F04D019B112
:10254C00626C42F00202626413F0020F04D019B103
:10255C00626C42F00402626413F0080F07D010F0B2
:10256C00200F00D119B1626C42F008026264626CF7
:10257C00002AD1D013F0200F02D010F0200F29D157
:10258C0023685B6903F04003626C12F0080F00D102
:10259C0063B32046FFF78AFD23685B6913F0400F95
:1025AC0020D0226802F1140353E8003F23F04003CB
:1025BC00143242E800310029F3D1E36B73B1634A62
:1025CC005A63E06BFFF7BAFC0028A5D0E06B436BB5
:1025DC009847A1E72046FFF703FFD1E72046FFF716
:1025EC00F5FE99E72046FFF7F1FE95E72046FFF749
:1025FC00EDFE002363648FE713F0100F3FF47EAF02
:10260C0010F0100F3FF47AAF00230193136801937D
:10261C0053680193019B536913F0400F51D0E26B47
:10262C0013685B689BB2002B3FF476AFA18D994287
:10263C007FF672AFE3859369202B37D0226802F1C5
:10264C000C0353E8003F23F480730C3242E8003152
:10265C000029F3D1226802F1140353E8003F23F060
:10266C000103143242E800310029F3D1226802F14F
:10267C00140353E8003F23F04003143242E80031C6
:10268C000029F3D1202384F84230002323632268ED
:10269C0002F10C0353E8003F23F010030C3242E824
:1026AC0000310029F3D1E06BFFF724FC02236363B4
:1026BC00A18DE38D9BB2C91A89B22046FFF78FFE1C
:1026CC002AE7A18DE38D9BB2C91A89B2E38D9BB227
:1026DC00002B3FF421AF00293FF41EAF226802F11A
:1026EC000C0353E8003F23F490730C3242E80030A3
:1026FC000028F3D1226802F1140353E8003F23F0C1
:10270C000103143242E800300028F3D1202384F86E
:10271C00423000232363226802F10C0353E8003F8C
:10272C0023F010030C3242E800300028F3D10223CE
:10273C0063632046FFF753FEEEE62046FFF7E4FC0A
:10274C00EAE62046FFF734FEE6E600BFDB2300088E
:10275C0081628285C28500234364222380F8423043
:10276C00036923B10268D36843F48073D3600268B1
:10277C00536943F0010353610268D36843F02003AB
:10278C00D3600020704708B590F84230DBB2202BA4
:10279C0008D149B10AB9012008BD00230363FFF732
:1027AC00D7FFF9E70220F7E70120F5E770470000B3
:1027BC00FFF7FCFF0B480C490C4A002302E0D458ED
:1027CC00C4500433C4188C42F9D3094A094C002371
:1027DC0001E013600432A242FBD300F00FF8FDF7C6
:1027EC00F1FF70470000002070000020CC32000880
:1027FC007000002088010020FEE7000070B5002664
:10280C000C4D0D4C641BA410A64209D100F098FC91
:10281C0000260A4D0A4C641BA410A64205D170BDBB
:10282C0055F8043B98470136EEE755F8043B9847BA
:10283C000136F2E7C4320008C4320008C432000882
:10284C00C832000803460244934200D1704703F893
:10285C00011BF9E70EB46FF0004100B59CB01DAB45
:10286C0002900690079104910848094953F8042BEB
:10287C000591006802A9019300F066F80022029B02
:10288C001A701CB05DF804EB03B070470C0000200C
:10289C000802FFFF2DE9F0471F468E688246BE42B4
:1028AC000C4690460B682CD88A8912F4906F26D06F
:1028BC006569096905EB4505A3EB010905EBD575C0
:1028CC007B1C4B446D109D4238BF1D46530527D5CC
:1028DC00294600F069FB064660B34A46216900F0C0
:1028EC00D3FAA38923F4906343F08003A381266178
:1028FC004E4426603E466561A5EB0905A560BE42C7
:10290C0000D93E4632464146206800F0CBFA002002
:10291C00A3689B1BA360236833442360BDE8F08746
:10292C002A4600F0B5FB06460028E0D15046216946
:10293C0000F0D2FA0C23CAF80030A3894FF0FF3014
:10294C0043F04003A381E9E72DE9F04F98468B89CA
:10295C0007461B060D4614469DB00ED50B6963B990
:10296C00402100F021FB2860286120B90C233B603A
:10297C004FF0FF30D0E040236B61002309932023FC
:10298C008DF8293030234FF00109CDF80C80DFF899
:10299C00A0818DF82A3023469A4613F8012B0AB1F0
:1029AC00252AF9D1BAEB040B0BD05B4622462946FB
:1029BC003846FFF76FFF013000F0A980099A5A449E
:1029CC0009929AF80030002B00F0A18000234FF000
:1029DC00FF32CDE905230AF1010A049307938DF820
:1029EC0053301A935446052214F8011B504800F03A
:1029FC003DFA049AD8B9D00644BF20238DF8533041
:102A0C00110744BF2B238DF853309AF800302A2B32
:102A1C0015D0544600204FF00A0C079A214611F8A5
:102A2C00013B303B092B4DD9B0B1079214E0A0EB20
:102A3C00080309FA03F31343A2460493D2E7039B5A
:102A4C00191D1B680391002BBBBF5B4242F00202B5
:102A5C0007930793B8BF049223782E2B0CD163787D
:102A6C002A2B34D1039B02341A1D1B680392002BB2
:102A7C00B8BF4FF0FF330593DFF8B8A003225046E0
:102A8C00217800F0F3F938B14022049BA0EB0A0046
:102A9C00824013430134049314F8011B0622264888
:102AAC008DF8281000F0E2F9002838D0234B1BBB1E
:102ABC00039B073323F0070308330393099B334429
:102ACC00099368E70C4601200CFB0232A6E70023B1
:102ADC004FF00A0C194601340593204610F8012BCF
:102AEC00303A092A03D9002BC6D00591C4E7044615
:102AFC0001230CFB0121F0E703AB00932A46384677
:102B0C000F4B04A9AFF30080421C0646D6D1AB890B
:102B1C005B063FF52DAF09981DB0BDE8F08F03ABF8
:102B2C0000932A463846064B04A900F07DF8EBE7E3
:102B3C0090320008963200089A320008000000001B
:102B4C00A12800082DE9F047164699468A680B69BA
:102B5C0007469342B8BF1346336091F843200C46A6
:102B6C00DDF820800AB1013333602368990642BF37
:102B7C00336802333360256815F0060506D104F17D
:102B8C00190AE36832689B1AAB422BDC94F8432099
:102B9C00131E226818BF0123920630D449463846CA
:102BAC0004F14302C047013023D02368226903F0AB
:102BBC000603042B14BF002533684FF0000608BF32
:102BCC00E56804F11A0408BFED1A54F8123C08BF6A
:102BDC0025EAE5759342C4BF9B1AED18B5421AD18C
:102BEC00002008E00123524649463846C0470130D0
:102BFC0003D14FF0FF30BDE8F0870135C1E730203D
:102C0C00E11881F843005A1C94F845102244023311
:102C1C0082F84310C2E70123224649463846C04792
:102C2C000130E6D00136D9E72DE9FF470F7E9146FA
:102C3C00782F80460C469A460C9D01F1430207D82A
:102C4C00622F0AD8002F00F0D580582F00F0C180D9
:102C5C0004F1420584F842703AE0A7F16303152BA6
:102C6C00F6D801A151F823F0CD2C0008E12C000876
:102C7C005D2C00085D2C00085D2C00085D2C000804
:102C8C00E12C00085D2C00085D2C00085D2C000870
:102C9C005D2C0008E72D00080D2D0008A12D000863
:102CAC005D2C00085D2C0008092E00085D2C000826
:102CBC000D2D00085D2C00085D2C0008A92D0008C6
:102CCC002B681A1D1B682A6004F1420584F84230F7
:102CDC000123A0E020682B68070603F1040129609A
:102CEC0001D51E6803E04606FBD5B3F90060002E43
:102CFC0003DA2D23764284F843300A23594812E034
:102D0C002B682068191D2960050601D51E6802E094
:102D1C004106FBD51E886F2F0CBF08230A23514890
:102D2C00002184F843106568002DA8BF2168A560B8
:102D3C00A4BF21F0040121600EB9002D4BD0154623
:102D4C00B6FBF3F103FB1167C75D05F8017D374650
:102D5C00BB420E46F4D9082B0BD12368DE0708D5ED
:102D6C00236961689942DEBF302305F8013C05F107
:102D7C00FF35521B22614B4621464046CDF800A040
:102D8C0003AAFFF7DFFE01304AD14FF0FF3004B049
:102D9C00BDE8F087236843F020032360782732488E
:102DAC0084F84570236829681F0651F8046B02D417
:102DBC005F0648BFB6B2DF0748BF43F02003296067
:102DCC0048BF23601EB9236823F02003236010231F
:102DDC00A6E72448E4E71546BDE72B682668181DCE
:102DEC006169286035061B6801D5196002E0700620
:102DFC00FBD51980002315462361BCE72B68002105
:102E0C001A1D2A601D686268284600F02FF808B168
:102E1C00401B606063682361002384F84330AAE799
:102E2C002A46494640462369D0470130ADD0236835
:102E3C009B0713D4E068039B9842B8BF1846A6E7DB
:102E4C000123324649464046D04701309DD00135DA
:102E5C00E36803995B1AAB42F2DCEBE7002504F163
:102E6C001906F5E7A1320008B2320008034610B586
:102E7C00C9B202449342184601D1002003E0047801
:102E8C0001338C42F6D110BD0A44914200F1FF335C
:102E9C0000D1704710B511F8014B914203F8014F66
:102EAC00F9D110BD884210B501EB020402D984425D
:102EBC00234607D8431EA14208D011F8012B03F872
:102ECC00012FF8E7014602448A4200D110BD13F8E5
:102EDC00014D02F8014DF7E738B50546002940D001
:102EEC0051F8043C0C1F002BB8BFE41800F010F98B
:102EFC001C4A136833B9636014602846BDE8384037
:102F0C0000F007B9A34208D9206821188B4201BFF1
:102F1C0019685B6809182160EDE71A465B680BB10C
:102F2C00A342FAD911685018A0420BD12068014471
:102F3C00501883421160E0D118685B680844106037
:102F4C005360DAE702D90C232B60D6E720682118EE
:102F5C008B4201BF19685B6809182160636054607B
:102F6C00CBE738BD7801002070B50E4E0C463168A9
:102F7C00054611B900F0BCF830602146284600F037
:102F8C00B7F8431C0AD0C41C24F00304A04207D099
:102F9C00211A284600F0ACF8013001D14FF0FF3473
:102FAC00204670BD7C0100202DE9F041CD1C25F0A0
:102FBC00030508350C2D38BF0C25002D074601DB09
:102FCC00A94205D90C2300263B603046BDE8F081B0
:102FDC002E4E00F09DF833681C4634BB294638460B
:102FEC00FFF7C2FF431C04464DD134682646002E21
:102FFC0040D123683146384604EB030800F078F8DA
:10300C0080453AD123680335ED1A25F003050835C0
:10301C000C2D38BF0C2538462946FFF7A5FF01308B
:10302C002BD023682B4423600EE02268521B1ED445
:10303C000B2A16D96119A342256018BF5960636821
:10304C0008BF316062514B60384604F10B0600F04A
:10305C0060F826F00706231DF21AB6D09B1BA3506E
:10306C00B3E76268A3420CBF32605A60ECE72346B8
:10307C006468B2E734467668B9E70C2338463B609F
:10308C0000F047F8A1E72560DEE700BF78010020DB
:10309C002DE9F041804614460E4621B91146BDE893
:1030AC00F041FFF781BF2AB9FFF716FF25462846E6
:1030BC00BDE8F08100F02EF88442074602D8B4EB4C
:1030CC00500F12D821464046FFF76EFF05460028E8
:1030DC00EDD0BC422246314628BF3A46FFF7D4FE1B
:1030EC0031464046FFF7F8FEE1E73546DFE70000E2
:1030FC0038B50023054D044608462B6000F012F845
:10310C00431C02D12B6803B1236038BD8001002021
:10311C007047704751F8043C181F002BBCBF0B586C
:10312C00C0187047044A05491368002B08BF0B46AA
:10313C001844106018467047840100208801002054
:10314C00F8B500BFF8BC08BC9E467047F8B500BF88
:08315C00F8BC08BC9E46704758
:10316400040000004572726F723A205468696575F4
:10317400206475206C6965750D0A00004572726FD4
:10318400723A2054687561206475206C69657572A3
:103194000D0A00004572726F723A20536169206310
:1031A4007520706861700D0A000000004572726F2E
:1031B400723A205468616E67206B686F6E6720688E
:1031C4006F70206C650D0A004572726F723A204E62
:1031D400676179206B686F6E6720686F70206C651B
:1031E4000D0A00004572726F723A2047696F206BB6
:1031F400686F6E6720686F70206C650D0A000000B0
:1032040050687574206B686F6E6720686F70206CEF
:10321400650D0A0047696179206B686F6E672068E5
:103224006F70206C650D0A0068656C6C6F0000009F
:10323400646174653A20253032642F253032642F5E
:103244002564000074696D653A20253032643A259E
:103254003032643A25303264000000000F0A18004E
:1032640002030405060708090A0B0C0D0E0F1010C3
:10327400010200000000000000000000010203043D
:10328400060708090000000001020304232D302B67
:103294002000686C4C006566674546470030313253
:1032A40033343536373839414243444546003031AA
:1032B4003233343536373839616263646566000009
:0432C4008501000878
:0432C8005D0100089C
:1032CC00010000001000000000127A001000002025
:1032DC0000000000000000000000000000000000E2
:1032EC0000000000000000000000000000000000D2
:1032FC0000000000000000000000000000000000C2
:10330C0000000000000000000000000000000000B1
:10331C0000000000000000000000000000000000A1
:10332C000000000000000000000000000000000091
:04000005080027BD0B
:00000001FF
