:020000040800F2
:10000000005000203F160008E50B0008E90B00082F
:10001000ED0B0008F10B0008F50B000800000000D4
:10002000000000000000000000000000F90B0008C4
:10003000FD0B000800000000010C000895020008FC
:1000400080B582B00020019000F0DEFD00F01AF8CB
:1000500000F04AF800F082F840F20000C2F200001E
:10006000009041F24661C0F600010922642300F0CD
:1000700097FC009840F24C01C2F20001012201F00D
:0400800029FAFEE774
:1000840080B590B006A80090282100F075FD009876
:100094000023059304930393029301930122069290
:1000A4004FF48031079108930A9202220D920E9127
:1000B4004FF4E0110F9100F07DF908B100F06AF8F7
:1000C4000F20019002210291002003904FF48062DE
:1000D4000492059001A800F0CBFF08B100F05AF893
:0400E40010B080BD1B
:1000E80080B58AB00020099008900790069041F2E8
:1000F8001800C4F20200016841F0200101600068A4
:1001080000F020000590059841F21800C4F20200A2
:10011800016841F004010160006800F004000490E7
:10012800049840F60000C4F201000390FE210191FA
:100138000022029200F084FF019A02990398069225
:100148000122079208910221099106A900F012FEE6
:040158000AB080BDAC
:10015C0080B582B040F20000C2F20000019043F67C
:10016C000001C4F2010101604FF4165141600021FD
:10017C008160C16001610C2242618161C16101F049
:0C018C00FDF808B100F002F802B080BDE0
:0401980072B6FEE756
:10019C0083B041F21800C4F20200016841F0010181
:1001AC000160006800F001000290029841F21C000E
:1001BC00C4F20200016841F080510160006800F057
:1001CC008050019001980421C4F20101086800904C
:1001DC00009820F0E0600090009840F000700090D3
:0801EC000098086003B07047A1
:1001F40080B58CB00B9000200A900990089007906D
:100204000B98006843F60001C4F2010188423DD115
:1002140041F21800C4F20200016841F48041016017
:10022400006800F480400690069841F21800C4F279
:100234000200016841F004010160006800F004005C
:10024400059005984FF40070079002200890032051
:100254000A9040F60000C4F20100019007A902913F
:1002640000F08AFD019802994FF4806207920022FF
:1002740003920892099200F07FFD039A25200490CE
:10028400114600F017FD049800F06CF80CB080BD26
:0802940080B500F001FD80BD02
:0C029C0040F24800C2F200000068704709
:1002A80080B582B00190019800F002F802B080BDDC
:1002B80083B00290029800F0070000904EF60C51AF
:1002C800CEF200010868019001984FF6FF02104035
:1002D80001900198009A40EA02200022C0F2FA52E6
:0C02E800104301900198086003B07047BB
:1002F4004EF60C50CEF200000068C0F302207047A6
:1003040088B0079006910592079800F007000490C2
:100314000498C0F10700052802D30420019003E0EB
:100324000498C0F1070001900198039004980430E8
:10033400062802D80020009002E0049803380090B8
:100344000098029006980399012202FA01F10139FA
:100354000840029B984005999A40013A114008438D
:0403640008B0704726
:1003680080B582B08DF807009DF9070000F002F80B
:0403780002B080BD92
:10037C0081B08DF803009DF9030000280CD49DF981
:10038C00031001F01F02012090404A094EF20011A7
:0C039C00CEF2000141F8220001B07047D1
:1003A80080B582B00190019800F0BCFC02B080BD1D
:1003B80080B586B00490049818B901208DF817000C
:1003C800C6E204980078C007002800F0968041F241
:1003D8000400C4F20200006800F00C00042810D0E9
:1003E80041F20400C4F20200006800F00C00082882
:1003F80017D141F20400C4F202000068C0030028CB
:100408000FD541F20000C4F2020000688003002802
:1004180006D50498406818B901208DF8170097E2AE
:100428006BE004984068B0F5803F08D141F20001C4
:10043800C4F20201086840F4803008602DE0049896
:10044800406860B941F20001C4F20201086820F472
:1004580080300860086820F4802008601DE0049857
:100468004068B0F5A02F0CD141F20001C4F202019E
:10047800086840F480200860086840F4803008600C
:100488000BE041F20001C4F20201086820F4803058
:100498000860086820F48020086004984068B0B1BB
:1004A800FFF7F8FE039041F20000C4F20200006872
:1004B800800300280AD4FFF7EDFE0399401A652847
:1004C80003D303208DF8170042E2ECE715E0FFF7AD
:1004D800E1FE039041F20000C4F2020000688003CC
:1004E80000280AD5FFF7D6FE0399401A652803D3DA
:1004F80003208DF817002BE2ECE7049800788007BA
:1005080000287BD541F20400C4F20200006810F014
:100518000C0F10D041F20400C4F20200006800F091
:100528000C00082824D141F20400C4F2020000683B
:10053800C00300281CD441F20000C4F20200006885
:100548008007002807D504980069012803D00120F6
:100558008DF81700FCE141F20001C4F202010868BD
:1005680020F0F800049A526940EAC200086045E0A9
:100578000498006938B30021C4F2422101200860C0
:10058800FFF788FE039041F20000C4F20200006801
:10059800800700280AD4FFF77DFE0399401A032834
:1005A80003D303208DF81700D2E1ECE741F20001F4
:1005B800C4F20201086820F0F800049A526940EA7F
:1005C800C20008601AE00021C4F24221002008603D
:1005D800FFF760FE039041F20000C4F202000068D9
:1005E800800700280AD5FFF755FE0399401A03280B
:1005F80003D303208DF81700AAE1ECE704980078EC
:10060800000700283ED504988069F8B140F280417F
:10061800C4F2422101200860FFF73CFE039041F23A
:100628002400C4F202000068800700280AD4FFF7FB
:1006380031FE0399401A032803D303208DF81700CD
:1006480086E1ECE7012000F087F91BE040F28041E9
:10065800C4F2422100200860FFF71CFE039041F21B
:100668002400C4F202000068800700280AD5FFF7BA
:1006780011FE0399401A032803D303208DF81700AD
:1006880066E1ECE7049800784007002840F1BB8059
:1006980000208DF8070041F21C00C4F20200006837
:1006A800C00000280FD441F21C00C4F20200016807
:1006B80041F080510160006800F08050009000987F
:1006C80001208DF8070047F20000C4F2000000681E
:1006D800C00500281DD447F20001C4F200010868D3
:1006E80040F480700860FFF7D5FD039047F20000E2
:1006F800C4F200000068C00500280AD4FFF7CAFD4C
:100708000399401A652803D303208DF817001FE1C9
:10071800ECE70498C068012808D141F22001C4F22E
:100728000201086840F0010008602CE00498C068E5
:1007380060B941F22001C4F20201086820F001000A
:100748000860086820F0040008601CE00498C0688D
:1007580005280CD141F22001C4F20201086840F0DA
:1007680004000860086840F0010008600BE041F2EE
:100778002001C4F20201086820F00100086008683E
:1007880020F0040008600498C068C0B1FFF782FD3B
:10079800039041F22000C4F202000068800700289C
:1007A8000CD4FFF777FD0399401A41F2893188424A
:1007B80003D303208DF81700CAE0EAE717E0FFF734
:1007C80069FD039041F22000C4F20200006880072E
:1007D80000280CD5FFF75EFD0399401A41F28931D4
:1007E800884203D303208DF81700B1E0EAE79DF8AB
:1007F8000700012807D141F21C01C4F20201086870
:1008080020F0805008600498C069002800F09D809E
:1008180041F20400C4F20200006800F00C0008284D
:1008280073D00498C069022853D16021C4F24221D0
:1008380000200860FFF72EFD039041F20000C4F28B
:1008480002000068800100280AD5FFF723FD0399FC
:10085800401A032803D303208DF8170078E0ECE74B
:100868000498006AB0F5803F0AD141F20401C4F24D
:100878000201086820F40030049A92681043086066
:1008880041F20401C4F20201086820F47410049BC8
:100898001A6A5B6A1A43104308606021C4F2422155
:1008A80001200860FFF7F6FC039041F20000C4F253
:1008B80002000068800100280AD4FFF7EBFC0399C6
:1008C800401A032803D303208DF8170040E0ECE713
:1008D8001AE06021C4F2422100200860FFF7DAFC28
:1008E800039041F20000C4F2020000688001002871
:1008F8000AD5FFF7CFFC0399401A032803D3032036
:100908008DF8170024E0ECE71FE00498C06901287F
:1009180003D101208DF817001AE041F20400C4F257
:10092800020000680290029800F480300499096A75
:10093800884206D1029800F470100499496A8842E6
:1009480003D001208DF8170002E000208DF8170071
:080958009DF8170006B080BDF8
:1009600082B00190019840F25C01C2F20001096876
:10097000C90844F6D352C1F26202A1FB02218909DF
:100980004843009000BF0098411E00910028F9D113
:0409900002B07047FA
:0C09940040F25C00C2F2000000687047F6
:1009A00080B58AB008900791ADF81A200593002011
:1009B0000290089890F84100202874D1079810B14F
:1009C000BDF81A0018B901208DF827006EE00899CB
:1009D000002048640899212081F84100FFF75EFC5F
:1009E0000290BDF81A0008998884BDF81A00089989
:1009F000C88408988068B0F5805F07D108980069BE
:100A000020B9002004900798039003E00798049011
:100A1000002003900898C08C58B30898029B059951
:100A20006A4611608021002200F044F838B108992C
:100A3000202081F8410003208DF8270036E004983B
:100A400050B9039800886FF35F20089909684860DF
:100A500003980230039007E0049800780899096829
:100A600048600498013004900899C88C0138C88403
:100A7000D0E70898029B05996A4611604021002240
:100A800000F018F838B10899202081F841000320BF
:100A90008DF827000AE00899202081F84100002005
:100AA0008DF8270002E002208DF827009DF827002E
:040AB0000AB080BD4B
:100AB40080B586B0DDF820C0049003918DF80B203A
:100AC400019304980068006803990840401AB0FA3A
:100AD40080F040099DF80B1088423CD10898013001
:100AE400C0B3FFF7D9FB0199401A0899884201D88D
:100AF400089818B903208DF817002FE004980068AF
:100B0400C0684007002825D50398802822D0039880
:100B140040281FD0049800680068C0F3C000012872
:100B240018D1002000900498006800680090049890
:100B34000068406800900098049800F021FD049932
:100B4400082048640499002081F8400001208DF8B1
:100B5400170003E0B5E700208DF817009DF8170093
:040B640006B080BD9A
:100B6800034C206804348047FBE7FFF765FAFEE78B
:040B780078160008E3
:100B7C0000220B0011001A0084465AB3830704D0DC
:100B8C0000F8011B013AF9D124E0C9B241EA012174
:100B9C0041EA0141202A11D3203A2DE9F0030B46FA
:100BAC000C460D460E460F4688468946A0E8FA03C9
:100BBC00203AFBD2BDE8F00320320BD0042A05D337
:100BCC0040F8041B043A05D0042AF9D200F8011BA2
:080BDC00013AFBD160467047AD
:020BE400FEE72A
:020BE60001020A
:020BE800FEE726
:020BEC00FEE722
:020BF000FEE71E
:020BF400FEE71A
:020BF800704744
:020BFC00704740
:020C000070473B
:020C0400704737
:100C080080B542F20001C4F20201086840F0100009
:100C180008600320FFF744FB0F2000F005F8FFF7FA
:060C2800B9FA002080BDB6
:100C300080B582B0009040F25C00C2F20000006813
:100C400040F25601C2F200010A784FF47A71B1FB0A
:100C5000F2F1B0FBF1F0FFF7A7FB18B101208DF81E
:100C6000070016E000980F280CD800994FF0FF30CD
:100C7000002200F021F8009840F25801C2F2000171
:100C8000086003E001208DF8070002E000208DF8E5
:0A0C900007009DF8070002B080BDC8
:100C9C0040F25600C2F20000027840F24801C2F263
:0A0CAC00000108681044086070475A
:100CB80080B586B08DF81700049103920020029049
:100CC800FFF714FB02909DF9170001900298049910
:100CD800039AFFF713FB0146019800F003F806B0EA
:020CE80080BDCD
:100CEC0082B08DF8070000919DF90700002809D407
:100CFC00009800019DF907104EF20042CEF200025E
:100D0C0088540AE0009800019DF8071001F00F01CB
:0E0D1C004EF61452CEF20002885402B0704718
:100D2C0080B582B0009000980138B0F1807F02D37A
:100D3C000120019018E0009801384EF21401CEF217
:100D4C00000108604FF0FF300F21FFF7C9FF4EF292
:100D5C001801CEF20001002008604EF21002CEF213
:0E0D6C000002072111600190019802B080BDC5
:100D7C0090B00F900E9100200D9009900E98006885
:100D8C000D99C840002800F056810D99012088402B
:100D9C000C900E9800680C9908400B900B980C99CD
:100DAC00884240F044810E9840680590002846D057
:100DBC000598012830D00598022836D005980328CC
:100DCC0053D0059811282BD00598122832D00598AD
:100DDC000021C1F21101884231D005980021C1F2E5
:100DEC00120188422BD005980021C1F221018842C2
:100DFC0025D005980021C1F2220188421FD0059808
:100E0C000021C1F23101884219D005980021C1F2AC
:100E1C003201884213D02BE00E98C068099027E06D
:100E2C000E98C0680430099022E00E98C068083013
:100E3C0009901DE00E98C0680C30099018E00E98CF
:100E4C00806810B9042009900EE00E988068012883
:100E5C0005D1082009900C980F99086104E008202E
:100E6C0009900C980F99486102E000200990FFE767
:100E7C000B98FF2802D80F98049002E00F980430CA
:100E8C000490049808900B98FF2803D80D988000C4
:100E9C00039005E00D996FF01F0000EB81000390AB
:100EAC000398079008980068079A0F21914088438F
:100EBC00099991400843089908600E98C079C006BA
:100ECC00002840F1B48041F21800C4F2020001681D
:100EDC0041F001010160006800F0010006900698E5
:100EEC000D9820F003000821C4F2010140580A902B
:100EFC000D9800F0030081000F2000FA01F10A9810
:100F0C0088430A900F9840F60001C4F20101884210
:100F1C0002D10020029021E00F9840F60041C4F26B
:100F2C000101884202D10120019015E00F9841F295
:100F3C000001C4F20101884202D10220009009E0B4
:100F4C000F9941F20042C4F201020420914208BF01
:100F5C0003200090009801900198029002980D993E
:100F6C0001F00301890000FA01F10A9808430A9084
:100F7C000A980D9921F003010822C4F2010288504D
:100F8C000E988079C006002808D50B9A40F20841CB
:100F9C00C4F2010108681043086007E00B9A40F2A4
:100FAC000841C4F201010868904308600E988079EA
:100FBC008006002808D50B9A40F20C41C4F20101BE
:100FCC0008681043086007E00B9A40F20C41C4F229
:100FDC0001010868904308600E988079800700280A
:100FEC0008D50B9A40F20441C4F201010868104381
:100FFC00086007E00B9A40F20441C4F20101086852
:10100C00904308600E988079C00740B10B9A40F26B
:10101C000041C4F2010108681043086007E00B9A14
:10102C0040F20041C4F201010868904308600D9839
:0A103C0001300D90A2E610B07047DD
:1010480082B00190ADF802108DF801209DF80100E2
:1010580020B1BDF802000199086104E0BDF8020062
:0A10680000040199086102B070470E
:1010740080B584B002900191029818B901208DF8CE
:101084000F00FEE0019842F20001C4F20201096877
:1010940001F00701884213D942F20000C4F20200B1
:1010A400016821F00701019A11430160006800F012
:1010B40007000199884203D001208DF80F00E0E079
:1010C400029800788007002824D502980078400709
:1010D400002807D541F20401C4F20201086840F473
:1010E400E0600860029800780007002807D541F204
:1010F4000401C4F20201086840F46050086041F23F
:101104000401C4F20201086820F0F000029A926817
:101114001043086002980078C007002854D0029851
:10112400406801280CD141F20000C4F202000068BA
:101134008003002803D401208DF80F00A1E01CE0F7
:101144000298406802280CD141F20000C4F2020067
:1011540000688001002803D401208DF80F0090E07E
:101164000BE041F20000C4F202000068800700288E
:1011740003D401208DF80F0083E041F20401C4F28E
:101184000201086820F00300029A526810430860C4
:10119400FFF782F8009041F20400C4F202000068F4
:1011A40000F00C0002994968890088420CD0FFF7CE
:1011B40073F80099401A41F28931884203D303201D
:1011C4008DF80F005DE0E6E7019842F20001C4F2F9
:1011D4000201096801F00701884213D242F20000BB
:1011E400C4F20200016821F00701019A1143016071
:1011F400006800F007000199884203D001208DF8AF
:101204000F003EE002980078400700280AD541F21A
:101214000401C4F20201086820F4E060029AD26872
:101224001043086002980078000700280BD541F2AB
:101234000401C4F20201086820F46050029A1269A1
:1012440040EAC200086000F021F841F20401C4F24F
:1012540002010968C9B20A0941F24D61C0F60001F0
:10126400895CC84040F25C01C2F20001086040F2AF
:101274005800C2F200000068FFF7D8FC00208DF887
:0A1284000F009DF80F0004B080BDBC
:1012900086B000200590049003900290019041F2E6
:1012A0000400C4F2020000680590059800F00C00EC
:1012B00001460091D8B30098042803D0009808286C
:1012C00006D034E041F20020C0F27A00019033E011
:1012D0000598C0F3834141F26560C0F60000405CB0
:1012E00002909DF81600C007B8B141F20400C4F2A4
:1012F00002000068C0F3404140F6E630C0F600004E
:10130000405C0490029841F20021C0F27A01484307
:101310000499B0FBF1F0039006E0029840F600114A
:10132000C0F23D01484303900398019004E041F26C
:0E1330000020C0F27A000190019806B07047CC
:1013400080B5FFF727FB41F20401C4F202010968EE
:10135000C1F3022241F25D61C0F60001895CC84020
:0213600080BD4E
:1013640080B5FFF715FB41F20401C4F202010968DC
:10137400C1F3C22241F25D61C0F60001895CC8403C
:0213840080BD2A
:1013880080B582B00090009818B901208DF8070048
:101398003BE00098806900B1FFE7009890F84100B1
:1013A80030B90099002081F840000098FEF71EFF30
:1013B8000099242081F8410000980168C86820F449
:1013C8000050C860009800F025F800980168086986
:1013D80020F49040086100980168486920F02A00CC
:1013E800486100980168C86840F40050C8600099D6
:1013F80000204864009A202182F84110009A82F85F
:101408004210009948638DF807009DF8070002B064
:0214180080BD95
:10141C0080B584B0039003980068006920F44050B4
:10142C00039A1168D26810430861039988680A69A5
:10143C00496910430843029003980068C06841F260
:10144C000C6188430299084303990968C8600398A2
:10145C000068406920F44070039A11689269104347
:10146C0048610398006843F60001C4F20101884208
:10147C0003D1FFF771FF019002E0FFF75BFF0190D2
:10148C00019819214843039A116852689200B0FBE5
:10149C00F2FC48F21F52C5F2EB12ACFB02304309CE
:1014AC00642003FB10CC322000EB0C10A0FB0202DA
:1014BC00F02000EA521000EB0310C2F34312104468
:0614CC00886004B080BD41
:1014D40080B584B002900191ADF80220029890F892
:1014E4004200202814D1019810B1BDF8020018B9A7
:1014F40001208DF80F000EE0029900200863029885
:101504000199BDF8022000F00BF88DF80F0002E0FD
:0E15140002208DF80F009DF80F0004B080BD7E
:1015240083B002900191ADF802200198029988627B
:10153400BDF8020002998885BDF802000299C885A9
:101544000299002048640299222081F842000298FE
:10155400006928B102980168C86840F48070C860C6
:1015640002980168486940F00100486102980168E6
:0E157400C86840F02000C860002003B0704737
:1015840093B00390039800680C300990099850E8D0
:10159400000F0890089820F4907002900299039824
:1015A40000680C30129111901199129A41E80020B0
:1015B400109010980028E5D1039800681430079023
:1015C400079850E8000F0690069820F0010001905B
:1015D40001990398006814300F910E900E990F9A98
:1015E40041E800200D900D980028E5D10398006B88
:1015F400012819D1039800680C300590059850E82B
:10160400000F0490049820F01000009000990398B3
:1016140000680C300C910B900B990C9A41E8002057
:101624000A900A980028E5D10399202081F8420005
:0A16340003990020086313B070470B
:08163E00FFF7E1FAFFF791FA52
:07164600746573740D0A00C6
:10164D000000000000000000010203040607080965
:08165D0000000000010203047B
:1016650002030405060708090A0B0C0D0E0F1010DE
:10167800B51600080000002056000000C716000834
:1016880056000020A816000801000000C716000830
:1016980058000020A916000808000000730B000875
:0C16A800011000000000127A0000000099
:1016B400206861680834002200E042540139FCD5F6
:0216C40070476D
:1016C60020686168A2680C3401E08B5C8354013A9F
:0416D600FBD5704789
:040000050800163F9A
:00000001FF
