:020000040800F2
:1000000000C00020F5130008190400081B040008B4
:100010001D0400081F04000821040008000000005F
:1000200000000000000000000000000023040008A1
:100030002504000800000000270400082904000827
:100040003D1400083D1400083D1400083D1400084C
:100050003D1400083D1400083D1400083D1400083C
:100060003D1400083D1400083D1400083D1400082C
:100070003D1400083D1400083D1400083D1400081C
:100080003D1400083D1400083D1400083D1400080C
:100090003D1400083D1400083D1400083D140008FC
:1000A0003D1400083D1400083D1400083D140008EC
:1000B000310400083D1400083D1400083D140008F8
:1000C0003D1400083D1400083D1400083D140008CC
:1000D0003D1400083D1400083D1400083D140008BC
:1000E0003D1400083D1400083D1400083D140008AC
:1000F0003D1400083D1400083D1400083D1400089C
:100100003D1400083D1400083D1400083D1400088B
:100110003D1400083D1400083D1400083D1400087B
:100120003D1400083D1400083D1400083D1400086B
:1001300000000000000000000000000000000000BF
:1001400000000000000000000000000000000000AF
:10015000000000000000000000000000000000009F
:10016000000000000000000000000000000000008F
:10017000000000000000000000000000000000007F
:10018000000000000000000000000000000000006F
:10019000000000000000000000000000000000005F
:1001A000000000000000000000000000000000004F
:1001B000000000000000000000000000000000003F
:1001C000000000000000000000000000000000002F
:1001D000000000000000000000000000000000001F
:0401E0005FF8E0F1F3
:1001E4000348044B834202D0034B03B118477047C2
:1001F4000C0000200C000020000000000548064B05
:100204001B1AD90F01EBA301491002D0034B03B110
:10021400184770470C0000200C000020000000006C
:1002240010B5064C237843B9FFF7DAFF044B13B13A
:100234000448AFF300800123237010BD0C0000209C
:10024400000000009814000808B5054B1BB10549CF
:100254000548AFF30080BDE80840FFF7CFBF00BFFB
:1002640000000000100000209814000830B587B08A
:1002740000240294039404940594124B9A6942F066
:1002840020029A619A6902F020020092009A9A6907
:1002940042F004029A619B6903F004030193019BF9
:1002A400094D22460221284600F0F6FD022302935E
:1002B400012203920494059302A9284600F0CCFC81
:1002C40007B030BD001002400008014072B6FEE7DE
:1002D40000B583B00023009301930E480E4B0360D6
:1002E40000F01BF980B90022009201926946094886
:1002F40000F025F950B910226946064800F01FF9AC
:1003040030B903B05DF804FBFFF7E0FFFFF7DEFF51
:10031400FFF7DCFF280000200074004000B587B020
:1003240000230293039304930593009301931448C9
:100334004FF08042026047224260836040F2E7321D
:10034400C26003618023836100F058FF90B94FF4C9
:100354008053029302A90A4800F088FF60B9002381
:10036400009301936946064801F000F830B907B0DC
:100374005DF804FBFFF7AAFFFFF7A8FFFFF7A6FF4E
:100384003C00002000B591B02822002106A801F00D
:1003940079F80023019302930393049305930122B4
:1003A40006924FF4803307930A9202220D920E9321
:1003B4004FF4E0130F9306A800F066F980B90F23F9
:1003C400019302210291002303934FF4806204926B
:1003D400059301A800F08AFB20B911B05DF804FB75
:1003E400FFF774FFFFF772FF08B500F0FFF8FFF79F
:1003F400C9FFFFF73BFFFFF76BFFFFF78FFF0221FA
:10040400034800F04FFD4FF47A7000F013F9F6E75B
:1004140000080140FEE7FEE7FEE7FEE7FEE770475F
:100424007047704708B500F0F3F808BD08B50248F6
:1004340000F0E0FD08BD00BF3C00002082B00E4B80
:100444009A6942F001029A619A6902F001020092EB
:10045400009ADA6942F08052DA61DB6903F0805372
:100464000193019B054A536823F0E06343F0007352
:10047400536002B0704700BF00100240000001400A
:1004840000B587B000230293039304930593026895
:10049400114B9A4202D007B05DF804FB03F5CE334A
:1004A400DA6942F00052DA61DA6902F0005200922D
:1004B400009A9A6942F004029A619B6903F004036A
:1004C4000193019B302302930323039302A903485E
:1004D40000F0C2FBDFE700BF0074004000080140E9
:1004E4000368B3F1804F00D0704700B583B003F5C3
:1004F4000433DA6942F00102DA61DB6903F00103D3
:100504000193019B002211461C2000F0E7FC1C20F3
:1005140000F01CFD03B05DF804FB70B110B5044697
:10052400037933B102232371002020610123237155
:1005340010BD4371FFF7A4FFF4E70120704748B3EF
:10054400844649B34379012B28D010B54FF0010EEE
:1005540080F805E0022303710468206802F01002A9
:1005640040F6FE73934020EA03000B6849680B438E
:10057400934003432360DCF800000368C02101FAC0
:1005840002F223EA020303608CF804E000208CF8F2
:10059400050010BD012070470120704702207047FC
:1005A40010B504460E4B1A784FF47A73B3FBF2F38A
:1005B4000C4A1068B0FBF3F000F0D6FC68B90F2CBD
:1005C40001D901200AE0002221464FF0FF3000F05B
:1005D40085FC054B1C60002000E0012010BD00BF1D
:1005E40000000020080000200400002008B5074A8D
:1005F400136843F010031360032000F05DFC0F2028
:10060400FFF7CEFFFFF71AFF002008BD00200240CD
:10061400034A1168034B1B780B441360704700BFF7
:100624008400002000000020014B1868704700BFC0
:100634008400002038B50446FFF7F6FF0546B4F100
:10064400FF3F02D0044B1B781C44FFF7EDFF401B17
:10065400A042FAD338BD00BF0000002082B0084B8E
:100664001B68084AA2FB03235B0A00FB03F3019304
:1006740000BF019B5A1E0192002BF9D102B07047B2
:1006840008000020D34D6210002800F0F18170B5FD
:1006940082B00446036813F0010F2CD0994B5B68B9
:1006A40003F00C03042B1DD0964B5B6803F00C0382
:1006B400082B12D06368B3F5803F41D0002B55D18D
:1006C40003F1804303F504331A6822F480321A607C
:1006D4001A6822F480221A6037E08A4B5B6813F4AC
:1006E400803FE7D0874B1B6813F4003F03D0636857
:1006F400002B00F0BF81236813F0020F75D0814BEB
:100704005B6813F00C0F5FD07E4B5B6803F00C0347
:10071400082B54D02369002B00F08A807A4B0122E5
:100724001A60FFF781FF0546764B1B6813F0020F32
:1007340075D1FFF779FF401B0228F5D903209EE10C
:10074400704A136843F480331360636843B3FFF75C
:100754006BFF05466B4B1B6813F4003FCBD1FFF7CF
:1007640063FF401B6428F5D9032088E1B3F5A02F6B
:1007740009D0644B1A6822F480321A601A6822F491
:1007840080221A60E1E703F18043A3F53C331A6841
:1007940042F480221A601A6842F480321A60D4E764
:1007A400FFF742FF0546574B1B6813F4003FA2D0E6
:1007B400FFF73AFF401B6428F5D903205FE1514B52
:1007C4005B6813F4803FA5D14E4B1B6813F0020FF6
:1007D40003D02369012B40F04F814A4A136823F068
:1007E400F803616943EAC1031360236813F0080F37
:1007F40033D0A369002B5CD0434B0122C3F880247F
:10080400FFF712FF05463F4B5B6A13F0020F21D13D
:10081400FFF70AFF401B0228F5D903202FE1394ACC
:10082400136823F0F803616943EAC1031360DCE74A
:10083400354B00221A60FFF7F7FE0546314B1B6863
:1008440013F0020FD1D0FFF7EFFE401B0228F5D9B9
:10085400032014E10120FFF701FF236813F0040FC4
:1008640000F09680274BDB6913F0805F34D1254B71
:10087400DA6942F08052DA61DB6903F08053019354
:10088400019B0125214B1B6813F4807F26D0E3686C
:10089400012B3DD0002B53D103F1804303F50433E6
:1008A4001A6A22F001021A621A6A22F004021A6217
:1008B40033E0154B0022C3F88024FFF7B5FE05464C
:1008C400104B5B6A13F0020FC7D0FFF7ADFE401B5D
:1008D4000228F5D90320D2E00025D3E70B4A136898
:1008E40043F480731360FFF79FFE0646074B1B68B3
:1008F40013F4807FCBD1FFF797FE801B6428F5D9D2
:100904000320BCE00010024000004242007000409E
:100914005F4A136A43F001031362E36833B3FFF7DA
:1009240083FE06465A4B1B6A13F0020F2FD1FFF7C2
:100934007BFE801B41F288339842F3D903209EE06A
:10094400052B09D0524B1A6A22F001021A621A6A64
:1009540022F004021A62E0E74D4B1A6A42F00402E4
:100964001A621A6A42F001021A62D6E7FFF75CFEC5
:100974000646474B1B6A13F0020F08D0FFF754FEDC
:10098400801B41F288339842F3D9032077E0E5B91C
:10099400E369002B72D03E4A526802F00C02082A26
:1009A40056D0022B17D03B4B00221A66FFF73CFEB1
:1009B4000446374B1B6813F0007F47D0FFF734FE23
:1009C400001B0228F5D9032059E0314AD36923F0EA
:1009D4008053D361DCE72F4B00221A66FFF724FE15
:1009E40005462B4B1B6813F0007F06D0FFF71CFE57
:1009F400401B0228F5D9032041E0236AB3F5803F68
:100A04001AD023494B6823F47413226A606A0243A0
:100A140013434B601F4B01221A66FFF705FE044681
:100A24001B4B1B6813F0007F0ED1FFF7FDFD001B6D
:100A34000228F5D9032022E0154A536823F4003331
:100A4400A1680B435360DCE7002018E0002016E0A7
:100A5400012B16D00E4B5B6803F48031226A91425D
:100A640011D103F47013626A93420ED1002006E0A0
:100A740001207047012002E0012000E0002002B0C4
:100A840070BD0120FBE70120F9E70120F7E700BF73
:100A940000100240000042420F4B5B6803F00C025E
:100AA400082A01D00D487047C3F383420C49885C7F
:100AB40013F4803F0BD0084B5B68C3F34043094AEF
:100AC400D35C064A02FB00F0B0FBF3F07047064B20
:100AD40003FB00F0704700BF0010024000127A00D0
:100AE400B0140008C014000800093D00002800F0FC
:100AF400A08070B50D460446524B1B6803F00703F3
:100B04008B420BD24F4A136823F007030B43136045
:100B1400136803F007038B4240F08D80236813F0C1
:100B2400020F17D013F0040F04D0474A536843F45C
:100B3400E0635360236813F0080F04D0424A5368FB
:100B440043F460535360404A536823F0F003A168B0
:100B54000B435360236813F0010F31D06368012BFA
:100B640020D0022B25D0384A126812F0020F64D02C
:100B740035494A6822F0030213434B60FFF754FDE2
:100B84000646314B5B6803F00C036268B3EB820FDB
:100B940016D0FFF749FD801B41F288339842F0D903
:100BA400032045E0284A126812F4003FE0D10120F6
:100BB4003EE0254A126812F0007FD9D1012037E0C7
:100BC400204B1B6803F00703AB420AD91D4A136884
:100BD40023F007032B431360136803F00703AB42AE
:100BE4002DD1236813F0040F06D0174A536823F459
:100BF400E063E1680B435360236813F0080F07D0E8
:100C0400114A536823F46053216943EAC1035360D2
:100C1400FFF742FF0C4B5B68C3F303130B4AD35C2F
:100C2400D8400B4B18600B4B1868FFF7B9FC002039
:100C340070BD012070470120FAE70120F8E7012088
:100C4400F6E700BF0020024000100240C414000870
:100C5400080000200400002070B582B00024A446DF
:100C6400B0E0874DAB4210D007D9864DAB420CD0D3
:100C740005F58035AB4208D013E0A5F58015AB42ED
:100C840003D005F57025AB4207D18B68002B62D0E9
:100C9400012B5BD04261082403E0A5F58015AB422B
:100CA400F3D0BEF1FF0F58D80646BEF1FF0F56D859
:100CB4004FEA8C0233680F25954023EA050304FAB2
:100CC40002F2134333604B6813F0805F78D06E4BAD
:100CD4009A6942F001029A619B6903F0010301934E
:100CE400019B4FEA9C02951C684B53F825600CF05D
:100CF4000305AD000F23AB4026EA0306644B98427C
:100D040033D003F58063984200F0988003F5806344
:100D1400984200F0958003F58063984200F0928039
:100D240003F58063984200F08F8003F58063984256
:100D340019D006231AE0CC68B3E7CC680434B0E7D2
:100D4400CC680834ADE7CC680C34AAE70261082407
:100D5400A7E70024A5E70424A3E7061DA5E7ACF153
:100D640008029200A6E7052300E00023AB403343CA
:100D74000232464D45F822304B6813F4801F65D08B
:100D8400444A936843EA0E0393604B6813F4001FCC
:100D940062D0404AD36843EA0E03D3604B6813F42D
:100DA400003F5FD03B4A536843EA0E0353604B68ED
:100DB40013F4803F5CD0374A136843EA0E03136090
:100DC4000CF1010C0B6833FA0CF257D0012202FA31
:100DD4000CF203EA020E32EA0303F1D14B68122B40
:100DE4003FF63FAF122B3FF65CAF01A555F823F059
:100DF4008F0C00083B0D0008450D0008570D000836
:100E0400A70C0008A70C0008A70C0008A70C0008F2
:100E1400A70C0008A70C0008A70C0008A70C0008E2
:100E2400A70C0008A70C0008A70C0008A70C0008D2
:100E3400A70C00083F0D00084B0D0008012395E79F
:100E4400022393E7032391E704238FE7114A93686E
:100E540023EA0E03936098E70E4AD36823EA0E034D
:100E6400D3609BE70B4A536823EA0E0353609EE763
:100E7400084A136823EA0E031360A1E702B070BDA9
:100E84000000221000003110001002400000014058
:100E940000080140000401400AB1016170470904DF
:100EA40001617047C36801EA030221EA030141EAD0
:100EB4000241016170470000074AD36823F4E063EC
:100EC4001B041B0C000200F4E060034343F0BF6307
:100ED40043F40033D360704700ED00E000B5194BD4
:100EE400DB68C3F30223C3F1070CBCF1040F28BF72
:100EF4004FF0040C03F1040EBEF1060F18D9033BA6
:100F04004FF0FF3E0EFA0CFC21EA0C0199400EFA58
:100F140003FE22EA0E020A4300280BDB1201D2B2BE
:100F240000F1604000F5614080F800235DF804FBA7
:100F34000023E5E700F00F001201D2B2024B1A546D
:100F4400F4E700BF00ED00E014ED00E0002807DB4B
:100F540000F01F02400901239340024A42F8203066
:100F6400704700BF00E100E00138B0F1807F0BD290
:100F74004FF0E0235861054AF02182F82310002045
:100F8400986107221A6170470120704700ED00E064
:100F940010B4036A046A24F001040462846924F02E
:100FA400F00C4CEA021223F00A030B438261036241
:100FB40010BC704710B4036A046A24F0100404627D
:100FC400846924F4704C4CEA023223F0A00343EA0F
:100FD40001138261036210BC7047836823F07003BD
:100FE4000B4343F0070383607047704770477047B3
:100FF4007047704770B504460368DE681D6915F0D4
:10100400020F10D016F0020F0DD06FF002021A6119
:101014000123037703689B6913F0030F5ED0FFF786
:10102400E6FF0023237715F0040F12D016F0040F07
:101034000FD023686FF004021A6102232377236818
:101044009B6913F4407F4FD02046FFF7D0FF002365
:10105400237715F0080F12D016F0080F0FD023686D
:101064006FF008021A61042323772368DB6913F005
:10107400030F40D02046FFF7BAFF0023237715F073
:10108400100F12D016F0100F0FD023686FF010025B
:101094001A61082323772368DB6913F4407F31D076
:1010A4002046FFF7A4FF0023237715F0010F02D099
:1010B40016F0010F2DD115F0800F02D016F0800F1D
:1010C4002FD115F0400F02D016F0400F31D115F09A
:1010D400200F02D016F0200F33D170BDFFF786FF2A
:1010E4002046FFF785FF9CE72046FFF77FFF204659
:1010F400FFF77EFFABE72046FFF778FF2046FFF7B8
:1011040077FFBAE72046FFF771FF2046FFF770FF2D
:10111400C9E723686FF001021A612046FFF765FFF3
:10112400C9E723686FF080021A61204600F05DF978
:10113400C7E723686FF040021A612046FFF759FFA2
:10114400C5E723686FF020021A61204600F04CF9CD
:10115400C3E700000368284A904212D002F50062F7
:1011640090420ED0B0F1804F0BD0A2F5983290424D
:1011740007D002F58062904203D002F5806290426B
:1011840003D123F070034A6813431B4A904212D0E0
:1011940002F5006290420ED0B0F1804F0BD0A2F560
:1011A4009832904207D002F58062904203D002F553
:1011B4008062904203D123F44073CA68134323F03E
:1011C40080034A69134303608B68C3620B688362BC
:1011D400094B984203D003F50063984201D10B698F
:1011E400036301234361036913F0010F03D003690F
:1011F40023F0010303617047002C014040B310B594
:10120400044690F83D30F3B1022384F83D30214682
:1012140051F8040BFFF79EFF012384F8463084F84D
:101224003E3084F83F3084F8403084F8413084F80C
:10123400423084F8433084F8443084F8453084F8EC
:101244003D30002010BD80F83C30FFF749F9DBE762
:101254000120704710B4846824F47F4C42EA0322CE
:101264000A4342EA0C02826010BC704790F83C309A
:10127400012B78D010B50446012380F83C300223BA
:1012840080F83D300268936823F47F4323F07703AA
:1012940093600B68602B4CD029D8402B54D00CD9C8
:1012A400502B22D1CA6849680068FFF771FE5021AB
:1012B4002068FFF792FE002005E0202B0DD009D90D
:1012C400302B0AD00120012384F83D30002384F818
:1012D4003C3010BD0BB1102B05D119462068FFF727
:1012E4007CFE0020EFE70120EDE70120EBE7B3F5FA
:1012F400805F34D0B3F5005F0CD1CB684A6889684D
:101304000068FFF7A7FF2268936843F48043936063
:101314000020D8E7702B24D1CB684A68896800681C
:10132400FFF798FF2268936843F0770393600020E7
:10133400C9E7CA6849680068FFF73CFE6021206875
:10134400FFF74BFE0020BEE7CA6849680068FFF754
:101354001FFE40212068FFF740FE0020B3E7002075
:10136400B1E70120AFE702207047000090F83C206D
:10137400012A34D010B40346012280F83C20022212
:1013840080F83D2002685068946820F0700C08686A
:1013940040EA0C0050601A681248824212D000F5EC
:1013A400006082420ED0B2F1804F0BD0A0F598308D
:1013B400824207D000F58060824203D000F580604D
:1013C400824204D124F080044968214391600122BF
:1013D40083F83D20002083F83C0010BC70470220B5
:1013E400704700BF002C01407047704770470000F1
:1013F400FFF7FCFF0B480C490C4A002302E0D458C9
:10140400C4500433C4188C42F9D3094A094C00234C
:1014140001E013600432A242FBD300F00FF8FEF7A0
:10142400E3FF7047000000200C000020DC140008DB
:101434000C00002088000020FEE7000070B50026A4
:101444000C4D0D4C641BA410A64209D100F022F8E7
:1014540000260A4D0A4C641BA410A64205D170BD97
:1014640055F8043B98470136EEE755F8043B984796
:101474000136F2E7D4140008D4140008D414000888
:10148400D814000803460244934200D1704703F87D
:10149400011BF9E7F8B500BFF8BC08BC9E467047CD
:0C14A400F8B500BFF8BC08BC9E467047BD
:1014B00002030405060708090A0B0C0D0E0F101095
:1014C000010200000000000000000000010203040F
:0414D00006070809FA
:0414D4004D020008BD
:0414D80025020008E1
:0C14DC00010000001000000000127A0067
:04000005080013F5E7
:00000001FF
