:020000040800F2
:1000000000500020C9100008A10A0008BD0A00081D
:10001000050B0008750B0008B90B00080000000074
:10002000000000000000000000000000BB0B000802
:10003000170C000800000000190C00088D0F0008C4
:1000400038B50D46024640F60004C4F201042046CD
:10005000022100F04CFE20460421002200F047FE61
:1000600020460821012200F042FEC5F3C0022046CE
:10007000802100F03CFEC5F380022046402100F0C4
:1000800036FEC5F340022046202100F030FE05F088
:1000900001022046102100F02AFE482000BF01384E
:1000A000FCD120460821002200F021FE482000BF9C
:0800B00000BF0138FCD138BD8E
:1000B80010B5044614F8010B002808BF10BD00F065
:0400C800C3FEF7E795
:1000CC0084B000F0A5FD00F081FC41F21800C4F2F0
:1000DC00020040F60004016841F020010160016853
:1000EC0001F0200100910099016841F004010160C8
:1000FC00006800F0040000900098C4F20104FE2691
:10010C0000252046FE21002200F0EBFD0220CDE967
:10011C0002500120CDE900606946204600F068F8E5
:10012C0040F23400C2F200000C214FF4165204F5D8
:10013C004053C0E90032C0E90255C0E90451C0E99E
:10014C00065500F061FF10B172B600BFFEE700F07B
:10015C0089FE40F23408C2F2000840F23201C2F2C9
:10016C0000014046012200F07DFF40F29407C2F2EC
:10017C00000740F29C04C2F20004386840F298096F
:10018C00C2F2000940F2A005C2F2000540F20006DE
:10019C00C2F200060128FDDB00F0F4FE2168411AD2
:1001AC0038686429F6D3C9F80000284600F0A5FC8D
:1001BC00304600F087FF82B240463146642300F09F
:0801CC0041FB00203860E5E76B
:1001D40038B5044600F0DAFE054640F23300C2F2B8
:1001E4000000611C007818BF044400BF00F0CEFE7C
:0801F400401BA042FAD338BD04
:1001FC002DE9F04F82B00E68002E00F0DC8041F249
:10020C000042C4F201020423904208BF032300936E
:10021C000023A2F580524FF0010E4FF00F0C002777
:10022C00BA4600BF0EFA0AFB16EA0B0500F0BB80BB
:10023C004E684FF6FF74C1F21004A64208DC032E80
:10024C002BD8DFE806F020023438CF6838E000BF46
:10025C0004F58814A6420BDC0024C1F21104A6425A
:10026C0011D004F58034A6420DD004F5702408E0BA
:10027C000134A64207D004F57024A64203D004F53D
:10028C008034A6421CD18C687CB10827012C14BF89
:10029C00C0F814B0C0F810B012E0112E0DD0122E10
:1002AC0004BFCC6804F10C070AE0042708E0CC6812
:1002BC0004F1080704E0002702E0CC68271D00BF0A
:1002CC00FF2D1C46814684BF203C09F104090CFA21
:1002DC0004F6D9F8008028EA060807FA04F444EA80
:1002EC000804C9F80040CC79E4065CD541F2180842
:1002FC00C4F20208D8F8004044F00104C8F80040E9
:10030C00D8F8004004F001040194019C2AF0030485
:10031C00A2F57E7640F600083459C4F20108404537
:10032C000FD008F58068404508D008F58068DDF8E6
:10033C000090404508BF4FF0020904E04FF001095E
:10034C0001E04FF0000903F00C0809FA08F90CFA67
:10035C0008F824EA08044FEA9A0844EA090446F823
:10036C0028404E68F402946854BFAC432C4394600C
:10037C00B40240F20C44C4F20104246854BFAC43F0
:10038C002C4340F20C48C4F20108C8F80040B403F6
:10039C00546854BFAC432C435460F403146854BFEA
:1003AC00AC432C4314600AF1010A0E68043336FA8C
:0C03BC000AF47FF437AF02B0BDE8F08F08
:1003C8002DE9F04182B0040000F02E812078C007AA
:1003D80041F20006C4F202060BD0706800F00C006F
:1003E80004283CD13068800303D56068002800F0F9
:1003F8001B812078800719D5706810F00C0F07D082
:10040800706800F00C00082845D17068C00342D419
:100418003068800703D52069012840F005816069AC
:10042800316821F0F80141EAC00030602078000707
:1004380069D5A069002840F20000C4F2422040D0EB
:100448000121C0F8801400F09FFD0546706A8007FE
:1004580047D400F099FD401B0228F7D91DE17068C8
:1004680000F00C00082802D17068C003BAD4616893
:100478003068002900F01581B1F5A02F00F0F9804F
:10048800B1F5803F00F0F98020F4803030603068AA
:1004980020F48020F3E02069002840F20000C4F234
:1004A800422066D00121016000F06EFD054600BFC4
:1004B80030688007B3D400F067FD401B0228F7D9E5
:1004C800EBE00021C0F8801400F05EFD054600BF97
:1004D800706A800717D500F057FD401B0228F7D92E
:1004E800DBE040F2B800C2F2000044F6D3510068E5
:1004F800C1F26201A0FB0101480A019000BF019806
:1005080001380190FAD22078400777D5F0695FEA80
:10051800C00808D4F06940F08050F061F06900F03C
:1005280080500090009847F20007C4F2000738682E
:10053800C00510D4386840F48070386000F024FD9D
:10054800054600BF3868C00505D400F01DFD401BF6
:100558006428F7D9A1E0E168306A81B3052919D088
:1005680001291BD020F001003062306A20F004001D
:1005780016E00021016000F007FD0546306880079D
:100588007FF554AF00F000FD401B02284FF0030038
:10059800F4D983E040F004003062306A40F0010092
:1005A800306200F0F1FC054641F28837306A800776
:1005B8001DD400F0E9FC401BB842F7D96DE020F0EB
:1005C80001003062306A20F00400306200F0DCFC88
:1005D800054641F2883700BF306A800707D500F02A
:1005E800D3FC401BB8424FF00300F5D956E0B8F1F0
:1005F800000F5EBFF06920F08050F061E7698FB1AD
:10060800706800F00C00082810D1012F0CD0216A66
:10061800706800F480328A4206D1616A00F4701072
:10062800884201D1002039E0012037E040F200087B
:10063800C4F242280020C8F8600000F0A5FC054676
:10064800022F0BD13068800142D500F09DFC401B81
:1006580002284FF00300F5D920E000BF3068800180
:10066800E0D500F091FC401B02284FF00300F5D9BB
:1006780014E040F480203060306840F4803030600E
:1006880000F082FC054600BF306880033FF5B1AE3C
:1006980000F07AFC401B6428F6D9032002B0BDE8BC
:1006A800F08120F480303060306820F480203060A1
:1006B80000F06AFC054600BF306880037FF599AEFC
:1006C80000F062FC401B64284FF00300F4D9E5E712
:1006D800206AB0F5803F05D1A168726822F4003223
:1006E80011437160616A726822F4741211430843FD
:1006F80070600120C8F8600000F046FC044600BFA6
:10070800306880013FF58EAF00F03EFC001B0228E8
:080718004FF00300F4D9C1E722
:100720002DE9F843040074D042F20006C4F2020638
:100730000D46306800F00700884209D2306820F08A
:10074000070028433060306800F00700A84260D1FD
:1007500020688107A6F6FC7711D5410742BF3968AA
:1007600041F4E0613960010742BF396841F46051EA
:100770003960A1683A6822F0F00211433960C0077D
:100780003AD1306800F00700A84209D9306820F05B
:10079000070028433060306800F00700A84238D1D5
:1007A0002068410705D5E1683A6822F4E062114308
:1007B0003960000706D52069396821F4605141EAA3
:1007C000C000386000F098FA3968C1F3031141F2B3
:1007D0001D12C0F60002515CC84040F2B801C2F2DE
:1007E0000001086040F2B400C2F20000006800F0AE
:1007F00028FA0020BDE8F88357F8041C6068022836
:1008000005D0012808D1890308D4BDE8F8838901FF
:1008100004D40120BDE8F8838907FAD5396821F0AE
:1008200003010843386000F0B3FB804641F2883989
:100830006068396801F00C01B1EB800FA1D000F0C5
:10084000A7FBA0EB08004845F2D90320BDE8F883D8
:100850002DE9F843044690F8410020281CBF0220EF
:10086000BDE8F88301200D0037D0170008BFBDE8B0
:10087000F883984600206064212084F8410000F04D
:1008800087FB8146E784A784A068B0F5805F01D12B
:10089000206950B300262F46E08C002820464A46A7
:1008A000434611D0802100F023F8C0B9002F206802
:1008B00012BF17F8011B36F8021B6FF35F2141606E
:1008C000E08C0138E084E7E7402100F011F82021B6
:1008D00084F84110002818BF0320BDE8F8832020C9
:1008E00084F841000320BDE8F88300272E46D3E7B3
:1008F0002DE9F04182B0044600680F460168394096
:10090000B9421DD01D4690465E1C00BFA6B100F046
:100910003FFB01460320A5B1A1EB0801A94210D875
:100920002068C168490707D5402F05D0802F03D024
:100930000168090708D400BF01683940B942E5D110
:10094000002002B0BDE8F081002501950168019109
:10095000406801900198204600F030F984F840503A
:08096000082060640120ECE7AF
:10096800034C206804348047FBE7FFF7ABFBFEE746
:04097800481100081A
:10097C005AB3844690EA01039B071FD1830707D023
:10098C0011F8013B00F8013B013AF7D11CE0844619
:10099C00203A09D32DE9F007B1E8F807A0E8F807E9
:1009AC00203AF9D2BDE8F0071C3205D451F8043BCB
:1009BC0040F8043B043AF9D2043205D011F8013B5B
:0C09CC0000F8013B013AF9D16046704789
:1009D80030B58FB00024CDE90A44CDE908444FF47E
:1009E800E0100E904FF480300225CDE90C50CDE98F
:1009F800060401200590099005A8FFF7E1FC10B155
:100A080072B600BFFEE704944FF48060CDE902405F
:100A18000F20CDE9000568460221FFF77DFE00287A
:0A0A280004BF0FB030BD72B6FEE748
:100A320038B5A1F1110010F1100F2ED314460D4656
:100A420040F23400C2F2000041F2FC01C0F60001A3
:100A520008226423FFF7FBFEA4F1110010F1100F2E
:100A62001BD340F23400C2F2000041F20311C0F67F
:100A7200000108226423FFF7EAFEA5420DD140F2ED
:100A82003400C2F2000041F20A11C0F6000108224D
:0E0A92006423FFF7DCFE012038BD002038BDD4
:020AA000FEE76F
:100AA20010B50446012000F0C2F9802000F0BFF921
:0A0AB2002046BDE81040FFF7FEBA31
:020ABC00FEE753
:100ABE002DE9F04303AF81B00C0001F1080121F0E4
:100ACE000701ADEB0105AD4604D4621C811C28461E
:100ADE00FFF74DFF40F27C06C2F200063046294673
:100AEE002246FFF744FF002030553046A7F10C0494
:060AFE00A546BDE8F083EF
:020B0400FEE70A
:100B060070B5044640F29800C2F2000065780668A7
:100B1600204600F0D8F9D8B1033E31462A46FFF701
:100B260085FFA8B120463146FFF7C6FF40F27C009C
:100B3600C2F20000FFF7B2FF40F20000C2F200006E
:100B46000021017146F64F31C0F60D21016070BDDE
:100B560040F20000C2F2000040F67251C0F20A01F3
:0E0B660047F24522C6F67272C0E9002170BD4A
:020B7400FEE79A
:100B760082B041F21800C4F202000222016841F07C
:100B860001010160016801F00101019101994168CB
:100B960041F080514160406800F080500090042090
:100BA600C4F201000099016862F31A61016002B0A3
:020BB600704786
:020BB800FEE756
:020BBA00704782
:100BBC0001680C3151E8001F21F4907102680C326D
:100BCC0042E80013002BF3D10168143151E8001FE7
:100BDC0021F001010268143242E80013002BF3D11A
:100BEC00016B01290CD100BF01680C3151E8001FC9
:100BFC0021F0100102680C3242E80013002BF3D1F3
:0A0C0C00202180F8421003637047B6
:020C1600704725
:020C1800704723
:020C1A00704721
:100C1C0080B542F20000C4F20200016841F01001FC
:100C2C000160032000F0B4F90F2000F004F8FFF786
:060C3C009CFF002008BD32
:100C420038B5044640F23300C2F200004FF47A7124
:100C52000078B1FBF0F040F2B801C2F2000109687D
:100C6200B1FBF0F000F02FF801250F2C0BD850B992
:100C7200002521460022501E00F09FF940F2B400E8
:0A0C8200C2F200000460284638BDED
:100C8C0040F23300C2F2000040F29001C2F20001C7
:0A0C9C0000780A68104408607047F1
:100CA600002848BF70471C2101EAD00100F01F0050
:100CB600012202FA00F04EF20012CEF20002885033
:020CC600704775
:100CC8000138010E1CBF012070474EF21001CEF210
:100CD8000001486001F61350F0220270002088607D
:060CE80007220A607047BC
:0A0CEE00002A08BF090401617047E5
:100CF80041F20401C4F202010A6802F00C0008285B
:100D080041F20020C0F27A0018BF7047C2F3834353
:100D1800D20341F23512C0F60002D25C05D440F687
:100D28000010C0F23D005043704750430968C1F3BA
:100D3800404141F21B12C0F60002515CB0FBF1F0D9
:020D48007047F2
:100D4A0040F2B800C2F2000041F20401C4F202010A
:100D5A0000680968C1F3022141F22D12C0F60002AF
:060D6A00515CC840704717
:100D700040F2B800C2F2000041F20401C4F20201E4
:100D800000680968C1F3C22141F22D12C0F60002C9
:060D9000515CC8407047F1
:100D960010B50446006843F60001C4F2010188421A
:100DA600D4E90221236942EA0302036923F440538A
:100DB60041EA03010161C16841F20C6321EA0301C2
:100DC600636942EA030241EA0201C1604169A2691C
:100DD60021F4407141EA0201416102D0FFF7B2FFFE
:100DE60001E0FFF7C2FF1921484306CC9200B0FB91
:100DF600F2F048F21F52C5F2EB12A0FB023463096F
:100E06004FF69C74C0F6FF7403FB0400322404EB17
:100E16000010A0FB0202F02000EA521000EB0310C3
:0A0E2600C2F343121044886010BDAF
:100E300010B5044601090020FFF702F904F00F0184
:100E40000020FFF7FDF80220BDE81040FFF7C2B90F
:100E500010B5044601090120FFF7F2F804F00F0174
:100E60000120FFF7EDF80220BDE81040FFF7B2B90E
:100E700080B51420FFF7AEF900200321FFF7E0F85A
:100E80000520FFF7A7F900200321FFF7D9F801207B
:100E9000FFF7A0F900200321FFF7D2F80120FFF7A8
:100EA00099F900200221FFF7CBF80120FFF792F912
:100EB0002820FFF7BDFF0C20FFF7BAFF0120FFF746
:0C0EC000B7FF0620BDE80840FFF7B2BFF6
:100ECC0080B501782A2917D140F29801C2F20001AD
:100EDC000968084410F8010C23280DD140F23400A5
:100EEC00C2F2000041F21111C0F600010B22642382
:0C0EFC00FFF7A8FC012008BD002008BD85
:100F080070B586B00026049640F60004C4F20104C9
:100F180004F540510068884232D141F21800C4F209
:100F2800020002AD016841F480410160016801F4EA
:100F3800804101910199016841F004010160006854
:100F480000F00400019003200590022003904FF464
:100F580000700290019820462946FFF74BF9CDE929
:100F680003664FF48060029020462946FFF742F955
:100F780025200021002200F01DF82520FFF78FFE14
:040F880006B070BD82
:040F8C00FFF77EBE2F
:0C0F900040F29000C2F2000000687047C0
:100F9C004EF60C51CEF200014FF6FF030A681A40D0
:100FAC0060F30A2242F0806040F0FD7008607047E8
:100FBC0010B54EF60C5CCEF2000CDCF80030C3F32E
:100FCC00022EBEF103048EF0070338BF0024042B5D
:100FDC0028BF04234FF0FF3E0EFA03F399430EFA99
:100FEC0004F39A43A1401143002800F00F0200F1D2
:100FFC006040A2F10402624454BF00F5644002F167
:08100C000C000901017010BD88
:1010140010B5040004BF012010BD94F8410020B9AC
:1010240084F840002046FFF76DFF242084F8410037
:101034002068C16821F40051C1602046FFF7A9FE71
:101044002068016921F490410161416921F02A017C
:101054004161C16841F40051C160002060642021F5
:0C10640084F8411084F84210606310BD55
:1010700010B590F84230202B09D10124002918BF67
:10108000002A05D00024046300F004F800E00224E4
:04109000204610BD29
:10109400C2850023436482858162222180F8421044
:1010A4000168006900281EBFC86840F48070C860E9
:1010B400486940F001004861C86840F02000C860F9
:0410C4000020704751
:0810C800FFF7A7FDFFF74CFC48
:1010D0000178002904BF0020704700214258A2F186
:1010E000013323EA0202043132F07F32F6D010BA23
:0C10F000B0FA80F001EBD000043870472B
:0710FC0031206F6B0D0A00AB
:0711030032206F6B0D0A00A2
:07110A0033206F6B0D0A009A
:0A11110063686172206F6B0D0A0025
:02111B000102CF
:10111D00000000000000000001020304060708099A
:08112D000000000001020304B0
:1011350002030405060708090A0B0C0D0E0F101013
:1011480091110008000000203300000091110008F0
:101158003400002080000000A311000833000020A4
:101168008411000801000000A3110008B400002049
:0C11780085110008080000007309000841
:0C118400011000000000127A00000000C2
:10119000206861680834002200E042540139FCD51F
:0211A000704796
:1011A20020686168A2680C3401E08B5C8354013AC8
:0411B200FBD57047B2
:04000005080010C916
:00000001FF
