:020000040800F2
:100000000018002021200008990400089B04000823
:100010009D0400089F040008A104000800000000DF
:10002000000000000000000000000000A304000821
:10003000A504000800000000A7040008A9040008A7
:10004000692000086920000869200008692000086C
:10005000692000086920000869200008692000085C
:10006000692000086920000869200008692000084C
:10007000692000086920000869200008692000083C
:10008000692000086920000869200008692000082C
:10009000692000086920000869200008692000081C
:1000A000692000086920000869200008692000080C
:1000B000692000086920000800000000692000088D
:1000C000692000080000000000000000692000080E
:1000D00000000000692000086920000800000000FE
:1000E000692000086920000869200008000000005D
:1000F0000000000000000000000000000000000000
:0C01000000000000000000005FF808F1A3
:10010C000348044B834202D0034B03B1184770479A
:10011C000C0000200C000020000000000548064BDD
:10012C001B1AD90F01EBA301491002D0034B03B1E9
:10013C00184770470C0000200C0000200000000045
:10014C0010B5064C237843B9FFF7DAFF044B13B113
:10015C000448AFF300800123237010BD0C00002075
:10016C0000000000C420000808B5054B1BB1054970
:10017C000548AFF30080BDE80840FFF7CFBF00BFD4
:10018C000000000010000020C420000830B589B029
:10019C0000240494059406940794174B9A6942F032
:1001AC0020029A619A6902F020020192019A9A69DE
:1001BC0042F004029A619A6902F004020292029AD5
:1001CC009A6942F008029A619B6903F00803039351
:1001DC00039B0A4D22460221284601F065FD0223AD
:1001EC000493012205920694079304A9284601F072
:1001FC004BFC09B030BD00BF0010024000080140AC
:10020C0000B585B000F0F0030001C0B243F0040269
:10021C008DF80C208DF80D3040F004038DF80E3065
:10022C008DF80F0064230093042303AA4E21034886
:10023C0000F08CFD05B05DF804FB00BF2800002029
:10024C0000B585B000F0F0030001C0B243F0050228
:10025C008DF80C2043F001038DF80D3040F00503B0
:10026C008DF80E3040F001008DF80F0064230093E0
:10027C00042303AA4E21034800F068FD05B05DF885
:10028C0004FB00BF2800002008B5322001F0C4F8A0
:10029C003020FFF7B5FF052001F0BEF83020FFF746
:1002AC00AFFF012001F0B8F83020FFF7A9FF2020A4
:1002BC00FFF7A6FF2820FFF7A3FF0C20FFF7A0FFF6
:1002CC000120FFF79DFF022001F0A6F80620FFF7A2
:1002DC0097FF08BD08B528B9C9B281F08000FFF7B7
:1002EC008FFF08BDC8B24038C0B2F8E710B504465D
:1002FC0002E00134FFF7A4FF20780028F9D110BDEB
:10030C0000F00F03000900EB800003EB4000C0B2CB
:10031C007047000010B586B004460A2302930123EF
:10032C0001930DF1170200920022D021044800F035
:10033C007BFE9DF81700FFF7E3FF207006B010BDA1
:10034C002800002072B6FEE708B50A480A4B036085
:10035C000A4B436000238360C3604FF48042026108
:10036C0043618361C361036200F012FC00B908BDF4
:10037C00FFF7E8FF2800002000540040A086010091
:10038C0008B50A480A4B03604FF416534360002328
:10039C008360C36003610C2242618361C36101F01D
:1003AC00A2FD00B908BDFFF7CDFF00BF7C00002007
:1003BC000038014000B591B02822002106A801F0B8
:1003CC0073FE00230193029303930493059301227C
:1003DC0006924FF4803307930A9202220D920E93E9
:1003EC004FF4E0130F9306A801F040F880B90F23E7
:1003FC00019302210291002303934FF48062049233
:10040C00059301A801F064FA20B911B05DF804FB62
:10041C00FFF798FFFFF796FF00B587B000F0D8FF05
:10042C00FFF7C8FFFFF7B2FEFFF78EFFFFF7A8FF3D
:10043C00FFF72AFF00210846FFF74CFF1048FFF793
:10044C0055FF81238DF816300A2302930123019363
:10045C000DF1160200920022D0210A4800F032FD64
:10046C000DF11700FFF756FF642301220DF1170160
:10047C00054801F068FD4FF47A7000F0CDFFEFE70E
:10048C00DC200008280000207C000020FEE7FEE7AE
:10049C00FEE7FEE7FEE770477047704708B500F0CF
:1004AC00A9FF08BD82B00E4B9A6942F001029A6115
:1004BC009A6902F001020092009ADA6942F08052C5
:1004CC00DA61DB6903F080530193019B054A5368A1
:1004DC0023F0E06343F00073536002B0704700BF39
:1004EC00001002400000014010B586B000230293BA
:1004FC000393049305930268114B9A4201D006B002
:10050C0010BD104CA36943F00803A361A36903F069
:10051C0008030093009BC02302931223039303232D
:10052C00059302A9084801F0AFFAE36943F40013FC
:10053C00E361E36903F400130193019BDFE700BF60
:10054C000054004000100240000C014010B586B071
:10055C00002302930393049305930268174B9A426A
:10056C0001D006B010BD03F558439A6942F480429D
:10057C009A619A6902F480420092009A9A6942F058
:10058C0004029A619B6903F004030193019B4FF4ED
:10059C00007302930223039303230593084C02A9CF
:1005AC00204601F071FA4FF4806302930023039309
:1005BC00049302A9204601F067FAD2E70038014003
:1005CC000008014003685A6912F4806F01D10020C1
:1005DC0070476FF480625A6100230363202280F815
:1005EC003D2080F83E30026C42F00402026480F838
:1005FC003C30012070472DE9F04106460C46174669
:10060C0098463BE000F002FF069BC01A404502D81A
:10061C00B8F1000F32D1012D18D033689B6924EA50
:10062C0003039BB2B3FA83F35B099F4226D10023E9
:10063C003363202286F83D2086F83E30326C42F03F
:10064C002002326486F83C30012027E033685B6975
:10065C0024EA03039BB2B3FA83F35B09E5E733683F
:10066C005B6924EA030C1FFA8CFCBCFA8CFC4FEA85
:10067C005C1C674511D1B8F1FF3FC3D1C4F30745EA
:10068C00012DECD033689B6924EA030C1FFA8CFC17
:10069C00BCFA8CFC4FEA5C1CEBE70020BDE8F08157
:1006AC002DE9F84305460E469046994653E01A68E4
:1006BC0042F400721A602B686FF480625A61002356
:1006CC002B63202285F83D2085F83E302A6C42F0C1
:1006DC0004022A6485F83C3001204AE000F096FEC2
:1006EC00A0EB0900404502D8B8F1000F33D1012F1F
:1006FC0017D02B689B6926EA03039BB2003B18BFFB
:10070C00012343B300232B63202285F83D2085F879
:10071C003E302A6C42F020022A6485F83C300120DD
:10072C0027E02B685B6926EA03039BB2003B18BFEA
:10073C000123E6E72B689C6926EA0404A4B2003C7A
:10074C0018BF0124A4B12B685A6912F4806FAED182
:10075C00B8F1FF3FC2D1C6F30747012FEAD12B688E
:10076C005C6926EA0404A4B2003C18BF0124E9E742
:10077C000020BDE8F8830000F0B583B004460D46B8
:10078C0016461F46C36A082B0DD0012B0BD013F550
:10079C00803F08D0036B122B0AD10268136843F414
:1007AC008073136004E02268136843F48073136051
:1007BC000097334600224FF001112046FFF71BFF34
:1007CC0080B92369B3F5804F16D1236805F0FE0577
:1007DC001D613B46324613492046FFF761FFF8B9CD
:1007EC0003B0F0BD23681B6813F4807F02D04FF474
:1007FC00007323640320F3E7EB11226803F0060374
:10080C0043F0F00313613B46324607492046FFF79D
:10081C0047FF18B92368EDB21D61DAE70120DFE765
:10082C000120DDE7020001000800010070B504465C
:10083C000D46164623685B6913F0800F21D12046C4
:10084C00FFF7C0FEF8B9B5F1FF3FF3D000F0DEFDC5
:10085C00801BA84201D8002DECD123685B6913F0F2
:10086C00800FE7D100232363202284F83D2084F8F5
:10087C003E30226C42F02002226484F83C3001208D
:10088C0000E0002070BD0120FCE700002DE9F043E2
:10089C0085B004460D4691461F46DDF830800D9E0E
:1008AC000368196841F48071196000964346002270
:1008BC004FF00111FFF79FFE60B9236805F0FE05AC
:1008CC001D613346424626492046FFF7E9FE68B1D2
:1008DC00012008E023681B6813F4807F02D04FF4DA
:1008EC0000732364032005B0BDE8F0830023039359
:1008FC0023685A6903929B690393039B32464146D2
:10090C002046FFF793FF30B9012F0FD123685FFA10
:10091C0089F61E61E7E7236C042B01D00120E2E786
:10092C002268136843F400731360F7E723684FEAF7
:10093C0019221A61324641462046FFF777FF20B94B
:10094C0023685FFA89F61E61CDE7236C042B01D076
:10095C000120C8E72268136843F400731360F7E7BB
:10096C00020001002DE9F04784B004460D461646FE
:10097C0099460C9FDDF834800268136843F4806359
:10098C0013600368196841F480711960CDF8008018
:10099C003B4600224FF00111FFF72DFE70B95FFAB4
:1009AC0085FA236805F0FE051D6143463A46414928
:1009BC002046FFF775FE68B1012008E023681B682C
:1009CC0013F4807F02D04FF400732364032004B02F
:1009DC00BDE8F0870023039323685A6903929B694F
:1009EC000393039B424639462046FFF71FFF80B90D
:1009FC00B9F1010F18D12368F6B21E61424639468F
:100A0C002046FFF713FF68B3236C042B24D001207E
:100A1C00DDE7236C042B01D00120D8E72268136892
:100A2C0043F400731360F7E72368320A1A614246F5
:100A3C0039462046FFF7FAFE18B92368F6B21E6154
:100A4C00DCE7236C042B01D00120C0E7226813687B
:100A5C0043F400731360F7E72268136843F40073E0
:100A6C001360D4E72268136843F480731360CDF8E5
:100A7C0000803B4600224FF001112046FFF7BBFDE2
:100A8C0068B922684AF00103136143463A460949A2
:100A9C002046FFF705FE002899D0012097E7236830
:100AAC001B6813F4807F02D04FF40073236403207F
:100ABC008DE700BF0200010070B504460D461646D6
:100ACC0023685B6913F0040F21D12046FFF77AFDF0
:100ADC00F8B9B5F1FF3FF3D000F098FC801BA842A9
:100AEC0001D8002DECD123685B6913F0040FE7D11A
:100AFC0000232363202284F83D2084F83E30226CAE
:100B0C0042F02002226484F83C30012000E00020F6
:100B1C0070BD0120FCE770B504460D46164614E086
:100B2C006FF010025A6100232363202284F83D20C9
:100B3C0084F83E30226C226484F83C30012025E09D
:100B4C0023685B6913F0400F10D02368586910F0CC
:100B5C00400F1AD1586910F0100FE1D100F056FC7B
:100B6C00801BA842ECD8002DEFD1E9E700232363CA
:100B7C00202284F83D2084F83E30226C42F0200282
:100B8C00226484F83C30012000E0002070BD00009D
:100B9C00002800F0CC8070B5044690F83D30002B56
:100BAC0077D0242384F83D302268136823F00103A6
:100BBC0013602268136843F40043136022681368BF
:100BCC0023F40043136000F03FFF62685A4B9A42D3
:100BDC0064D85A4B98428CBF00230123002B40F061
:100BEC00A8805749A1FB00318B0C25686A6822F05C
:100BFC003F0242EA91426A6021680A6A22F03F028F
:100C0C0066684D4DAE424FD8013313430B622168D9
:100C1C00CA6922F44F4222F0FF026568464B9D429E
:100C2C004CD8431E6D00B3FBF5F3013340F6FC705A
:100C3C00034278D0C3F30B031A43CA6121680B68D3
:100C4C0023F0C003E269206A024313430B6021685E
:100C5C008B6823F4034323F0FF032269E06802430B
:100C6C0013438B602168CB6823F0FF036269A06992
:100C7C0002431343CB602268136843F001031360F3
:100C8C0000202064202384F83D30206384F83E004B
:100C9C0070BD80F83C30FFF727FC82E7294B984267
:100CAC008CBF0023012399E74FF4967505FB03F3E2
:100CBC00254DA5FB03539B090133A6E7A668BEB9D6
:100CCC00431E05EB450CB3FBFCF30133C3F30B03E1
:100CDC00B3FA83F35B0943BBC6B9431E05EB450569
:100CEC00B3FBF5F30133C3F30B0343F40043A3E766
:100CFC00431E05EB850C0CEB8C0CB3FBFCF30133A6
:100D0C00C3F30B03B3FA83F35B09E4E7431E05EB70
:100D1C00850505EB8505B3FBF5F30133C3F30B0335
:100D2C0043F4404388E7042386E7012384E701204A
:100D3C0070470120ACE700BFA08601007F841E0035
:100D4C0083DE1B43FF083D00D34D62102DE9F043B9
:100D5C0085B004460F46914698460C9E00F056FB13
:100D6C00054694F83D00C0B2202804D0022738462E
:100D7C0005B0BDE8F0830095192301224F492046A8
:100D8C00FFF739FC002840F0928094F83C30012B9E
:100D9C0000F08F80012384F83C3023681A6812F02D
:100DAC00010F03D11A6842F001021A60226813681D
:100DBC0023F400631360212384F83D30102384F85E
:100DCC003E3000232364C4F82490A4F82A80638D59
:100DDC0023853B4BE3622B46324639462046FFF7D0
:100DEC00CBFC0746002866D10023039323685A697D
:100DFC0003929B690393039B11E0236C042B01D09A
:100E0C000127B4E72268136843F400731360F7E713
:100E1C002A4631462046FFF74FFE00282ED1238D5F
:100E2C00002B36D02A4631462046FFF7FFFC00281F
:100E3C00E3D1626A236812781A61606A431C6362A8
:100E4C00618D89B2013989B26185238D013B9BB2D9
:100E5C0023852268516911F0040FD9D0002BD7D00B
:100E6C0043781361636A01336362638D9BB2013B08
:100E7C009BB26385238D013B2385C9E7236C042B2F
:100E8C0001D0012773E72268136843F400731360E1
:100E9C00F7E72268136843F400731360202384F887
:100EAC003D30002384F83E3084F83C305FE7022765
:100EBC005DE702275BE7012759E700BF020010003E
:100ECC000000FFFF2DE9F04383B004460F46904627
:100EDC0099460C9E00F09AFA054694F83D00C0B273
:100EEC00202803D0022003B0BDE8F083009519231D
:100EFC0001224B492046FFF77EFB002840F08980F9
:100F0C0094F83C30012B00F08680012384F83C30AF
:100F1C0023681A6812F0010F03D11A6842F001021B
:100F2C001A602268136823F400631360212384F889
:100F3C003D30402384F83E30002323640A9B6362D7
:100F4C00BDF82C306385638D2385364BE3620195A8
:100F5C0000964B46424639462046FFF797FC002840
:100F6C005BD1238D002B35D02A4631462046FFF726
:100F7C005DFC20BB626A236812781A61626A531C9A
:100F8C006362218D013989B22185638D9BB2013B4E
:100F9C009BB263852368586910F0040FE1D00029D7
:100FAC00DFD052781A61636A01336362238D013B8F
:100FBC002385638D9BB2013B9BB26385D1E7236C88
:100FCC00042B01D001208EE72268136843F40073D0
:100FDC001360F7E72A4631462046FFF76DFD50B106
:100FEC00236C042B01D001207DE72268136843F4A5
:100FFC0000731360F7E72268136843F400731360FF
:10100C00202384F83D30002384F83E3084F83C30B3
:10101C0069E7022067E7022065E7012063E700BF6C
:10102C00020010000000FFFF2DE9F04389B00446D8
:10103C000F4690469946129E0023079300F0E6F95E
:10104C00054694F83D00C0B2202804D0022738464B
:10105C0009B0BDE8F083009519230122814920468F
:10106C00FFF7C9FA002840F07C8194F83C30012B42
:10107C0000F07981012384F83C3023681A6812F05F
:10108C00010F03D11A6842F001021A60226813683A
:10109C0023F400631360222384F83D30402384F84A
:1010AC003E3000232364109B6362BDF8443063859B
:1010BC00638D23856C4BE362019500964B4642464B
:1010CC0039462046FFF74EFC0746002840F04D817C
:1010DC00238D5BB9039323685A6903929A6903922F
:1010EC00039A1A6842F400721A60F2E0012B0FD0D6
:1010FC00022B21D02268136843F480631360002311
:10110C00069323685A6906929B690693069BE0E056
:10111C002268136823F48063136072B6002304936F
:10112C0023685A6904929A690492049A1A6842F4E0
:10113C0000721A6062B6CCE02268136843F4006354
:10114C00136072B60023059323685A6905929A6955
:10115C000592059A1A6822F480621A6062B6B8E0A9
:10116C002A4631462046FFF7D6FC002840F0FF8087
:10117C0023681A69636A1A70636A01336362238D88
:10118C00013B2385638D9BB2013B9BB26385A0E041
:10119C0000953346002235492046FFF72CFA0028EB
:1011AC0040F0E9802268136823F48063136072B600
:1011BC0023681A69636A1A70636A01336362238D48
:1011CC00013B2385638D9BB2013B9BB26385284B0E
:1011DC001B68DB08274AA2FB03231B0A03EB8303D0
:1011EC00C3EBC3030793079B013B0793079B002BA0
:1011FC0028D023685A6912F0040FF4D01A6842F40C
:10120C0000721A6023681A69636A1A70636A013380
:10121C006362238D013B2385638D9BB2013B9BB2A3
:10122C00638562B623681A69636A1A70636A01334C
:10123C006362238D013B2385638D9BB2013B9BB283
:10124C00638546E02363202284F83D2084F83E30F9
:10125C00226C42F02002226462B684F83C300127F2
:10126C00F5E600BF020010000000FFFF04000100C3
:10127C000800002089B5F8142A4631462046FFF7AD
:10128C004AFC002879D123681A69636A1A70636A68
:10129C0001336362228D013A92B22285638D9BB237
:1012AC00013B9BB263852368596911F0040F10D080
:1012BC00032A48D023681A69636A1A70636A013377
:1012CC006362238D013B2385638D9BB2013B9BB2F3
:1012DC006385238D002B3BD0032BCDD8012B3FF402
:1012EC003FAF022B7FF454AF0095334600222449C4
:1012FC002046FFF780F900283BD172B622681368AC
:10130C0043F40073136023681A69636A1A70636A82
:10131C0001336362238D013B2385638D9BB2013BBB
:10132C009BB2638562B623681A69636A1A70636A32
:10133C0001336362238D013B2385638D9BB2013B9B
:10134C009BB26385C5E71A6822F480621A60B1E724
:10135C00202384F83D30002384F83E3084F83C3060
:10136C0075E6022773E6022771E601276FE601276F
:10137C006DE601276BE6012769E6012767E600BFEA
:10138C000400010010B504460E4B1A784FF47A7322
:10139C00B3FBF2F30C4A1068B0FBF3F000F0D4FC92
:1013AC0068B90F2C01D901200AE0002221464FF028
:1013BC00FF3000F091FC054B1C60002000E0012088
:1013CC0010BD00BF00000020080000200400002019
:1013DC0008B5074A136843F010031360032000F0AC
:1013EC0069FC0F20FFF7CEFFFFF75CF8002008BD6B
:1013FC0000200240034A1168034B1B780B44136016
:10140C00704700BFC400002000000020014B18688A
:10141C00704700BFC400002038B50446FFF7F6FF44
:10142C000546B4F1FF3F02D0044B1B781C44FFF778
:10143C00EDFF401BA042FAD338BD00BF00000020D6
:10144C0082B0084B1B68084AA2FB03235B0A00FB13
:10145C0003F3019300BF019B5A1E0192002BF9D19B
:10146C0002B0704708000020D34D6210002800F035
:10147C00F18170B582B00446036813F0010F2CD0D3
:10148C00994B5B6803F00C03042B1DD0964B5B68E7
:10149C0003F00C03082B12D06368B3F5803F41D0E6
:1014AC00002B55D103F1804303F504331A6822F461
:1014BC0080321A601A6822F480221A6037E08A4B54
:1014CC005B6813F4803FE7D0874B1B6813F4003F35
:1014DC0003D06368002B00F0BF81236813F0020F68
:1014EC0075D0814B5B6813F00C0F5FD07E4B5B6843
:1014FC0003F00C03082B54D02369002B00F08A80D6
:10150C007A4B01221A60FFF781FF0546764B1B6868
:10151C0013F0020F75D1FFF779FF401B0228F5D9A4
:10152C0003209EE1704A136843F4803313606368B0
:10153C0043B3FFF76BFF05466B4B1B6813F4003F7F
:10154C00CBD1FFF763FF401B6428F5D9032088E15A
:10155C00B3F5A02F09D0644B1A6822F480321A60BC
:10156C001A6822F480221A60E1E703F18043A3F5A4
:10157C003C331A6842F480221A601A6842F48032B2
:10158C001A60D4E7FFF742FF0546574B1B6813F46C
:10159C00003FA2D0FFF73AFF401B6428F5D9032087
:1015AC005FE1514B5B6813F4803FA5D14E4B1B6838
:1015BC0013F0020F03D02369012B40F04F814A4AEC
:1015CC00136823F0F803616943EAC10313602368CD
:1015DC0013F0080F33D0A369002B5CD0434B0122CE
:1015EC00C3F88024FFF712FF05463F4B5B6A13F0EC
:1015FC00020F21D1FFF70AFF401B0228F5D9032067
:10160C002FE1394A136823F0F803616943EAC103F7
:10161C001360DCE7354B00221A60FFF7F7FE054636
:10162C00314B1B6813F0020FD1D0FFF7EFFE401BBC
:10163C000228F5D9032014E10120FFF701FF2368EC
:10164C0013F0040F00F09680274BDB6913F0805FDA
:10165C0034D1254BDA6942F08052DA61DB6903F050
:10166C0080530193019B0125214B1B6813F4807F50
:10167C0026D0E368012B3DD0002B53D103F18043DE
:10168C0003F504331A6A22F001021A621A6A22F074
:10169C0004021A6233E0154B0022C3F88024FFF7D2
:1016AC00B5FE0546104B5B6A13F0020FC7D0FFF76F
:1016BC00ADFE401B0228F5D90320D2E00025D3E76C
:1016CC000B4A136843F480731360FFF79FFE0646C2
:1016DC00074B1B6813F4807FCBD1FFF797FE801B61
:1016EC006428F5D90320BCE00010024000004242FF
:1016FC00007000405F4A136A43F001031362E36811
:10170C0033B3FFF783FE06465A4B1B6A13F0020FE6
:10171C002FD1FFF77BFE801B41F288339842F3D91F
:10172C0003209EE0052B09D0524B1A6A22F00102CD
:10173C001A621A6A22F004021A62E0E74D4B1A6A26
:10174C0042F004021A621A6A42F001021A62D6E7E7
:10175C00FFF75CFE0646474B1B6A13F0020F08D0DE
:10176C00FFF754FE801B41F288339842F3D90320D3
:10177C0077E0E5B9E369002B72D03E4A526802F07B
:10178C000C02082A56D0022B17D03B4B00221A66AB
:10179C00FFF73CFE0446374B1B6813F0007F47D025
:1017AC00FFF734FE001B0228F5D9032059E0314A1B
:1017BC00D36923F08053D361DCE72F4B00221A66E8
:1017CC00FFF724FE05462B4B1B6813F0007F06D059
:1017DC00FFF71CFE401B0228F5D9032041E0236AC9
:1017EC00B3F5803F1AD023494B6823F47413226A53
:1017FC00606A024313434B601F4B01221A66FFF7CA
:10180C0005FE04461B4B1B6813F0007F0ED1FFF73F
:10181C00FDFD001B0228F5D9032022E0154A536870
:10182C0023F40033A1680B435360DCE7002018E07D
:10183C00002016E0012B16D00E4B5B6803F48031B0
:10184C00226A914211D103F47013626A93420ED151
:10185C00002006E001207047012002E0012000E09A
:10186C00002002B070BD0120FBE70120F9E7012048
:10187C00F7E700BF00100240000042420F4B5B68CC
:10188C0003F00C02082A01D00D487047C3F38342C1
:10189C000C49885C13F4803F0BD0084B5B68C3F396
:1018AC004043094AD35C064A02FB00F0B0FBF3F05C
:1018BC007047064B03FB00F0704700BF001002405E
:1018CC0000127A00E4200008F420000800093D0012
:1018DC00002800F0A08070B50D460446524B1B68E2
:1018EC0003F007038B420BD24F4A136823F0070314
:1018FC000B431360136803F007038B4240F08D8099
:10190C00236813F0020F17D013F0040F04D0474ACA
:10191C00536843F4E0635360236813F0080F04D05A
:10192C00424A536843F460535360404A536823F06F
:10193C00F003A1680B435360236813F0010F31D0FF
:10194C006368012B20D0022B25D0384A126812F084
:10195C00020F64D035494A6822F0030213434B60EE
:10196C00FFF754FD0646314B5B6803F00C036268CD
:10197C00B3EB820F16D0FFF749FD801B41F2883381
:10198C009842F0D9032045E0284A126812F4003F2F
:10199C00E0D101203EE0254A126812F0007FD9D137
:1019AC00012037E0204B1B6803F00703AB420AD938
:1019BC001D4A136823F007032B431360136803F0CD
:1019CC000703AB422DD1236813F0040F06D0174A3E
:1019DC00536823F4E063E1680B435360236813F00E
:1019EC00080F07D0114A536823F46053216943EA66
:1019FC00C1035360FFF742FF0C4B5B68C3F3031347
:101A0C000B4AD35CD8400B4B18600B4B1868FFF794
:101A1C00B9FC002070BD012070470120FAE70120BD
:101A2C00F8E70120F6E700BF00200240001002405A
:101A3C00F82000080800002004000020014B186862
:101A4C00704700BF0800002008B5FFF7F7FF044BF4
:101A5C005B68C3F30223034AD35CD84008BD00BFC4
:101A6C00001002400821000808B5FFF7E7FF044BFF
:101A7C005B68C3F3C223034AD35CD84008BD00BFE4
:101A8C00001002400821000870B582B00024A44662
:101A9C008BE07F4DAB4210D007D97E4DAB420CD0C2
:101AAC0005F58035AB4208D015E0A5F58015AB42A5
:101ABC0003D005F57025AB4209D18B68002B00F0E3
:101ACC00BF80012B00F0B7804261082403E0A5F52C
:101ADC008015AB42F1D0BEF1FF0F00F2B380064689
:101AEC00BEF1FF0F00F2B0804FEA8C0233680F2575
:101AFC00954023EA050304FA02F2134333604B6862
:101B0C0013F0805F4FD0644B9A6942F001029A61E6
:101B1C009B6903F001030193019B4FEA9C02951C06
:101B2C005E4B53F825600CF00305AD000F23AB4062
:101B3C0026EA03065A4B984200F08C8003F580632A
:101B4C00984200F0898003F58063984200F0808011
:101B5C000323AB4033430232504D45F822304B68DF
:101B6C0013F4801F7AD04F4A936843EA0E039360B4
:101B7C004B6813F4001F77D04A4AD36843EA0E032C
:101B8C00D3604B6813F4003F74D0464A536843EA61
:101B9C000E0353604B6813F4803F71D0414A1368B5
:101BAC0043EA0E0313600CF1010C0B6833FA0CF2D0
:101BBC006CD0012202FA0CF203EA020E32EA0303A1
:101BCC00F1D14B68122B3FF664AF122B83D801A5D1
:101BDC0055F823F0C71A00082D1C0008371C000804
:101BEC00491C0008E31A0008E31A0008E31A00086D
:101BFC00E31A0008E31A0008E31A0008E31A0008C5
:101C0C00E31A0008E31A0008E31A0008E31A0008B4
:101C1C00E31A0008E31A0008311C00083D1C0008F8
:101C2C00CC6858E7CC68043455E7CC68083452E7E4
:101C3C00CC680C344FE7026108244CE700244AE7D7
:101C4C00042448E7061D4BE7ACF1080292004DE76F
:101C5C0002237EE700237CE701237AE7114A93688D
:101C6C0023EA0E03936083E70E4AD36823EA0E033C
:101C7C00D36086E70B4A536823EA0E03536089E767
:101C8C00084A136823EA0E0313608CE702B070BD98
:101C9C000000221000003110001002400000014032
:101CAC0000080140000401400AB1016170470904B9
:101CBC0001617047074AD36823F4E0631B041B0CD3
:101CCC00000200F4E060034343F0BF6343F40033CD
:101CDC00D360704700ED00E000B5194BDB68C3F32F
:101CEC000223C3F1070CBCF1040F28BF4FF0040C06
:101CFC0003F1040EBEF1060F18D9033B4FF0FF3E63
:101D0C000EFA0CFC21EA0C0199400EFA03FE22EAB1
:101D1C000E020A4300280BDB1201D2B200F1604024
:101D2C0000F5614080F800235DF804FB0023E5E733
:101D3C0000F00F001201D2B2024B1A54F4E700BFAC
:101D4C0000ED00E014ED00E00138B0F1807F0BD223
:101D5C004FF0E0235861054AF02182F8231000204F
:101D6C00986107221A6170470120704700ED00E06E
:101D7C00026802F10C0353E8003F23F490730C3219
:101D8C0042E800310029F3D1026802F1140353E850
:101D9C00003F23F00103143242E800310029F3D153
:101DAC00036B012B05D0202380F842300023036302
:101DBC007047026802F10C0353E8003F23F0100354
:101DCC000C3242E800310029F3D1ECE710B504469F
:101DDC000268136923F44053C1680B431361836891
:101DEC000269134342691A430168CB6823F4B05368
:101DFC0023F00C031343CB600268536923F4407344
:101E0C0081690B4353610268134B9A4220D0FFF750
:101E1C001BFE024602EB820202EB820263689B000D
:101E2C00B2FBF3F20D48A0FB02314909642303FB1A
:101E3C0011231B013233A0FB03035B0903F0F002F7
:101E4C0002EB011203F00F03216813448B6010BDE9
:101E5C00FFF70AFE0246DDE7003801401F85EB5113
:101E6C002DE9F04383B005460E4617469946DDF83A
:101E7C0028802B681C6836EA04040CBF012400245B
:101E8C00BC4228D1B8F1FF3FF3D0FFF7BFFAA0EB6B
:101E9C000900404523D8B8F1000F22D02B68DA682E
:101EAC0012F0040FE5D0802EE3D0402EE1D01A685A
:101EBC0012F0080FDDD0002401941A6801925B68BF
:101ECC000193019B2846FFF753FF08236B6485F8A9
:101EDC004040012000E0002003B0BDE8F083032067
:101EEC00FAE70320F8E760B310B5044690F84130E8
:101EFC0013B3242384F841302268D36823F40053AD
:101F0C00D3602046FFF762FF2268136923F49043E5
:101F1C0013612268536923F02A0353612268D36842
:101F2C0043F40053D36000206064202384F84130D4
:101F3C0084F84230606310BD80F84030FEF706FB39
:101F4C00D7E7012070472DE9F04182B01E4690F88A
:101F5C004130DBB2202B56D104460D469046002969
:101F6C0055D00AB901204FE000234364212380F8A7
:101F7C004130FFF74BFA0746A4F82480A4F82680DA
:101F8C00A368B3F5805F02D04FF0000814E023691A
:101F9C002BB34FF000080FE0202384F841300320CE
:101FAC0032E038F8023B2268C3F308035360E28C3A
:101FBC0092B2013A92B2E284E38C9BB293B1009656
:101FCC003B46002280212046FFF74AFF0028E3D140
:101FDC00002DE6D015F8012B23685A60E7E7A846D8
:101FEC000025E9E700963B46002240212046FFF7FA
:101FFC0037FF18B9202384F8413005E0202384F8FA
:10200C004130032000E0022002B0BDE8F081012045
:10201C00FAE77047FFF7FDFF0B480C490C4A002309
:10202C0002E0D458C4500433C4188C42F9D3094A82
:10203C00094C002301E013600432A242FBD300F0F0
:10204C000FF8FEF7E9F97047000000200C000020A3
:10205C00182100080C000020C8000020FEE700003A
:10206C0070B500260C4D0D4C641BA410A64209D172
:10207C0000F022F800260A4D0A4C641BA410A6425C
:10208C0005D170BD55F8043B98470136EEE755F87D
:10209C00043B98470136F2E7102100081021000894
:1020AC00102100081421000803460244934200D179
:1020BC00704703F8011BF9E7F8B500BFF8BC08BC82
:1020CC009E467047F8B500BFF8BC08BC9E467047EA
:1020DC0068656C6C6F0000000203040506070809B4
:1020EC000A0B0C0D0E0F1010010200000000000076
:1020FC0000000000010203040607080900000000AC
:04210C0001020304C5
:04211000750100084D
:042114004D01000871
:0C211800010000001000000000127A001E
:0400000508002021AE
:00000001FF
