:020000040800F2
:1000000000500020E1350008D9050008DB05000894
:10001000DD050008DF050008E1050008000000001C
:10002000000000000000000000000000912D00080A
:10003000E305000800000000312E0008E505000877
:100040002936000829360008293600082936000814
:100050002936000829360008293600082936000804
:1000600029360008293600082936000829360008F4
:1000700029360008293600082936000829360008E4
:1000800029360008293600082936000829360008D4
:1000900029360008293600082936000829360008C4
:1000A00029360008293600082936000829360008B4
:1000B00029360008293600082936000829360008A4
:1000C0002936000829360008293600082936000894
:1000D0002936000829360008293600082936000884
:1000E00029360008293600082936000800000000DB
:1000F0000000000000000000000000000000000000
:0C01000000000000000000005FF808F1A3
:10011000034613F8012B002AFBD1181A0138704747
:100120000348044B834202D0034B03B11847704786
:100130007400002074000020000000000548064BF9
:100140001B1AD90F01EBA301491002D0034B03B1D5
:100150001847704774000020740000200000000061
:1001600010B5064C237843B9FFF7DAFF044B13B1FF
:100170000448AFF300800123237010BD74000020F9
:1001800000000000703F000808B5054B1BB1054991
:100190000548AFF30080BDE80840FFF7CFBF00BFC0
:1001A0000000000078000020703F0008FEE708B55E
:1001B000012002F077FCFBE72DE9F04188B0002434
:1001C0000494059406940794214B9A6942F0200206
:1001D0009A619A6902F020020192019A9A6942F0AA
:1001E00004029A619A6902F004020292029A9A69E0
:1001F00042F008029A619B6903F008030393039B92
:10020000DFF8508022464FF47041404601F014FB65
:10021000114D22464FF4B851284601F00DFB4FF422
:10022000704304930127059706940226079604A9B4
:10023000404601F0EFF94FF4B85304930597069444
:10024000079604A9284601F0E5F908B0BDE8F08159
:1002500000100240000C01400008014010B58EB0B3
:100260000F4C204600F038FC4FF0FF31204600F0E4
:1002700089FA204600F048FB82B20A4901A803F03F
:100280000FFA01A8FFF744FF642382B201A90648D0
:1002900001F021FC4FF47A7002F004FCE0E700BFAB
:1002A00094000020DC3F00081801002070B584B0E5
:1002B00040EA0110C4B244F00C038DF80F300C4D2D
:1002C0001426009601230DF10F024E21284603F05B
:1002D000CBF844F008048DF80F40009601230DF18F
:1002E0000F024E21284603F0BFF804B070BD00BFD6
:1002F000C400002010B5044601090020FFF7D6FF16
:1003000004F00F010020FFF7D1FF022000F052FDA2
:1003100010BD08B5142000F04DFD03210020FFF7AB
:10032000C5FF052000F046FD03210020FFF7BEFFBA
:10033000012000F03FFD03210020FFF7B7FF01205F
:1003400000F038FD02210020FFF7B0FF012000F08F
:1003500031FD2820FFF7CEFF0C20FFF7CBFF012057
:10036000FFF7C8FF0620FFF7C5FF08BD08B501204D
:10037000FFF7C0FF022000F01DFD08BD72B6FEE7CA
:1003800000B585B000230193029303931C481D4AD6
:1003900002604FF480728260037303754FF4602231
:1003A000C26143600323036100F036FCF8B91023F7
:1003B0000193012302930023039301A9104800F045
:1003C000A7FAB0B9082301930223029301A90C48AC
:1003D00000F09EFA78B9092301930323029301A93F
:1003E000074800F095FA40B905B05DF804FBFFF747
:1003F000C5FFFFF7C3FFFFF7C1FFFFF7BFFF00BF58
:10040000940000200024014008B50A480A4B03600C
:100410000A4B436000238360C3604FF48042026153
:1004200043618361C361036202F040FF00B908BD0C
:10043000FFF7A4FFC400002000540040A086010084
:1004400008B50A480A4B03604FF416534360002373
:100450008360C36003610C2242618361C36101F068
:100460000AFB00B908BDFFF789FF00BF1801002093
:100470000044004000B595B0282200210DEB020099
:1004800003F006F900230593069307930893099355
:10049000019302930393049301220A924FF4803351
:1004A0000B930E920222119212934FF4E0131393C6
:1004B0000AA800F0A9FCC8B90F23059302210691F0
:1004C000002307934FF480620892099305A800F077
:1004D000CDFE68B9022301934FF40043039301A8B2
:1004E00000F0A0FF30B915B05DF804FBFFF746FF40
:1004F000FFF744FFFFF742FF00B599B000F036FC6C
:10050000FFF7B8FFFFF758FEFFF73AFFFFF77CFF52
:10051000FFF796FFFFF7FDFEFFF728FF0025169572
:10052000179516A802F0C5FA1F4B186016A802F01E
:10053000C0FA1E4B18601E4C0DF13C0CA646BEE8DE
:100540000F00ACE80F009EE807008CE80700294682
:100550000FA802F074FA174B18600DF1200C04F18B
:100560001C0EBEE80F00ACE80F009EE807008CE808
:100570000700294608A802F062FA0F4B18600DF137
:10058000040E04F1380CBCE80F00AEE80F009CE844
:1005900007008EE80700294601A802F050FA074B31
:1005A000186002F047FAFEE76401002060010020B5
:1005B000883F000890000020680100206C010020A6
:1005C000034B0360034B0B6080231360704700BF35
:1005D0007003002070010020FEE7FEE7FEE7FEE763
:1005E000FEE7704708B500F0D3FB02F0B5F901282B
:1005F00000D108BD02F03EFCFBE7000000B583B06F
:10060000114B9A6942F001029A619A6902F0010263
:100610000092009ADA6942F08052DA61DB6903F0F5
:1006200080530193019B00220F216FF0010001F024
:100630001BF9064A536823F0E06343F000735360EC
:1006400003B05DF804FB00BF001002400000014051
:1006500000B587B0002302930393049305930268C7
:10066000104B9A4202D007B05DF804FB03F56C43CF
:100670009A6942F400729A619A6902F400720092D7
:10068000009A9A6942F008029A619B6903F0080394
:100690000193019B03230293039302A9024800F0F4
:1006A000B9FFE0E700240140000C014010B586B01E
:1006B000002302930393049305930268114B9A421B
:1006C00001D006B010BD104CA36943F00803A3612C
:1006D000A36903F008030093009BC0230293122335
:1006E00003930323059302A9084800F093FFE369ED
:1006F00043F40013E361E36903F400130193019BE6
:10070000DFE700BF0054004000100240000C014031
:1007100010B586B0002302930393049305930268F7
:10072000164B9A4201D006B010BD03F5E633DA69E4
:1007300042F40032DA61DA6902F400320092009A7F
:100740009A6942F004029A619B6903F004030193E1
:10075000019B042302930223039303230593084C74
:1007600002A9204600F056FF0823029300230393BA
:10077000049302A9204600F04DFFD4E70044004056
:1007800000080140F0B583B005460C4600230193F4
:1007900000F00AFB2B689A6812F4807F23D1074689
:1007A0005A6812F4807F03D1DB6A13F4700F29D0EA
:1007B000504B1E68022000F0C1FEB6FBF0F62B681D
:1007C00019694D4A114236D1D96802F15C42114291
:1007D00031D11969494A114240D1DA68484B1A426D
:1007E0003ED0292341E0AB6A43F02003AB620023F3
:1007F00085F82430012003B0F0BD2B681B6813F08E
:10080000020F0FD02B681B6813F0020F4FD1B4F109
:10081000FF3FF7D0002CF0D000F0C6FAC31BA34274
:10082000F0D9EAE7AB6A43F00403AB62002385F832
:1008300024300320DFE71969304A114204D1D96816
:1008400002F16E4211420DD019692E4A0A405AB97E
:10085000DA682C4B13405BB1FC2306E0292304E04B
:10086000142302E0542300E0FC2303FB06F607E018
:100870005423FAE7019BB34210D3019B0133019348
:10088000019BB34213D2B4F1FF3FF6D0002CF1D05C
:1008900000F08AFAC01BA042EFD9EBE7AB6A43F045
:1008A0000403AB62002385F824300320A3E72B6800
:1008B0006FF012021A60AB6A43F40073AB622B68EC
:1008C0009B6803F46023B3F5602F01D0002092E70A
:1008D000287B60B9AB6A23F48073AB62AB6A13F414
:1008E000805F88D1AB6A43F00103AB6283E70020ED
:1008F00081E700BF08000020244992249224491275
:1009000092244900499224000368D86C7047000083
:1009100030B482B00022019290F82420012A00F025
:100920008F800346012280F824204A68062A2DD8A9
:100930000468606B02EB8202053A4FF01F0C0CFA60
:1009400002FC20EA0C000D6805FA02F20243626321
:100950000A68092A38D91C68E06802EB42021E3A8C
:100960004FF0070C0CFA02FC20EA0C008D6805FA27
:1009700002F20243E2600A68103A012A34D90020E8
:10098000002283F8242002B030BC70470C2A0DD816
:100990000568286B02EB8202233A1F24944020EA68
:1009A00004000C68944020432863D1E70568E86A96
:1009B00002EB8202413A1F24944020EA04000C68B2
:1009C00094402043E862C3E71C68206902EB4202BE
:1009D0004FF0070C0CFA02FC20EA0C008D6805FAB7
:1009E00002F202432261C6E71A681648824205D025
:1009F0009A6A42F020029A620120C1E7906810F4DE
:100A0000000F1BD1906840F4000090600A68102A23
:100A100001D00020B4E70C4A12680C49A1FB021275
:100A2000920C02EB82025200019202E0019A013A1A
:100A30000192019A002AF9D10020A1E700209FE746
:100A40000220A0E7002401400800002083DE1B43B1
:100A500030B583B00023019303689A6812F0010F48
:100A600033D104469A6842F001029A60184B1B6821
:100A7000184AA2FB03239B0C019302E0019B013B5C
:100A80000193019B002BF9D100F08EF905462368F4
:100A90009B6813F0010F16D100F086F9431B022B5F
:100AA000F5D923689B6813F0010FF0D1A36A43F0D6
:100AB0001003A362E36A43F00103E362002384F8B6
:100AC0002430012002E0002000E0002003B030BD0F
:100AD0000800002083DE1B4390F82430012B68D0EF
:100AE00010B50446012380F82430FFF7B1FF002839
:100AF0005BD1A36A23F4407323F0010343F48073B2
:100B0000A36223682C4A934227D0A26A22F480125F
:100B1000A2625A6812F4806F05D0A26A22F4405291
:100B200042F48052A262A26A12F4805F2BD0E26A81
:100B300022F00602E262002284F824206FF0020212
:100B40001A6023689A6802F46022B2F5602F1DD003
:100B50009A6842F480129A602AE0A2F58062526894
:100B600012F4702FD1D0A26A42F48012A262134A0A
:100B7000526812F4806FD6D0A26A22F4405242F436
:100B80008052A262CFE70022E262D4E70A4A93428F
:100B900004D09A6842F4A0029A6009E0A2F580624B
:100BA000526812F4702FD3D1F3E7002384F8243075
:100BB00010BD0220704700BF002801400024014002
:100BC00038B503689A6812F0010F01D1002038BDD2
:100BD00004469A6822F001029A6000F0E5F80546A2
:100BE00023689B6813F0010F13D000F0DDF8431B5E
:100BF000022BF5D923689B6813F0010FF0D0A36A8C
:100C000043F01003A362E36A43F00103E3620120AF
:100C1000DDE70020DBE7000000287BD070B504464C
:100C2000836A002B4DD02046FFF7CAFFA36A13F05A
:100C3000100369D1002867D1A26A22F4885222F0F9
:100C4000020242F00202A2626268E1690A43217B69
:100C500042EA4102A568B5F5807F02D0012D36D069
:100C60001D46267D012E35D02668716821F4694124
:100C7000294371602568AE68274931401143A96056
:100C8000A168B1F5807F01D0012902D12369013B20
:100C90001B052568E96A21F470010B43EB622368A8
:100CA00099681E4B0B409A4225D0A36A23F0120389
:100CB00043F01003A362E36A43F00103E3620120FF
:100CC00027E0C36280F82430FFF7C2FCABE74FF4A3
:100CD0008075C6E731B9A169013945EA413141F46E
:100CE0000065C1E7A16A41F02001A162E16A41F01B
:100CF0000101E162B8E70023E362A36A23F0030382
:100D000043F00103A36204E0A36A43F01003A3626B
:100D1000012070BD01207047FDF7E1FFFE0E1FFFAF
:100D200010B504460E4B1A784FF47A73B3FBF2F306
:100D30000C4A1068B0FBF3F000F0CEFD68B90F2C40
:100D400001D901200AE0002221464FF0FF3000F0D7
:100D50008BFD054B1C60002000E0012010BD00BF92
:100D600000000020080000200400002008B5074A09
:100D7000136843F010031360032000F063FD0F209D
:100D8000FFF7CEFFFFF73AFC002008BD002002402D
:100D9000034A1168034B1B780B441360704700BF74
:100DA000C403002000000020014B1868704700BFFA
:100DB000C403002038B50446FFF7F6FF0546B4F13A
:100DC000FF3F02D0044B1B781C44FFF7EDFF401B94
:100DD000A042FAD338BD00BF0000002082B0084B0B
:100DE0001B68084AA2FB03235B0A00FB03F3019381
:100DF00000BF019B5A1E0192002BF9D102B070472F
:100E000008000020D34D6210002800F0F18170B579
:100E100082B00446036813F0010F2CD0994B5B6835
:100E200003F00C03042B1DD0964B5B6803F00C03FE
:100E3000082B12D06368B3F5803F41D0002B55D109
:100E400003F1804303F504331A6822F480321A60F8
:100E50001A6822F480221A6037E08A4B5B6813F428
:100E6000803FE7D0874B1B6813F4003F03D06368D3
:100E7000002B00F0BF81236813F0020F75D0814B67
:100E80005B6813F00C0F5FD07E4B5B6803F00C03C4
:100E9000082B54D02369002B00F08A807A4B012262
:100EA0001A60FFF781FF0546764B1B6813F0020FAF
:100EB00075D1FFF779FF401B0228F5D903209EE189
:100EC000704A136843F480331360636843B3FFF7D9
:100ED0006BFF05466B4B1B6813F4003FCBD1FFF74C
:100EE00063FF401B6428F5D9032088E1B3F5A02FE8
:100EF00009D0644B1A6822F480321A601A6822F40E
:100F000080221A60E1E703F18043A3F53C331A68BD
:100F100042F480221A601A6842F480321A60D4E7E0
:100F2000FFF742FF0546574B1B6813F4003FA2D062
:100F3000FFF73AFF401B6428F5D903205FE1514BCE
:100F40005B6813F4803FA5D14E4B1B6813F0020F72
:100F500003D02369012B40F04F814A4A136823F0E4
:100F6000F803616943EAC1031360236813F0080FB3
:100F700033D0A369002B5CD0434B0122C3F88024FB
:100F8000FFF712FF05463F4B5B6A13F0020F21D1BA
:100F9000FFF70AFF401B0228F5D903202FE1394A49
:100FA000136823F0F803616943EAC1031360DCE7C7
:100FB000354B00221A60FFF7F7FE0546314B1B68E0
:100FC00013F0020FD1D0FFF7EFFE401B0228F5D936
:100FD000032014E10120FFF701FF236813F0040F41
:100FE00000F09680274BDB6913F0805F34D1254BEE
:100FF000DA6942F08052DA61DB6903F080530193D1
:10100000019B0125214B1B6813F4807F26D0E368E8
:10101000012B3DD0002B53D103F1804303F5043362
:101020001A6A22F001021A621A6A22F004021A6293
:1010300033E0154B0022C3F88024FFF7B5FE0546C8
:10104000104B5B6A13F0020FC7D0FFF7ADFE401BD9
:101050000228F5D90320D2E00025D3E70B4A136814
:1010600043F480731360FFF79FFE0646074B1B682F
:1010700013F4807FCBD1FFF797FE801B6428F5D94E
:101080000320BCE00010024000004242007000401B
:101090005F4A136A43F001031362E36833B3FFF757
:1010A00083FE06465A4B1B6A13F0020F2FD1FFF73F
:1010B0007BFE801B41F288339842F3D903209EE0E7
:1010C000052B09D0524B1A6A22F001021A621A6AE1
:1010D00022F004021A62E0E74D4B1A6A42F0040261
:1010E0001A621A6A42F001021A62D6E7FFF75CFE42
:1010F0000646474B1B6A13F0020F08D0FFF754FE59
:10110000801B41F288339842F3D9032077E0E5B998
:10111000E369002B72D03E4A526802F00C02082AA2
:1011200056D0022B17D03B4B00221A66FFF73CFE2D
:101130000446374B1B6813F0007F47D0FFF734FE9F
:10114000001B0228F5D9032059E0314AD36923F066
:101150008053D361DCE72F4B00221A66FFF724FE91
:1011600005462B4B1B6813F0007F06D0FFF71CFED3
:10117000401B0228F5D9032041E0236AB3F5803FE4
:101180001AD023494B6823F47413226A606A02431D
:1011900013434B601F4B01221A66FFF705FE0446FE
:1011A0001B4B1B6813F0007F0ED1FFF7FDFD001BEA
:1011B0000228F5D9032022E0154A536823F40033AE
:1011C000A1680B435360DCE7002018E0002016E024
:1011D000012B16D00E4B5B6803F48031226A9142DA
:1011E00011D103F47013626A93420ED1002006E01D
:1011F00001207047012002E0012000E0002002B041
:1012000070BD0120FBE70120F9E70120F7E700BFEF
:1012100000100240000042420F4B5B6803F00C02DA
:10122000082A01D00D487047C3F383420C49885CFB
:1012300013F4803F0BD0084B5B68C3F34043094A6B
:10124000D35C064A02FB00F0B0FBF3F07047064B9C
:1012500003FB00F0704700BF0010024000127A004C
:101260000C4000081C40000800093D00002800F068
:10127000A08070B50D460446524B1B6803F007036F
:101280008B420BD24F4A136823F007030B431360C2
:10129000136803F007038B4240F08D80236813F03E
:1012A000020F17D013F0040F04D0474A536843F4D9
:1012B000E0635360236813F0080F04D0424A536878
:1012C00043F460535360404A536823F0F003A1682D
:1012D0000B435360236813F0010F31D06368012B77
:1012E00020D0022B25D0384A126812F0020F64D0A9
:1012F00035494A6822F0030213434B60FFF754FD5F
:101300000646314B5B6803F00C036268B3EB820F57
:1013100016D0FFF749FD801B41F288339842F0D97F
:10132000032045E0284A126812F4003FE0D1012072
:101330003EE0254A126812F0007FD9D1012037E043
:10134000204B1B6803F00703AB420AD91D4A136800
:1013500023F007032B431360136803F00703AB422A
:101360002DD1236813F0040F06D0174A536823F4D5
:10137000E063E1680B435360236813F0080F07D064
:10138000114A536823F46053216943EAC10353604F
:10139000FFF742FF0C4B5B68C3F303130B4AD35CAC
:1013A000D8400B4B18600B4B1868FFF7B9FC0020B6
:1013B00070BD012070470120FAE70120F8E7012005
:1013C000F6E700BF00200240001002403440000851
:1013D0000800002004000020014B1868704700BF7F
:1013E0000800002008B5FFF7F7FF044B5B68C3F364
:1013F0000223034AD35CD84008BD00BF001002405E
:101400004440000808B5FFF7E7FF044B5B68C3F3EF
:10141000C223034AD35CD84008BD00BF001002407D
:101420004440000870B582B00446036813F0010F11
:1014300036D03F4BDB6913F0805F49D13C4BDA6912
:1014400042F08052DA61DB6903F080530193019B23
:101450000125384B1B6813F4807F3BD0344B1B6A4B
:1014600013F4407313D0626802F440729A420ED0B3
:101470002F4A136A23F440702F490126C1F84064B3
:101480000026C1F84064106213F0010F36D1284ADB
:10149000136A23F4407361680B431362002D3ED13D
:1014A000236813F0020F06D0214A536823F4404307
:1014B000A1680B435360236813F0100F34D01C4A0B
:1014C000536823F48003E1680B43536000202CE051
:1014D0000025BEE7174A136843F480731360FFF7D3
:1014E00063FC0646134B1B6813F4807FB6D1FFF7ED
:1014F0005BFC801B6428F5D9032016E0FFF754FC41
:1015000006460B4B1B6A13F0020FC0D1FFF74CFCD1
:10151000801B41F288339842F3D9032005E0D36958
:1015200023F08053D361BBE7002002B070BD00BF41
:1015300000100240007000400000424208B502283E
:101540004ED0102803D0012828D0002008BD2B4BF6
:101550005A68186810F08070F8D0C2F383432849A5
:10156000C85C12F4803F15D0244B5B68C3F3404342
:10157000244AD25C244BB3FBF2F303FB00F01F4B75
:101580005B6813F4800FE1D14000204BA3FB0030D7
:101590004008DBE71E4B03FB00F0F0E7174B1B6A2C
:1015A00040F202321A40B2F5817F24D003F4407336
:1015B000B3F5007F04D0B3F5407F09D00020C5E724
:1015C0000E4A526A12F0020FF5D049F64040BDE7CC
:1015D0000A4B186810F40030B8D04FF22440B5E739
:1015E000FFF710FF054B5B68C3F3813301335B00EA
:1015F000B0FBF3F0AAE74FF40040A7E70010024069
:10160000204000083040000800127A00ABAAAAAAC5
:1016100000093D0070B582B00024A446A6E0804DCC
:10162000AB4210D007D97F4DAB420CD005F58035C9
:10163000AB4208D013E0A5F58015AB4203D005F509
:101640007025AB4207D18B68002B58D0012B51D0AD
:101650004261082403E0A5F58015AB42F3D0BEF14A
:10166000FF0F4ED80646BEF1FF0F4CD84FEA8C0252
:1016700033680F25954023EA050304FA02F2134369
:1016800033604B6813F0805F6ED0674B9A6942F00D
:1016900001029A619B6903F001030193019B4FEAE8
:1016A0009C02951C614B53F825600CF00305AD00BE
:1016B0000F23AB4026EA03065D4B984229D003F581
:1016C0008063984200F08E8003F58063984200F0BA
:1016D0008B8003F58063984219D004231AE0CC680C
:1016E000BDE7CC680434BAE7CC680834B7E7CC6807
:1016F0000C34B4E702610824B1E70024AFE7042406
:10170000ADE7061DAFE7ACF108029200B0E7032396
:1017100000E00023AB4033430232444D45F8223011
:101720004B6813F4801F61D0424A936843EA0E036A
:1017300093604B6813F4001F5ED03E4AD36843EABF
:101740000E03D3604B6813F4003F5BD0394A5368F3
:1017500043EA0E0353604B6813F4803F58D0354A78
:10176000136843EA0E0313600CF1010C0B6833FAA3
:101770000CF253D0012202FA0CF203EA020E32EA12
:101780000303F1D14B68122B3FF649AF122B3FF602
:1017900066AF01A555F823F047160008DF160008CC
:1017A000E9160008FB1600085F1600085F1600081F
:1017B0005F1600085F1600085F1600085F16000835
:1017C0005F1600085F1600085F1600085F16000825
:1017D0005F1600085F1600085F160008E316000891
:1017E000EF160008012395E7022393E7114A936857
:1017F00023EA0E0393609CE70E4AD36823EA0E03A4
:10180000D3609FE70B4A536823EA0E035360A2E7B5
:10181000084A136823EA0E031360A5E702B070BDFF
:1018200000002210000031100010024000000140B2
:1018300000080140000401400AB101617047090439
:1018400001617047074AD36823F4E0631B041B0C53
:10185000000200F4E060034343F0BF6343F400334D
:10186000D360704700ED00E000B5194BDB68C3F3AF
:101870000223C3F1070CBCF1040F28BF4FF0040C86
:1018800003F1040EBEF1060F18D9033B4FF0FF3EE3
:101890000EFA0CFC21EA0C0199400EFA03FE22EA32
:1018A0000E020A4300280BDB1201D2B200F16040A5
:1018B00000F5614080F800235DF804FB0023E5E7B4
:1018C00000F00F001201D2B2024B1A54F4E700BF2D
:1018D00000ED00E014ED00E00138B0F1807F0BD2A4
:1018E0004FF0E0235861054AF02182F823100020D0
:1018F000986107221A6170470120704700ED00E0EF
:10190000026802F10C0353E8003F23F490730C3299
:1019100042E800310029F3D1026802F1140353E8D0
:10192000003F23F00103143242E800310029F3D1D3
:10193000036B012B05D0202380F842300023036382
:101940007047026802F10C0353E8003F23F01003D4
:101950000C3242E800310029F3D1ECE710B504461F
:101960000268136923F44053C1680B431361836811
:101970000269134342691A430168CB6823F4B053E8
:1019800023F00C031343CB600268536923F44073C4
:1019900081690B4353610268134B9A4220D0FFF7D1
:1019A00021FD024602EB820202EB820263689B0089
:1019B000B2FBF3F20D48A0FB02314909642303FB9B
:1019C00011231B013233A0FB03035B0903F0F00278
:1019D00002EB011203F00F03216813448B6010BD6A
:1019E000FFF710FD0246DDE7003801401F85EB518F
:1019F0002DE9F04383B005460E4617469946DDF8BB
:101A000028802B681C6836EA04040CBF01240024DB
:101A1000BC4228D1B8F1FF3FF3D0FFF7C5F9A0EBE6
:101A20000900404523D8B8F1000F22D02B68DA68AE
:101A300012F0040FE5D0802EE3D0402EE1D01A68DA
:101A400012F0080FDDD0002401941A6801925B683F
:101A50000193019B2846FFF753FF08236B6485F829
:101A60004040012000E0002003B0BDE8F0830320E7
:101A7000FAE70320F8E760B310B5044690F8413068
:101A800013B3242384F841302268D36823F400532D
:101A9000D3602046FFF762FF2268136923F4904366
:101AA00013612268536923F02A0353612268D368C3
:101AB00043F40053D36000206064202384F8413055
:101AC00084F84230606310BD80F84030FEF720FE9D
:101AD000D7E7012070472DE9F04182B01E4690F80B
:101AE0004130DBB2202B56D104460D4690460029EA
:101AF00055D00AB901204FE000234364212380F828
:101B00004130FFF751F90746A4F82480A4F8268055
:101B1000A368B3F5805F02D04FF0000814E023699A
:101B20002BB34FF000080FE0202384F8413003204E
:101B300032E038F8023B2268C3F308035360E28CBA
:101B400092B2013A92B2E284E38C9BB293B10096D6
:101B50003B46002280212046FFF74AFF0028E3D1C0
:101B6000002DE6D015F8012B23685A60E7E7A84658
:101B70000025E9E700963B46002240212046FFF77A
:101B800037FF18B9202384F8413005E0202384F87A
:101B90004130032000E0022002B0BDE8F0810120C6
:101BA000FAE7704700F1080343604FF0FF328260AC
:101BB000C360036100230360704700230361704723
:101BC00043684B609A688A60516099600861036855
:101BD00001330360704730B40D68B5F1FF3F11D099
:101BE00000F108031C465B681A68AA42FAD96368C8
:101BF0004B6099608C606160086103680133036029
:101C000030BC70470469F2E70369416882688A6002
:101C1000416851605A68824206D0002202611A6807
:101C2000013A1A601868704782685A60F5E710B583
:101C3000044601F0BFF8A26BE36B9A4204D0002483
:101C400001F0DAF8204610BD0124F9E770B504462A
:101C50001546866B026C5AB903681BB10020013629
:101C6000A66370BD806800F087FE0023A360F6E7DE
:101C70006DB9406801F0FEFC226C63681344636038
:101C8000A268934219D3236863602846E7E7C068D7
:101C900001F0F0FC226C5142E3689B1AE360226879
:101CA000934202D2A3680B44E360022D01D00020CE
:101CB000D5E726B1013E0020D1E72846CFE7002036
:101CC000CDE738B5054601F075F895F8454064B2A2
:101CD00001E0013C64B2002C0ADD6B6A43B105F1FE
:101CE000240000F09FFD0028F3D000F02FFEF0E765
:101CF000FF2385F8453001F07FF801F05BF895F897
:101D0000444064B201E0013C64B2002C0ADD2B695E
:101D100043B105F1100000F085FD0028F3D000F07C
:101D200015FEF0E7FF2385F8443001F065F838BD73
:101D300038B5E0B10D46044601F03CF82368E26B8B
:101D4000216C01FB0230A0600020A0636360013AB7
:101D500002FB0133E360FF2384F8443084F845300C
:101D6000FDB9236963B901F047F8012038BD4FF090
:101D7000500383F31188BFF36F8FBFF34F8FFEE7DC
:101D800004F1100000F04EFD0028ECD04FF0E023ED
:101D90004FF08052C3F8042DBFF34F8FBFF36F8F06
:101DA000E1E704F11000FFF7FDFE04F12400FFF766
:101DB000F9FED8E710B5034602980C4631B9006029
:101DC000C36304640121FFF7B3FF10BD0260F7E7AE
:101DD00040B94FF0500383F31188BFF36F8FBFF307
:101DE0004F8FFEE710B584B01C46844653B192B1C4
:101DF00089B94FF0500383F31188BFF36F8FBFF39E
:101E00004F8FFEE74FF0500383F31188BFF36F8FBE
:101E1000BFF34F8FFEE76AB148230393039B482B20
:101E200013D04FF0500383F31188BFF36F8FBFF3CC
:101E30004F8FFEE70029EFD04FF0500383F3118856
:101E4000BFF36F8FBFF34F8FFEE7039B012384F82F
:101E5000463000949DF818306046FFF7ABFF2046EF
:101E600004B010BD40B94FF0500383F31188BFF3A5
:101E70006F8FBFF34F8FFEE7F0B583B00D4614466A
:101E8000064601FB00F0483000F082FE074650B1E4
:101E9000002380F846300090234600F1480229468E
:101EA0003046FFF787FF384603B0F0BDF0B585B088
:101EB000019288B10F461D460446B1B1022D20D1D2
:101EC000E36B012B1DD04FF0500383F31188BFF358
:101ED0006F8FBFF34F8FFEE74FF0500383F31188EE
:101EE000BFF36F8FBFF34F8FFEE7036C002BE5D07E
:101EF0004FF0500383F31188BFF36F8FBFF34F8F01
:101F0000FEE700F029FD064658B9019B002B48D09A
:101F10004FF0500383F31188BFF36F8FBFF34F8FE0
:101F2000FEE700263DE02A4639462046FFF78EFEB2
:101F3000636A7BB948B14FF0E0234FF08052C3F899
:101F4000042DBFF34F8FBFF36F8F00F055FF0120BB
:101F500005B0F0BD04F1240000F064FC0028F4D0CA
:101F60004FF0E0234FF08052C3F8042DBFF34F8FA2
:101F7000BFF36F8FE9E700F03FFF0020E8E702A81A
:101F800000F096FC012619E0002384F8443021E09B
:101F9000002384F8453023E02046FFF792FE00F04E
:101FA0003BFB00F007FFA26BE36B9A42BBD3022D11
:101FB000B9D0019B002BDED0002EE0D000F01CFF3A
:101FC00000F096FA00F0F6FE94F8442052B2B2F116
:101FD000FF3FD9D094F8452052B2B2F1FF3FD7D09D
:101FE00000F00AFF01A902A800F06EFCD8B9204653
:101FF000FFF71DFE0028CFD0019904F1100000F07A
:10200000F9FB2046FFF75DFE00F006FB0028C8D173
:102010004FF0E0234FF08052C3F8042DBFF34F8FF1
:10202000BFF36F8FBDE72046FFF74BFE00F0F4FAD9
:1020300000208DE748B108B5002181600160C160D2
:102040000B460A46FFF732FF08BD704710B502463F
:1020500000210120FFF706FF0446FFF7EBFF2046B3
:1020600010BD10B582B00B46009000221146012031
:10207000FFF7AEFE0446FFF7DDFF204602B010BDBD
:10208000084B1B681B6823B9074B4FF0FF321A60DF
:102090007047044B1B68DB68DB685A68024B1A60A8
:1020A000704700BFCC030020A00400202DE9F047BA
:1020B00007469846089DDDF824900A9C266B02F19D
:1020C0008042013A06EB820626F00706C1B30846B5
:1020D0004FF0000CBCF10F0F09D810F80C2004EBE6
:1020E0000C0383F8342012B10CF1010CF2E7002349
:1020F00084F84330062D00D90625E56265644FF06B
:10210000000AC4F848A0201DFFF757FD04F118008D
:10211000FFF753FD2461C5F10705A5616462C4F8AA
:102120004CA084F850A042463946304600F01CFED0
:102130002060B9F1000F01D0C9F80040BDE8F08778
:10214000002384F83430D5E738B5002407E004EBE9
:10215000840293000E481844FFF724FD0134062C36
:10216000F5D90C4D2846FFF71DFD0B4C2046FFF717
:1021700019FD0A48FFF716FD0948FFF713FD094846
:10218000FFF710FD084B1D60084B1C6038BD00BFF9
:10219000D40300207404002088040020AC04002034
:1021A000D8040020C4040020CC030020D003002069
:1021B00010B5044600F0FEFD214A13680133136098
:1021C000204B1B685BB1204B1B686BB91D4B1B6818
:1021D000DA6AE36A9A4207D81A4B1C6004E0194B8A
:1021E0001C601368012B28D0184A13680133136050
:1021F000E06A01238340164A11680B43136000EB29
:102200008000211D134B03EB8000FFF7D9FC00F089
:10221000F3FD0D4B1B687BB10A4B1B68DA6AE36A5E
:102220009A4209D24FF0E0234FF08052C3F8042DB8
:10223000BFF34F8FBFF36F8F10BDFFF785FFD3E75D
:1022400060040020C8030020C00400206C040020AB
:1022500070040020D403002010B5044690F85130DB
:1022600063B1012B11D0022B0ED04FF0500383F33A
:102270001188BFF36F8FBFF34F8FFEE7006B00F045
:1022800005FD204600F002FD10BD00F0FFFCFBE75D
:102290000F4B1B68D3B110B500F08CFD0D4BDB6804
:1022A000DC68201DFFF7B0FC0B4A1368013B13608C
:1022B000074A1368013B136000F09EFD2046FFF7BC
:1022C000CBFF034B1B68002BE6D110BD704700BF4E
:1022D00064040020D80400206004002008B5FFF743
:1022E000D7FF074B1B68012BF9D94FF0E0234FF0C4
:1022F0008052C3F8042DBFF34F8FBFF36F8FEEE70B
:10230000D403002070B504460D461D4B1E681D4BBE
:1023100018680430FFF778FC48B91A4B1B68DB6A71
:1023200001229A4018490B6823EA02030B60B4F1BA
:10233000FF3F0DD03444134B1B685C60A64210D99C
:10234000124B18680F4B19680431FFF744FC70BD3D
:10235000002DEFD00B4B196804310D48FFF730FC0E
:10236000F5E70C4B1868074B19680431FFF733FC8D
:10237000094B1B68A342EAD9074B1C60E7E700BF83
:10238000EC040020C803002070040020D0030020CB
:10239000C4040020CC030020A004002030B587B086
:1023A0000B9C7CB10C9DB5B154250495049D542D16
:1023B0001AD04FF0500383F31188BFF36F8FBFF330
:1023C0004F8FFEE74FF0500383F31188BFF36F8FF9
:1023D000BFF34F8FFEE74FF0500383F31188BFF335
:1023E0006F8FBFF34F8FFEE7049D0C9D2C6302247B
:1023F00085F8514000240394029505AC01940A9C91
:102400000094FFF753FE0C98FFF7D2FE059807B033
:1024100030BD2DE9F04385B00746884614461E4678
:10242000900000F0B5FB00B38146542000F0B0FBF3
:102430000546B0B1C0F83090E5B1002385F85130C1
:10244000039302950D9B01930C9B00933346224608
:1024500041463846FFF72AFE2846FFF7A9FE01202D
:1024600005E0484600F012FCE6E74FF0FF3005B00B
:10247000BDE8F0834FF0FF30F9E7000010B588B0F9
:1024800000240594069407AA06A905A8FEF798F863
:10249000059B0293069B019300942346079A0E49DD
:1024A0000E48FFF77BFF0E4B186090B14FF05003C2
:1024B00083F31188BFF36F8FBFF34F8F094B4FF03A
:1024C000FF321A60084B01221A60084B1C6000F0B2
:1024D000FBFC08B010BD00BF4C400008DD22000826
:1024E0009C040020A0040020C0040020EC04002074
:1024F000024A136801331360704700BF680400206C
:10250000F8B53A4B1B68002B69D1394B1D68013572
:102510001D60C5B9374B1B681B6843B14FF05003B2
:1025200083F31188BFF36F8FBFF34F8FFEE7314AFC
:102530001168314B186810601960304A1368013314
:102540001360FFF79DFD2E4B1B68AB423DD9002762
:102550002C4B1B68DB6A03EB83039A002A4B9B58C6
:10256000012B00D90127294B1B68002B3CD00127E8
:102570003AE001271F4B1B681B6843B31D4B1B68C8
:10258000DB68DC6863689D4226D3261D3046FFF772
:102590003BFBA36A1BB104F11800FFF735FBE36AAC
:1025A00001229A401A49086802430A6003EB830338
:1025B0009A00314614481044FFF702FBE26A114BBF
:1025C0001B68DB6A9A42D4D2D4E70027D2E70C4BCF
:1025D0004FF0FF321A60BBE7094A1360B8E70D4AB3
:1025E00013680133136000273846F8BD68040020E3
:1025F000EC040020CC030020D0030020A404002021
:10260000A0040020C8030020D4030020F004002010
:1026100070040020A804002038B5354B1B6843B96E
:102620004FF0500383F31188BFF36F8FBFF34F8FC9
:10263000FEE700F0BFFB2E4B1A68013A1A601B68D8
:10264000002B4FD12B4B1B680BB900244BE000240F
:10265000294B1B681BB3284BDB68DC6804F11800AE
:10266000FFF7D2FA251D2846FFF7CEFAE06A0123CC
:102670008340224A11680B43136000EB8000294617
:102680001F4B03EB8000FFF79BFAE26A1D4B1B68B0
:10269000DB6A9A42DCD31C4B01221A60D8E70CB1EA
:1026A000FFF7EEFC194B1C6884B9174B1C68D4B1BA
:1026B0004FF0E0234FF08052C3F8042DBFF34F8F4B
:1026C000BFF36F8F01240EE0013C07D0FFF718FF26
:1026D0000028F9D00C4B01221A60F5E70B4B0022C1
:1026E0001A60E2E7002400F087FB204638BD00BFF7
:1026F0006804002060040020AC0400207004002066
:10270000D4030020C8030020F0040020A804002007
:1027100010B5A8B10446104B1B6843B14FF05003ED
:1027200083F31188BFF36F8FBFF34F8FFEE7FFF77F
:10273000DFFE00212046FFF7E5FDFFF76DFF48B9FA
:102740004FF0E0234FF08052C3F8042DBFF34F8FBA
:10275000BFF36F8F10BD00BF68040020204B1B68C3
:102760001BB1204B01221A6070471E4B00221A60D9
:102770001D4B1B68B3FA83F3DBB2C3F11F0303EBFA
:1027800083018A0019498A5842B94FF0500383F3F4
:102790001188BFF36F8FBFF34F8FFEE7134903EB31
:1027A000830082000A4450684068506003EB830C49
:1027B0004FEA8C0208321144884209D003EB8303AC
:1027C0009A000A4B13445B68DA68094B1A60704739
:1027D000406862469100054A0A445060EEE700BF37
:1027E00068040020F004002070040020D4030020BE
:1027F000C803002058B110B50C46094A11681831B9
:10280000FFF7E9F901212046FFF77CFD10BD4FF0ED
:10281000500383F31188BFF36F8FBFF34F8FFEE731
:10282000C803002038B5C368DC6824B304F1180578
:102830002846FFF7E9F9184B1B682BBB251D2846D6
:10284000FFF7E2F9E06A01238340144A11680B4361
:10285000136000EB80002946114B03EB8000FFF76B
:10286000AFF9E26A0F4B1B68DB6A9A4211D901206B
:102870000D4B186038BD4FF0500383F31188BFF340
:102880006F8FBFF34F8FFEE729460848FFF798F98F
:10289000E7E70020EEE700BF680400207004002096
:1028A000D4030020C8030020F0040020AC04002062
:1028B000034B1B680360034B1B684360704700BFFA
:1028C000A4040020EC040020D8B170B50C460546E5
:1028D00001B300F06FFA1B4B19686B68C81A2268C5
:1028E000B2F1FF3F27D0184E3668D5F800C0B44586
:1028F00001D08B4224D9824215D8002323600124C1
:102900001AE04FF0500383F31188BFF36F8FBFF3CA
:102910004F8FFEE74FF0500383F31188BFF36F8FA3
:10292000BFF34F8FFEE75B1A134423602846FFF77F
:10293000BFFF002400E0002400F05EFA204670BDD6
:102940000124F9E7EC040020A4040020014B01223B
:102950001A607047F0040020054B1B6833B1054B2B
:102960001B680BB1002070470220704701207047A0
:10297000C00400206804002000284BD038B504466D
:10298000264B1B68834208D04FF0500383F3118815
:10299000BFF36F8FBFF34F8FFEE7836C43B94FF0E8
:1029A000500383F31188BFF36F8FBFF34F8FFEE7A0
:1029B000013B8364C16A426C91422DD00BB100206F
:1029C00038BD051D2846FFF71FF968B9E36A03EB18
:1029D0008302920012498A5832B901229A40114961
:1029E0000B6823EA02030B60606CE062C0F107032E
:1029F000A361012404FA00F30A4A11680B4313602F
:102A000000EB80002946064B03EB8000FFF7D8F867
:102A10002046D5E7002070470020D1E7C8030020FA
:102A2000D403002070040020842801D003307047B4
:102A30000020704708B5FFF721FD002008BD2DE9F3
:102A4000F04387B00E464469C4B18569B5B14768A3
:102A5000D0F80080D0F81090B0F90800FFF7E4FF3C
:102A600002950194009033464A4641463846FFF7A6
:102A700095FC0590059807B0BDE8F08344680568AB
:102A80000769B0F90800FFF7CFFF05AB019300908D
:102A90003346BAB229462046FFF7BBFC0128E9D0ED
:102AA0000020E8E708B500B90120FFF731FE00205B
:102AB00008BD08B5416819B10120FFF7D2FA08BD79
:102AC0000120FFF7C3FAFAE7134A12F0070F1FD0ED
:102AD000D11D21F00701C1F51C53103313440A46E0
:102AE0000E480260002141601344083B23F00703B5
:102AF0000B48036059601960991A51601360094BC3
:102B00001960094B1960094B4FF000421A60704779
:102B100042F21073E4E700BFF80400201C2C0020F0
:102B2000F4040020102C00200C2C0020082C002085
:102B3000154B1A461B688342FBD3516802EB010C0C
:102B4000844509D0416800EB010C634509D003605E
:102B5000904218D0106070474068014451601046A0
:102B6000F0E710B4094C2468A3420AD05B6819440A
:102B7000416013681B680360904200D0106010BC75
:102B800070470460F8E770471C2C0020F404002014
:102B900070B50546FFF7ACFC364B1B68A3B1364B4E
:102BA0001B681D424ED135B1083515F0070F02D014
:102BB00025F007050835002D46D0304B1B68AB4289
:102BC00051D32F4A146804E0FFF77EFFE7E722465F
:102BD0001C466368AB4202D22368002BF7D1254B19
:102BE0001B68A34241D016680836236813606368E7
:102BF0005B1B102B10D9601910F0070F08D04FF095
:102C0000500383F31188BFF36F8FBFF34F8FFEE73D
:102C100043606560FFF78CFF626818490B689B1A78
:102C20000B60184909688B4201D216490B60124BA0
:102C30001B681343636000232360134A1368013346
:102C4000136002E0002600E00026FFF7E5FC16F026
:102C5000070F0CD04FF0500383F31188BFF36F8F31
:102C6000BFF34F8FFEE70026EFE70026EDE7304683
:102C700070BD00BFF4040020082C00200C2C0020A4
:102C80001C2C0020102C0020142C0020002834D0F4
:102C900038B50446A0F1080550F8043C174A1268FC
:102CA000134208D14FF0500383F31188BFF36F8FA5
:102CB000BFF34F8FFEE750F8081C41B14FF05003AF
:102CC00083F31188BFF36F8FBFF34F8FFEE723EAC3
:102CD000020340F8043CFFF70BFC54F8041C084ABC
:102CE00013680B4413602846FFF722FF054A136858
:102CF00001331360FFF790FC38BD7047082C0020AB
:102D00000C2C0020182C002082B0002301930D4BC6
:102D10001B68B3F1FF3F08D04FF0500383F31188D5
:102D2000BFF36F8FBFF34F8FFEE74FF0500383F376
:102D30001188BFF36F8FBFF34F8F019B002BFCD027
:102D400002B070470C00002006480068006880F35D
:102D5000088862B661B6BFF34F8FBFF36F8F00DF95
:102D600000BF000008ED00E04FF0807340F8043C25
:102D700021F0010140F8081C034B40F80C3C40F8DE
:102D8000202C4038704700BF092D000800000000CB
:102D9000074B19680868B0E8F00F80F30988BFF3A3
:102DA0006F8F4FF0000080F311884EF00D0E7047CA
:102DB000C80300204FF0500383F31188BFF36F8FD7
:102DC000BFF34F8F0B4A136801331360012B00D000
:102DD00070474FF0E023D3F8043D13F0FF0FF7D016
:102DE0004FF0500383F31188BFF36F8FBFF34F8F02
:102DF000FEE700BF0C000020094B1B6843B94FF0F1
:102E0000500383F31188BFF36F8FBFF34F8FFEE73B
:102E1000013B034A13600BB983F31188704700BF6D
:102E20000C00002000000000000000000000000076
:102E3000EFF30980BFF36F8F0D4B1A6820E9F00F95
:102E400010602DE908404FF0500080F31188FFF723
:102E500085FC4FF0000080F31188BDE80840196838
:102E60000868B0E8F00F80F30988BFF36F8F7047F0
:102E7000C803002008B54FF0500383F31188BFF357
:102E80006F8FBFF34F8FFFF73BFB28B14FF0E0236D
:102E90004FF08052C3F8042D002383F3118808BD3E
:102EA0004FF0E022002313619361054B1B68054935
:102EB000A1FB03139B09013B536107231361704777
:102EC00008000020D34D621010B582B02A4B1A784A
:102ED000D2B20192FF221A701B78DBB28DF8033058
:102EE0009DF8033003F05003244A1370244B07224B
:102EF0001A6009E0224A1368013B13609DF8033011
:102F00005B00DBB28DF803309DF8033013F0800FC7
:102F1000F0D11B4B1B68032B08D04FF0500383F3F9
:102F20001188BFF36F8FBFF34F8FFEE71B02144A68
:102F3000136003F4E0631360019BDBB20E4A13706D
:102F40004FF0E023D3F8202D42F47002C3F8202D77
:102F5000D3F8202D42F07042C3F8202DFFF7A0FFD8
:102F60000024084B1C60FFF7EFFEFFF7F7FBFFF7AD
:102F7000CBFE204602B010BD00E400E0242C00206F
:102F8000282C00200C00002003685A6912F4806F7E
:102F900001D1002070476FF480625A6100230363FF
:102FA000202280F83D2080F83E30026C42F004027E
:102FB000026480F83C30012070472DE9F04106465C
:102FC0000C46174698463BE0FDF7EEFE069BC01AFE
:102FD000404502D8B8F1000F32D1012D18D0336826
:102FE0009B6924EA03039BB2B3FA83F35B099F4214
:102FF00026D100233363202286F83D2086F83E3018
:10300000326C42F02002326486F83C30012027E026
:1030100033685B6924EA03039BB2B3FA83F35B0969
:10302000E5E733685B6924EA030C1FFA8CFCBCFA01
:103030008CFC4FEA5C1C674511D1B8F1FF3FC3D14E
:10304000C4F30745012DECD033689B6924EA030CD7
:103050001FFA8CFCBCFA8CFC4FEA5C1CEBE70020EE
:10306000BDE8F0812DE9F84305460E4690469946A5
:1030700053E01A6842F400721A602B686FF48062A1
:103080005A6100232B63202285F83D2085F83E30CD
:103090002A6C42F004022A6485F83C3001204AE0A0
:1030A000FDF782FEA0EB0900404502D8B8F1000F01
:1030B00033D1012F17D02B689B6926EA03039BB2FB
:1030C000003B18BF012343B300232B63202285F864
:1030D0003D2085F83E302A6C42F020022A6485F8B3
:1030E0003C30012027E02B685B6926EA03039BB292
:1030F000003B18BF0123E6E72B689C6926EA04041D
:10310000A4B2003C18BF0124A4B12B685A6912F480
:10311000806FAED1B8F1FF3FC2D1C6F30747012F90
:10312000EAD12B685C6926EA0404A4B2003C18BF0B
:103130000124E9E70020BDE8F8830000F0B583B082
:1031400004460D4616461F46C36A082B0DD0012BB8
:103150000BD013F5803F08D0036B122B0AD1026805
:10316000136843F48073136004E02268136843F427
:10317000807313600097334600224FF00111204600
:10318000FFF71BFF80B92369B3F5804F16D1236881
:1031900005F0FE051D613B46324613492046FFF708
:1031A00061FFF8B903B0F0BD23681B6813F4807F9A
:1031B00002D04FF4007323640320F3E7EB1122687D
:1031C00003F0060343F0F00313613B463246074920
:1031D0002046FFF747FF18B92368EDB21D61DAE713
:1031E0000120DFE70120DDE7020001000800010007
:1031F00070B504460D46164623685B6913F0800FD0
:1032000021D12046FFF7C0FEF8B9B5F1FF3FF3D05A
:10321000FDF7CAFD801BA84201D8002DECD1236820
:103220005B6913F0800FE7D100232363202284F829
:103230003D2084F83E30226C42F02002226484F863
:103240003C30012000E0002070BD0120FCE770B59B
:1032500004460D46164623685B6913F0040F21D11E
:103260002046FFF791FEF8B9B5F1FF3FF3D0FDF727
:103270009BFD801BA84201D8002DECD123685B691F
:1032800013F0040FE7D100232363202284F83D20AC
:1032900084F83E30226C42F02002226484F83C30F4
:1032A000012000E0002070BD0120FCE7002800F0B4
:1032B000CC8070B5044690F83D30002B77D02423A5
:1032C00084F83D302268136823F0010313602268FC
:1032D000136843F4004313602268136823F4004327
:1032E0001360FEF77FF862685A4B9A4264D85A4BD3
:1032F00098428CBF00230123002B40F0A88057493F
:10330000A1FB00318B0C25686A6822F03F0242EA7B
:1033100091426A6021680A6A22F03F0266684D4D58
:10332000AE424FD8013313430B622168CA6922F4BD
:103330004F4222F0FF026568464B9D424CD8431E27
:103340006D00B3FBF5F3013340F6FC70034278D017
:10335000C3F30B031A43CA6121680B6823F0C0034F
:10336000E269206A024313430B6021688B6823F4EF
:10337000034323F0FF032269E068024313438B6099
:103380002168CB6823F0FF036269A06902431343FD
:10339000CB602268136843F00103136000202064AF
:1033A000202384F83D30206384F83E0070BD80F80F
:1033B0003C30FDF77BF982E7294B98428CBF002314
:1033C000012399E74FF4967505FB03F3254DA5FB03
:1033D00003539B090133A6E7A668BEB9431E05EB5C
:1033E000450CB3FBFCF30133C3F30B03B3FA83F3D4
:1033F0005B0943BBC6B9431E05EB4505B3FBF5F3BB
:103400000133C3F30B0343F40043A3E7431E05EB6F
:10341000850C0CEB8C0CB3FBFCF30133C3F30B03F7
:10342000B3FA83F35B09E4E7431E05EB850505EB7F
:103430008505B3FBF5F30133C3F30B0343F44043BA
:1034400088E7042386E7012384E7012070470120F1
:10345000ACE700BFA08601007F841E0083DE1B4313
:10346000FF083D00D34D62102DE9F04385B00446BE
:103470000F46914698460C9EFDF796FC054694F83B
:103480003D00C0B2202804D00227384605B0BDE870
:10349000F0830095192301224F492046FFF78DFD47
:1034A000002840F0928094F83C30012B00F08F808F
:1034B000012384F83C3023681A6812F0010F03D10D
:1034C0001A6842F001021A602268136823F400634C
:1034D0001360212384F83D30102384F83E3000230C
:1034E0002364C4F82490A4F82A80638D23853B4B81
:1034F000E3622B46324639462046FFF71FFE074659
:10350000002866D10023039323685A6903929B69BC
:103510000393039B11E0236C042B01D00127B4E734
:103520002268136843F400731360F7E72A463146B4
:103530002046FFF78CFE00282ED1238D002B36D09D
:103540002A4631462046FFF753FE0028E3D1626A3F
:10355000236812781A61606A431C6362618D89B2C4
:10356000013989B26185238D013B9BB22385226895
:10357000516911F0040FD9D0002BD7D043781361D3
:10358000636A01336362638D9BB2013B9BB26385C7
:10359000238D013B2385C9E7236C042B01D0012730
:1035A00073E72268136843F400731360F7E7226837
:1035B000136843F400731360202384F83D30002324
:1035C00084F83E3084F83C305FE702275DE702274D
:1035D0005BE7012759E700BF020010000000FFFF72
:1035E000FEF7DFFA0B480C490C4A002302E0D458DE
:1035F000C4500433C4188C42F9D3094A094C00233F
:1036000001E013600432A242FBD300F00FF8FCF794
:1036100073FF704700000020740000208C400008F9
:10362000740000203C2C0020FEE7000070B500264E
:103630000C4D0D4C641BA410A64209D100F098FC5F
:1036400000260A4D0A4C641BA410A64205D170BD89
:1036500055F8043B98470136EEE755F8043B984788
:103660000136F2E7844000088440000884400008E6
:10367000884000080A44914200F1FF3300D17047AE
:1036800010B511F8014B914203F8014FF9D110BD6B
:1036900003460244934200D1704703F8011BF9E747
:1036A0000EB46FF0004100B59CB01DAB02900690C7
:1036B000079104910848094953F8042B05910068C3
:1036C00002A9019300F066F80022029B1A701CB058
:1036D0005DF804EB03B07047100000200802FFFF04
:1036E0002DE9F0471F468E688246BE420C46904642
:1036F0000B682CD88A8912F4906F26D06569096905
:1037000005EB4505A3EB010905EBD5757B1C4B4487
:103710006D109D4238BF1D46530527D5294600F040
:103720005BFB064660B34A462169FFF7A3FFA38906
:1037300023F4906343F08003A38126614E44266006
:103740003E466561A5EB0905A560BE4200D93E462F
:1037500032464146206800F0BDFA0020A3689B1B5A
:10376000A360236833442360BDE8F0872A4600F055
:10377000A7FB06460028E0D15046216900F0C4FAB4
:103780000C23CAF80030A3894FF0FF3043F0400308
:10379000A381E9E72DE9F04F98468B8907461B0680
:1037A0000D4614469DB00ED50B6963B9402100F05B
:1037B00013FB2860286120B90C233B604FF0FF30D9
:1037C000D0E040236B610023099320238DF829303A
:1037D00030234FF00109CDF80C80DFF8A0818DF87F
:1037E0002A3023469A4613F8012B0AB1252AF9D12B
:1037F000BAEB040B0BD05B46224629463846FFF74E
:103800006FFF013000F0A980099A5A4409929AF892
:103810000030002B00F0A18000234FF0FF32CDE9F3
:1038200005230AF1010A049307938DF853301A9384
:103830005446052214F8011B504800F03DFA049A42
:10384000D8B9D00644BF20238DF85330110744BFA8
:103850002B238DF853309AF800302A2B15D054467C
:1038600000204FF00A0C079A214611F8013B303B2B
:10387000092B4DD9B0B1079214E0A0EB080309FA67
:1038800003F31343A2460493D2E7039B191D1B685D
:103890000391002BBBBF5B4242F0020207930793E8
:1038A000B8BF049223782E2B0CD163782A2B34D105
:1038B000039B02341A1D1B680392002BB8BF4FF004
:1038C000FF330593DFF8B8A003225046217800F0BB
:1038D000F3F938B14022049BA0EB0A008240134365
:1038E0000134049314F8011B062226488DF8281091
:1038F00000F0E2F9002838D0234B1BBB039B0733B1
:1039000023F0070308330393099B3344099368E7C3
:103910000C4601200CFB0232A6E700234FF00A0CF4
:10392000194601340593204610F8012B303A092A34
:1039300003D9002BC6D00591C4E7044601230CFB34
:103940000121F0E703AB00932A4638460F4B04A948
:10395000AFF30080421C0646D6D1AB895B063FF52B
:103960002DAF09981DB0BDE8F08F03AB00932A4638
:103970003846064B04A900F07DF8EBE751400008FB
:10398000574000085B40000800000000E1360008D6
:103990002DE9F047164699468A680B690746934217
:1039A000B8BF1346336091F843200C46DDF8208001
:1039B0000AB1013333602368990642BF336802338A
:1039C0003360256815F0060506D104F1190AE3688D
:1039D00032689B1AAB422BDC94F84320131E2268FA
:1039E00018BF0123920630D44946384604F14302F9
:1039F000C047013023D02368226903F00603042B5B
:103A000014BF002533684FF0000608BFE56804F1D5
:103A10001A0408BFED1A54F8123C08BF25EAE575F0
:103A20009342C4BF9B1AED18B5421AD1002008E09A
:103A30000123524649463846C047013003D14FF072
:103A4000FF30BDE8F0870135C1E73020E11881F88B
:103A500043005A1C94F845102244023382F8431064
:103A6000C2E70123224649463846C0470130E6D026
:103A70000136D9E72DE9FF470F7E9146782F804622
:103A80000C469A460C9D01F1430207D8622F0AD8D2
:103A9000002F00F0D580582F00F0C18004F14205BE
:103AA00084F842703AE0A7F16303152BF6D801A120
:103AB00051F823F00D3B0008213B00089D3A000817
:103AC0009D3A00089D3A00089D3A0008213B0008F5
:103AD0009D3A00089D3A00089D3A00089D3A00086A
:103AE000273C00084D3B0008E13B00089D3A0008D8
:103AF0009D3A0008493C00089D3A00084D3B0008EB
:103B00009D3A00089D3A0008E93B00082B681A1D01
:103B10001B682A6004F1420584F842300123A0E0CA
:103B200020682B68070603F10401296001D51E688F
:103B300003E04606FBD5B3F90060002E03DA2D231F
:103B4000764284F843300A23594812E02B682068F3
:103B5000191D2960050601D51E6802E04106FBD546
:103B60001E886F2F0CBF08230A235148002184F8B8
:103B700043106568002DA8BF2168A560A4BF21F08F
:103B8000040121600EB9002D4BD01546B6FBF3F1B0
:103B900003FB1167C75D05F8017D3746BB420E4642
:103BA000F4D9082B0BD12368DE0708D52369616897
:103BB0009942DEBF302305F8013C05F1FF35521B69
:103BC00022614B4621464046CDF800A003AAFFF7EC
:103BD000DFFE01304AD14FF0FF3004B0BDE8F0877E
:103BE000236843F0200323607827324884F8457027
:103BF000236829681F0651F8046B02D45F0648BF8A
:103C0000B6B2DF0748BF43F02003296048BF2360F6
:103C10001EB9236823F0200323601023A6E724485D
:103C2000E4E71546BDE72B682668181D6169286022
:103C300035061B6801D5196002E07006FBD51980B6
:103C4000002315462361BCE72B6800211A1D2A605A
:103C50001D686268284600F02FF808B1401B6060BC
:103C600063682361002384F84330AAE72A46494663
:103C700040462369D0470130ADD023689B0713D459
:103C8000E068039B9842B8BF1846A6E70123324676
:103C900049464046D04701309DD00135E36803993D
:103CA0005B1AAB42F2DCEBE7002504F11906F5E7FD
:103CB0006240000873400008034610B5C9B20244D0
:103CC0009342184601D1002003E0047801338C426E
:103CD000F6D110BD884210B501EB020402D984422E
:103CE000234607D8431EA14208D011F8012B03F840
:103CF000012FF8E7014602448A4200D110BD13F8B3
:103D0000014D02F8014DF7E738B50546002940D0CE
:103D100051F8043C0C1F002BB8BFE41800F010F958
:103D20001C4A136833B9636014602846BDE8384004
:103D300000F007B9A34208D9206821188B4201BFBF
:103D400019685B6809182160EDE71A465B680BB1DA
:103D5000A342FAD911685018A0420BD1206801443F
:103D6000501883421160E0D118685B680844106005
:103D70005360DAE702D90C232B60D6E720682118BC
:103D80008B4201BF19685B68091821606360546049
:103D9000CBE738BD2C2C002070B50E4E0C46316898
:103DA000054611B900F0BCF830602146284600F005
:103DB000B7F8431C0AD0C41C24F00304A04207D067
:103DC000211A284600F0ACF8013001D14FF0FF3441
:103DD000204670BD302C00202DE9F041CD1C25F08F
:103DE000030508350C2D38BF0C25002D074601DBD7
:103DF000A94205D90C2300263B603046BDE8F0817E
:103E00002E4E00F09DF833681C4634BB29463846D8
:103E1000FFF7C2FF431C04464DD134682646002EEE
:103E200040D123683146384604EB030800F078F8A7
:103E300080453AD123680335ED1A25F0030508358E
:103E40000C2D38BF0C2538462946FFF7A5FF013059
:103E50002BD023682B4423600EE02268521B1ED413
:103E60000B2A16D96119A342256018BF59606368EF
:103E700008BF316062514B60384604F10B0600F018
:103E800060F826F00706231DF21AB6D09B1BA3503C
:103E9000B3E76268A3420CBF32605A60ECE7234686
:103EA0006468B2E734467668B9E70C2338463B606D
:103EB00000F047F8A1E72560DEE700BF2C2C0020CA
:103EC0002DE9F041804614460E4621B91146BDE861
:103ED000F041FFF781BF2AB9FFF716FF25462846B4
:103EE000BDE8F08100F02EF88442074602D8B4EB1A
:103EF000500F12D821464046FFF76EFF05460028B6
:103F0000EDD0BC422246314628BF3A46FFF7B2FB0D
:103F100031464046FFF7F8FEE1E73546DFE70000AF
:103F200038B50023054D044608462B6000F012F812
:103F3000431C02D12B6803B1236038BD342C002010
:103F40007047704751F8043C181F002BBCBF0B583A
:103F5000C0187047044A05491368002B08BF0B4678
:103F60001844106018467047382C0020402C002060
:103F7000F8B500BFF8BC08BC9E467047F8B500BF56
:083F8000F8BC08BC9E46704726
:103F880000400008AD010008FDFF0000000000002F
:103F9800800000000000000000000000F43F00085E
:103FA8005D0200080300000000000000800000001F
:103FB8000000000000000000E83F0008AF01000812
:103FC8000000000000000000800000000000000069
:103FD8000000000074656D703A2025640000000040
:103FE8006D795461736B3033000000006D79546152
:103FF800736B30320000000064656661756C745440
:1040080061736B0002030405060708090A0B0C0D0F
:104018000E0F10100102000002030405060708092C
:104028000A0B0C0D0E0F101001020000000000001A
:104038000000000001020304060708090000000050
:104048000102030449444C4500232D302B2000680D
:104058006C4C00656667454647003031323334356D
:1040680036373839414243444546003031323334DB
:0C407800353637383961626364656600D4
:0440840089010008A6
:0440880061010008CA
:10408C00010000001000000000127A00AAAAAAAADF
:10409C0014000020000000000000000000000000E0
:1040AC000000000000000000000000000000000004
:1040BC0000000000000000000000000000000000F4
:1040CC0000000000000000000000000000000000E4
:1040DC0000000000000000000000000000000000D4
:1040EC0000000000000000000000000000000000C4
:0440FC0000000000C0
:04000005080035E1D9
:00000001FF
