:020000040800F2
:1000000000500020AF0700087F06000841000008EC
:100010007F0600087F0600087F0600080000000039
:100020000000000000000000000000007F06000843
:100030007F060008000000007F0600087F06000819
:1000400008490A68002AFED41EF0040F0CBFEFF323
:100050000880EFF3098042F000420A6081690231B2
:08006000816170472CED00E006
:10006800034C206804348047FBE700F080FBFEE780
:04007800B80C0008B8
:0C007C003F0B0008A800000888000008E6
:10008800EB0700080B0800081708000823080008F9
:100098000B08000817080008C9060008B707000879
:1000A800410B0008DC0B0008DC0B0008DC0B000827
:1000B800DC0B0008DC0B0008DC0B0008DC0B00087C
:1000C800DC0B0008DC0B0008FFFFFFFFFFFFFFFF52
:1000D800FFFFFFFFFFFF0000430B00088E0B000827
:1000E800D20A0008AB0B0008290B0008DD0B00083A
:0800F800E60B0008300B0008C4
:10010000002B35D129B9B0FBF2FC0CFB1202604682
:100110007047914215D22DE9F041B2FA82F39A402C
:100120009940D3F1200C30FA0CFC51EA0C019840B4
:1001300000F04EF8280036FA03F200210023BDE853
:10014000F081F0B5B1FBF2FC0CFB1211B2FA82F3B4
:100150009A409940D3F1200630FA06F63143984090
:1001600000F036F8614628003200DA400023F0BD86
:10017000F3B5B3FA83FC49085FEA300013FA0CF3D5
:10018000DCF1200432FA04F423430CB41A0000F02A
:100190001FF80CBC33FA0CF3DCF11F0C35FA0CF52C
:1001A00018BF013D03BCA5FB026705FB0377801B5D
:1001B000B941904271EB030C05D3821A71EB030332
:1001C000681C0021F0BD02000B0028000021F0BDDA
:1001D000940D4FF6C2752D02B5FBF4F4D60A013624
:1001E00004FB04F5A5FB0656F64306EB041655087A
:1001F00032BF00277708013505FB1677A6FB0747B6
:100200007F0807EBC63714001500E7FB02457F1B8C
:100210004D1C0400E7FB014505FB1206A64284BF06
:10022000013DB618964224BF0135B61A704700BF8B
:100230005AB3844690EA01039B071FD1830707D076
:1002400011F8013B00F8013B013AF7D11CE084466C
:10025000203A09D32DE9F007B1E8F807A0E8F8073C
:10026000203AF9D2BDE8F0071C3205D451F8043B1E
:1002700040F8043B043AF9D2043205D011F8013BAE
:0C02800000F8013B013AF9D160467047DC
:10028C0000220B0011001A0084465AB3830704D0D5
:10029C0000F8011B013AF9D124E0C9B241EA01216D
:1002AC0041EA0141202A11D3203A2DE9F0030B46F3
:1002BC000C460D460E460F4688468946A0E8FA03C2
:1002CC00203AFBD2BDE8F00320320BD0042A05D330
:1002DC0040F8041B043A05D0042AF9D200F8011B9B
:0802EC00013AFBD160467047A6
:1002F4002DE9F04F89B017468B4680460020C8F898
:1003040000000DF10E00A0F1010A5D4615F8011B75
:10031400252907D0002900F09981404600F08FFA82
:10032400AB46F2E70BF1020B00241BF8012C2A2A3E
:1003340008DC202A13D0232A13D0272A46D14FF4CD
:1003440000400FE05D2A06DD672A0FDC5E2A3DD1FE
:100354004FF4805006E02B2A38D1202002E04020C0
:1003640000E0802004430BF1010BDEE76B2A08DD7B
:100374006C2A0DD0742A18BF7A2A27D11BF8012BB6
:1003840024E0682A10D06A2A20D11BF8012B08E047
:10039400584610F8012B6C2A12D19BF801200BF15E
:1003A400020B44F0020411E0584610F8012B682AAD
:1003B40009D19BF801200BF1020B44F0080405E07D
:1003C40044F0010401E044F004048346622A16DD8B
:1003D400A2F1630015283FF698AF0025DFE800F08E
:1003E4001A0C0B0B0B0B0C0B0B0B0B202C310B0BEC
:1003F4003B0B4C0B0B1688E744F480443CE0252A65
:1004040079D0582A40F01A8144F4005420062DD49F
:10041400002531E017F8041B404600F010FA74E799
:1004240057F8040B210700F10D81A107D8F800103B
:1004340054BF016022C068E72006302101EAE0755C
:100444001AE02006232101EAE07544F4807457F889
:10045400040B0021B0E057F8045B15F8011B0029D8
:100464003FF453AF404600F0EAF9F6E743F258058B
:10047400782A08BF43F27805600404D4A00708D49E
:100484003B1D00210BE0A00712D457F8040BC11741
:1004940014E0F81D20F0070707F1080379683868AD
:1004A400670713D414F008071CBFC0B200210FE083
:1004B400F81D20F00707796857F8080B630709D47B
:1004C400230744BF40F3C01140B206E080B20021CC
:1004D4001F4616E040F3C03100B2002905DBA30635
:1004E4000ED4630648BF20250BE00023404263EB93
:1004F40001012D2505E04046252100F0A0F904E77F
:100504002B2500266E2A25DD6F3A092A00F27F800A
:10051400DFE802F005527D7D7D7D267D7D5250EA27
:10052400010270D0AE46BC46C20842EA41720DF1E7
:100534000E070625134665F3DF00B855013652EA67
:10054400D1004FEAD1014FEAD20040EA4172184685
:10055400F0D155E0582A2FD0642A18BF692A56D101
:1005640050EA01024FD0CDE901570D460746200459
:100574000AD506F00300032806D10DF10E092C203C
:1005840009F80600013601E00DF10E0938460A2289
:100594000023FFF7B3FD00EB8002A7EB420242F019
:1005A400300209F806200136D7F109020022AA41D7
:1005B400DBD3DDE901572AE050EA010223D0AE463D
:1005C400A20440F69642C0F60002BC465CBF40F668
:1005D400A642C0F60002030943EA017300260DF1A6
:1005E4000E0500F00F071846D35DAB55013650EAEF
:1005F40011134FEA11114FEA101343EA0173F0D1BA
:100604006746754603E030208DF80E000126FF2D65
:1006140004D9290A404600F012F900E01DB1404611
:10062400294600F00CF9012EFFF66FAE1AF80610F9
:10063400404600F004F9013EF8D866E6002A7FF44B
:1006440064AE14E0D8F8001001705EE6D8F80C002F
:1006540028B1D8E9001291423CBF002242544046DE
:1006640000F02FF9D8F8000009B0BDE8F08F40463B
:0A06740000F027F94FF0FF30F6E721
:02067E00FEE795
:10068000F8B51D4617460C460646184600F083F995
:10069000002803D407FB04F2A24201D20020F8BDD7
:0E06A0002846314600F01CF8B0FBF4F0F8BD1F
:1006AE0040F2B401C2F200010868002802BF40F215
:0A06BE00C840C2F200000860704757
:0E06C8007F298EBF6FF0010001700120704786
:0A06D600436A08460121FFF7D0BF78
:0606E000006800F02DB8D7
:1006E60070B5144600EB400040F20002C2F2000270
:1006F60002EBC00202F11806D06A02280AD00D46A3
:1007060001280DD020B9304600F08EF9A0420DD256
:10071600002410E030462246BDE8704000F0ACB937
:10072600304600F081F9A04238BF044630462946DB
:0A073600224600F083F9204670BD52
:10074000F8B514460D4640F20001C2F2000106461B
:100750000878002808BF00F03CF9EFF311874FF04C
:10076000200181F31188304629462246FFF7BBFF5E
:0607700087F31188F8BDBB
:1007760080B582B0002001900090009863280ADCC2
:10078600009940F67D30C0F6000000F0EBF80098C6
:1007960001300090F1E70098013000900120002818
:0807A600F9D1019802B080BDF9
:0807AE00AFF30080FFF759FCD6
:1007B60084460020002918BF002A00D17047097816
:1007C60048B2002844BF6FF001007047BCF1000F2B
:1007D60018BFCCF800100021C3E90011002818BF8B
:0407E6000120704737
:1007EA007F2884BF0020704740F61642C0F60002F8
:1007FA00105C40F6EF32C0F60002515C08407047C8
:0C080A00A0F161011A2938BF20387047A6
:0C081600A0F141011A2938BF20307047C2
:100822007F2884BF0020704740F61642C0F60002BF
:10083200105C40F6EF32C0F60002515C084070478F
:1008420010B582B004468DF80710006978B1D4E97A
:1008520000239A4231D26269531C63618154D4E904
:100862000501884229D1204600F02CF825E0E068F5
:1008720050B1D4E9002C62451FD2531CB3EB0C03D8
:1008820018BF0B46835418E0A06858B1D4E9002C75
:10089200624512D2531CB3EB0C0318BFCBB240F823
:1008A20022300AE0236A43B1D4E90001884204D22B
:1008B2000DF107012046012298472068013020608F
:0408C20002B010BDB3
:1008C60010B54269002A08BF10BD0446036A002B12
:0C08D6001CBF216998470020606110BD24
:1008E20070B514460D460646FFF7E0FE0146304657
:0C08F2002A462346BDE8704000F000B824
:1008FE002DE9F04F03AF8DB047F83C3C91460E46C4
:10090E00044600F05DF80546EB46073020F0070080
:10091E00ADEB0008C546A7F1380A50460021242247
:10092E00FFF7B1FC40F2D760C0F6000047E9076060
:10093E006FF0004047F8340C47F8144C47F8205C31
:10094E0047F8288C5046494657F83C2CFFF7CBFC0D
:0C095E00DD46A7F10C04A546BDE8F08FB3
:10096A0083B000B582B00DF10C0C8CE80E0040F299
:10097A00DC42C2F200020146106803AA0192FFF7A4
:0C098A00ABFF02B0BDE8004003B07047B6
:1009960040F2DC41C2F2000140F2E0420968091A65
:1009A600C2F2000218BF01211268121A18BF0122F2
:1009B600114040F2E442C2F200021268101A18BF57
:0809C600012008404042704787
:0409CE00402070470E
:1009D20040F20000C2F2000003210161416140F6D1
:1009E2000D41C0F60001816140F2B802C2F200027C
:1009F200C2614FF480620262002282624262C2627B
:100A0200016640F2B841C2F20001416610218166DE
:100A12000267C26642670F2140F6FC32C0F600024E
:0C0A2200535C00F8013B0139FAD2704728
:100A2E00C268016991428FBFD043D243114480689E
:040A3E0008447047B1
:100A42002DE9F0411546884604464068D4E902166D
:100A520030448F1B9742414603D9FFF7E8FB3544E8
:100A620009E03A46FFF7E3FB08EB0701ED1B60687C
:0C0A72002A46FFF7DCFBE560BDE8F081E0
:100A7E002DE9F843144688460546C7684FF000092D
:100A8E002869F943B842AA689ABF084481180144FC
:100A9E0068683844D61BB14238BF0E46A64228BFFE
:100AAE00264641463246FFF7BCFBF019A968471AA5
:100ABE0018BF0746EF60A41BB044B144E0D14846CE
:040ACE00BDE8F88304
:100AD2004A616E75617279004665627275617279FA
:100AE200004D6172636800417072696C004D6179FA
:100AF200004A756E65004A756C79004175677573B9
:100B0200740053657074656D626572004F63746F33
:100B1200626572004E6F76656D6265720044656350
:070B2200656D6265720000C1
:070B2900414D00504D00009A
:0F0B3000256120256220256520255420255900A8
:020B3F00430071
:020B41002E0084
:100B430053756E646179004D6F6E646179005475FD
:100B53006573646179005765646E657364617900D8
:100B630054687572736461790046726964617900CF
:0A0B7300536174757264617900002B
:100B7D0048656C6C6F20576F726C64202564210A78
:010B8D000067
:100B8E0053756E004D6F6E005475650057656400A9
:0D0B9E0054687500467269005361740000D0
:100BAB004A616E00466562004D61720041707200D1
:100BBB004D6179004A756E004A756C00417567008E
:100BCB00536570004F6374004E6F7600446563008D
:010BDB000019
:010BDC000018
:090BDD00256D2F25642F257900F8
:090BE60025483A254D3A2553003B
:0D0BEF000007032004170201085710408082
:100BFC000000000000005454522052454747455312
:010C0C0000E7
:090C0D005465726D696E616C00A2
:100C16002020202020202020206828282828202066
:100C260020202020202020202020202020202020BE
:100C36004810101010101010101010101010101076
:100C46008484848484848484848410101010101016
:100C5600108181818181810101010101010101016F
:100C66000101010101010101010101101010101023
:100C76001082828282828202020202020202020240
:100C860002020202020202020202021010101020E8
:100C960030313233343536373839414243444546AC
:100CA60030313233343536373839616263646566DC
:100CB800F90C000800000020C80400000B0D000813
:100CC800C8040020D80C00082000000073000008A9
:100CD8007C0000087C0000087C0000087C000008FC
:100CE8007C000008A8000020AC000020B000002014
:100CF800206861680834002200E042540139FCD5BC
:020D0800704732
:100D0A0020686168A2680C3401E08B5C8354013A64
:040D1A00FBD570474E
:04000005080007AF39
:00000001FF
