:020000040800F2
:1000000000180020C91A0008390500083B0500083F
:100010003D0500083F0500084105000800000000FC
:100020000000000000000000000000004305000880
:1000300045050008000000004705000849050008C4
:10004000111B0008111B0008111B0008111B0008E0
:10005000111B0008111B0008111B0008111B0008D0
:10006000111B0008111B0008111B0008111B0008C0
:10007000111B0008111B0008111B0008111B0008B0
:10008000111B0008111B0008111B0008111B0008A0
:10009000111B0008111B0008111B0008111B000890
:1000A000111B0008111B0008111B0008111B000880
:1000B000111B0008111B000800000000111B0008A4
:1000C000111B00080000000000000000111B0008C8
:1000D00000000000111B0008111B000800000000B8
:1000E000111B0008111B0008111B00080000000074
:1000F0000000000000000000000000000000000000
:0C01000000000000000000005FF808F1A3
:10010C00034613F8012B002AFBD1181A013870474B
:10011C000348044B834202D0034B03B1184770478A
:10012C007000002070000020000000000548064B05
:10013C001B1AD90F01EBA301491002D0034B03B1D9
:10014C00184770477000002070000020000000006D
:10015C0010B5064C237843B9FFF7DAFF044B13B103
:10016C000448AFF300800123237010BD7000002001
:10017C00000000005824000808B5054B1BB10549C8
:10018C000548AFF30080BDE80840FFF7CFBF00BFC4
:10019C0000000000740000205824000830B587B01F
:1001AC0000240294039404940594134B9A6942F02E
:1001BC0020029A619A6902F020020092009A9A69D0
:1001CC0042F004029A619B6903F004030193019BC2
:1001DC000A4D01220421284601F0BAFA04230293A5
:1001EC000123039304940223059302A9284601F0EA
:1001FC009FF907B030BD00BF00100240000801405D
:10020C0010B582B006238DF807300A4C0022042169
:10021C00204601F09DFA0A2301220DF10701064840
:10022C0000F047FB01220421204601F091FA02B0B4
:10023C0010BD00BF000801408C00002030B583B019
:10024C0004248DF807400A4D00222146284601F06F
:10025C007FFA0A2301220DF10701064800F029FB61
:10026C0001222146284601F073FA03B030BD00BFCD
:10027C00000801408C00002030B583B005238DF8B8
:10028C00073000228DF806200E4C0421204601F088
:10029C005FFA0D4D0A2301220DF10701284600F0EB
:1002AC0008FB0A2301220DF10601284600F00DFD82
:1002BC0001220421204601F04BFA9DF8060003B000
:1002CC0030BD00BF000801408C00002008B5FFF7CE
:1002DC00D3FF0128FBD008BDF0B583B00C46154602
:1002EC00030A02228DF804208DF805308DF80600E3
:1002FC00FFF786FF0F4E00220421304601F028FA4A
:10030C000D4F6423032201A9384600F0D2FA4FF0B6
:10031C00FF332A462146384600F0CBFAFFF7D6FFCA
:10032C0001220421304601F013FAFFF787FF03B0D6
:10033C00F0BD00BF000801408C0000202DE9F04109
:10034C0082B00C461546030A4FF003088DF8048062
:10035C008DF805308DF806000D4E00220421304634
:10036C0001F0F6F90B4F0A23424601A9384600F07A
:10037C00A0FA4FF0FF332A462146384600F0A5FC80
:10038C0001220421304601F0E3F902B0BDE8F0810E
:10039C00000801408C00002072B6FEE708B50D483D
:1003AC000D4B03604FF48273436000238360C36082
:1003BC00036143614FF4007282612822C2610362BF
:1003CC00436283620A23C36200F018FA00B908BDC5
:1003DC00FFF7E2FF8C0000200030014008B50A480E
:1003EC000A4B03604FF41653436000238360C360D1
:1003FC0003610C2242618361C36101F0C8FA00B948
:10040C0008BDFFF7C9FF00BFE40000200038014021
:10041C0000B591B02822002106A801F0A7FB00230B
:10042C0001930293039304930593012206924FF4D4
:10043C00803307930A9202220D920E934FF4E0132D
:10044C000F9306A800F066FD80B90F2301930221DB
:10045C000291002303934FF480620492059301A848
:10046C0000F08AFF20B911B05DF804FBFFF794FF90
:10047C00FFF792FFF0B5ADF27C6D00F011FDFFF7C8
:10048C00C7FFFFF78BFEFFF789FFFFF7A7FF234A94
:10049C000DF5AF631068516803C3127A1A70F72216
:1004AC0000210DF2815001F061FB40F209121C4950
:1004BC000DF26C4001F04CFB0DF26C40FFF720FE8E
:1004CC0086B2C0F307278DF86874C4B28DF86944FE
:1004DC00002501954FF47F72294602A801F046FBD6
:1004EC0023463A460F490DF2044001F047FB3246D1
:1004FC000DF26C412846FFF7EFFE324601A9284663
:10050C00FFF71CFF0DF20440FFF7FAFD642382B2E3
:10051C000DF20441044801F06AFAFEE78824000851
:10052C009424000870240008E4000020FEE7FEE795
:10053C00FEE7FEE7FEE770477047704708B500F02E
:10054C00C1FC08BD82B00E4B9A6942F001029A615F
:10055C009A6902F001020092009ADA6942F0805224
:10056C00DA61DB6903F080530193019B054A536800
:10057C0023F0E06343F00073536002B0704700BF98
:10058C00001002400000014010B586B00023029319
:10059C000393049305930268164B9A4201D006B05C
:1005AC0010BD03F560439A6942F480529A619A69CE
:1005BC0002F480520092009A9A6942F004029A6105
:1005CC009B6903F004030193019BA0230293022374
:1005DC00039303230593084C02A9204600F0A8FFBF
:1005EC004023029300230393049302A9204600F0B6
:1005FC009FFFD4E7003001400008014010B586B0E1
:10060C00002302930393049305930268174B9A42B9
:10061C0001D006B010BD03F558439A6942F48042EC
:10062C009A619A6902F480420092009A9A6942F0A7
:10063C0004029A619B6903F004030193019B4FF43C
:10064C00007302930223039303230593084C02A91E
:10065C00204600F06DFF4FF4806302930023039358
:10066C00049302A9204600F063FFD2E70038014052
:10067C00000801402DE9F04782B005468846174630
:10068C001E4600F02BFC0A9B1B1A03EB060900F01C
:10069C0025FC82462A4B1B68C3F3CB3309FB03F3BF
:1006AC0001932B689C6838EA04040CBF01230023D7
:1006BC00BB4240D0B6F1FF3FF3D000F00FFCA0EBF3
:1006CC000A0048450AD2B9F1000F07D0019A02B1CD
:1006DC004A46019B013B01939146E2E72A68536825
:1006EC0023F0E00353606B68B3F5827F0BD0AB6AE9
:1006FC00B3F5005F14D0012385F85130002385F841
:10070C005030032018E0AB68B3F5004F02D0B3F5BE
:10071C00806FECD12A68136823F040031360E6E77E
:10072C002A68136823F4005313602A68136843F48F
:10073C0000531360DFE7002002B0BDE8F08700BF74
:10074C000800002070B582B006460C461546009293
:10075C000B4601220221FFF78DFF48B90095234675
:10076C00002280213046FFF785FF38B902B070BDFA
:10077C00736D43F0200373650320F7E7736D43F04B
:10078C00200373650320F1E710B582B004460B46D5
:10079C004168B1F5827F10D06168B1F5827F03D1D9
:1007AC00A168B1F5806F15D00092002280212046FF
:1007BC00FFF760FFE0B902B010BD8168B1F5004FE2
:1007CC0002D0B1F5806FE7D12068016821F04001BB
:1007DC000160E1E70092002201212046FFF74AFF69
:1007EC000028E8D0636D43F0200363650320E2E743
:1007FC00636D43F0200363650320DCE7002856D0CB
:10080C0010B50446436A33B94368B3F5827F05D00B
:10081C000023C36102E00023036143610023A36250
:10082C0094F85130002B3CD0022384F851302268CC
:10083C00136823F040031360636803F48273A268A7
:10084C0002F404421343E26802F400621343226987
:10085C0002F002021343626902F001021343A2691F
:10086C0002F400721343E26902F038021343226A65
:10087C0002F080021343A26A02F40052216813436F
:10088C000B60638B226803F0040353602268D36906
:10089C0023F40063D36100206065012384F8513098
:1008AC0010BD84F850302046FFF76EFEBCE70120E7
:1008BC0070472DE9F04383B00446894690461D46A7
:1008CC0000F00CFB94F85160F6B2012E40F0CC8095
:1008DC000746B9F1000F00F0C880B8F1000F00F026
:1008EC00C48094F85030012B00F0C380012384F8AD
:1008FC005030032384F8513000236365C4F83090E2
:10090C00A4F83480A4F83680A363A387E3876364D8
:10091C002364A368B3F5004F1ED023681A6812F045
:10092C00400F03D11A6842F040021A60E368B3F535
:10093C00006F1CD0636813B1B8F1010F5FD1226B4B
:10094C00236812781A73236B01332363E38E9BB2F3
:10095C00013B9BB2E38652E02268136823F040030C
:10096C0013602268136843F480431360D5E763680F
:10097C0013B1B8F1010F15D1226B23681288DA601C
:10098C00236B02332363E38E9BB2013B9BB2E38662
:10099C0008E000F0A3FAC01BA84202D3B5F1FF3F58
:1009AC0015D1A5B1E38E9BB2002B42D023689A6877
:1009BC0012F0020FEDD0226B1288DA60236B023337
:1009CC002363E38E9BB2013B9BB2E386EAE70123F0
:1009DC0084F85130002384F85030032645E0226B14
:1009EC0012781A73236B01332363B4F836C01FFAE1
:1009FC008CFC0CF1FF3C1FFA8CFCA4F836C0E38E87
:100A0C009BB2B3B123689A6812F0020FE7D100F0E1
:100A1C0065FAC01BA84202D3B5F1FF3F01D1002DEE
:100A2C00EDD1012384F85130002384F85030032693
:100A3C001BE03A4629462046FFF784FE08B12023E6
:100A4C006365A36833B901932368DA6801929B68E4
:100A5C000193019B012384F85130002384F850301A
:100A6C00636D13B9002600E00226304603B0BDE8E2
:100A7C00F0830226F9E72DE9F04383B0044688465B
:100A8C0091461F460A9D00F029FA064694F851300B
:100A9C00DBB26268012B0AD0B2F5827F40F005818F
:100AAC00A268002A40F00581042B40F00481B8F1C3
:100ABC00000F00F00281B9F1000F00F00081002F4F
:100ACC0000F0FF8094F85030012B00F0FC800123E3
:100ADC0084F8503094F85130DBB2042B02D005234B
:100AEC0084F8513000236365C4F83890E787A787F2
:100AFC00C4F83080E786A7862364636423681A6889
:100B0C0012F0400F03D11A6842F040021A60E368F9
:100B1C00B3F5006F11D063680BB1012F0BD1226BB1
:100B2C00236812781A73236B01332363E38E9BB211
:100B3C00013B9BB2E386012771E063680BB1012F87
:100B4C000BD1226B23681288DA60236B0233236388
:100B5C00E38E9BB2013B9BB2E38601271BE023682B
:100B6C009A6812F0010F0ED0E28F92B25AB1DA6885
:100B7C00A36B1A80A36B0233A363E38F9BB2013B7D
:100B8C009BB2E387012700F0A9F9801BA84202D38E
:100B9C00B5F1FF3F1ED1E38E9BB21BB9E38F9BB225
:100BAC00002B62D023689A6812F0020FD7D0E28E25
:100BBC0092B2002AD3D0002FD1D0226B1288DA60E7
:100BCC00236B02332363E38E9BB2013B9BB2E38620
:100BDC000027C4E7012384F85130002384F85030F7
:100BEC00032063E023689A6812F0010F0ED0E28FA5
:100BFC0092B25AB1DA68A36B1A70A36B0133A36378
:100C0C00E38F9BB2013B9BB2E387012700F066F9AF
:100C1C00831BAB4202D3B5F1FF3F1ED1EDB1E38E86
:100C2C009BB213B9E38F9BB2FBB123689A6812F0A5
:100C3C00020FD7D0E28E92B2002AD3D0002FD1D09F
:100C4C00226B12781A73236B01332363E38E9BB2EE
:100C5C00013B9BB2E3860027C4E7012384F85130A3
:100C6C00002384F85030032020E0324629462046E9
:100C7C00FFF768FD90B9A36833B901932368DA686C
:100C8C0001929B680193019B012384F8513000234E
:100C9C0084F85030636D4BB1012007E0202363656D
:100CAC00002384F85030012000E0022003B0BDE89E
:100CBC00F0830220FAE70220F8E70120F6E7012092
:100CCC00F4E70120F2E70220F0E72DE9F04383B0CE
:100CDC0090F85160F6B2012E40F0B480044689467B
:100CEC0090461D464368B3F5827F01D1836893B368
:100CFC0000F0F4F80746B9F1000F00F0A480B8F149
:100D0C00000F00F0A08094F85030012B00F09F8071
:100D1C00012384F85030042384F851300023636598
:100D2C00C4F83890A4F83C80A4F83E802363A386D2
:100D3C00E38623646364A368B3F5004F15D023687E
:100D4C001A6812F0400F03D11A6842F040021A6080
:100D5C00E368F3B143E0042380F851300095134667
:100D6C000A46FFF788FE06466DE02268136823F0FA
:100D7C00400313602268136823F480431360DEE79A
:100D8C0000F0ACF8C01BA84202D3B5F1FF3F15D15F
:100D9C00A5B1E38F9BB2002B42D023689A6812F066
:100DAC00010FEDD0A26B1B7B1370A36B0133A363FC
:100DBC00E38F9BB2013B9BB2E387EAE7012384F804
:100DCC005130002384F8503003263CE000F086F8C4
:100DDC00C01BA84202D3B5F1FF3F19D1C5B1E38FB7
:100DEC009BB2EBB123689A6812F0010FEED0DA686F
:100DFC00A36B1A80A36B0233A363B4F83EC01FFA33
:100E0C008CFC0CF1FF3C1FFA8CFCA4F83EC0E6E70E
:100E1C00012384F85130002384F85030032612E06B
:100E2C003A4629462046FFF7AFFC08B120236365FC
:100E3C00012384F85130002384F85030636D13B9CA
:100E4C00002600E00226304603B0BDE8F0830226FF
:100E5C00F9E7000010B504460E4B1A784FF47A737C
:100E6C00B3FBF2F30C4A1068B0FBF3F000F0C0FCDB
:100E7C0068B90F2C01D901200AE0002221464FF05D
:100E8C00FF3000F07DFC054B1C60002000E00120D1
:100E9C0010BD00BF0000002008000020040000204E
:100EAC0008B5074A136843F010031360032000F0E1
:100EBC0055FC0F20FFF7CEFFFFF744FB002008BDC9
:100ECC0000200240034A1168034B1B780B4413604B
:100EDC00704700BF2C01002000000020014B186857
:100EEC00704700BF2C01002082B0084B1B68084AD9
:100EFC00A2FB03235B0A00FB03F3019300BF019BDE
:100F0C005A1E0192002BF9D102B070470800002044
:100F1C00D34D6210002800F0F18170B582B0044608
:100F2C00036813F0010F2CD0994B5B6803F00C0392
:100F3C00042B1DD0964B5B6803F00C03082B12D0CE
:100F4C006368B3F5803F41D0002B55D103F180434A
:100F5C0003F504331A6822F480321A601A6822F4FA
:100F6C0080221A6037E08A4B5B6813F4803FE7D02D
:100F7C00874B1B6813F4003F03D06368002B00F011
:100F8C00BF81236813F0020F75D0814B5B6813F09F
:100F9C000C0F5FD07E4B5B6803F00C03082B54D016
:100FAC002369002B00F08A807A4B01221A60FFF72C
:100FBC0095FF0546764B1B6813F0020F75D1FFF7B2
:100FCC008DFF401B0228F5D903209EE1704A13685F
:100FDC0043F480331360636843B3FFF77FFF054628
:100FEC006B4B1B6813F4003FCBD1FFF777FF401B13
:100FFC006428F5D9032088E1B3F5A02F09D0644B00
:10100C001A6822F480321A601A6822F480221A605C
:10101C00E1E703F18043A3F53C331A6842F48022E4
:10102C001A601A6842F480321A60D4E7FFF756FF50
:10103C000546574B1B6813F4003FA2D0FFF74EFF39
:10104C00401B6428F5D903205FE1514B5B6813F416
:10105C00803FA5D14E4B1B6813F0020F03D02369C0
:10106C00012B40F04F814A4A136823F0F803616961
:10107C0043EAC1031360236813F0080F33D0A3694C
:10108C00002B5CD0434B0122C3F88024FFF726FFD2
:10109C0005463F4B5B6A13F0020F21D1FFF71EFF91
:1010AC00401B0228F5D903202FE1394A136823F09D
:1010BC00F803616943EAC1031360DCE7354B002296
:1010CC001A60FFF70BFF0546314B1B6813F0020F3C
:1010DC00D1D0FFF703FF401B0228F5D9032014E100
:1010EC000120FFF701FF236813F0040F00F0968036
:1010FC00274BDB6913F0805F34D1254BDA6942F062
:10110C008052DA61DB6903F080530193019B012566
:10111C00214B1B6813F4807F26D0E368012B3DD054
:10112C00002B53D103F1804303F504331A6A22F0E8
:10113C0001021A621A6A22F004021A6233E0154B99
:10114C000022C3F88024FFF7C9FE0546104B5B6AEA
:10115C0013F0020FC7D0FFF7C1FE401B0228F5D9D0
:10116C000320D2E00025D3E70B4A136843F48073C5
:10117C001360FFF7B3FE0646074B1B6813F4807F22
:10118C00CBD1FFF7ABFE801B6428F5D90320BCE064
:10119C000010024000004242007000405F4A136A97
:1011AC0043F001031362E36833B3FFF797FE06467F
:1011BC005A4B1B6A13F0020F2FD1FFF78FFE801BC7
:1011CC0041F288339842F3D903209EE0052B09D0D5
:1011DC00524B1A6A22F001021A621A6A22F00402B5
:1011EC001A62E0E74D4B1A6A42F004021A621A6A5C
:1011FC0042F001021A62D6E7FFF770FE0646474B33
:10120C001B6A13F0020F08D0FFF768FE801B41F237
:10121C0088339842F3D9032077E0E5B9E369002BD2
:10122C0072D03E4A526802F00C02082A56D0022BA9
:10123C0017D03B4B00221A66FFF750FE0446374B83
:10124C001B6813F0007F47D0FFF748FE001B0228F5
:10125C00F5D9032059E0314AD36923F08053D36187
:10126C00DCE72F4B00221A66FFF738FE05462B4BA6
:10127C001B6813F0007F06D0FFF730FE401B0228DE
:10128C00F5D9032041E0236AB3F5803F1AD02349F6
:10129C004B6823F47413226A606A024313434B6055
:1012AC001F4B01221A66FFF719FE04461B4B1B68E5
:1012BC0013F0007F0ED1FFF711FE001B0228F5D9A9
:1012CC00032022E0154A536823F40033A1680B4332
:1012DC005360DCE7002018E0002016E0012B16D04C
:1012EC000E4B5B6803F48031226A914211D103F4F6
:1012FC007013626A93420ED1002006E00120704701
:10130C00012002E0012000E0002002B070BD0120AD
:10131C00FBE70120F9E70120F7E700BF00100240CE
:10132C00000042420F4B5B6803F00C02082A01D00C
:10133C000D487047C3F383420C49885C13F4803F1B
:10134C000BD0084B5B68C3F34043094AD35C064A95
:10135C0002FB00F0B0FBF3F07047064B03FB00F010
:10136C00704700BF0010024000127A00A025000850
:10137C00B025000800093D00002800F0A08070B5E1
:10138C000D460446524B1B6803F007038B420BD2ED
:10139C004F4A136823F007030B431360136803F0E1
:1013AC0007038B4240F08D80236813F0020F17D097
:1013BC0013F0040F04D0474A536843F4E0635360BE
:1013CC00236813F0080F04D0424A536843F4605367
:1013DC005360404A536823F0F003A1680B435360F9
:1013EC00236813F0010F31D06368012B20D0022B3E
:1013FC0025D0384A126812F0020F64D035494A6879
:10140C0022F0030213434B60FFF768FD0646314B95
:10141C005B6803F00C036268B3EB820F16D0FFF726
:10142C005DFD801B41F288339842F0D9032045E0E2
:10143C00284A126812F4003FE0D101203EE0254A10
:10144C00126812F0007FD9D1012037E0204B1B68C5
:10145C0003F00703AB420AD91D4A136823F00703B4
:10146C002B431360136803F00703AB422DD12368A1
:10147C0013F0040F06D0174A536823F4E063E168B5
:10148C000B435360236813F0080F07D0114A5368BD
:10149C0023F46053216943EAC1035360FFF742FF11
:1014AC000C4B5B68C3F303130B4AD35CD8400B4B58
:1014BC0018600B4B1868FFF7CDFC002070BD0120A5
:1014CC0070470120FAE70120F8E70120F6E700BF9A
:1014DC000020024000100240B42500080800002043
:1014EC0004000020014B1868704700BF0800002062
:1014FC0008B5FFF7F7FF044B5B68C3F30223034AFD
:10150C00D35CD84008BD00BF00100240C4250008C1
:10151C0008B5FFF7E7FF044B5B68C3F3C223034A2C
:10152C00D35CD84008BD00BF00100240C4250008A1
:10153C0070B582B00024A4468BE07F4DAB4210D036
:10154C0007D97E4DAB420CD005F58035AB4208D0A7
:10155C0015E0A5F58015AB4203D005F57025AB421F
:10156C0009D18B68002B00F0BF80012B00F0B780F5
:10157C004261082403E0A5F58015AB42F1D0BEF121
:10158C00FF0F00F2B3800646BEF1FF0F00F2B080F1
:10159C004FEA8C0233680F25954023EA050304FAC1
:1015AC0002F2134333604B6813F0805F4FD0644BEF
:1015BC009A6942F001029A619B6903F0010301935D
:1015CC00019B4FEA9C02951C5E4B53F825600CF076
:1015DC000305AD000F23AB4026EA03065A4B984295
:1015EC0000F08C8003F58063984200F0898003F54D
:1015FC008063984200F080800323AB403343023277
:10160C00504D45F822304B6813F4801F7AD04F4A66
:10161C00936843EA0E0393604B6813F4001F77D072
:10162C004A4AD36843EA0E03D3604B6813F4003F75
:10163C0074D0464A536843EA0E0353604B6813F464
:10164C00803F71D0414A136843EA0E0313600CF1DA
:10165C00010C0B6833FA0CF26CD0012202FA0CF27A
:10166C0003EA020E32EA0303F1D14B68122B3FF668
:10167C0064AF122B83D801A555F823F06F15000821
:10168C00D5160008DF160008F11600088B150008A7
:10169C008B1500088B1500088B1500088B1500089E
:1016AC008B1500088B1500088B1500088B1500088E
:1016BC008B1500088B1500088B1500088B1500087E
:1016CC00D9160008E5160008CC6858E7CC68043435
:1016DC0055E7CC68083452E7CC680C344FE702610C
:1016EC0008244CE700244AE7042448E7061D4BE78E
:1016FC00ACF1080292004DE702237EE700237CE761
:10170C0001237AE7114A936823EA0E03936083E777
:10171C000E4AD36823EA0E03D36086E70B4A53685C
:10172C0023EA0E03536089E7084A136823EA0E0381
:10173C0013608CE702B070BD000022100000311065
:10174C00001002400000014000080140000401406C
:10175C000AB101617047090401617047074AD368F7
:10176C0023F4E0631B041B0C000200F4E060034351
:10177C0043F0BF6343F40033D360704700ED00E0E7
:10178C0000B5194BDB68C3F30223C3F1070CBCF1A2
:10179C00040F28BF4FF0040C03F1040EBEF1060F2A
:1017AC0018D9033B4FF0FF3E0EFA0CFC21EA0C015A
:1017BC0099400EFA03FE22EA0E020A4300280BDBC4
:1017CC001201D2B200F1604000F5614080F80023B4
:1017DC005DF804FB0023E5E700F00F001201D2B224
:1017EC00024B1A54F4E700BF00ED00E014ED00E0EA
:1017FC000138B0F1807F0BD24FF0E0235861054ADD
:10180C00F02182F823100020986107221A6170479A
:10181C000120704700ED00E0026802F10C0353E870
:10182C00003F23F490730C3242E800310029F3D1CD
:10183C00026802F1140353E8003F23F00103143251
:10184C0042E800310029F3D1036B012B05D0202392
:10185C0080F84230002303637047026802F10C03E6
:10186C0053E8003F23F010030C3242E8003100290A
:10187C00F3D1ECE710B504460268136923F4405326
:10188C00C1680B43136183680269134342691A43AD
:10189C000168CB6823F4B05323F00C031343CB60E3
:1018AC000268536923F4407381690B4353610268E6
:1018BC00134B9A4220D0FFF71BFE024602EB82022A
:1018CC0002EB820263689B00B2FBF3F20D48A0FBB3
:1018DC0002314909642303FB11231B013233A0FBA2
:1018EC0003035B0903F0F00202EB011203F00F0398
:1018FC00216813448B6010BDFFF70AFE0246DDE73A
:10190C00003801401F85EB512DE9F04383B00546AB
:10191C000E4617469946DDF828802B681C6836EA77
:10192C0004040CBF01240024BC4228D1B8F1FF3FB1
:10193C00F3D0FFF7D3FAA0EB0900404523D8B8F158
:10194C00000F22D02B68DA6812F0040FE5D0802E3D
:10195C00E3D0402EE1D01A6812F0080FDDD000243D
:10196C0001941A6801925B680193019B2846FFF76A
:10197C0053FF08236B6485F84040012000E00020F1
:10198C0003B0BDE8F0830320FAE70320F8E760B367
:10199C0010B5044690F8413013B3242384F8413039
:1019AC002268D36823F40053D3602046FFF762FF0C
:1019BC002268136923F4904313612268536923F05E
:1019CC002A0353612268D36843F40053D360002088
:1019DC006064202384F8413084F84230606310BD89
:1019EC0080F84030FEF70AFED7E7012070472DE95A
:1019FC00F04182B01E4690F84130DBB2202B56D11C
:101A0C0004460D469046002955D00AB901204FE0F6
:101A1C0000234364212380F84130FFF75FFA074627
:101A2C00A4F82480A4F82680A368B3F5805F02D0C4
:101A3C004FF0000814E023692BB34FF000080FE0BF
:101A4C00202384F84130032032E038F8023B22682E
:101A5C00C3F308035360E28C92B2013A92B2E2846F
:101A6C00E38C9BB293B100963B460022802120462A
:101A7C00FFF74AFF0028E3D1002DE6D015F8012B23
:101A8C0023685A60E7E7A8460025E9E700963B463D
:101A9C00002240212046FFF737FF18B9202384F895
:101AAC00413005E0202384F84130032000E002207F
:101ABC0002B0BDE8F0810120FAE77047FFF7FDFFA7
:101ACC000B480C490C4A002302E0D458C450043390
:101ADC00C4188C42F9D3094A094C002301E0136065
:101AEC000432A242FBD300F00FF8FEF7C3FC7047A0
:101AFC000000002070000020082600087000002064
:101B0C0040010020FEE7000070B500260C4D0D4C86
:101B1C00641BA410A64209D100F098FC00260A4DC3
:101B2C000A4C641BA410A64205D170BD55F8043BA9
:101B3C0098470136EEE755F8043B98470136F2E733
:101B4C0000260008002600080026000804260008CD
:101B5C000A44914200F1FF3300D1704710B511F8DF
:101B6C00014B914203F8014FF9D110BD03460244D9
:101B7C00934200D1704703F8011BF9E70EB46FF0E4
:101B8C00004100B59CB01DAB0290069007910491EA
:101B9C000848094953F8042B0591006802A90193E0
:101BAC0000F066F80022029B1A701CB05DF804EB82
:101BBC0003B070470C0000200802FFFF2DE9F0472E
:101BCC001F468E688246BE420C4690460B682CD847
:101BDC008A8912F4906F26D06569096905EB450571
:101BEC00A3EB010905EBD5757B1C4B446D109D4295
:101BFC0038BF1D46530527D5294600F05BFB06462A
:101C0C0060B34A462169FFF7A3FFA38923F49063CD
:101C1C0043F08003A38126614E4426603E466561F5
:101C2C00A5EB0905A560BE4200D93E4632464146A9
:101C3C00206800F0BDFA0020A3689B1BA3602368FA
:101C4C0033442360BDE8F0872A4600F0A7FB064624
:101C5C000028E0D15046216900F0C4FA0C23CAF8E0
:101C6C000030A3894FF0FF3043F04003A381E9E734
:101C7C002DE9F04F98468B8907461B060D461446F6
:101C8C009DB00ED50B6963B9402100F013FB2860A1
:101C9C00286120B90C233B604FF0FF30D0E040238B
:101CAC006B610023099320238DF8293030234FF0EA
:101CBC000109CDF80C80DFF8A0818DF82A3023467D
:101CCC009A4613F8012B0AB1252AF9D1BAEB040B69
:101CDC000BD05B46224629463846FFF76FFF013092
:101CEC0000F0A980099A5A4409929AF80030002B06
:101CFC0000F0A18000234FF0FF32CDE905230AF15B
:101D0C00010A049307938DF853301A935446052215
:101D1C0014F8011B504800F03DFA049AD8B9D006CB
:101D2C0044BF20238DF85330110744BF2B238DF86B
:101D3C0053309AF800302A2B15D0544600204FF01F
:101D4C000A0C079A214611F8013B303B092B4DD95F
:101D5C00B0B1079214E0A0EB080309FA03F31343A4
:101D6C00A2460493D2E7039B191D1B680391002B19
:101D7C00BBBF5B4242F0020207930793B8BF0492C9
:101D8C0023782E2B0CD163782A2B34D1039B02346D
:101D9C001A1D1B680392002BB8BF4FF0FF3305933D
:101DAC00DFF8B8A003225046217800F0F3F938B1DF
:101DBC004022049BA0EB0A0082401343013404939D
:101DCC0014F8011B062226488DF8281000F0E2F9C1
:101DDC00002838D0234B1BBB039B073323F007038E
:101DEC0008330393099B3344099368E70C4601209D
:101DFC000CFB0232A6E700234FF00A0C1946013403
:101E0C000593204610F8012B303A092A03D9002BF0
:101E1C00C6D00591C4E7044601230CFB0121F0E771
:101E2C0003AB00932A4638460F4B04A9AFF300804E
:101E3C00421C0646D6D1AB895B063FF52DAF0998FF
:101E4C001DB0BDE8F08F03AB00932A463846064B15
:101E5C0004A900F07DF8EBE7CC250008D22500089A
:101E6C00D625000800000000C91B00082DE9F0472A
:101E7C00164699468A680B6907469342B8BF1346C3
:101E8C00336091F843200C46DDF820800AB1013311
:101E9C0033602368990642BF336802333360256888
:101EAC0015F0060506D104F1190AE36832689B1A8D
:101EBC00AB422BDC94F84320131E226818BF01237D
:101ECC00920630D44946384604F14302C0470130EB
:101EDC0023D02368226903F00603042B14BF0025CA
:101EEC0033684FF0000608BFE56804F11A0408BF18
:101EFC00ED1A54F8123C08BF25EAE5759342C4BFAD
:101F0C009B1AED18B5421AD1002008E00123524665
:101F1C0049463846C047013003D14FF0FF30BDE889
:101F2C00F0870135C1E73020E11881F843005A1CD5
:101F3C0094F845102244023382F84310C2E701237F
:101F4C00224649463846C0470130E6D00136D9E72B
:101F5C002DE9FF470F7E9146782F80460C469A4616
:101F6C000C9D01F1430207D8622F0AD8002F00F014
:101F7C00D580582F00F0C18004F1420584F84270DE
:101F8C003AE0A7F16303152BF6D801A151F823F021
:101F9C00F51F000809200008851F0008851F000890
:101FAC00851F0008851F000809200008851F0008F0
:101FBC00851F0008851F0008851F00080F210008D9
:101FCC0035200008C9200008851F0008851F00085F
:101FDC0031210008851F000835200008851F0008E6
:101FEC00851F0008D12000082B681A1D1B682A6069
:101FFC0004F1420584F842300123A0E020682B68EC
:10200C00070603F10401296001D51E6803E04606AA
:10201C00FBD5B3F90060002E03DA2D23764284F849
:10202C0043300A23594812E02B682068191D296097
:10203C00050601D51E6802E04106FBD51E886F2FF0
:10204C000CBF08230A235148002184F8431065680B
:10205C00002DA8BF2168A560A4BF21F00401216058
:10206C000EB9002D4BD01546B6FBF3F103FB1167EF
:10207C00C75D05F8017D3746BB420E46F4D9082BE7
:10208C000BD12368DE0708D5236961689942DEBF4E
:10209C00302305F8013C05F1FF35521B22614B46FC
:1020AC0021464046CDF800A003AAFFF7DFFE013021
:1020BC004AD14FF0FF3004B0BDE8F087236843F0FD
:1020CC00200323607827324884F8457023682968F8
:1020DC001F0651F8046B02D45F0648BFB6B2DF0787
:1020EC0048BF43F02003296048BF23601EB9236812
:1020FC0023F0200323601023A6E72448E4E71546C9
:10210C00BDE72B682668181D6169286035061B68B9
:10211C0001D5196002E07006FBD519800023154625
:10212C002361BCE72B6800211A1D2A601D686268B8
:10213C00284600F02FF808B1401B606063682361EB
:10214C00002384F84330AAE72A46494640462369CF
:10215C00D0470130ADD023689B0713D4E068039BB4
:10216C009842B8BF1846A6E7012332464946404676
:10217C00D04701309DD00135E36803995B1AAB421F
:10218C00F2DCEBE7002504F11906F5E7DD25000884
:10219C00EE250008034610B5C9B202449342184616
:1021AC0001D1002003E0047801338C42F6D110BD3C
:1021BC00884210B501EB020402D98442234607D8A9
:1021CC00431EA14208D011F8012B03F8012FF8E7A8
:1021DC00014602448A4200D110BD13F8014D02F8A9
:1021EC00014DF7E738B50546002940D051F8043CBD
:1021FC000C1F002BB8BFE41800F010F91C4A136830
:10220C0033B9636014602846BDE8384000F007B964
:10221C00A34208D9206821188B4201BF19685B685A
:10222C0009182160EDE71A465B680BB1A342FAD995
:10223C0011685018A0420BD12068014450188342F9
:10224C001160E0D118685B68084410605360DAE7ED
:10225C0002D90C232B60D6E7206821188B4201BFD2
:10226C0019685B680918216063605460CBE738BD5E
:10227C003001002070B50E4E0C463168054611B980
:10228C0000F0BCF830602146284600F0B7F8431C3B
:10229C000AD0C41C24F00304A04207D0211A2846FB
:1022AC0000F0ACF8013001D14FF0FF34204670BD86
:1022BC00340100202DE9F041CD1C25F00305083533
:1022CC000C2D38BF0C25002D074601DBA94205D982
:1022DC000C2300263B603046BDE8F0812E4E00F00A
:1022EC009DF833681C4634BB29463846FFF7C2FFBD
:1022FC00431C04464DD134682646002E40D1236839
:10230C003146384604EB030800F078F880453AD1A2
:10231C0023680335ED1A25F0030508350C2D38BF5D
:10232C000C2538462946FFF7A5FF01302BD0236832
:10233C002B4423600EE02268521B1ED40B2A16D9A4
:10234C006119A342256018BF5960636808BF3160EA
:10235C0062514B60384604F10B0600F060F826F031
:10236C000706231DF21AB6D09B1BA350B3E7626875
:10237C00A3420CBF32605A60ECE723466468B2E7B4
:10238C0034467668B9E70C2338463B6000F047F8D2
:10239C00A1E72560DEE700BF300100202DE9F04108
:1023AC00804614460E4621B91146BDE8F041FFF7B0
:1023BC0081BF2AB9FFF716FF25462846BDE8F081F4
:1023CC0000F02EF88442074602D8B4EB500F12D816
:1023DC0021464046FFF76EFF05460028EDD0BC4273
:1023EC002246314628BF3A46FFF7B2FB31464046FB
:1023FC00FFF7F8FEE1E73546DFE7000038B50023CC
:10240C00054D044608462B6000F012F8431C02D11F
:10241C002B6803B1236038BD38010020704770472A
:10242C0051F8043C181F002BBCBF0B58C018704748
:10243C00044A05491368002B08BF0B46184410606A
:10244C00184670473C01002040010020F8B500BF41
:10245C00F8BC08BC9E467047F8B500BFF8BC08BC79
:04246C009E467047D1
:10247000646F2064616920646174613A202530339F
:1024800064253033640000002068656C6C6F0D0AB1
:1024900000000000546F6920796575206461742024
:1024A0006E756F6320746F692E2054752062616FA2
:1024B0002067696F206B686F6E67206269657420A2
:1024C0006E75612E20436F20746865207475206BD3
:1024D000686920746F692073696E682072612C20AE
:1024E000646174206E756F6320646120636F207275
:1024F0006F692E0A20446174206E756F63206C65CD
:102500006E206D09756F6E207468756F6E67206E32
:102510006F692062756F6E20646F69206C616E2038
:102520006D61742E0A546F69207965752064616E3F
:1025300020746F6320746F692E2054752062616F60
:102540002067696F206B686F6E6720626965742011
:102550006E75612E20436F20746865207475206B42
:10256000686920746F692062696574206E6F6920E4
:1025700063756F692062756F6920736F2073696E70
:10258000682E61617364666A617364666B6A617305
:102590006C64666A61736C646A666C6B0000000050
:1025A00002030405060708090A0B0C0D0E0F101094
:1025B000010200000000000000000000010203040E
:1025C000060708090000000001020304232D302B38
:1025D0002000686C4C006566674546470030313224
:1025E000333435363738394142434445460030317B
:1025F00032333435363738396162636465660000DA
:042600008501000848
:042604005D0100086C
:10260800010000001000000000127A0010000020F5
:1026180000000000000000000000000000000000B2
:1026280000000000000000000000000000000000A2
:102638000000000000000000000000000000000092
:102648000000000000000000000000000000000082
:102658000000000000000000000000000000000072
:102668000000000000000000000000000000000062
:0400000508001AC90C
:00000001FF
