:020000040800F2
:100000000050002011460008FD090008FF09000803
:10001000010A0008030A0008050A000800000000A1
:100020000000000000000000000000000131000896
:10003000070A000800000000A1310008090A0008B2
:100040005946000859460008594600085946000814
:100050005946000859460008594600085946000804
:10006000594600085946000859460008210A000868
:1000700059460008594600085946000859460008E4
:1000800059460008594600085946000859460008D4
:1000900059460008594600085946000859460008C4
:1000A00059460008594600085946000859460008B4
:1000B00059460008594600085946000859460008A4
:1000C0005946000859460008594600085946000894
:1000D0005946000859460008594600085946000884
:1000E000594600085946000859460008000000001B
:1000F0000000000000000000000000000000000000
:0C01000000000000000000005FF808F1A3
:10011000034613F8012B002AFBD1181A0138704747
:100120000348044B834202D0034B03B11847704786
:10013000A4000020A4000020000000000548064B99
:100140001B1AD90F01EBA301491002D0034B03B1D5
:1001500018477047A4000020A40000200000000001
:1001600010B5064C237843B9FFF7DAFF044B13B1FF
:100170000448AFF300800123237010BDA4000020C9
:1001800000000000A04F000808B5054B1BB1054951
:100190000548AFF30080BDE80840FFF7CFBF00BFC0
:1001A00000000000A8000020A04F000808B50120B2
:1001B00002F0CEFDFBE708B5012002F0C9FDFBE728
:1001C0002DE9F04188B00024049405940694079426
:1001D000264B9A6942F010029A619A6902F0100265
:1001E0000092009A9A6942F020029A619A6902F09C
:1001F00020020192019A9A6942F004029A619A6976
:1002000002F004020292029A9A6942F008029A618C
:100210009B6903F008030393039BDFF85480224695
:100220004FF47041404601F007FA124D22464FF458
:10023000B851284601F000FA4FF4704304930127A7
:10024000059706940226079604A9404601F0E2F8B5
:100250004FF4B853049305970694079604A92846CB
:1002600001F0D8F808B0BDE8F08100BF00100240EE
:10027000000C01400008014000B583B00A4B5A69E8
:1002800042F001025A615B6903F001030193019B93
:10029000002205210B2001F011FB0B2001F046FB91
:1002A00003B05DF804FB00BF00100240F8B507463C
:1002B0000E4600251CE0002236F8141057F82400E2
:1002C00001F0BAF90134072C0CDC45FA04F313F001
:1002D000010FF0D0012236F8141057F8240001F075
:1002E000ABF9EFE74FF47A7002F032FD0135EDB271
:1002F0000024E8E708B502490248FFF7D7FF00BF2E
:100300000000002010000020064BA3FB0023DA08A9
:10031000134602EB8202A0EB4200C0B240EA031097
:10032000C0B27047CDCCCCCC030903EB830300F003
:100330000F0000EB4300C0B27047000030B585B03D
:1003400004460D4600238DF80C301046FFF7DCFF05
:100350008DF80D002846FFF7D7FF8DF80E002046D8
:10036000FFF7D2FF8DF80F0064230093042303AA44
:10037000D021024803F02AFB05B030BD68010020FF
:1003800070B584B00D46144604268DF80C60FFF756
:10039000BBFF8DF80D002846FFF7B6FF8DF80E0065
:1003A000E0B2FFF7B1FF8DF80F00642300933346EE
:1003B00003AAD021024803F009FB04B070BD00BFBE
:1003C00068010020F0B585B004460D4616460023AE
:1003D0008DF80B30114F0A23009301230DF10B020E
:1003E000D021384603F0F2FA32230093032303AA04
:1003F000D121384603F0A6FB9DF80C00FFF794FFCF
:1004000030709DF80D00FFF78FFF28709DF80E00EB
:10041000FFF78AFF207005B0F0BD00BF6801002023
:100420002DE9F04184B006460D46144604238DF8AC
:100430000B30144F4FF06408CDF8008001230DF10C
:100440000B02D021384603F0C1FACDF80080032317
:1004500003AAD121384603F075FB9DF80C00FFF785
:1004600063FF30709DF80D00FFF75EFF28709DF868
:100470000E00FFF759FF80B200F5FA60208004B04B
:10048000BDE8F0816801002070B584B040EA011039
:10049000C4B244F00C038DF80F300C4D14260096B6
:1004A00001230DF10F024E21284603F08FFA44F08C
:1004B00008048DF80F40009601230DF10F024E2124
:1004C000284603F083FA04B070BD00BF6801002025
:1004D00010B5044601090020FFF7D6FF04F00F0114
:1004E0000020FFF7D1FF022000F0D0FB10BD10B5B7
:1004F000044601090120FFF7C7FF04F00F010120A6
:10050000FFF7C2FF022000F0C1FB10BD08B51420A8
:1005100000F0BCFB03210020FFF7B6FF052000F030
:10052000B5FB03210020FFF7AFFF012000F0AEFB79
:1005300003210020FFF7A8FF012000F0A7FB022104
:100540000020FFF7A1FF012000F0A0FB2820FFF70B
:10055000BFFF0C20FFF7BCFF0120FFF7B9FF06200B
:10056000FFF7B6FF08BD10B5044602E00134FFF7FF
:10057000BEFF20780028F9D110BD08B528B10128A8
:1005800006D00020FFF7A4FF08BD41F08000F9E786
:1005900041F0C000F6E708B50120FFF799FF0220FF
:1005A00000F074FB08BD000070B505460E46144609
:1005B0004FF0FF31084B186802F0DCFB00B170BD52
:1005C000F1B2E8B2FFF7D9FF2046FFF7CCFF024BAC
:1005D000186802F0FFFBF2E70402002000000000B0
:1005E000D0B59AB00CE003222149224803F0C8FE9E
:1005F000214B186802F0EEFB4FF47A7002F0A8FB72
:100600004FF0FF311C4B186802F0B4FB0028F3D107
:100610001A4B1B78002BE6D00024184B1C70144B8F
:100620009A68174B1A6010A7D7E9006732463B4615
:100630001449684604F04CF832463B4612490DA86E
:1006400004F046F86846FFF763FD4FF0FF3382B2CF
:1006500069460E4803F00DFD0DAA02212046FFF762
:10066000A3FFC5E7AFF300800000002085EB074043
:10067000D8000020F4000020D4000020E400002076
:10068000E8000020485000085C500008BC01002031
:1006900000B5A3B0214B1B68ADF87C301B0C8DF866
:1006A0007E301F4B1B68ADF878301B0C8DF87A300C
:1006B00018220A211C20FFF763FE00221146162093
:1006C000FFF73CFE20AA0DF1830121A8FFF7A8FE49
:1006D0000DF185020DF186010DF18700FFF772FE25
:1006E000BDF8803003939DF8833002939DF88430E9
:1006F00001939DF8853000939DF886309DF8872002
:10070000084905A803F0E4FF05AA00210120FFF72E
:100710004BFF4FF47A7002F01BFBD3E78C500008BC
:10072000B84F0008705000080268044B9A4200D08D
:100730007047034B01221A70FAE700BF0024014002
:10074000E400002072B6FEE708B50A480A4B0360D1
:100750000A4B436000238360C3604FF48042026110
:1007600043618361C361036203F052F800B908BDBD
:10077000FFF7E8FF6801002000540040A086010058
:1007800000B585B000230193029303931C481D4AD2
:1007900002604FF480728260037303754FF460222D
:1007A000C26143600323036103F0AEFEF8B908237E
:1007B0000193012302930223039301A9104803F03C
:1007C000FBFCB0B9092301930223029301A90C4851
:1007D00003F0F2FC78B9102301930323029301A9DB
:1007E000074803F0E9FC40B905B05DF804FBFFF7EA
:1007F000A9FFFFF7A7FFFFF7A5FFFFF7A3FF00BFC4
:10080000F40000200024014008B50A480A4B0360A8
:100810004FF41653436000238360C36003610C22CE
:1008200042618361C36103F0F4FB00B908BDFFF7C7
:1008300089FF00BFBC0100200044004000B595B016
:10084000282200210DEB020003F03AFF002305935C
:1008500006930793089309930193029303930493D8
:1008600001220A924FF480330B930E9202221192CE
:1008700012934FF4E01313930AA800F031FAC8B9A9
:100880000F23059302210691002307934FF4806202
:100890000892099305A800F055FC68B9022301935A
:1008A0004FF40043039301A800F028FD30B915B0C0
:1008B0005DF804FBFFF746FFFFF744FFFFF742FF39
:1008C00000B5A9B000F0BEF9FFF7B8FFFFF778FC5C
:1008D000FFF7D2FCFFF738FFFFF752FFFFF794FF57
:1008E000FFF714FEFFF757FE00252695279526A84B
:1008F00002F035FA334B18602495259524A802F0B0
:100900002EFA314B1860314C0DF1740C04F1040EC9
:10091000BEE80F00ACE80F009EE807008CE8070077
:1009200029461DA802F0E1F9294B18600DF1580C79
:1009300004F1200EBEE80F00ACE80F009EE80700AF
:100940008CE80700294616A802F0CFF9214B186061
:100950000DF13C0C04F13C0EBEE80F00ACE80F00BA
:100960009EE807008CE8070029460FA802F0BDF9B1
:10097000194B18600DF1200C04F1580EBEE80F0061
:10098000ACE80F009EE807008CE80700294608A89D
:1009900002F0ABF9114B18600DF1040E04F1740C68
:1009A000BCE80F00AEE80F009CE807008EE80700E7
:1009B000294601A802F099F9094B186002F090F954
:1009C000FEE700BF04020020D4000020B84F00085A
:1009D000C0000020C4000020C8000020CC0000207F
:1009E000D0000020034B0360034B0B604FF4807377
:1009F000136070470806002008020020FEE7FEE7AB
:100A0000FEE7FEE7FEE7704708B500F02DF902F0BB
:100A100035F8012800D108BD02F0E4FBFBE7000037
:100A200008B5024800F096FE08BD00BF2401002072
:100A300000B583B0114B9A6942F001029A619A693C
:100A400002F001020092009ADA6942F08052DA6103
:100A5000DB6903F080530193019B00220F216FF0AB
:100A6000010000F02BFF064A536823F0E06343F0D7
:100A70000073536003B05DF804FB00BF0010024038
:100A80000000014010B586B0002302930393049345
:100A9000059302681E4B9A4201D006B010BD044671
:100AA00003F56C439A6942F400729A619A6902F400
:100AB00000720092009A9A6942F008029A619B695A
:100AC00003F008030193019B03230293039302A9FC
:100AD000104800F09FFC1048104B03600023436057
:100AE00083608023C3604FF4807303614FF400631D
:100AF0004361202383614FF40053C36100F0B8FDCC
:100B000018B9054B23625C62C7E7FFF71BFEF8E7E5
:100B100000240140000C0140240100200800024094
:100B200010B586B0002302930393049305930268E3
:100B3000114B9A4201D006B010BD104CA36943F08E
:100B40000803A361A36903F008030093009BC0237B
:100B50000293122303930323059302A9084800F08C
:100B600059FCE36943F40013E361E36903F4001300
:100B70000193019BDFE700BF0054004000100240DA
:100B8000000C014010B586B0002302930393049338
:100B900005930268164B9A4201D006B010BD03F5CA
:100BA000E633DA6942F40032DA61DA6902F40032DB
:100BB0000092009A9A6942F004029A619B6903F0DC
:100BC00004030193019B0423029302230393032351
:100BD0000593084C02A9204600F01CFC0823029350
:100BE00000230393049302A9204600F013FCD4E7EA
:100BF000004400400008014010B504460E4B1A782E
:100C00004FF47A73B3FBF2F30C4A1068B0FBF3F0C5
:100C100000F09AFE68B90F2C01D901200AE00022E9
:100C200021464FF0FF3000F049FE054B1C600020CC
:100C300000E0012010BD00BF30000020380000207F
:100C40003400002008B5074A136843F0100313600E
:100C5000032000F021FE0F20FFF7CEFFFFF7E8FE94
:100C6000002008BD00200240034A1168034B1B7896
:100C70000B441360704700BF5C060020300000206A
:100C8000014B1868704700BF5C06002038B5044669
:100C9000FFF7F6FF0546B4F1FF3F02D0044B1B7887
:100CA0001C44FFF7EDFF401BA042FAD338BD00BF44
:100CB0003000002082B0084B1B68084AA2FB0323C7
:100CC0005B0A00FB03F3019300BF019B5A1E0192D4
:100CD000002BF9D102B0704738000020D34D6210CC
:100CE000002800F0F18170B582B00446036813F06B
:100CF000010F2CD0994B5B6803F00C03042B1DD023
:100D0000964B5B6803F00C03082B12D06368B3F5B5
:100D1000803F41D0002B55D103F1804303F50433CC
:100D20001A6822F480321A601A6822F480221A604B
:100D300037E08A4B5B6813F4803FE7D0874B1B6832
:100D400013F4003F03D06368002B00F0BF812368D9
:100D500013F0020F75D0814B5B6813F00C0F5FD05E
:100D60007E4B5B6803F00C03082B54D02369002BE7
:100D700000F08A807A4B01221A60FFF781FF054656
:100D8000764B1B6813F0020F75D1FFF779FF401BFC
:100D90000228F5D903209EE1704A136843F480339A
:100DA0001360636843B3FFF76BFF05466B4B1B682B
:100DB00013F4003FCBD1FFF763FF401B6428F5D944
:100DC000032088E1B3F5A02F09D0644B1A6822F400
:100DD00080321A601A6822F480221A60E1E703F177
:100DE0008043A3F53C331A6842F480221A601A68E3
:100DF00042F480321A60D4E7FFF742FF0546574BB2
:100E00001B6813F4003FA2D0FFF73AFF401B642891
:100E1000F5D903205FE1514B5B6813F4803FA5D106
:100E20004E4B1B6813F0020F03D02369012B40F0D7
:100E30004F814A4A136823F0F803616943EAC1030A
:100E40001360236813F0080F33D0A369002B5CD024
:100E5000434B0122C3F88024FFF712FF05463F4BA6
:100E60005B6A13F0020F21D1FFF70AFF401B022833
:100E7000F5D903202FE1394A136823F0F80361699B
:100E800043EAC1031360DCE7354B00221A60FFF729
:100E9000F7FE0546314B1B6813F0020FD1D0FFF768
:100EA000EFFE401B0228F5D9032014E10120FFF7D3
:100EB00001FF236813F0040F00F09680274BDB69D5
:100EC00013F0805F34D1254BDA6942F08052DA6149
:100ED000DB6903F080530193019B0125214B1B68C3
:100EE00013F4807F26D0E368012B3DD0002B53D133
:100EF00003F1804303F504331A6A22F001021A62F7
:100F00001A6A22F004021A6233E0154B0022C3F879
:100F10008024FFF7B5FE0546104B5B6A13F0020F05
:100F2000C7D0FFF7ADFE401B0228F5D90320D2E061
:100F30000025D3E70B4A136843F480731360FFF76F
:100F40009FFE0646074B1B6813F4807FCBD1FFF74B
:100F500097FE801B6428F5D90320BCE000100240F6
:100F600000004242007000405F4A136A43F00103F0
:100F70001362E36833B3FFF783FE06465A4B1B6ADE
:100F800013F0020F2FD1FFF77BFE801B41F2883355
:100F90009842F3D903209EE0052B09D0524B1A6AE0
:100FA00022F001021A621A6A22F004021A62E0E7D1
:100FB0004D4B1A6A42F004021A621A6A42F00102A8
:100FC0001A62D6E7FFF75CFE0646474B1B6A13F032
:100FD000020F08D0FFF754FE801B41F2883398427D
:100FE000F3D9032077E0E5B9E369002B72D03E4ADC
:100FF000526802F00C02082A56D0022B17D03B4B45
:1010000000221A66FFF73CFE0446374B1B6813F0BC
:10101000007F47D0FFF734FE001B0228F5D90320DC
:1010200059E0314AD36923F08053D361DCE72F4B79
:1010300000221A66FFF724FE05462B4B1B6813F0AF
:10104000007F06D0FFF71CFE401B0228F5D90320C5
:1010500041E0236AB3F5803F1AD023494B6823F45B
:101060007413226A606A024313434B601F4B0122D0
:101070001A66FFF705FE04461B4B1B6813F0007F42
:101080000ED1FFF7FDFD001B0228F5D9032022E059
:10109000154A536823F40033A1680B435360DCE71F
:1010A000002018E0002016E0012B16D00E4B5B68E4
:1010B00003F48031226A914211D103F47013626A01
:1010C00093420ED1002006E001207047012002E08B
:1010D000012000E0002002B070BD0120FBE70120EC
:1010E000F9E70120F7E700BF00100240000042428C
:1010F0000F4B5B6803F00C02082A01D00D487047C3
:10110000C3F383420C49885C13F4803F0BD0084B37
:101110005B68C3F34043094AD35C064A02FB00F014
:10112000B0FBF3F07047064B03FB00F0704700BFC5
:101130000010024000127A00B8500008C8500008A1
:1011400000093D00002800F0A08070B50D4604465F
:10115000524B1B6803F007038B420BD24F4A1368B4
:1011600023F007030B431360136803F007038B425C
:1011700040F08D80236813F0020F17D013F0040F96
:1011800004D0474A536843F4E0635360236813F084
:10119000080F04D0424A536843F460535360404AF6
:1011A000536823F0F003A1680B435360236813F0E6
:1011B000010F31D06368012B20D0022B25D0384A93
:1011C000126812F0020F64D035494A6822F0030217
:1011D00013434B60FFF754FD0646314B5B6803F049
:1011E0000C036268B3EB820F16D0FFF749FD801B3A
:1011F00041F288339842F0D9032045E0284A12682A
:1012000012F4003FE0D101203EE0254A126812F0BE
:10121000007FD9D1012037E0204B1B6803F0070382
:10122000AB420AD91D4A136823F007032B4313600E
:10123000136803F00703AB422DD1236813F0040FAA
:1012400006D0174A536823F4E063E1680B43536008
:10125000236813F0080F07D0114A536823F4605332
:10126000216943EAC1035360FFF742FF0C4B5B68FF
:10127000C3F303130B4AD35CD8400B4B18600B4BE2
:101280001868FFF7B9FC002070BD012070470120ED
:10129000FAE70120F8E70120F6E700BF002002404E
:1012A00000100240CC50000838000020340000201C
:1012B000014B1868704700BF3800002008B5FFF7E1
:1012C000F7FF044B5B68C3F30223034AD35CD840A7
:1012D00008BD00BF00100240DC50000808B5FFF751
:1012E000E7FF044B5B68C3F3C223034AD35CD840D7
:1012F00008BD00BF00100240DC50000870B582B08D
:101300000446036813F0010F36D03F4BDB6913F03E
:10131000805F49D13C4BDA6942F08052DA61DB6987
:1013200003F080530193019B0125384B1B6813F494
:10133000807F3BD0344B1B6A13F4407313D0626838
:1013400002F440729A420ED02F4A136A23F440707E
:101350002F490126C1F840640026C1F8406410629C
:1013600013F0010F36D1284A136A23F440736168E1
:101370000B431362002D3ED1236813F0020F06D0F9
:10138000214A536823F44043A1680B435360236808
:1013900013F0100F34D01C4A536823F48003E16823
:1013A0000B43536000202CE00025BEE7174A13686A
:1013B00043F480731360FFF763FC0646134B1B680E
:1013C00013F4807FB6D1FFF75BFC801B6428F5D94E
:1013D000032016E0FFF754FC06460B4B1B6A13F084
:1013E000020FC0D1FFF74CFC801B41F288339842BA
:1013F000F3D9032005E0D36923F08053D361BBE721
:10140000002002B070BD00BF00100240007000401C
:101410000000424270B582B00024A446A6E0804D90
:10142000AB4210D007D97F4DAB420CD005F58035CB
:10143000AB4208D013E0A5F58015AB4203D005F50B
:101440007025AB4207D18B68002B58D0012B51D0AF
:101450004261082403E0A5F58015AB42F3D0BEF14C
:10146000FF0F4ED80646BEF1FF0F4CD84FEA8C0254
:1014700033680F25954023EA050304FA02F213436B
:1014800033604B6813F0805F6ED0674B9A6942F00F
:1014900001029A619B6903F001030193019B4FEAEA
:1014A0009C02951C614B53F825600CF00305AD00C0
:1014B0000F23AB4026EA03065D4B984229D003F583
:1014C0008063984200F08E8003F58063984200F0BC
:1014D0008B8003F58063984219D004231AE0CC680E
:1014E000BDE7CC680434BAE7CC680834B7E7CC6809
:1014F0000C34B4E702610824B1E70024AFE7042408
:10150000ADE7061DAFE7ACF108029200B0E7032398
:1015100000E00023AB4033430232444D45F8223013
:101520004B6813F4801F61D0424A936843EA0E036C
:1015300093604B6813F4001F5ED03E4AD36843EAC1
:101540000E03D3604B6813F4003F5BD0394A5368F5
:1015500043EA0E0353604B6813F4803F58D0354A7A
:10156000136843EA0E0313600CF1010C0B6833FAA5
:101570000CF253D0012202FA0CF203EA020E32EA14
:101580000303F1D14B68122B3FF649AF122B3FF604
:1015900066AF01A555F823F047140008DF140008D2
:1015A000E9140008FB1400085F1400085F14000829
:1015B0005F1400085F1400085F1400085F1400083F
:1015C0005F1400085F1400085F1400085F1400082F
:1015D0005F1400085F1400085F140008E31400089B
:1015E000EF140008012395E7022393E7114A93685B
:1015F00023EA0E0393609CE70E4AD36823EA0E03A6
:10160000D3609FE70B4A536823EA0E035360A2E7B7
:10161000084A136823EA0E031360A5E702B070BD01
:1016200000002210000031100010024000000140B4
:1016300000080140000401400AB10161704709043B
:101640000161704730B40124056CAC40C56B6C601F
:10165000046863604368102B05D0036899600368D1
:10166000DA6030BC704703689A600368D960F8E7B5
:1016700060B310B402460168154B0B441548A0FB3B
:1016800003031B099B001364134BD363022382F8EB
:101690002130086820F47F5020F0300053689468AF
:1016A0002343D4682343146923435469234394692F
:1016B0002343D469234303430B6000209063012339
:1016C00082F8213082F8200010BC7047012070475A
:1016D000F8FFFDBFCDCCCCCC0000024038B50446AD
:1016E00090F82000012832D0012084F8200094F8DE
:1016F0002100C0B2012804D0002384F82030022049
:1017000038BD022084F821000020A06325682868E5
:1017100020F0010028602046FFF794FFE36A5BB1E8
:101720002268136843F00E0313602268136843F0C5
:10173000010313600020E3E72268136823F0040329
:1017400013602268136843F00A031360EDE7022078
:10175000D6E7000038B5C36B1A6804682568016CC9
:1017600004238B40134235D015F0040F32D0236888
:1017700013F0200F03D1236823F0040323600368D0
:10178000434A934214D01432934218D014329342F5
:1017900017D01432934217D01432934217D0143218
:1017A000934202D04FF0806203E04FF4800200E0E9
:1017B0000422384B5A60C36A03B1984738BD4022AF
:1017C000F7E74FF48062F4E74FF48042F1E74FF41B
:1017D0008022EEE702238B4013423CD015F0020F2B
:1017E00039D0236813F0200F06D1236823F00A03B1
:1017F0002360012380F821300368254A934214D0E6
:10180000143293421CD0143293421BD014329342B0
:101810001BD0143293421BD01432934202D04FF0AB
:10182000007203E04FF4001200E00222194B5A60EC
:10183000002380F82030836A002BBFD09847BDE793
:101840002022F3E74FF40072F0E74FF40052EDE787
:101850004FF40032EAE708238B401342AED015F074
:10186000080FABD0236823F00E032360026CC16B1A
:10187000012303FA02F24A60836380F821300023D7
:1018800080F82030036B002B98D0984796E700BF74
:101890000800024000000240074AD36823F4E063D6
:1018A0001B041B0C000200F4E060034343F0BF6321
:1018B00043F40033D360704700ED00E000B5194BEE
:1018C000DB68C3F30223C3F1070CBCF1040F28BF8C
:1018D0004FF0040C03F1040EBEF1060F18D9033BC0
:1018E0004FF0FF3E0EFA0CFC21EA0C0199400EFA73
:1018F00003FE22EA0E020A4300280BDB1201D2B2D9
:1019000000F1604000F5614080F800235DF804FBC1
:101910000023E5E700F00F001201D2B2024B1A5487
:10192000F4E700BF00ED00E014ED00E0002807DB65
:1019300000F01F02400901239340024A42F8203080
:10194000704700BF00E100E00138B0F1807F0BD2AA
:101950004FF0E0235861054AF02182F8231000205F
:10196000986107221A6170470120704700ED00E07E
:10197000704700F1080343604FF0FF328260C3609C
:1019800003610023036070470023036170474368CD
:101990004B609A688A6051609960086103680133FE
:1019A0000360704730B40D68B5F1FF3F11D000F10E
:1019B00008031C465B681A68AA42FAD963684B6040
:1019C00099608C606160086103680133036030BC1A
:1019D00070470469F2E70369416882688A60416878
:1019E00051605A68824206D0002202611A68013AA8
:1019F0001A601868704782685A60F5E70346406AC3
:101A000018B11B6B1868C0F10700704710B5044689
:101A100001F088FBA26BE36B9A4204D0002401F032
:101A2000A3FB204610BD0124F9E710B5044601F0E0
:101A300079FBA36B23B9012401F096FB204610BD6E
:101A40000024F9E770B504461546866B026C5AB956
:101A500003681BB100200136A66370BD806801F0E9
:101A600073F80023A360F6E76DB9406802F01AFE30
:101A7000226C636813446360A268934219D323689D
:101A800063602846E7E7C06802F00CFE226C514212
:101A9000E3689B1AE3602268934202D2A3680B4476
:101AA000E360022D01D00020D5E726B1013E0020E1
:101AB000D1E72846CFE70020CDE708B50346026C02
:101AC00062B10846D9681144D960D3F808C06145AD
:101AD00001D31968D960D96802F0E4FD08BD38B5B2
:101AE000054601F01FFB95F8454064B201E0013C5A
:101AF00064B2002C0ADD6B6A43B105F1240000F0EA
:101B000023FF0028F3D000F0B3FFF0E7FF2385F8B0
:101B1000453001F029FB01F005FB95F8444064B223
:101B200001E0013C64B2002C0ADD2B6943B105F1F0
:101B3000100000F009FF0028F3D000F099FFF0E753
:101B4000FF2385F8443001F00FFB38BD38B5E0B114
:101B50000D46044601F0E6FA2368E26B216C01FBB6
:101B60000230A0600020A0636360013A02FB0133F1
:101B7000E360FF2384F8443084F84530FDB92369DD
:101B800063B901F0F1FA012038BD4FF0500383F33F
:101B90001188BFF36F8FBFF34F8FFEE704F1100082
:101BA00000F0D2FE0028ECD04FF0E0234FF080523E
:101BB000C3F8042DBFF34F8FBFF36F8FE1E704F13C
:101BC0001000FFF7D6FE04F12400FFF7D2FED8E79D
:101BD00010B5034602980C4631B90060C363046433
:101BE0000121FFF7B3FF10BD0260F7E740B94FF0E6
:101BF000500383F31188BFF36F8FBFF34F8FFEE75E
:101C000010B584B01C46844653B192B189B94FF0E7
:101C1000500383F31188BFF36F8FBFF34F8FFEE73D
:101C20004FF0500383F31188BFF36F8FBFF34F8FD3
:101C3000FEE76AB148230393039B482B13D04FF070
:101C4000500383F31188BFF36F8FBFF34F8FFEE70D
:101C50000029EFD04FF0500383F31188BFF36F8F4B
:101C6000BFF34F8FFEE7039B012384F846300094B7
:101C70009DF818306046FFF7ABFF204604B010BD5A
:101C800040B94FF0500383F31188BFF36F8FBFF358
:101C90004F8FFEE7F0B583B00D461446064601FBB4
:101CA00000F0483001F028F9074650B1002380F8D1
:101CB00046300090234600F1480229463046FFF79F
:101CC00087FF384603B0F0BDF0B585B0019288B10A
:101CD0000F461D460446B1B1022D20D1E36B012B06
:101CE0001DD04FF0500383F31188BFF36F8FBFF304
:101CF0004F8FFEE74FF0500383F31188BFF36F8FD0
:101D0000BFF34F8FFEE7036C002BE5D04FF050037D
:101D100083F31188BFF36F8FBFF34F8FFEE700F09F
:101D2000ADFE064658B9019B002B48D04FF050033A
:101D300083F31188BFF36F8FBFF34F8FFEE7002649
:101D40003DE02A4639462046FFF77CFE636A7BB9B0
:101D500048B14FF0E0234FF08052C3F8042DBFF399
:101D60004F8FBFF36F8F01F0FFF9012005B0F0BD79
:101D700004F1240000F0E8FD0028F4D04FF0E02347
:101D80004FF08052C3F8042DBFF34F8FBFF36F8F16
:101D9000E9E701F0E9F90020E8E702A800F01AFEFF
:101DA000012619E0002384F8443021E0002384F860
:101DB000453023E02046FFF792FE00F0BFFC01F023
:101DC000B1F9A26BE36B9A42BBD3022DB9D0019B50
:101DD000002BDED0002EE0D001F0C6F900F01AFC96
:101DE00001F0A0F994F8442052B2B2F1FF3FD9D0EB
:101DF00094F8452052B2B2F1FF3FD7D001F0B4F9C8
:101E000001A902A800F0F2FDD8B92046FFF7FEFDB7
:101E10000028CFD0019904F1100000F07DFD20468C
:101E2000FFF75DFE00F08AFC0028C8D14FF0E023E8
:101E30004FF08052C3F8042DBFF34F8FBFF36F8F65
:101E4000BDE72046FFF74BFE00F078FC00208DE751
:101E500048B108B5002181600160C1600B460A46A7
:101E6000FFF732FF08BD704710B502460021012080
:101E7000FFF706FF0446FFF7EBFF204610BD10B545
:101E800082B00B460090002211460120FFF7AEFE03
:101E90000446FFF7DDFF204602B010BD68B170B503
:101EA0000C460546036C8BB14FF0500383F3118849
:101EB000BFF36F8FBFF34F8FFEE74FF0500383F3F5
:101EC0001188BFF36F8FBFF34F8FFEE70368EBB14D
:101ED00001F012FAEFF311864FF0500383F31188EB
:101EE000BFF36F8FBFF34F8FAA6BEB6B934226D973
:101EF00095F845305BB20132AA63B3F1FF3F11D0D0
:101F000001335BB285F84530012019E08368002B6E
:101F1000DED04FF0500383F31188BFF36F8FBFF310
:101F20004F8FFEE76B6A0BB9012009E005F1240031
:101F300000F00AFD38B144B10120206000E000202B
:101F400086F3118870BD0120FAE70120F8E770B52B
:101F500084B0019158B10446036C8BB14FF050032B
:101F600083F31188BFF36F8FBFF34F8FFEE74FF0FE
:101F7000500383F31188BFF36F8FBFF34F8FFEE7DA
:101F800000F07CFD054650B9019B5BB14FF050035A
:101F900083F31188BFF36F8FBFF34F8FFEE70026E7
:101FA000354655E0064653E0013BA36323683BB149
:101FB00023694BB901F0D8F80126304604B070BD52
:101FC00000F074FEA060F3E704F1100000F0BCFC28
:101FD0000028EFD04FF0E0234FF08052C3F8042DDB
:101FE000BFF34F8FBFF36F8FE4E746B14FF050035D
:101FF00083F31188BFF36F8FBFF34F8FFEE701F0BC
:10200000B3F8DAE702A800F0E5FC01252AE0002396
:1020100084F8443032E0002384F8453034E001F0A5
:1020200081F8A06800F03AFD064601F09DF83BE01B
:102030002046FFF754FD00F081FB09E02046FFF742
:102040004EFD00F07BFB2046FFF7EFFC002842D15D
:1020500001F068F8A36B002BA6D1019B002BC4D024
:10206000002DCFD001F080F800F0D4FA01F05AF83A
:1020700094F844305BB2B3F1FF3FC8D094F84530D8
:102080005BB2B3F1FF3FC6D001F06EF801A902A820
:1020900000F0ACFC0028D1D12046FFF7C6FC002898
:1020A000C6D02368002BBAD0019904F1240000F0B7
:1020B00033FC2046FFF713FD00F040FB0028C7D19A
:1020C0004FF0E0234FF08052C3F8042DBFF34F8F41
:1020D000BFF36F8FBCE70EB900266EE701F022F860
:1020E0002046FFF78BFC0146A06800F085FD01F05B
:1020F0003BF8F1E72DE9F843B0B10D4690460446B0
:10210000D9B101F0F9F8EFF311874FF0500383F3E1
:102110001188BFF36F8FBFF34F8FA66BCEB900202E
:1021200087F31188BDE8F8834FF0500383F31188DB
:10213000BFF36F8FBFF34F8FFEE7036C002BE0D030
:102140004FF0500383F31188BFF36F8FBFF34F8FAE
:10215000FEE794F844904FFA89F929462046FFF7A4
:10216000ACFC731EA363B9F1FF3F06D009F1010374
:102170005BB284F844300120D2E723690BB9012017
:10218000CEE704F1100000F0DFFB30B1B8F1000F32
:1021900005D00120C8F80000C2E70120C0E70120F7
:1021A000BEE70000084B1B681B6823B9074B4FF0C4
:1021B000FF321A607047044B1B68DB68DB685A68A3
:1021C000024B1A60704700BF6406002038070020E9
:1021D0002DE9F04707469846089DDDF824900A9CB3
:1021E000266B02F18042013A06EB820626F00706D2
:1021F000C1B308464FF0000CBCF10F0F09D810F81E
:102200000C2004EB0C0383F8342012B10CF1010C08
:10221000F2E7002384F84330062D00D90625E56255
:1022200065644FF0000AC4F848A0201DFFF7ACFB1E
:1022300004F11800FFF7A8FB2461C5F10705A561AB
:102240006462C4F84CA084F850A042463946304637
:1022500000F03EFF2060B9F1000F01D0C9F8004046
:10226000BDE8F087002384F83430D5E738B5002482
:1022700007E004EB840293000E481844FFF779FB53
:102280000134062CF5D90C4D2846FFF772FB0B4C98
:102290002046FFF76EFB0A48FFF76BFB0948FFF784
:1022A00068FB0948FFF765FB084B1D60084B1C6085
:1022B00038BD00BF6C0600200C070020200700205E
:1022C00044070020700700205C07002064060020FF
:1022D0006806002010B5044600F024FF214A136868
:1022E00001331360204B1B685BB1204B1B686BB93B
:1022F0001D4B1B68DA6AE36A9A4207D81A4B1C60C6
:1023000004E0194B1C601368012B28D0184A13688D
:1023100001331360E06A01238340164A11680B43BE
:10232000136000EB8000211D134B03EB8000FFF7CF
:102330002EFB00F019FF0D4B1B687BB10A4B1B688D
:10234000DA6AE36A9A4209D24FF0E0234FF08052F2
:10235000C3F8042DBFF34F8FBFF36F8F10BDFFF78E
:1023600085FFD3E7F806002060060020580700200C
:1023700004070020080700206C06002010B5044662
:1023800090F8513063B1012B11D0022B0ED04FF0D9
:10239000500383F31188BFF36F8FBFF34F8FFEE7B6
:1023A000006B00F027FE204600F024FE10BD00F078
:1023B00021FEFBE70F4B1B68D3B110B500F0B2FE56
:1023C0000D4BDB68DC68201DFFF705FB0B4A13682B
:1023D000013B1360074A1368013B136000F0C4FE21
:1023E0002046FFF7CBFF034B1B68002BE6D110BD47
:1023F000704700BFFC06002070070020F806002090
:1024000008B5FFF7D7FF074B1B68012BF9D94FF031
:10241000E0234FF08052C3F8042DBFF34F8FBFF37A
:102420006F8FEEE76C06002070B504460D461D4B1D
:102430001E681D4B18680430FFF7CDFA48B91A4BD7
:102440001B68DB6A01229A4018490B6823EA0203E1
:102450000B60B4F1FF3F0DD03444134B1B685C603C
:10246000A64210D9124B18680F4B19680431FFF7B8
:1024700099FA70BD002DEFD00B4B196804310D484F
:10248000FFF785FAF5E70C4B1868074B196804311C
:10249000FFF788FA094B1B68A342EAD9074B1C6077
:1024A000E7E700BF8407002060060020080700203F
:1024B000680600205C070020640600203807002022
:1024C00030B587B00B9C7CB10C9DB5B154250495FB
:1024D000049D542D1AD04FF0500383F31188BFF39D
:1024E0006F8FBFF34F8FFEE74FF0500383F31188D8
:1024F000BFF36F8FBFF34F8FFEE74FF0500383F3AF
:102500001188BFF36F8FBFF34F8FFEE7049D0C9DC3
:102510002C63022485F8514000240394029505ACF5
:1025200001940A9C0094FFF753FE0C98FFF7D2FE2B
:10253000059807B030BD2DE9F04385B007468846C1
:1025400014461E46900000F0D7FC00B3814654208C
:1025500000F0D2FC0546B0B1C0F83090E5B10023E0
:1025600085F85130039302950D9B01930C9B0093CA
:102570003346224641463846FFF72AFE2846FFF7F3
:10258000A9FE012005E0484600F034FDE6E74FF0E3
:10259000FF3005B0BDE8F0834FF0FF30F9E70000F1
:1025A00010B588B000240594069407AA06A905A8CA
:1025B000FEF718FA059B0293069B019300942346AD
:1025C000079A0E490E48FFF77BFF0E4B186090B13B
:1025D0004FF0500383F31188BFF36F8FBFF34F8F1A
:1025E000094B4FF0FF321A60084B01221A60084B6A
:1025F0001C6000F021FE08B010BD00BFE4500008D0
:102600000124000834070020380700205807002064
:1026100084070020024A136801331360704700BF2B
:1026200000070020F8B53A4B1B68002B69D1394BE5
:102630001D6801351D60C5B9374B1B681B6843B168
:102640004FF0500383F31188BFF36F8FBFF34F8FA9
:10265000FEE7314A1168314B186810601960304A42
:10266000136801331360FFF79DFD2E4B1B68AB42CF
:102670003DD900272C4B1B68DB6A03EB83039A00D0
:102680002A4B9B58012B00D90127294B1B68002B93
:102690003CD001273AE001271F4B1B681B6843B35E
:1026A0001D4B1B68DB68DC6863689D4226D3261DD2
:1026B0003046FFF790F9A36A1BB104F11800FFF749
:1026C0008AF9E36A01229A401A49086802430A60BB
:1026D00003EB83039A00314614481044FFF757F97F
:1026E000E26A114B1B68DB6A9A42D4D2D4E7002716
:1026F000D2E70C4B4FF0FF321A60BBE7094A136078
:10270000B8E70D4A13680133136000273846F8BD57
:1027100000070020840700206406002068060020CF
:102720003C07002038070020600600206C060020CF
:1027300088070020080700204007002038B5354BE7
:102740001B6843B94FF0500383F31188BFF36F8FB9
:10275000BFF34F8FFEE700F0E5FC2E4B1A68013AFD
:102760001A601B68002B4FD12B4B1B680BB9002440
:102770004BE00024294B1B681BB3284BDB68DC684B
:1027800004F11800FFF727F9251D2846FFF723F964
:10279000E06A01238340224A11680B43136000EB77
:1027A000800029461F4B03EB8000FFF7F0F8E26A38
:1027B0001D4B1B68DB6A9A42DCD31C4B01221A605A
:1027C000D8E70CB1FFF7EEFC194B1C6884B9174B26
:1027D0001C68D4B14FF0E0234FF08052C3F8042DB1
:1027E000BFF34F8FBFF36F8F01240EE0013C07D082
:1027F000FFF718FF0028F9D00C4B01221A60F5E70B
:102800000B4B00221A60E2E7002400F0ADFC2046EA
:1028100038BD00BF00070020F80600204407002054
:10282000080700206C0600206006002088070020B2
:102830004007002010B5A8B10446104B1B6843B1F7
:102840004FF0500383F31188BFF36F8FBFF34F8FA7
:10285000FEE7FFF7DFFE00212046FFF7E5FDFFF76B
:102860006DFF48B94FF0E0234FF08052C3F8042DBC
:10287000BFF34F8FBFF36F8F10BD00BF0007002065
:10288000204B1B681BB1204B01221A6070471E4B66
:1028900000221A601D4B1B68B3FA83F3DBB2C3F14D
:1028A0001F0303EB83018A0019498A5842B94FF08C
:1028B000500383F31188BFF36F8FBFF34F8FFEE791
:1028C000134903EB830082000A445068406850605B
:1028D00003EB830C4FEA8C0208321144884209D082
:1028E00003EB83039A000A4B13445B68DA68094BD5
:1028F0001A607047406862469100054A0A44506079
:10290000EEE700BF0007002088070020080700202E
:102910006C0600206006002058B110B50C46094A2C
:1029200011681831FFF73EF801212046FFF77CFDC2
:1029300010BD4FF0500383F31188BFF36F8FBFF3C7
:102940004F8FFEE76006002038B5C368DC6824B30B
:1029500004F118052846FFF73EF8184B1B682BBBFF
:10296000251D2846FFF737F8E06A01238340144A03
:1029700011680B43136000EB80002946114B03EBF9
:102980008000FFF704F8E26A0F4B1B68DB6A9A428B
:1029900011D901200D4B186038BD4FF0500383F35F
:1029A0001188BFF36F8FBFF34F8FFEE729460848AA
:1029B000FEF7EDFFE7E70020EEE700BF000700208D
:1029C000080700206C060020600600208807002011
:1029D00044070020034B1B680360034B1B684360E4
:1029E000704700BF3C07002084070020D8B170B5B5
:1029F0000C46054601B300F095FB1B4B19686B684C
:102A0000C81A2268B2F1FF3F27D0184E3668D5F8B1
:102A100000C0B44501D08B4224D9824215D800238E
:102A2000236001241AE04FF0500383F31188BFF3B1
:102A30006F8FBFF34F8FFEE74FF0500383F3118882
:102A4000BFF36F8FBFF34F8FFEE75B1A1344236012
:102A50002846FFF7BFFF002400E0002400F084FBBD
:102A6000204670BD0124F9E7840700203C070020C0
:102A7000014B01221A60704788070020054B1B6834
:102A800033B1054B1B680BB1002070470220704723
:102A9000012070475807002000070020002848D078
:102AA00038B50446C36A254A1268D26A934238D2BE
:102AB0008269002A05DB214A1268D26AC2F1070244
:102AC0008261616903EB83031D4A02EB8303994230
:102AD00005D01A4B1B68DB6AE362012038BD251D57
:102AE0002846FEF778FF38B9E36A01229A40154973
:102AF0000B6823EA02030B60104B1B68D86AE06284
:102B0000012404FA00F30F4A11680B43136000EB31
:102B1000800029460A4B03EB8000FEF738FF204671
:102B2000DCE7426C054B1B68DB6A9A4203D300204A
:102B3000D4E7002070470120D0E700BF60060020E6
:102B40006C0600200807002000284BD038B504464A
:102B5000264B1B68834208D04FF0500383F3118843
:102B6000BFF36F8FBFF34F8FFEE7836C43B94FF016
:102B7000500383F31188BFF36F8FBFF34F8FFEE7CE
:102B8000013B8364C16A426C91422DD00BB100209D
:102B900038BD051D2846FEF71EFF68B9E36A03EB42
:102BA0008302920012498A5832B901229A4011498F
:102BB0000B6823EA02030B60606CE062C0F107035C
:102BC000A361012404FA00F30A4A11680B4313605D
:102BD00000EB80002946064B03EB8000FEF7D7FE92
:102BE0002046D5E7002070470020D1E7600600208E
:102BF0006C0600200807002000284FD038B5044696
:102C0000836C43B94FF0500383F31188BFF36F8F88
:102C1000BFF34F8FFEE7426C8A4200D20A46E16A58
:102C2000914201D0012B00D038BD1D4B1B68A3423F
:102C30002BD0E262A369002B02DBC2F10702A26182
:102C4000626901EB8101174B03EB81039A42EBD1DF
:102C5000251D2846FEF7BFFE38B9E36A01229A40D7
:102C600011490B6823EA02030B60E06A01238340E9
:102C70000D4A11680B43136000EB80002946094B95
:102C800003EB8000FEF783FECEE74FF0500383F3A3
:102C90001188BFF36F8FBFF34F8FFEE7704700BF00
:102CA000600600206C06002008070020054B1B680A
:102CB00023B1044B1A68936C01339364014B186879
:102CC000704700BF60060020842801D003307047A1
:102CD00000207047EFF30580003818BF01207047CF
:102CE00008B5FFF75DFC002008BD2DE9F04387B073
:102CF0000E464469C4B18569B5B14768D0F8008013
:102D0000D0F81090B0F90800FFF7DEFF02950194AB
:102D1000009033464A4641463846FFF7D1FB0590BE
:102D2000059807B0BDE8F083446805680769B0F905
:102D30000800FFF7C9FF05AB019300903346BAB214
:102D400029462046FFF7F7FB0128E9D00020E8E7F5
:102D500008B500B90120FFF76DFD002008BD08B5DA
:102D6000416819B10120FFF78AF808BD0120FFF77B
:102D70007BF8FAE730B583B00023019310B30C461B
:102D80000546FFF7A7FFA0B101AA00212846FFF7DB
:102D9000B1F9012818D1019BC3B14FF0E0234FF0E6
:102DA0008052C3F8042DBFF34F8FBFF36F8F002005
:102DB00006E021462846FFF7CAF8012808D100207E
:102DC00003B030BD8020FBE7FF20F9E70020F7E7E4
:102DD000FF20F5E710B582B0044600230193FFF70A
:102DE00079FF98B101A92046FFF758F801281AD1B8
:102DF000019BD3B14FF0E0234FF08052C3F8042D74
:102E0000BFF34F8FBFF36F8F002008E000231A46F7
:102E100019462046FEF758FF012802D0FF2002B0D5
:102E200010BD0020FBE7FF20F9E70020F7E70000D6
:102E3000134A12F0070F1FD0D11D21F00701C1F571
:102E40006A53183313440A460E4802600021416059
:102E50001344083B23F007030B48036059601960D3
:102E6000991A51601360094B1960094B1960094B9D
:102E70004FF000421A60704743F69823E4E700BF22
:102E8000900700203C4200208C07002030420020A8
:102E90002C42002028420020154B1A461B68834212
:102EA000FBD3516802EB010C844509D0416800EB6B
:102EB000010C634509D00360904218D01060704740
:102EC0004068014451601046F0E710B4094C246892
:102ED000A3420AD05B681944416013681B68036011
:102EE000904200D0106010BC70470460F8E7704753
:102EF0003C4200208C07002070B50546FFF78AFB96
:102F0000364B1B68A3B1364B1B681D424ED135B101
:102F1000083515F0070F02D025F007050835002DFC
:102F200046D0304B1B68AB4251D32F4A146804E0A3
:102F3000FFF77EFFE7E722461C466368AB4202D2FA
:102F40002368002BF7D1254B1B68A34241D016689C
:102F500008362368136063685B1B102B10D9601957
:102F600010F0070F08D04FF0500383F31188BFF320
:102F70006F8FBFF34F8FFEE743606560FFF78CFFF5
:102F8000626818490B689B1A0B60184909688B42E4
:102F900001D216490B60124B1B6813436360002378
:102FA0002360134A13680133136002E0002600E037
:102FB0000026FFF7C3FB16F0070F0CD04FF05003AD
:102FC00083F31188BFF36F8FBFF34F8FFEE70026A7
:102FD000EFE70026EDE7304670BD00BF8C0700200C
:102FE000284200202C4200203C4200203042002099
:102FF00034420020002834D038B50446A0F108053A
:1030000050F8043C174A1268134208D14FF050039D
:1030100083F31188BFF36F8FBFF34F8FFEE750F834
:10302000081C41B14FF0500383F31188BFF36F8F39
:10303000BFF34F8FFEE723EA020340F8043CFFF79B
:10304000E9FA54F8041C084A13680B441360284634
:10305000FFF722FF054A136801331360FFF76EFB89
:1030600038BD7047284200202C4200203842002002
:1030700082B0002301930D4B1B68B3F1FF3F08D0D2
:103080004FF0500383F31188BFF36F8FBFF34F8F5F
:10309000FEE74FF0500383F31188BFF36F8FBFF348
:1030A0004F8F019B002BFCD002B070473C000020EA
:1030B00006480068006880F3088862B661B6BFF30E
:1030C0004F8FBFF36F8F00DF00BF000008ED00E0FF
:1030D0004FF0807340F8043C21F0010140F8081CD7
:1030E000034B40F80C3C40F8202C4038704700BFA0
:1030F0007130000800000000000000000000000027
:10310000074B19680868B0E8F00F80F30988BFF32F
:103110006F8F4FF0000080F311884EF00D0E704756
:10312000600600204FF0500383F31188BFF36F8FC8
:10313000BFF34F8F0B4A136801331360012B00D08C
:1031400070474FF0E023D3F8043D13F0FF0FF7D0A2
:103150004FF0500383F31188BFF36F8FBFF34F8F8E
:10316000FEE700BF3C000020094B1B6843B94FF04D
:10317000500383F31188BFF36F8FBFF34F8FFEE7C8
:10318000013B034A13600BB983F31188704700BFFA
:103190003C000020000000000000000000000000D3
:1031A000EFF30980BFF36F8F0D4B1A6820E9F00F22
:1031B00010602DE908404FF0500080F31188FFF7B0
:1031C0005FFB4FF0000080F31188BDE808401968EC
:1031D0000868B0E8F00F80F30988BFF36F8F70477D
:1031E0006006002008B54FF0500383F31188BFF349
:1031F0006F8FBFF34F8FFFF715FA28B14FF0E02321
:103200004FF08052C3F8042D002383F3118808BDCA
:103210004FF0E022002313619361054B1B680549C1
:10322000A1FB03139B09013B536107231361704703
:1032300038000020D34D621010B582B02A4B1A78A6
:10324000D2B20192FF221A701B78DBB28DF80330E4
:103250009DF8033003F05003244A1370244B0722D7
:103260001A6009E0224A1368013B13609DF803309D
:103270005B00DBB28DF803309DF8033013F0800F54
:10328000F0D11B4B1B68032B08D04FF0500383F386
:103290001188BFF36F8FBFF34F8FFEE71B02144AF5
:1032A000136003F4E0631360019BDBB20E4A1370FA
:1032B0004FF0E023D3F8202D42F47002C3F8202D04
:1032C000D3F8202D42F07042C3F8202DFFF7A0FF65
:1032D0000024084B1C60FFF7EBFEFFF7D1FAFFF765
:1032E000C7FE204602B010BD00E400E044420020CA
:1032F000484200203C000020EFF305830F2B0FD93C
:10330000114A9B5CDBB2114A12789A4208D94FF0FD
:10331000500383F31188BFF36F8FBFF34F8FFEE726
:103320004FF0E023D3F80C3D03F4E063084A126841
:10333000934208D94FF0500383F31188BFF36F8F86
:10334000BFF34F8FFEE77047F0E300E044420020F8
:103350004842002003685A6912F4806F01D10020AE
:1033600070476FF480625A6100230363202280F863
:103370003D2080F83E30026C42F00402026480F886
:103380003C30012070472DE9F04106460C461746B7
:1033900098463BE0FDF774FC069BC01A404502D8F6
:1033A000B8F1000F32D1012D18D033689B6924EA9F
:1033B00003039BB2B3FA83F35B099F4226D1002338
:1033C0003363202286F83D2086F83E30326C42F08E
:1033D0002002326486F83C30012027E033685B69C4
:1033E00024EA03039BB2B3FA83F35B09E5E733688E
:1033F0005B6924EA030C1FFA8CFCBCFA8CFC4FEAD4
:103400005C1C674511D1B8F1FF3FC3D1C4F3074538
:10341000012DECD033689B6924EA030C1FFA8CFC65
:10342000BCFA8CFC4FEA5C1CEBE70020BDE8F081A5
:103430002DE9F84305460E469046994653E01A6832
:1034400042F400721A602B686FF480625A610023A4
:103450002B63202285F83D2085F83E302A6C42F00F
:1034600004022A6485F83C3001204AE0FDF708FC9C
:10347000A0EB0900404502D8B8F1000F33D1012F6D
:1034800017D02B689B6926EA03039BB2003B18BF49
:10349000012343B300232B63202285F83D2085F8C8
:1034A0003E302A6C42F020022A6485F83C3001202C
:1034B00027E02B685B6926EA03039BB2003B18BF39
:1034C0000123E6E72B689C6926EA0404A4B2003CC9
:1034D00018BF0124A4B12B685A6912F4806FAED1D1
:1034E000B8F1FF3FC2D1C6F30747012FEAD12B68DD
:1034F0005C6926EA0404A4B2003C18BF0124E9E791
:103500000020BDE8F8830000F0B583B004460D4606
:1035100016461F46C36A082B0DD0012B0BD013F59E
:10352000803F08D0036B122B0AD10268136843F462
:103530008073136004E02268136843F4807313609F
:103540000097334600224FF001112046FFF71BFF82
:1035500080B92369B3F5804F16D1236805F0FE05C5
:103560001D613B46324613492046FFF761FFF8B91B
:1035700003B0F0BD23681B6813F4807F02D04FF4C2
:10358000007323640320F3E7EB11226803F00603C2
:1035900043F0F00313613B46324607492046FFF7EC
:1035A00047FF18B92368EDB21D61DAE70120DFE7B4
:1035B0000120DDE702000100080001002DE9F041D3
:1035C00084B004460D4616461F46C26A01680B6861
:1035D00043F480630B60082A0DD0012A0BD012F54A
:1035E000803F08D0036B112B0AD10268136843F4A3
:1035F0008073136004E02268136843F480731360DF
:103600000097334600224FF001112046FFF7BBFE22
:1036100098B92369B3F5804F19D1236845F00105A6
:10362000EDB21D613B4632462A492046FFF700FFB6
:1036300000284CD104B0BDE8F08123681B6813F466
:10364000807F02D04FF4007323640320F2E74FEA37
:10365000E51808F00608236848F0F0021A613B46B6
:1036600032461D492046FFF7E3FE08B10120E1E79D
:103670002368EDB21D613B46324616492046FFF7EE
:10368000D7FE08B10120D5E70022039223685969CB
:103690000391996903910399196841F48071196044
:1036A000009733464FF001112046FFF76CFE20B91A
:1036B000226848F0F1031361B4E723681B6813F430
:1036C000807F02D04FF4007323640320B2E701200F
:1036D000B0E700BF020001000800010070B5044619
:1036E0000D46164623685B6913F0800F21D12046F2
:1036F000FFF730FEF8B9B5F1FF3FF3D0FDF7C0FAA0
:10370000801BA84201D8002DECD123685B6913F01F
:10371000800FE7D100232363202284F83D2084F822
:103720003E30226C42F02002226484F83C300120BA
:1037300000E0002070BD0120FCE770B504460D4696
:10374000164623685B6913F0040F21D12046FFF76A
:1037500001FEF8B9B5F1FF3FF3D0FDF791FA801BF8
:10376000A84201D8002DECD123685B6913F0040F47
:10377000E7D100232363202284F83D2084F83E30E3
:10378000226C42F02002226484F83C30012000E0E8
:10379000002070BD0120FCE770B504460D461646BA
:1037A00014E06FF010025A6100232363202284F892
:1037B0003D2084F83E30226C226484F83C300120A5
:1037C00025E023685B6913F0400F10D02368586927
:1037D00010F0400F1AD1586910F0100FE1D1FDF729
:1037E0004FFA801BA842ECD8002DEFD1E9E7002367
:1037F0002363202284F83D2084F83E30226C42F07E
:103800002002226484F83C30012000E0002070BDDA
:10381000002800F0CC8070B5044690F83D30002BB5
:1038200077D0242384F83D302268136823F0010305
:1038300013602268136843F400431360226813681E
:1038400023F400431360FDF739FD62685A4B9A4236
:1038500064D85A4B98428CBF00230123002B40F0C0
:10386000A8805749A1FB00318B0C25686A6822F0BB
:103870003F0242EA91426A6021680A6A22F03F02EE
:1038800066684D4DAE424FD8013313430B62216839
:10389000CA6922F44F4222F0FF026568464B9D42FE
:1038A0004CD8431E6D00B3FBF5F3013340F6FC70BA
:1038B000034278D0C3F30B031A43CA6121680B6833
:1038C00023F0C003E269206A024313430B602168BE
:1038D0008B6823F4034323F0FF032269E06802436B
:1038E00013438B602168CB6823F0FF036269A069F2
:1038F00002431343CB602268136843F00103136053
:1039000000202064202384F83D30206384F83E00AA
:1039100070BD80F83C30FDF703F982E7294B9842EF
:103920008CBF0023012399E74FF4967505FB03F341
:10393000254DA5FB03539B090133A6E7A668BEB935
:10394000431E05EB450CB3FBFCF30133C3F30B0340
:10395000B3FA83F35B0943BBC6B9431E05EB4505C8
:10396000B3FBF5F30133C3F30B0343F40043A3E7C5
:10397000431E05EB850C0CEB8C0CB3FBFCF3013305
:10398000C3F30B03B3FA83F35B09E4E7431E05EBD0
:10399000850505EB8505B3FBF5F30133C3F30B0395
:1039A00043F4404388E7042386E7012384E70120AA
:1039B00070470120ACE700BFA08601007F841E0095
:1039C00083DE1B43FF083D00D34D62102DE9F04319
:1039D00085B004460F46914698460C9EFDF750F977
:1039E000054694F83D00C0B2202804D0022738468E
:1039F00005B0BDE8F0830095192301224F49204608
:103A0000FFF7C1FC002840F0928094F83C30012B75
:103A100000F08F80012384F83C3023681A6812F08C
:103A2000010F03D11A6842F001021A60226813687C
:103A300023F400631360212384F83D30102384F8BD
:103A40003E3000232364C4F82490A4F82A80638DB8
:103A500023853B4BE3622B46324639462046FFF72F
:103A600053FD0746002866D10023039323685A6953
:103A700003929B690393039B11E0236C042B01D0F9
:103A80000127B4E72268136843F400731360F7E773
:103A90002A4631462046FFF750FE00282ED1238DBE
:103AA000002B36D02A4631462046FFF717FE002865
:103AB000E3D1626A236812781A61606A431C636208
:103AC000618D89B2013989B26185238D013B9BB239
:103AD00023852268516911F0040FD9D0002BD7D06B
:103AE00043781361636A01336362638D9BB2013B68
:103AF0009BB26385238D013B2385C9E7236C042B8F
:103B000001D0012773E72268136843F40073136040
:103B1000F7E72268136843F400731360202384F8E6
:103B20003D30002384F83E3084F83C305FE70227C4
:103B30005DE702275BE7012759E700BF020010009D
:103B40000000FFFF2DE9F04389B004460F4691467F
:103B50009846109E00230793FDF792F8054694F8C7
:103B60003D00C0B2202804D00227384609B0BDE885
:103B7000F08300951923012280492046FFF703FCBA
:103B8000002840F07A8194F83C30012B00F07781D6
:103B9000012384F83C3023681A6812F0010F03D126
:103BA0001A6842F001021A602268136823F4006365
:103BB0001360222384F83D30102384F83E30002324
:103BC0002364C4F82490A4F82A80638D23856C4B69
:103BD000E3622B46324639462046FFF7EFFC0746A4
:103BE000002840F04E81238D5BB9039323685A6906
:103BF00003929A690392039A1A6842F400721A6057
:103C0000F3E0012B0FD0022B21D02268136843F47C
:103C1000806313600023069323685A6906929B69A8
:103C20000693069BE1E02268136823F48063136027
:103C300072B60023049323685A6904929A69049225
:103C4000049A1A6842F400721A6062B6CDE02268E3
:103C5000136843F40063136072B60023059323686E
:103C60005A6905929A690592059A1A6822F4806247
:103C70001A6062B6B9E02A4631462046FFF78CFD4D
:103C8000002840F0008123681A69636A1A70636A29
:103C900001336362238D013B2385638D9BB2013B1E
:103CA0009BB26385A1E0009533460022354920464A
:103CB000FFF769FB002840F0EA802268136823F4CC
:103CC0008063136072B623681A69636A1A70636A44
:103CD00001336362238D013B2385638D9BB2013BDE
:103CE0009BB26385284B1B68DB08284AA2FB032391
:103CF0001B0A03EB8303C3EBC30307930799013943
:103D000007910799002928D023685A6912F0040FF7
:103D1000F4D01A6842F400721A6023681A69636A60
:103D20001A70636A01336362238D013B2385638DBF
:103D30009BB2013B9BB2638562B623681A69636AD2
:103D40001A70636A01336362238D013B2385638D9F
:103D50009BB2013B9BB2638547E000232363202293
:103D600084F83D2084F83E30226C42F02002226428
:103D700062B684F83C300127F7E600BF020010006D
:103D80000000FFFF040001003800002089B5F8148E
:103D90002A4631462046FFF7FFFC002879D12368E8
:103DA0001A69636A1A70636A01336362228D013A89
:103DB00092B22285638D9BB2013B9BB263852368DF
:103DC000596911F0040F10D0032A48D023681A69EA
:103DD000636A1A70636A01336362238D013B238532
:103DE000638D9BB2013B9BB26385218D00293BD043
:103DF0000329CDD801293FF43EAF02297FF453AF08
:103E000000953346002224492046FFF7BCFA0028DB
:103E10003BD172B62268136843F4007313602368C1
:103E20001A69636A1A70636A01336362238D013B06
:103E30002385638D9BB2013B9BB2638562B6236889
:103E40001A69636A1A70636A01336362238D013BE6
:103E50002385638D9BB2013B9BB26385C5E71A68DE
:103E600022F480621A60B1E7202384F83D300023F9
:103E700084F83E3084F83C3077E6022775E6022766
:103E800073E6012771E601276FE601276DE601273A
:103E90006BE6012769E600BF04000100026802F139
:103EA0000C0353E8003F23F490730C3242E80031D6
:103EB0000029F3D1026802F1140353E8003F23F014
:103EC0000103143242E800310029F3D1036B012BC6
:103ED00005D0202380F84230002303637047026836
:103EE00002F10C0353E8003F23F010030C3242E8C8
:103EF00000310029F3D1ECE710B5044602681369DC
:103F000023F44053C1680B43136183680269134370
:103F100042691A430168CB6823F4B05323F00C03C1
:103F20001343CB600268536923F4407381690B43E8
:103F300053610268134B9A4220D0FDF7BFF9024645
:103F400002EB820202EB820263689B00B2FBF3F297
:103F50000D48A0FB02314909642303FB11231B0117
:103F60003233A0FB03035B0903F0F00202EB011202
:103F700003F00F03216813448B6010BDFDF7AEF909
:103F80000246DDE7003801401F85EB512DE9F04383
:103F900083B005460E4617469946DDF828802B6803
:103FA0001C6836EA04040CBF01240024BC4228D15A
:103FB000B8F1FF3FF3D0FCF763FEA0EB09004045EA
:103FC00023D8B8F1000F22D02B68DA6812F0040F62
:103FD000E5D0802EE3D0402EE1D01A6812F0080F11
:103FE000DDD0002401941A6801925B680193019B63
:103FF0002846FFF753FF08236B6485F840400120F3
:1040000000E0002003B0BDE8F0830320FAE70320BE
:10401000F8E760B310B5044690F8413013B3242399
:1040200084F841302268D36823F40053D3602046DB
:10403000FFF762FF2268136923F49043136122683B
:10404000536923F02A0353612268D36843F4005371
:10405000D36000206064202384F8413084F842302B
:10406000606310BD80F84030FCF78CFDD7E701207D
:1040700070472DE9F04182B01E4690F84130DBB226
:10408000202B56D104460D469046002955D00AB93A
:1040900001204FE000234364212380F84130FCF7E6
:1040A000EFFD0746A4F82480A4F82680A368B3F5A2
:1040B000805F02D04FF0000814E023692BB34FF06B
:1040C00000080FE0202384F84130032032E038F864
:1040D000023B2268C3F308035360E28C92B2013AB8
:1040E00092B2E284E38C9BB293B100963B460022ED
:1040F00080212046FFF74AFF0028E3D1002DE6D0BB
:1041000015F8012B23685A60E7E7A8460025E9E780
:1041100000963B46002240212046FFF737FF18B9A2
:10412000202384F8413005E0202384F84130032027
:1041300000E0022002B0BDE8F0810120FAE708B5F6
:10414000436A9A6A12F0500F1ED19A6A42F40072C2
:104150009A621A68926802F46022B2F5602F03D066
:104160001846FCF7E1FA08BD1A7B002AF8D19A6AD2
:1041700022F480729A629A6A12F4805FF0D19A6A8D
:1041800042F001029A62EBE71B6A1B6B9847EAE771
:10419000704708B5406AFFF7FBFF08BD704708B5D8
:1041A000406A836A43F040038362C36A43F00403B6
:1041B000C362FFF7F3FF08BD30B482B00022019262
:1041C00090F82420012A00F08F800346012280F815
:1041D00024204A68062A2DD80468606B02EB82020C
:1041E000053A4FF01F0C0CFA02FC20EA0C000D6897
:1041F00005FA02F2024362630A68092A38D91C6888
:10420000E06802EB42021E3A4FF0070C0CFA02FC87
:1042100020EA0C008D6805FA02F20243E2600A68A7
:10422000103A012A34D90020002283F8242002B059
:1042300030BC70470C2A0DD80568286B02EB82024F
:10424000233A1F24944020EA04000C689440204341
:104250002863D1E70568E86A02EB8202413A1F242D
:10426000944020EA04000C6894402043E862C3E7CD
:104270001C68206902EB42024FF0070C0CFA02FCAA
:1042800020EA0C008D6805FA02F202432261C6E7BB
:104290001A681648824205D09A6A42F020029A6251
:1042A0000120C1E7906810F4000F1BD1906840F422
:1042B000000090600A68102A01D00020B4E70C4A80
:1042C00012680C49A1FB0212920C02EB820252000E
:1042D000019202E0019A013A0192019A002AF9D171
:1042E0000020A1E700209FE70220A0E70024014072
:1042F0003800002083DE1B4330B583B000230193D8
:1043000003689A6812F0010F33D104469A6842F0AC
:1043100001029A60184B1B68184AA2FB03239B0CEE
:10432000019302E0019B013B0193019B002BF9D11A
:10433000FCF7A6FC054623689B6813F0010F16D115
:10434000FCF79EFC431B022BF5D923689B6813F0F6
:10435000010FF0D1A36A43F01003A362E36A43F0B4
:104360000103E362002384F82430012002E00020EE
:1043700000E0002003B030BD3800002083DE1B4386
:10438000F8B504460D46164601684448814259D0A6
:10439000434B994256D094F82430012B7CD0012312
:1043A00084F824302046FFF7A7FF074600286ED187
:1043B000A16A21F4706121F0010141F48071A162D0
:1043C0002268374B9A4244D0A36A23F48013A36235
:1043D000536813F4806F05D0A36A23F4405343F469
:1043E0008053A362A36A13F4805F48D0E36A23F08A
:1043F0000603E362002384F82430236A294A9A6280
:10440000236A294ADA62236A284A1A6323686FF00A
:1044100002021A602268936843F4807393602168F3
:1044200033462A464C31206AFDF758F923689A68CA
:1044300002F46022B2F5602F24D09A6842F4801210
:104440009A6027E0154B5B6813F4702FA3D0012707
:1044500020E0A3F580635B6813F4702FB4D0A36AE7
:1044600043F48013A3620D4B5B6813F4806FB9D0E3
:10447000A36A23F4405343F48053A362B2E70023BA
:10448000E362B7E79A6842F4A0029A6002E0002370
:1044900084F824303846F8BD0227FBE700240140A9
:1044A000002801403F410008934100089F41000857
:1044B00038B503689A6812F0010F01D1002038BDA9
:1044C00004469A6822F001029A60FCF7D9FB05467F
:1044D00023689B6813F0010F13D0FCF7D1FB431B3B
:1044E000022BF5D923689B6813F0010FF0D0A36A63
:1044F00043F01003A362E36A43F00103E362012087
:10450000DDE70020DBE7000000287BD070B5044623
:10451000836A002B4DD02046FFF7CAFFA36A13F031
:10452000100369D1002867D1A26A22F4885222F0D0
:10453000020242F00202A2626268E1690A43217B40
:1045400042EA4102A568B5F5807F02D0012D36D040
:104550001D46267D012E35D02668716821F46941FB
:10456000294371602568AE68274931401143A9602D
:10457000A168B1F5807F01D0012902D12369013BF7
:104580001B052568E96A21F470010B43EB6223687F
:1045900099681E4B0B409A4225D0A36A23F0120360
:1045A00043F01003A362E36A43F00103E3620120D6
:1045B00027E0C36280F82430FCF764FAABE74FF4DD
:1045C0008075C6E731B9A169013945EA413141F445
:1045D0000065C1E7A16A41F02001A162E16A41F0F2
:1045E0000101E162B8E70023E362A36A23F0030359
:1045F00043F00103A36204E0A36A43F01003A36243
:10460000012070BD01207047FDF7E1FFFE0E1FFF86
:10461000FDF7AEF90B480C490C4A002302E0D458D0
:10462000C4500433C4188C42F9D3094A094C0023FE
:1046300001E013600432A242FBD300F00FF8FCF754
:104640003FF9704700000020A4000020245100081A
:10465000A40000205C420020FEE7000070B50026A8
:104660000C4D0D4C641BA410A64209D100F098FC1F
:1046700000260A4D0A4C641BA410A64205D170BD49
:1046800055F8043B98470136EEE755F8043B984748
:104690000136F2E71C5100081C5100081C510008AB
:1046A000205100080A44914200F1FF3300D17047C5
:1046B00010B511F8014B914203F8014FF9D110BD2B
:1046C00003460244934200D1704703F8011BF9E707
:1046D0000EB46FF0004100B59CB01DAB0290069087
:1046E000079104910848094953F8042B0591006883
:1046F00002A9019300F066F80022029B1A701CB018
:104700005DF804EB03B07047400000200802FFFF93
:104710002DE9F0471F468E688246BE420C46904601
:104720000B682CD88A8912F4906F26D065690969C4
:1047300005EB4505A3EB010905EBD5757B1C4B4447
:104740006D109D4238BF1D46530527D5294600F000
:104750005BFB064660B34A462169FFF7A3FFA389C6
:1047600023F4906343F08003A38126614E442660C6
:104770003E466561A5EB0905A560BE4200D93E46EF
:1047800032464146206800F0BDFA0020A3689B1B1A
:10479000A360236833442360BDE8F0872A4600F015
:1047A000A7FB06460028E0D15046216900F0C4FA74
:1047B0000C23CAF80030A3894FF0FF3043F04003C8
:1047C000A381E9E72DE9F04F98468B8907461B0640
:1047D0000D4614469DB00ED50B6963B9402100F01B
:1047E00013FB2860286120B90C233B604FF0FF3099
:1047F000D0E040236B610023099320238DF82930FA
:1048000030234FF00109CDF80C80DFF8A0818DF83E
:104810002A3023469A4613F8012B0AB1252AF9D1EA
:10482000BAEB040B0BD05B46224629463846FFF70D
:104830006FFF013000F0A980099A5A4409929AF852
:104840000030002B00F0A18000234FF0FF32CDE9B3
:1048500005230AF1010A049307938DF853301A9344
:104860005446052214F8011B504800F03DFA049A02
:10487000D8B9D00644BF20238DF85330110744BF68
:104880002B238DF853309AF800302A2B15D054463C
:1048900000204FF00A0C079A214611F8013B303BEB
:1048A000092B4DD9B0B1079214E0A0EB080309FA27
:1048B00003F31343A2460493D2E7039B191D1B681D
:1048C0000391002BBBBF5B4242F0020207930793A8
:1048D000B8BF049223782E2B0CD163782A2B34D1C5
:1048E000039B02341A1D1B680392002BB8BF4FF0C4
:1048F000FF330593DFF8B8A003225046217800F07B
:10490000F3F938B14022049BA0EB0A008240134324
:104910000134049314F8011B062226488DF8281050
:1049200000F0E2F9002838D0234B1BBB039B073370
:1049300023F0070308330393099B3344099368E783
:104940000C4601200CFB0232A6E700234FF00A0CB4
:10495000194601340593204610F8012B303A092AF4
:1049600003D9002BC6D00591C4E7044601230CFBF4
:104970000121F0E703AB00932A4638460F4B04A908
:10498000AFF30080421C0646D6D1AB895B063FF5EB
:104990002DAF09981DB0BDE8F08F03AB00932A46F8
:1049A0003846064B04A900F07DF8EBE7E950000813
:1049B000EF500008F3500008000000001147000805
:1049C0002DE9F047164699468A680B6907469342D7
:1049D000B8BF1346336091F843200C46DDF82080C1
:1049E0000AB1013333602368990642BF336802334A
:1049F0003360256815F0060506D104F1190AE3684D
:104A000032689B1AAB422BDC94F84320131E2268B9
:104A100018BF0123920630D44946384604F14302B8
:104A2000C047013023D02368226903F00603042B1A
:104A300014BF002533684FF0000608BFE56804F195
:104A40001A0408BFED1A54F8123C08BF25EAE575B0
:104A50009342C4BF9B1AED18B5421AD1002008E05A
:104A60000123524649463846C047013003D14FF032
:104A7000FF30BDE8F0870135C1E73020E11881F84B
:104A800043005A1C94F845102244023382F8431024
:104A9000C2E70123224649463846C0470130E6D0E6
:104AA0000136D9E72DE9FF470F7E9146782F8046E2
:104AB0000C469A460C9D01F1430207D8622F0AD892
:104AC000002F00F0D580582F00F0C18004F142057E
:104AD00084F842703AE0A7F16303152BF6D801A1E0
:104AE00051F823F03D4B0008514B0008CD4A000817
:104AF000CD4A0008CD4A0008CD4A0008514B0008B5
:104B0000CD4A0008CD4A0008CD4A0008CD4A000829
:104B1000574C00087D4B0008114C0008CD4A000896
:104B2000CD4A0008794C0008CD4A00087D4B0008AA
:104B3000CD4A0008CD4A0008194C00082B681A1D00
:104B40001B682A6004F1420584F842300123A0E08A
:104B500020682B68070603F10401296001D51E684F
:104B600003E04606FBD5B3F90060002E03DA2D23DF
:104B7000764284F843300A23594812E02B682068B3
:104B8000191D2960050601D51E6802E04106FBD506
:104B90001E886F2F0CBF08230A235148002184F878
:104BA00043106568002DA8BF2168A560A4BF21F04F
:104BB000040121600EB9002D4BD01546B6FBF3F170
:104BC00003FB1167C75D05F8017D3746BB420E4602
:104BD000F4D9082B0BD12368DE0708D52369616857
:104BE0009942DEBF302305F8013C05F1FF35521B29
:104BF00022614B4621464046CDF800A003AAFFF7AC
:104C0000DFFE01304AD14FF0FF3004B0BDE8F0873D
:104C1000236843F0200323607827324884F84570E6
:104C2000236829681F0651F8046B02D45F0648BF49
:104C3000B6B2DF0748BF43F02003296048BF2360B6
:104C40001EB9236823F0200323601023A6E724481D
:104C5000E4E71546BDE72B682668181D61692860E2
:104C600035061B6801D5196002E07006FBD5198076
:104C7000002315462361BCE72B6800211A1D2A601A
:104C80001D686268284600F02FF808B1401B60607C
:104C900063682361002384F84330AAE72A46494623
:104CA00040462369D0470130ADD023689B0713D419
:104CB000E068039B9842B8BF1846A6E70123324636
:104CC00049464046D04701309DD00135E3680399FD
:104CD0005B1AAB42F2DCEBE7002504F11906F5E7BD
:104CE000FA5000080B510008034610B5C9B202443F
:104CF0009342184601D1002003E0047801338C422E
:104D0000F6D110BD884210B501EB020402D98442ED
:104D1000234607D8431EA14208D011F8012B03F8FF
:104D2000012FF8E7014602448A4200D110BD13F872
:104D3000014D02F8014DF7E738B50546002940D08E
:104D400051F8043C0C1F002BB8BFE41800F010F918
:104D50001C4A136833B9636014602846BDE83840C4
:104D600000F007B9A34208D9206821188B4201BF7F
:104D700019685B6809182160EDE71A465B680BB19A
:104D8000A342FAD911685018A0420BD120680144FF
:104D9000501883421160E0D118685B6808441060C5
:104DA0005360DAE702D90C232B60D6E7206821187C
:104DB0008B4201BF19685B68091821606360546009
:104DC000CBE738BD4C42002070B50E4E0C46316822
:104DD000054611B900F0BCF830602146284600F0C5
:104DE000B7F8431C0AD0C41C24F00304A04207D027
:104DF000211A284600F0ACF8013001D14FF0FF3401
:104E0000204670BD504200202DE9F041CD1C25F018
:104E1000030508350C2D38BF0C25002D074601DB96
:104E2000A94205D90C2300263B603046BDE8F0813D
:104E30002E4E00F09DF833681C4634BB2946384698
:104E4000FFF7C2FF431C04464DD134682646002EAE
:104E500040D123683146384604EB030800F078F867
:104E600080453AD123680335ED1A25F0030508354E
:104E70000C2D38BF0C2538462946FFF7A5FF013019
:104E80002BD023682B4423600EE02268521B1ED4D3
:104E90000B2A16D96119A342256018BF59606368AF
:104EA00008BF316062514B60384604F10B0600F0D8
:104EB00060F826F00706231DF21AB6D09B1BA350FC
:104EC000B3E76268A3420CBF32605A60ECE7234646
:104ED0006468B2E734467668B9E70C2338463B602D
:104EE00000F047F8A1E72560DEE700BF4C42002054
:104EF0002DE9F041804614460E4621B91146BDE821
:104F0000F041FFF781BF2AB9FFF716FF2546284673
:104F1000BDE8F08100F02EF88442074602D8B4EBD9
:104F2000500F12D821464046FFF76EFF0546002875
:104F3000EDD0BC422246314628BF3A46FFF7B2FBCD
:104F400031464046FFF7F8FEE1E73546DFE700006F
:104F500038B50023054D044608462B6000F012F8D2
:104F6000431C02D12B6803B1236038BD544200209A
:104F70007047704751F8043C181F002BBCBF0B58FA
:104F8000C0187047044A05491368002B08BF0B4638
:104F900018441060184670475842002060420020B4
:104FA000F8B500BFF8BC08BC9E467047F8B500BF16
:084FB000F8BC08BC9E467047E6
:104FB80016000000B0500008F502000800000000CC
:104FC80000000000000100000000000000000000D8
:104FD800A8500008E10500080000000000000000DB
:104FE800000100000000000000000000A0500008C0
:104FF80091060008FEFF000000000000000100000C
:10500800000000000000000098500008AD010008F2
:10501800FDFF00000000000000010000000000008B
:105028000000000090500008B7010008FDFF0000D4
:105038000000000000010000000000000000000067
:1050480073656E736F723A20252E33662856290DC4
:105058000A00000073656E736F723A20252E32665F
:1050680028646F4329000000253032643A25303225
:10507800643A253032642D253032642F253032646D
:105088002F2564001C0A18005461736B303500002A
:105098005461736B303400005461736B303300001B
:1050A8005461736B303200005461736B303100000F
:1050B80002030405060708090A0B0C0D0E0F101051
:1050C80001020000000000000000000001020304CB
:1050D80006070809000000000102030449444C4582
:1050E80000232D302B2000686C4C00656667454610
:1050F800470030313233343536373839414243444A
:1051080045460030313233343536373839616263D9
:045118006465660064
:04511C0089010008FD
:045120006101000821
:105124000010002000400080000100020004001074
:10513400000C0140000C0140000C0140000C014037
:105144000008014000080140000801400008014037
:10515400010000001000000000127A00AAAAAAAA06
:1051640044000020000000000000000000000000D7
:10517400000000000000000000000000000000002B
:10518400000000000000000000000000000000001B
:10519400000000000000000000000000000000000B
:1051A40000000000000000000000000000000000FB
:1051B40000000000000000000000000000000000EB
:0451C40000000000E7
:040000050800461198
:00000001FF
